Archive member included to satisfy reference by file (symbol)

/opt/homebrew/Cellar/arm-none-eabi-gcc/10.3-2021.07/gcc/bin/../lib/gcc/arm-none-eabi/10.3.1/../../../../arm-none-eabi/lib/thumb/v7-m/nofp/libg.a(lib_a-errno.o)
                              CMakeFiles/Proj32.elf.dir/Core/Src/syscalls.c.obj (__errno)
/opt/homebrew/Cellar/arm-none-eabi-gcc/10.3-2021.07/gcc/bin/../lib/gcc/arm-none-eabi/10.3.1/../../../../arm-none-eabi/lib/thumb/v7-m/nofp/libg.a(lib_a-exit.o)
                              /opt/homebrew/Cellar/arm-none-eabi-gcc/10.3-2021.07/gcc/bin/../lib/gcc/arm-none-eabi/10.3.1/../../../../arm-none-eabi/lib/thumb/v7-m/nofp/crt0.o (exit)
/opt/homebrew/Cellar/arm-none-eabi-gcc/10.3-2021.07/gcc/bin/../lib/gcc/arm-none-eabi/10.3.1/../../../../arm-none-eabi/lib/thumb/v7-m/nofp/libg.a(lib_a-impure.o)
                              /opt/homebrew/Cellar/arm-none-eabi-gcc/10.3-2021.07/gcc/bin/../lib/gcc/arm-none-eabi/10.3.1/../../../../arm-none-eabi/lib/thumb/v7-m/nofp/libg.a(lib_a-exit.o) (_global_impure_ptr)
/opt/homebrew/Cellar/arm-none-eabi-gcc/10.3-2021.07/gcc/bin/../lib/gcc/arm-none-eabi/10.3.1/../../../../arm-none-eabi/lib/thumb/v7-m/nofp/libg.a(lib_a-init.o)
                              /opt/homebrew/Cellar/arm-none-eabi-gcc/10.3-2021.07/gcc/bin/../lib/gcc/arm-none-eabi/10.3.1/../../../../arm-none-eabi/lib/thumb/v7-m/nofp/crt0.o (__libc_init_array)
/opt/homebrew/Cellar/arm-none-eabi-gcc/10.3-2021.07/gcc/bin/../lib/gcc/arm-none-eabi/10.3.1/../../../../arm-none-eabi/lib/thumb/v7-m/nofp/libg.a(lib_a-memset.o)
                              /opt/homebrew/Cellar/arm-none-eabi-gcc/10.3-2021.07/gcc/bin/../lib/gcc/arm-none-eabi/10.3.1/../../../../arm-none-eabi/lib/thumb/v7-m/nofp/crt0.o (memset)
/opt/homebrew/Cellar/arm-none-eabi-gcc/10.3-2021.07/gcc/bin/../lib/gcc/arm-none-eabi/10.3.1/../../../../arm-none-eabi/lib/thumb/v7-m/nofp/libg.a(lib_a-printf.o)
                              CMakeFiles/Proj32.elf.dir/Core/Src/main.c.obj (printf)
/opt/homebrew/Cellar/arm-none-eabi-gcc/10.3-2021.07/gcc/bin/../lib/gcc/arm-none-eabi/10.3.1/../../../../arm-none-eabi/lib/thumb/v7-m/nofp/libg.a(lib_a-puts.o)
                              CMakeFiles/Proj32.elf.dir/Core/Src/main.c.obj (puts)
/opt/homebrew/Cellar/arm-none-eabi-gcc/10.3-2021.07/gcc/bin/../lib/gcc/arm-none-eabi/10.3.1/../../../../arm-none-eabi/lib/thumb/v7-m/nofp/libg.a(lib_a-rand.o)
                              CMakeFiles/Proj32.elf.dir/Core/Src/main.c.obj (rand)
/opt/homebrew/Cellar/arm-none-eabi-gcc/10.3-2021.07/gcc/bin/../lib/gcc/arm-none-eabi/10.3.1/../../../../arm-none-eabi/lib/thumb/v7-m/nofp/libg.a(lib_a-strlen-stub.o)
                              /opt/homebrew/Cellar/arm-none-eabi-gcc/10.3-2021.07/gcc/bin/../lib/gcc/arm-none-eabi/10.3.1/../../../../arm-none-eabi/lib/thumb/v7-m/nofp/libg.a(lib_a-puts.o) (strlen)
/opt/homebrew/Cellar/arm-none-eabi-gcc/10.3-2021.07/gcc/bin/../lib/gcc/arm-none-eabi/10.3.1/../../../../arm-none-eabi/lib/thumb/v7-m/nofp/libg.a(lib_a-vfprintf.o)
                              /opt/homebrew/Cellar/arm-none-eabi-gcc/10.3-2021.07/gcc/bin/../lib/gcc/arm-none-eabi/10.3.1/../../../../arm-none-eabi/lib/thumb/v7-m/nofp/libg.a(lib_a-printf.o) (_vfprintf_r)
/opt/homebrew/Cellar/arm-none-eabi-gcc/10.3-2021.07/gcc/bin/../lib/gcc/arm-none-eabi/10.3.1/../../../../arm-none-eabi/lib/thumb/v7-m/nofp/libg.a(lib_a-wsetup.o)
                              /opt/homebrew/Cellar/arm-none-eabi-gcc/10.3-2021.07/gcc/bin/../lib/gcc/arm-none-eabi/10.3.1/../../../../arm-none-eabi/lib/thumb/v7-m/nofp/libg.a(lib_a-vfprintf.o) (__swsetup_r)
/opt/homebrew/Cellar/arm-none-eabi-gcc/10.3-2021.07/gcc/bin/../lib/gcc/arm-none-eabi/10.3.1/../../../../arm-none-eabi/lib/thumb/v7-m/nofp/libg.a(lib_a-__call_atexit.o)
                              /opt/homebrew/Cellar/arm-none-eabi-gcc/10.3-2021.07/gcc/bin/../lib/gcc/arm-none-eabi/10.3.1/../../../../arm-none-eabi/lib/thumb/v7-m/nofp/libg.a(lib_a-exit.o) (__call_exitprocs)
/opt/homebrew/Cellar/arm-none-eabi-gcc/10.3-2021.07/gcc/bin/../lib/gcc/arm-none-eabi/10.3.1/../../../../arm-none-eabi/lib/thumb/v7-m/nofp/libg.a(lib_a-atexit.o)
                              /opt/homebrew/Cellar/arm-none-eabi-gcc/10.3-2021.07/gcc/bin/../lib/gcc/arm-none-eabi/10.3.1/../../../../arm-none-eabi/lib/thumb/v7-m/nofp/libg.a(lib_a-__call_atexit.o) (atexit)
/opt/homebrew/Cellar/arm-none-eabi-gcc/10.3-2021.07/gcc/bin/../lib/gcc/arm-none-eabi/10.3.1/../../../../arm-none-eabi/lib/thumb/v7-m/nofp/libg.a(lib_a-dtoa.o)
                              /opt/homebrew/Cellar/arm-none-eabi-gcc/10.3-2021.07/gcc/bin/../lib/gcc/arm-none-eabi/10.3.1/../../../../arm-none-eabi/lib/thumb/v7-m/nofp/libg.a(lib_a-vfprintf.o) (_dtoa_r)
/opt/homebrew/Cellar/arm-none-eabi-gcc/10.3-2021.07/gcc/bin/../lib/gcc/arm-none-eabi/10.3.1/../../../../arm-none-eabi/lib/thumb/v7-m/nofp/libg.a(lib_a-fflush.o)
                              /opt/homebrew/Cellar/arm-none-eabi-gcc/10.3-2021.07/gcc/bin/../lib/gcc/arm-none-eabi/10.3.1/../../../../arm-none-eabi/lib/thumb/v7-m/nofp/libg.a(lib_a-vfprintf.o) (_fflush_r)
/opt/homebrew/Cellar/arm-none-eabi-gcc/10.3-2021.07/gcc/bin/../lib/gcc/arm-none-eabi/10.3.1/../../../../arm-none-eabi/lib/thumb/v7-m/nofp/libg.a(lib_a-findfp.o)
                              /opt/homebrew/Cellar/arm-none-eabi-gcc/10.3-2021.07/gcc/bin/../lib/gcc/arm-none-eabi/10.3.1/../../../../arm-none-eabi/lib/thumb/v7-m/nofp/libg.a(lib_a-puts.o) (__sinit)
/opt/homebrew/Cellar/arm-none-eabi-gcc/10.3-2021.07/gcc/bin/../lib/gcc/arm-none-eabi/10.3.1/../../../../arm-none-eabi/lib/thumb/v7-m/nofp/libg.a(lib_a-fini.o)
                              /opt/homebrew/Cellar/arm-none-eabi-gcc/10.3-2021.07/gcc/bin/../lib/gcc/arm-none-eabi/10.3.1/../../../../arm-none-eabi/lib/thumb/v7-m/nofp/libg.a(lib_a-__call_atexit.o) (__libc_fini_array)
/opt/homebrew/Cellar/arm-none-eabi-gcc/10.3-2021.07/gcc/bin/../lib/gcc/arm-none-eabi/10.3.1/../../../../arm-none-eabi/lib/thumb/v7-m/nofp/libg.a(lib_a-freer.o)
                              /opt/homebrew/Cellar/arm-none-eabi-gcc/10.3-2021.07/gcc/bin/../lib/gcc/arm-none-eabi/10.3.1/../../../../arm-none-eabi/lib/thumb/v7-m/nofp/libg.a(lib_a-vfprintf.o) (_free_r)
/opt/homebrew/Cellar/arm-none-eabi-gcc/10.3-2021.07/gcc/bin/../lib/gcc/arm-none-eabi/10.3.1/../../../../arm-none-eabi/lib/thumb/v7-m/nofp/libg.a(lib_a-fvwrite.o)
                              /opt/homebrew/Cellar/arm-none-eabi-gcc/10.3-2021.07/gcc/bin/../lib/gcc/arm-none-eabi/10.3.1/../../../../arm-none-eabi/lib/thumb/v7-m/nofp/libg.a(lib_a-puts.o) (__sfvwrite_r)
/opt/homebrew/Cellar/arm-none-eabi-gcc/10.3-2021.07/gcc/bin/../lib/gcc/arm-none-eabi/10.3.1/../../../../arm-none-eabi/lib/thumb/v7-m/nofp/libg.a(lib_a-fwalk.o)
                              /opt/homebrew/Cellar/arm-none-eabi-gcc/10.3-2021.07/gcc/bin/../lib/gcc/arm-none-eabi/10.3.1/../../../../arm-none-eabi/lib/thumb/v7-m/nofp/libg.a(lib_a-findfp.o) (_fwalk)
/opt/homebrew/Cellar/arm-none-eabi-gcc/10.3-2021.07/gcc/bin/../lib/gcc/arm-none-eabi/10.3.1/../../../../arm-none-eabi/lib/thumb/v7-m/nofp/libg.a(lib_a-localeconv.o)
                              /opt/homebrew/Cellar/arm-none-eabi-gcc/10.3-2021.07/gcc/bin/../lib/gcc/arm-none-eabi/10.3.1/../../../../arm-none-eabi/lib/thumb/v7-m/nofp/libg.a(lib_a-vfprintf.o) (_localeconv_r)
/opt/homebrew/Cellar/arm-none-eabi-gcc/10.3-2021.07/gcc/bin/../lib/gcc/arm-none-eabi/10.3.1/../../../../arm-none-eabi/lib/thumb/v7-m/nofp/libg.a(lib_a-lock.o)
                              /opt/homebrew/Cellar/arm-none-eabi-gcc/10.3-2021.07/gcc/bin/../lib/gcc/arm-none-eabi/10.3.1/../../../../arm-none-eabi/lib/thumb/v7-m/nofp/libg.a(lib_a-vfprintf.o) (__retarget_lock_init_recursive)
/opt/homebrew/Cellar/arm-none-eabi-gcc/10.3-2021.07/gcc/bin/../lib/gcc/arm-none-eabi/10.3.1/../../../../arm-none-eabi/lib/thumb/v7-m/nofp/libg.a(lib_a-makebuf.o)
                              /opt/homebrew/Cellar/arm-none-eabi-gcc/10.3-2021.07/gcc/bin/../lib/gcc/arm-none-eabi/10.3.1/../../../../arm-none-eabi/lib/thumb/v7-m/nofp/libg.a(lib_a-wsetup.o) (__smakebuf_r)
/opt/homebrew/Cellar/arm-none-eabi-gcc/10.3-2021.07/gcc/bin/../lib/gcc/arm-none-eabi/10.3.1/../../../../arm-none-eabi/lib/thumb/v7-m/nofp/libg.a(lib_a-mallocr.o)
                              /opt/homebrew/Cellar/arm-none-eabi-gcc/10.3-2021.07/gcc/bin/../lib/gcc/arm-none-eabi/10.3.1/../../../../arm-none-eabi/lib/thumb/v7-m/nofp/libg.a(lib_a-vfprintf.o) (_malloc_r)
/opt/homebrew/Cellar/arm-none-eabi-gcc/10.3-2021.07/gcc/bin/../lib/gcc/arm-none-eabi/10.3.1/../../../../arm-none-eabi/lib/thumb/v7-m/nofp/libg.a(lib_a-memchr-stub.o)
                              /opt/homebrew/Cellar/arm-none-eabi-gcc/10.3-2021.07/gcc/bin/../lib/gcc/arm-none-eabi/10.3.1/../../../../arm-none-eabi/lib/thumb/v7-m/nofp/libg.a(lib_a-vfprintf.o) (memchr)
/opt/homebrew/Cellar/arm-none-eabi-gcc/10.3-2021.07/gcc/bin/../lib/gcc/arm-none-eabi/10.3.1/../../../../arm-none-eabi/lib/thumb/v7-m/nofp/libg.a(lib_a-memcpy.o)
                              /opt/homebrew/Cellar/arm-none-eabi-gcc/10.3-2021.07/gcc/bin/../lib/gcc/arm-none-eabi/10.3.1/../../../../arm-none-eabi/lib/thumb/v7-m/nofp/libg.a(lib_a-dtoa.o) (memcpy)
/opt/homebrew/Cellar/arm-none-eabi-gcc/10.3-2021.07/gcc/bin/../lib/gcc/arm-none-eabi/10.3.1/../../../../arm-none-eabi/lib/thumb/v7-m/nofp/libg.a(lib_a-memmove.o)
                              /opt/homebrew/Cellar/arm-none-eabi-gcc/10.3-2021.07/gcc/bin/../lib/gcc/arm-none-eabi/10.3.1/../../../../arm-none-eabi/lib/thumb/v7-m/nofp/libg.a(lib_a-fvwrite.o) (memmove)
/opt/homebrew/Cellar/arm-none-eabi-gcc/10.3-2021.07/gcc/bin/../lib/gcc/arm-none-eabi/10.3.1/../../../../arm-none-eabi/lib/thumb/v7-m/nofp/libg.a(lib_a-mlock.o)
                              /opt/homebrew/Cellar/arm-none-eabi-gcc/10.3-2021.07/gcc/bin/../lib/gcc/arm-none-eabi/10.3.1/../../../../arm-none-eabi/lib/thumb/v7-m/nofp/libg.a(lib_a-freer.o) (__malloc_lock)
/opt/homebrew/Cellar/arm-none-eabi-gcc/10.3-2021.07/gcc/bin/../lib/gcc/arm-none-eabi/10.3.1/../../../../arm-none-eabi/lib/thumb/v7-m/nofp/libg.a(lib_a-mprec.o)
                              /opt/homebrew/Cellar/arm-none-eabi-gcc/10.3-2021.07/gcc/bin/../lib/gcc/arm-none-eabi/10.3.1/../../../../arm-none-eabi/lib/thumb/v7-m/nofp/libg.a(lib_a-dtoa.o) (_Balloc)
/opt/homebrew/Cellar/arm-none-eabi-gcc/10.3-2021.07/gcc/bin/../lib/gcc/arm-none-eabi/10.3.1/../../../../arm-none-eabi/lib/thumb/v7-m/nofp/libg.a(lib_a-reallocr.o)
                              /opt/homebrew/Cellar/arm-none-eabi-gcc/10.3-2021.07/gcc/bin/../lib/gcc/arm-none-eabi/10.3.1/../../../../arm-none-eabi/lib/thumb/v7-m/nofp/libg.a(lib_a-fvwrite.o) (_realloc_r)
/opt/homebrew/Cellar/arm-none-eabi-gcc/10.3-2021.07/gcc/bin/../lib/gcc/arm-none-eabi/10.3.1/../../../../arm-none-eabi/lib/thumb/v7-m/nofp/libg.a(lib_a-s_frexp.o)
                              /opt/homebrew/Cellar/arm-none-eabi-gcc/10.3-2021.07/gcc/bin/../lib/gcc/arm-none-eabi/10.3.1/../../../../arm-none-eabi/lib/thumb/v7-m/nofp/libg.a(lib_a-vfprintf.o) (frexp)
/opt/homebrew/Cellar/arm-none-eabi-gcc/10.3-2021.07/gcc/bin/../lib/gcc/arm-none-eabi/10.3.1/../../../../arm-none-eabi/lib/thumb/v7-m/nofp/libg.a(lib_a-sbrkr.o)
                              /opt/homebrew/Cellar/arm-none-eabi-gcc/10.3-2021.07/gcc/bin/../lib/gcc/arm-none-eabi/10.3.1/../../../../arm-none-eabi/lib/thumb/v7-m/nofp/libg.a(lib_a-freer.o) (_sbrk_r)
/opt/homebrew/Cellar/arm-none-eabi-gcc/10.3-2021.07/gcc/bin/../lib/gcc/arm-none-eabi/10.3.1/../../../../arm-none-eabi/lib/thumb/v7-m/nofp/libg.a(lib_a-stdio.o)
                              /opt/homebrew/Cellar/arm-none-eabi-gcc/10.3-2021.07/gcc/bin/../lib/gcc/arm-none-eabi/10.3.1/../../../../arm-none-eabi/lib/thumb/v7-m/nofp/libg.a(lib_a-findfp.o) (__sread)
/opt/homebrew/Cellar/arm-none-eabi-gcc/10.3-2021.07/gcc/bin/../lib/gcc/arm-none-eabi/10.3.1/../../../../arm-none-eabi/lib/thumb/v7-m/nofp/libg.a(lib_a-strncpy.o)
                              /opt/homebrew/Cellar/arm-none-eabi-gcc/10.3-2021.07/gcc/bin/../lib/gcc/arm-none-eabi/10.3.1/../../../../arm-none-eabi/lib/thumb/v7-m/nofp/libg.a(lib_a-vfprintf.o) (strncpy)
/opt/homebrew/Cellar/arm-none-eabi-gcc/10.3-2021.07/gcc/bin/../lib/gcc/arm-none-eabi/10.3.1/../../../../arm-none-eabi/lib/thumb/v7-m/nofp/libg.a(lib_a-vfiprintf.o)
                              /opt/homebrew/Cellar/arm-none-eabi-gcc/10.3-2021.07/gcc/bin/../lib/gcc/arm-none-eabi/10.3.1/../../../../arm-none-eabi/lib/thumb/v7-m/nofp/libg.a(lib_a-vfprintf.o) (__sprint_r)
/opt/homebrew/Cellar/arm-none-eabi-gcc/10.3-2021.07/gcc/bin/../lib/gcc/arm-none-eabi/10.3.1/../../../../arm-none-eabi/lib/thumb/v7-m/nofp/libg.a(lib_a-writer.o)
                              /opt/homebrew/Cellar/arm-none-eabi-gcc/10.3-2021.07/gcc/bin/../lib/gcc/arm-none-eabi/10.3.1/../../../../arm-none-eabi/lib/thumb/v7-m/nofp/libg.a(lib_a-stdio.o) (_write_r)
/opt/homebrew/Cellar/arm-none-eabi-gcc/10.3-2021.07/gcc/bin/../lib/gcc/arm-none-eabi/10.3.1/../../../../arm-none-eabi/lib/thumb/v7-m/nofp/libg.a(lib_a-__atexit.o)
                              /opt/homebrew/Cellar/arm-none-eabi-gcc/10.3-2021.07/gcc/bin/../lib/gcc/arm-none-eabi/10.3.1/../../../../arm-none-eabi/lib/thumb/v7-m/nofp/libg.a(lib_a-atexit.o) (__register_exitproc)
/opt/homebrew/Cellar/arm-none-eabi-gcc/10.3-2021.07/gcc/bin/../lib/gcc/arm-none-eabi/10.3.1/../../../../arm-none-eabi/lib/thumb/v7-m/nofp/libg.a(lib_a-assert.o)
                              /opt/homebrew/Cellar/arm-none-eabi-gcc/10.3-2021.07/gcc/bin/../lib/gcc/arm-none-eabi/10.3.1/../../../../arm-none-eabi/lib/thumb/v7-m/nofp/libg.a(lib_a-dtoa.o) (__assert_func)
/opt/homebrew/Cellar/arm-none-eabi-gcc/10.3-2021.07/gcc/bin/../lib/gcc/arm-none-eabi/10.3.1/../../../../arm-none-eabi/lib/thumb/v7-m/nofp/libg.a(lib_a-callocr.o)
                              /opt/homebrew/Cellar/arm-none-eabi-gcc/10.3-2021.07/gcc/bin/../lib/gcc/arm-none-eabi/10.3.1/../../../../arm-none-eabi/lib/thumb/v7-m/nofp/libg.a(lib_a-mprec.o) (_calloc_r)
/opt/homebrew/Cellar/arm-none-eabi-gcc/10.3-2021.07/gcc/bin/../lib/gcc/arm-none-eabi/10.3.1/../../../../arm-none-eabi/lib/thumb/v7-m/nofp/libg.a(lib_a-closer.o)
                              /opt/homebrew/Cellar/arm-none-eabi-gcc/10.3-2021.07/gcc/bin/../lib/gcc/arm-none-eabi/10.3.1/../../../../arm-none-eabi/lib/thumb/v7-m/nofp/libg.a(lib_a-stdio.o) (_close_r)
/opt/homebrew/Cellar/arm-none-eabi-gcc/10.3-2021.07/gcc/bin/../lib/gcc/arm-none-eabi/10.3.1/../../../../arm-none-eabi/lib/thumb/v7-m/nofp/libg.a(lib_a-fclose.o)
                              /opt/homebrew/Cellar/arm-none-eabi-gcc/10.3-2021.07/gcc/bin/../lib/gcc/arm-none-eabi/10.3.1/../../../../arm-none-eabi/lib/thumb/v7-m/nofp/libg.a(lib_a-findfp.o) (_fclose_r)
/opt/homebrew/Cellar/arm-none-eabi-gcc/10.3-2021.07/gcc/bin/../lib/gcc/arm-none-eabi/10.3.1/../../../../arm-none-eabi/lib/thumb/v7-m/nofp/libg.a(lib_a-fiprintf.o)
                              /opt/homebrew/Cellar/arm-none-eabi-gcc/10.3-2021.07/gcc/bin/../lib/gcc/arm-none-eabi/10.3.1/../../../../arm-none-eabi/lib/thumb/v7-m/nofp/libg.a(lib_a-assert.o) (fiprintf)
/opt/homebrew/Cellar/arm-none-eabi-gcc/10.3-2021.07/gcc/bin/../lib/gcc/arm-none-eabi/10.3.1/../../../../arm-none-eabi/lib/thumb/v7-m/nofp/libg.a(lib_a-fputwc.o)
                              /opt/homebrew/Cellar/arm-none-eabi-gcc/10.3-2021.07/gcc/bin/../lib/gcc/arm-none-eabi/10.3.1/../../../../arm-none-eabi/lib/thumb/v7-m/nofp/libg.a(lib_a-vfiprintf.o) (_fputwc_r)
/opt/homebrew/Cellar/arm-none-eabi-gcc/10.3-2021.07/gcc/bin/../lib/gcc/arm-none-eabi/10.3.1/../../../../arm-none-eabi/lib/thumb/v7-m/nofp/libg.a(lib_a-fstatr.o)
                              /opt/homebrew/Cellar/arm-none-eabi-gcc/10.3-2021.07/gcc/bin/../lib/gcc/arm-none-eabi/10.3.1/../../../../arm-none-eabi/lib/thumb/v7-m/nofp/libg.a(lib_a-makebuf.o) (_fstat_r)
/opt/homebrew/Cellar/arm-none-eabi-gcc/10.3-2021.07/gcc/bin/../lib/gcc/arm-none-eabi/10.3.1/../../../../arm-none-eabi/lib/thumb/v7-m/nofp/libg.a(lib_a-isattyr.o)
                              /opt/homebrew/Cellar/arm-none-eabi-gcc/10.3-2021.07/gcc/bin/../lib/gcc/arm-none-eabi/10.3.1/../../../../arm-none-eabi/lib/thumb/v7-m/nofp/libg.a(lib_a-makebuf.o) (_isatty_r)
/opt/homebrew/Cellar/arm-none-eabi-gcc/10.3-2021.07/gcc/bin/../lib/gcc/arm-none-eabi/10.3.1/../../../../arm-none-eabi/lib/thumb/v7-m/nofp/libg.a(lib_a-locale.o)
                              /opt/homebrew/Cellar/arm-none-eabi-gcc/10.3-2021.07/gcc/bin/../lib/gcc/arm-none-eabi/10.3.1/../../../../arm-none-eabi/lib/thumb/v7-m/nofp/libg.a(lib_a-fputwc.o) (__locale_mb_cur_max)
/opt/homebrew/Cellar/arm-none-eabi-gcc/10.3-2021.07/gcc/bin/../lib/gcc/arm-none-eabi/10.3.1/../../../../arm-none-eabi/lib/thumb/v7-m/nofp/libg.a(lib_a-lseekr.o)
                              /opt/homebrew/Cellar/arm-none-eabi-gcc/10.3-2021.07/gcc/bin/../lib/gcc/arm-none-eabi/10.3.1/../../../../arm-none-eabi/lib/thumb/v7-m/nofp/libg.a(lib_a-stdio.o) (_lseek_r)
/opt/homebrew/Cellar/arm-none-eabi-gcc/10.3-2021.07/gcc/bin/../lib/gcc/arm-none-eabi/10.3.1/../../../../arm-none-eabi/lib/thumb/v7-m/nofp/libg.a(lib_a-mbtowc_r.o)
                              /opt/homebrew/Cellar/arm-none-eabi-gcc/10.3-2021.07/gcc/bin/../lib/gcc/arm-none-eabi/10.3.1/../../../../arm-none-eabi/lib/thumb/v7-m/nofp/libg.a(lib_a-locale.o) (__ascii_mbtowc)
/opt/homebrew/Cellar/arm-none-eabi-gcc/10.3-2021.07/gcc/bin/../lib/gcc/arm-none-eabi/10.3.1/../../../../arm-none-eabi/lib/thumb/v7-m/nofp/libg.a(lib_a-readr.o)
                              /opt/homebrew/Cellar/arm-none-eabi-gcc/10.3-2021.07/gcc/bin/../lib/gcc/arm-none-eabi/10.3.1/../../../../arm-none-eabi/lib/thumb/v7-m/nofp/libg.a(lib_a-stdio.o) (_read_r)
/opt/homebrew/Cellar/arm-none-eabi-gcc/10.3-2021.07/gcc/bin/../lib/gcc/arm-none-eabi/10.3.1/../../../../arm-none-eabi/lib/thumb/v7-m/nofp/libg.a(lib_a-reent.o)
                              /opt/homebrew/Cellar/arm-none-eabi-gcc/10.3-2021.07/gcc/bin/../lib/gcc/arm-none-eabi/10.3.1/../../../../arm-none-eabi/lib/thumb/v7-m/nofp/libg.a(lib_a-sbrkr.o) (errno)
/opt/homebrew/Cellar/arm-none-eabi-gcc/10.3-2021.07/gcc/bin/../lib/gcc/arm-none-eabi/10.3.1/../../../../arm-none-eabi/lib/thumb/v7-m/nofp/libg.a(lib_a-strcmp.o)
                              /opt/homebrew/Cellar/arm-none-eabi-gcc/10.3-2021.07/gcc/bin/../lib/gcc/arm-none-eabi/10.3.1/../../../../arm-none-eabi/lib/thumb/v7-m/nofp/libg.a(lib_a-locale.o) (strcmp)
/opt/homebrew/Cellar/arm-none-eabi-gcc/10.3-2021.07/gcc/bin/../lib/gcc/arm-none-eabi/10.3.1/../../../../arm-none-eabi/lib/thumb/v7-m/nofp/libg.a(lib_a-wbuf.o)
                              /opt/homebrew/Cellar/arm-none-eabi-gcc/10.3-2021.07/gcc/bin/../lib/gcc/arm-none-eabi/10.3.1/../../../../arm-none-eabi/lib/thumb/v7-m/nofp/libg.a(lib_a-fputwc.o) (__swbuf_r)
/opt/homebrew/Cellar/arm-none-eabi-gcc/10.3-2021.07/gcc/bin/../lib/gcc/arm-none-eabi/10.3.1/../../../../arm-none-eabi/lib/thumb/v7-m/nofp/libg.a(lib_a-wcrtomb.o)
                              /opt/homebrew/Cellar/arm-none-eabi-gcc/10.3-2021.07/gcc/bin/../lib/gcc/arm-none-eabi/10.3.1/../../../../arm-none-eabi/lib/thumb/v7-m/nofp/libg.a(lib_a-fputwc.o) (_wcrtomb_r)
/opt/homebrew/Cellar/arm-none-eabi-gcc/10.3-2021.07/gcc/bin/../lib/gcc/arm-none-eabi/10.3.1/../../../../arm-none-eabi/lib/thumb/v7-m/nofp/libg.a(lib_a-wctomb_r.o)
                              /opt/homebrew/Cellar/arm-none-eabi-gcc/10.3-2021.07/gcc/bin/../lib/gcc/arm-none-eabi/10.3.1/../../../../arm-none-eabi/lib/thumb/v7-m/nofp/libg.a(lib_a-locale.o) (__ascii_wctomb)
/opt/homebrew/Cellar/arm-none-eabi-gcc/10.3-2021.07/gcc/bin/../lib/gcc/arm-none-eabi/10.3.1/../../../../arm-none-eabi/lib/thumb/v7-m/nofp/libg.a(lib_a-abort.o)
                              /opt/homebrew/Cellar/arm-none-eabi-gcc/10.3-2021.07/gcc/bin/../lib/gcc/arm-none-eabi/10.3.1/../../../../arm-none-eabi/lib/thumb/v7-m/nofp/libg.a(lib_a-assert.o) (abort)
/opt/homebrew/Cellar/arm-none-eabi-gcc/10.3-2021.07/gcc/bin/../lib/gcc/arm-none-eabi/10.3.1/../../../../arm-none-eabi/lib/thumb/v7-m/nofp/libg.a(lib_a-ctype_.o)
                              /opt/homebrew/Cellar/arm-none-eabi-gcc/10.3-2021.07/gcc/bin/../lib/gcc/arm-none-eabi/10.3.1/../../../../arm-none-eabi/lib/thumb/v7-m/nofp/libg.a(lib_a-locale.o) (_ctype_)
/opt/homebrew/Cellar/arm-none-eabi-gcc/10.3-2021.07/gcc/bin/../lib/gcc/arm-none-eabi/10.3.1/../../../../arm-none-eabi/lib/thumb/v7-m/nofp/libg.a(lib_a-signal.o)
                              /opt/homebrew/Cellar/arm-none-eabi-gcc/10.3-2021.07/gcc/bin/../lib/gcc/arm-none-eabi/10.3.1/../../../../arm-none-eabi/lib/thumb/v7-m/nofp/libg.a(lib_a-abort.o) (raise)
/opt/homebrew/Cellar/arm-none-eabi-gcc/10.3-2021.07/gcc/bin/../lib/gcc/arm-none-eabi/10.3.1/../../../../arm-none-eabi/lib/thumb/v7-m/nofp/libg.a(lib_a-signalr.o)
                              /opt/homebrew/Cellar/arm-none-eabi-gcc/10.3-2021.07/gcc/bin/../lib/gcc/arm-none-eabi/10.3.1/../../../../arm-none-eabi/lib/thumb/v7-m/nofp/libg.a(lib_a-signal.o) (_kill_r)
/opt/homebrew/Cellar/arm-none-eabi-gcc/10.3-2021.07/gcc/bin/../lib/gcc/arm-none-eabi/10.3.1/thumb/v7-m/nofp/libgcc.a(_arm_muldf3.o)
                              /opt/homebrew/Cellar/arm-none-eabi-gcc/10.3-2021.07/gcc/bin/../lib/gcc/arm-none-eabi/10.3.1/../../../../arm-none-eabi/lib/thumb/v7-m/nofp/libg.a(lib_a-vfprintf.o) (__aeabi_dmul)
/opt/homebrew/Cellar/arm-none-eabi-gcc/10.3-2021.07/gcc/bin/../lib/gcc/arm-none-eabi/10.3.1/thumb/v7-m/nofp/libgcc.a(_arm_addsubdf3.o)
                              /opt/homebrew/Cellar/arm-none-eabi-gcc/10.3-2021.07/gcc/bin/../lib/gcc/arm-none-eabi/10.3.1/../../../../arm-none-eabi/lib/thumb/v7-m/nofp/libg.a(lib_a-vfprintf.o) (__aeabi_dsub)
/opt/homebrew/Cellar/arm-none-eabi-gcc/10.3-2021.07/gcc/bin/../lib/gcc/arm-none-eabi/10.3.1/thumb/v7-m/nofp/libgcc.a(_arm_muldivdf3.o)
                              /opt/homebrew/Cellar/arm-none-eabi-gcc/10.3-2021.07/gcc/bin/../lib/gcc/arm-none-eabi/10.3.1/../../../../arm-none-eabi/lib/thumb/v7-m/nofp/libg.a(lib_a-dtoa.o) (__aeabi_ddiv)
/opt/homebrew/Cellar/arm-none-eabi-gcc/10.3-2021.07/gcc/bin/../lib/gcc/arm-none-eabi/10.3.1/thumb/v7-m/nofp/libgcc.a(_arm_cmpdf2.o)
                              /opt/homebrew/Cellar/arm-none-eabi-gcc/10.3-2021.07/gcc/bin/../lib/gcc/arm-none-eabi/10.3.1/../../../../arm-none-eabi/lib/thumb/v7-m/nofp/libg.a(lib_a-vfprintf.o) (__aeabi_dcmpeq)
/opt/homebrew/Cellar/arm-none-eabi-gcc/10.3-2021.07/gcc/bin/../lib/gcc/arm-none-eabi/10.3.1/thumb/v7-m/nofp/libgcc.a(_arm_unorddf2.o)
                              /opt/homebrew/Cellar/arm-none-eabi-gcc/10.3-2021.07/gcc/bin/../lib/gcc/arm-none-eabi/10.3.1/../../../../arm-none-eabi/lib/thumb/v7-m/nofp/libg.a(lib_a-vfprintf.o) (__aeabi_dcmpun)
/opt/homebrew/Cellar/arm-none-eabi-gcc/10.3-2021.07/gcc/bin/../lib/gcc/arm-none-eabi/10.3.1/thumb/v7-m/nofp/libgcc.a(_arm_fixdfsi.o)
                              /opt/homebrew/Cellar/arm-none-eabi-gcc/10.3-2021.07/gcc/bin/../lib/gcc/arm-none-eabi/10.3.1/../../../../arm-none-eabi/lib/thumb/v7-m/nofp/libg.a(lib_a-vfprintf.o) (__aeabi_d2iz)
/opt/homebrew/Cellar/arm-none-eabi-gcc/10.3-2021.07/gcc/bin/../lib/gcc/arm-none-eabi/10.3.1/thumb/v7-m/nofp/libgcc.a(_aeabi_uldivmod.o)
                              /opt/homebrew/Cellar/arm-none-eabi-gcc/10.3-2021.07/gcc/bin/../lib/gcc/arm-none-eabi/10.3.1/../../../../arm-none-eabi/lib/thumb/v7-m/nofp/libg.a(lib_a-vfprintf.o) (__aeabi_uldivmod)
/opt/homebrew/Cellar/arm-none-eabi-gcc/10.3-2021.07/gcc/bin/../lib/gcc/arm-none-eabi/10.3.1/thumb/v7-m/nofp/libgcc.a(_udivmoddi4.o)
                              /opt/homebrew/Cellar/arm-none-eabi-gcc/10.3-2021.07/gcc/bin/../lib/gcc/arm-none-eabi/10.3.1/thumb/v7-m/nofp/libgcc.a(_aeabi_uldivmod.o) (__udivmoddi4)
/opt/homebrew/Cellar/arm-none-eabi-gcc/10.3-2021.07/gcc/bin/../lib/gcc/arm-none-eabi/10.3.1/thumb/v7-m/nofp/libgcc.a(_dvmd_tls.o)
                              /opt/homebrew/Cellar/arm-none-eabi-gcc/10.3-2021.07/gcc/bin/../lib/gcc/arm-none-eabi/10.3.1/thumb/v7-m/nofp/libgcc.a(_aeabi_uldivmod.o) (__aeabi_ldiv0)

Discarded input sections

 .text          0x0000000000000000        0x0 /opt/homebrew/Cellar/arm-none-eabi-gcc/10.3-2021.07/gcc/bin/../lib/gcc/arm-none-eabi/10.3.1/thumb/v7-m/nofp/crti.o
 .data          0x0000000000000000        0x0 /opt/homebrew/Cellar/arm-none-eabi-gcc/10.3-2021.07/gcc/bin/../lib/gcc/arm-none-eabi/10.3.1/thumb/v7-m/nofp/crti.o
 .bss           0x0000000000000000        0x0 /opt/homebrew/Cellar/arm-none-eabi-gcc/10.3-2021.07/gcc/bin/../lib/gcc/arm-none-eabi/10.3.1/thumb/v7-m/nofp/crti.o
 .data          0x0000000000000000        0x4 /opt/homebrew/Cellar/arm-none-eabi-gcc/10.3-2021.07/gcc/bin/../lib/gcc/arm-none-eabi/10.3.1/thumb/v7-m/nofp/crtbegin.o
 .rodata        0x0000000000000000       0x24 /opt/homebrew/Cellar/arm-none-eabi-gcc/10.3-2021.07/gcc/bin/../lib/gcc/arm-none-eabi/10.3.1/thumb/v7-m/nofp/crtbegin.o
 .text          0x0000000000000000       0x7c /opt/homebrew/Cellar/arm-none-eabi-gcc/10.3-2021.07/gcc/bin/../lib/gcc/arm-none-eabi/10.3.1/../../../../arm-none-eabi/lib/thumb/v7-m/nofp/crt0.o
 .data          0x0000000000000000        0x0 /opt/homebrew/Cellar/arm-none-eabi-gcc/10.3-2021.07/gcc/bin/../lib/gcc/arm-none-eabi/10.3.1/../../../../arm-none-eabi/lib/thumb/v7-m/nofp/crt0.o
 .bss           0x0000000000000000        0x0 /opt/homebrew/Cellar/arm-none-eabi-gcc/10.3-2021.07/gcc/bin/../lib/gcc/arm-none-eabi/10.3.1/../../../../arm-none-eabi/lib/thumb/v7-m/nofp/crt0.o
 .ARM.extab     0x0000000000000000        0x0 /opt/homebrew/Cellar/arm-none-eabi-gcc/10.3-2021.07/gcc/bin/../lib/gcc/arm-none-eabi/10.3.1/../../../../arm-none-eabi/lib/thumb/v7-m/nofp/crt0.o
 .ARM.exidx     0x0000000000000000       0x10 /opt/homebrew/Cellar/arm-none-eabi-gcc/10.3-2021.07/gcc/bin/../lib/gcc/arm-none-eabi/10.3.1/../../../../arm-none-eabi/lib/thumb/v7-m/nofp/crt0.o
 .ARM.attributes
                0x0000000000000000       0x1b /opt/homebrew/Cellar/arm-none-eabi-gcc/10.3-2021.07/gcc/bin/../lib/gcc/arm-none-eabi/10.3.1/../../../../arm-none-eabi/lib/thumb/v7-m/nofp/crt0.o
 .text          0x0000000000000000        0x0 CMakeFiles/Proj32.elf.dir/Core/Src/bsp_spi_flash.c.obj
 .data          0x0000000000000000        0x0 CMakeFiles/Proj32.elf.dir/Core/Src/bsp_spi_flash.c.obj
 .bss           0x0000000000000000        0x0 CMakeFiles/Proj32.elf.dir/Core/Src/bsp_spi_flash.c.obj
 .text.SPI2_SetSpeed
                0x0000000000000000       0x34 CMakeFiles/Proj32.elf.dir/Core/Src/bsp_spi_flash.c.obj
 .text.W25QXX_ReadSR
Memory Configuration

Name             Origin             Length             Attributes
RAM              0x0000000020000000 0x0000000000005000 xrw
FLASH            0x0000000008000000 0x0000000000020000 xr
*default*        0x0000000000000000 0xffffffffffffffff

Linker script and memory map

LOAD /opt/homebrew/Cellar/arm-none-eabi-gcc/10.3-2021.07/gcc/bin/../lib/gcc/arm-none-eabi/10.3.1/thumb/v7-m/nofp/crti.o
LOAD /opt/homebrew/Cellar/arm-none-eabi-gcc/10.3-2021.07/gcc/bin/../lib/gcc/arm-none-eabi/10.3.1/thumb/v7-m/nofp/crtbegin.o
LOAD /opt/homebrew/Cellar/arm-none-eabi-gcc/10.3-2021.07/gcc/bin/../lib/gcc/arm-none-eabi/10.3.1/../../../../arm-none-eabi/lib/thumb/v7-m/nofp/crt0.o
LOAD CMakeFiles/Proj32.elf.dir/Core/Src/bsp_spi_flash.c.obj
LOAD CMakeFiles/Proj32.elf.dir/Core/Src/main.c.obj
LOAD CMakeFiles/Proj32.elf.dir/Core/Src/oled.c.obj
LOAD CMakeFiles/Proj32.elf.dir/Core/Src/stm32f1xx_hal_msp.c.obj
LOAD CMakeFiles/Proj32.elf.dir/Core/Src/stm32f1xx_it.c.obj
LOAD CMakeFiles/Proj32.elf.dir/Core/Src/syscalls.c.obj
LOAD CMakeFiles/Proj32.elf.dir/Core/Src/sysmem.c.obj
LOAD CMakeFiles/Proj32.elf.dir/Core/Src/system_stm32f1xx.c.obj
LOAD CMakeFiles/Proj32.elf.dir/Core/Startup/startup_stm32f103vbtx.s.obj
LOAD CMakeFiles/Proj32.elf.dir/Drivers/STM32F1xx_HAL_Driver/Src/stm32f1xx_hal.c.obj
LOAD CMakeFiles/Proj32.elf.dir/Drivers/STM32F1xx_HAL_Driver/Src/stm32f1xx_hal_cortex.c.obj
LOAD CMakeFiles/Proj32.elf.dir/Drivers/STM32F1xx_HAL_Driver/Src/stm32f1xx_hal_dma.c.obj
LOAD CMakeFiles/Proj32.elf.dir/Drivers/STM32F1xx_HAL_Driver/Src/stm32f1xx_hal_exti.c.obj
LOAD CMakeFiles/Proj32.elf.dir/Drivers/STM32F1xx_HAL_Driver/Src/stm32f1xx_hal_flash.c.obj
LOAD CMakeFiles/Proj32.elf.dir/Drivers/STM32F1xx_HAL_Driver/Src/stm32f1xx_hal_flash_ex.c.obj
LOAD CMakeFiles/Proj32.elf.dir/Drivers/STM32F1xx_HAL_Driver/Src/stm32f1xx_hal_gpio.c.obj
LOAD CMakeFiles/Proj32.elf.dir/Drivers/STM32F1xx_HAL_Driver/Src/stm32f1xx_hal_gpio_ex.c.obj
LOAD CMakeFiles/Proj32.elf.dir/Drivers/STM32F1xx_HAL_Driver/Src/stm32f1xx_hal_i2c.c.obj
LOAD CMakeFiles/Proj32.elf.dir/Drivers/STM32F1xx_HAL_Driver/Src/stm32f1xx_hal_pwr.c.obj
LOAD CMakeFiles/Proj32.elf.dir/Drivers/STM32F1xx_HAL_Driver/Src/stm32f1xx_hal_rcc.c.obj
LOAD CMakeFiles/Proj32.elf.dir/Drivers/STM32F1xx_HAL_Driver/Src/stm32f1xx_hal_rcc_ex.c.obj
LOAD CMakeFiles/Proj32.elf.dir/Drivers/STM32F1xx_HAL_Driver/Src/stm32f1xx_hal_spi.c.obj
LOAD CMakeFiles/Proj32.elf.dir/Drivers/STM32F1xx_HAL_Driver/Src/stm32f1xx_hal_tim.c.obj
LOAD CMakeFiles/Proj32.elf.dir/Drivers/STM32F1xx_HAL_Driver/Src/stm32f1xx_hal_tim_ex.c.obj
LOAD CMakeFiles/Proj32.elf.dir/Drivers/STM32F1xx_HAL_Driver/Src/stm32f1xx_hal_uart.c.obj
LOAD CMakeFiles/Proj32.elf.dir/FATFS/App/fatfs.c.obj
LOAD CMakeFiles/Proj32.elf.dir/FATFS/Target/user_diskio.c.obj
LOAD CMakeFiles/Proj32.elf.dir/Middlewares/Third_Party/FatFs/src/diskio.c.obj
LOAD CMakeFiles/Proj32.elf.dir/Middlewares/Third_Party/FatFs/src/ff.c.obj
LOAD CMakeFiles/Proj32.elf.dir/Middlewares/Third_Party/FatFs/src/ff_gen_drv.c.obj
LOAD CMakeFiles/Proj32.elf.dir/Middlewares/Third_Party/FatFs/src/option/syscall.c.obj
START GROUP
LOAD /opt/homebrew/Cellar/arm-none-eabi-gcc/10.3-2021.07/gcc/bin/../lib/gcc/arm-none-eabi/10.3.1/thumb/v7-m/nofp/libgcc.a
LOAD /opt/homebrew/Cellar/arm-none-eabi-gcc/10.3-2021.07/gcc/bin/../lib/gcc/arm-none-eabi/10.3.1/../../../../arm-none-eabi/lib/thumb/v7-m/nofp/libg.a
LOAD /opt/homebrew/Cellar/arm-none-eabi-gcc/10.3-2021.07/gcc/bin/../lib/gcc/arm-none-eabi/10.3.1/../../../../arm-none-eabi/lib/thumb/v7-m/nofp/libc.a
END GROUP
LOAD /opt/homebrew/Cellar/arm-none-eabi-gcc/10.3-2021.07/gcc/bin/../lib/gcc/arm-none-eabi/10.3.1/thumb/v7-m/nofp/crtend.o
LOAD /opt/homebrew/Cellar/arm-none-eabi-gcc/10.3-2021.07/gcc/bin/../lib/gcc/arm-none-eabi/10.3.1/thumb/v7-m/nofp/crtn.o
                0x0000000020005000                _estack = (ORIGIN (RAM) + LENGTH (RAM))
                0x0000000000000400                _Min_Heap_Size = 0x400
                0x0000000000001000                _Min_Stack_Size = 0x1000

.isr_vector     0x0000000008000000      0x10c
                0x0000000008000000                . = ALIGN (0x4)
 *(.isr_vector)
 .isr_vector    0x0000000008000000      0x10c CMakeFiles/Proj32.elf.dir/Core/Startup/startup_stm32f103vbtx.s.obj
                0x0000000008000000                g_pfnVectors
                0x000000000800010c                . = ALIGN (0x4)

.text           0x0000000008000110     0xbd10
                0x0000000008000110                . = ALIGN (0x4)
 *(.text)
 .text          0x0000000008000110       0x40 /opt/homebrew/Cellar/arm-none-eabi-gcc/10.3-2021.07/gcc/bin/../lib/gcc/arm-none-eabi/10.3.1/thumb/v7-m/nofp/crtbegin.o
 .text          0x0000000008000150       0xec /opt/homebrew/Cellar/arm-none-eabi-gcc/10.3-2021.07/gcc/bin/../lib/gcc/arm-none-eabi/10.3.1/../../../../arm-none-eabi/lib/thumb/v7-m/nofp/libg.a(lib_a-memcpy.o)
                0x0000000008000150                memcpy
 .text          0x000000000800023c      0x378 /opt/homebrew/Cellar/arm-none-eabi-gcc/10.3-2021.07/gcc/bin/../lib/gcc/arm-none-eabi/10.3.1/thumb/v7-m/nofp/libgcc.a(_arm_addsubdf3.o)
                0x000000000800023c                __aeabi_drsub
                0x0000000008000244                __subdf3
                0x0000000008000244                __aeabi_dsub
                0x0000000008000248                __aeabi_dadd
                0x0000000008000248                __adddf3
                0x00000000080004c0                __aeabi_ui2d
                0x00000000080004c0                __floatunsidf
                0x00000000080004e0                __floatsidf
                0x00000000080004e0                __aeabi_i2d
                0x0000000008000504                __extendsfdf2
                0x0000000008000504                __aeabi_f2d
                0x0000000008000548                __aeabi_ul2d
                0x0000000008000548                __floatundidf
                0x0000000008000558                __aeabi_l2d
                0x0000000008000558                __floatdidf
 .text          0x00000000080005b4      0x424 /opt/homebrew/Cellar/arm-none-eabi-gcc/10.3-2021.07/gcc/bin/../lib/gcc/arm-none-eabi/10.3.1/thumb/v7-m/nofp/libgcc.a(_arm_muldivdf3.o)
                0x00000000080005b4                __aeabi_dmul
                0x00000000080005b4                __muldf3
                0x0000000008000808                __aeabi_ddiv
                0x0000000008000808                __divdf3
 .text          0x00000000080009d8      0x110 /opt/homebrew/Cellar/arm-none-eabi-gcc/10.3-2021.07/gcc/bin/../lib/gcc/arm-none-eabi/10.3.1/thumb/v7-m/nofp/libgcc.a(_arm_cmpdf2.o)
                0x00000000080009d8                __gedf2
                0x00000000080009d8                __gtdf2
                0x00000000080009e0                __ledf2
                0x00000000080009e0                __ltdf2
                0x00000000080009e8                __cmpdf2
                0x00000000080009e8                __eqdf2
                0x00000000080009e8                __nedf2
                0x0000000008000a64                __aeabi_cdrcmple
                0x0000000008000a74                __aeabi_cdcmple
                0x0000000008000a74                __aeabi_cdcmpeq
                0x0000000008000a84                __aeabi_dcmpeq
                0x0000000008000a98                __aeabi_dcmplt
                0x0000000008000aac                __aeabi_dcmple
                0x0000000008000ac0                __aeabi_dcmpge
                0x0000000008000ad4                __aeabi_dcmpgt
 .text          0x0000000008000ae8       0x2c /opt/homebrew/Cellar/arm-none-eabi-gcc/10.3-2021.07/gcc/bin/../lib/gcc/arm-none-eabi/10.3.1/thumb/v7-m/nofp/libgcc.a(_arm_unorddf2.o)
                0x0000000008000ae8                __aeabi_dcmpun
                0x0000000008000ae8                __unorddf2
 .text          0x0000000008000b14       0x50 /opt/homebrew/Cellar/arm-none-eabi-gcc/10.3-2021.07/gcc/bin/../lib/gcc/arm-none-eabi/10.3.1/thumb/v7-m/nofp/libgcc.a(_arm_fixdfsi.o)
                0x0000000008000b14                __fixdfsi
                0x0000000008000b14                __aeabi_d2iz
 .text          0x0000000008000b64       0x30 /opt/homebrew/Cellar/arm-none-eabi-gcc/10.3-2021.07/gcc/bin/../lib/gcc/arm-none-eabi/10.3.1/thumb/v7-m/nofp/libgcc.a(_aeabi_uldivmod.o)
                0x0000000008000b64                __aeabi_uldivmod
 .text          0x0000000008000b94      0x2d4 /opt/homebrew/Cellar/arm-none-eabi-gcc/10.3-2021.07/gcc/bin/../lib/gcc/arm-none-eabi/10.3.1/thumb/v7-m/nofp/libgcc.a(_udivmoddi4.o)
                0x0000000008000b94                __udivmoddi4
 .text          0x0000000008000e68        0x4 /opt/homebrew/Cellar/arm-none-eabi-gcc/10.3-2021.07/gcc/bin/../lib/gcc/arm-none-eabi/10.3.1/thumb/v7-m/nofp/libgcc.a(_dvmd_tls.o)
                0x0000000008000e68                __aeabi_ldiv0
                0x0000000008000e68                __aeabi_idiv0
 *(.text*)
 .text.SPI2_ReadWriteByte
                0x0000000008000e6c       0x2c CMakeFiles/Proj32.elf.dir/Core/Src/bsp_spi_flash.c.obj
                0x0000000008000e6c                SPI2_ReadWriteByte
 .text.W25QXX_Write_Enable
                0x0000000008000e98       0x24 CMakeFiles/Proj32.elf.dir/Core/Src/bsp_spi_flash.c.obj
                0x0000000008000e98                W25QXX_Write_Enable
 .text.W25QXX_ReadID
                0x0000000008000ebc       0x4c CMakeFiles/Proj32.elf.dir/Core/Src/bsp_spi_flash.c.obj
                0x0000000008000ebc                W25QXX_ReadID
 .text.SPI_FLASH_BufferRead
                0x0000000008000f08       0x54 CMakeFiles/Proj32.elf.dir/Core/Src/bsp_spi_flash.c.obj
                0x0000000008000f08                SPI_FLASH_BufferRead
 .text.SPI_FLASH_WaitForWriteEnd
                0x0000000008000f5c       0x30 CMakeFiles/Proj32.elf.dir/Core/Src/bsp_spi_flash.c.obj
                0x0000000008000f5c                SPI_FLASH_WaitForWriteEnd
 .text.SPI_FLASH_SectorErase
                0x0000000008000f8c       0x48 CMakeFiles/Proj32.elf.dir/Core/Src/bsp_spi_flash.c.obj
                0x0000000008000f8c                SPI_FLASH_SectorErase
 .text.SPI_FLASH_PageWrite
                0x0000000008000fd4       0x64 CMakeFiles/Proj32.elf.dir/Core/Src/bsp_spi_flash.c.obj
                0x0000000008000fd4                SPI_FLASH_PageWrite
 .text.SPI_FLASH_BufferWrite
                0x0000000008001038       0xc8 CMakeFiles/Proj32.elf.dir/Core/Src/bsp_spi_flash.c.obj
                0x0000000008001038                SPI_FLASH_BufferWrite
 .text.MX_GPIO_Init
                0x0000000008001100      0x108 CMakeFiles/Proj32.elf.dir/Core/Src/main.c.obj
 .text.FATFS_FLASH_Test
                0x0000000008001208      0x184 CMakeFiles/Proj32.elf.dir/Core/Src/main.c.obj
                0x0000000008001208                FATFS_FLASH_Test
 .text.SPI_FLASH_Test
                0x000000000800138c       0x94 CMakeFiles/Proj32.elf.dir/Core/Src/main.c.obj
                0x000000000800138c                SPI_FLASH_Test
 .text.EEPROM_IIC_Test
                0x0000000008001420       0xb0 CMakeFiles/Proj32.elf.dir/Core/Src/main.c.obj
                0x0000000008001420                EEPROM_IIC_Test
 .text.HAL_GPIO_EXTI_Callback
                0x00000000080014d0       0x1c CMakeFiles/Proj32.elf.dir/Core/Src/main.c.obj
                0x00000000080014d0                HAL_GPIO_EXTI_Callback
 .text.__io_putchar
                0x00000000080014ec       0x20 CMakeFiles/Proj32.elf.dir/Core/Src/main.c.obj
                0x00000000080014ec                __io_putchar
 .text.SnowLike
                0x000000000800150c       0x4c CMakeFiles/Proj32.elf.dir/Core/Src/main.c.obj
                0x000000000800150c                SnowLike
 .text.OLED_IIC_Test
                0x0000000008001558       0x40 CMakeFiles/Proj32.elf.dir/Core/Src/main.c.obj
                0x0000000008001558                OLED_IIC_Test
 .text.Error_Handler
                0x0000000008001598        0x4 CMakeFiles/Proj32.elf.dir/Core/Src/main.c.obj
                0x0000000008001598                Error_Handler
 .text.MX_USART1_UART_Init
                0x000000000800159c       0x40 CMakeFiles/Proj32.elf.dir/Core/Src/main.c.obj
 .text.MX_I2C1_Init
                0x00000000080015dc       0x38 CMakeFiles/Proj32.elf.dir/Core/Src/main.c.obj
 .text.MX_SPI1_Init
                0x0000000008001614       0x40 CMakeFiles/Proj32.elf.dir/Core/Src/main.c.obj
 .text.SystemClock_Config
                0x0000000008001654       0x64 CMakeFiles/Proj32.elf.dir/Core/Src/main.c.obj
                0x0000000008001654                SystemClock_Config
 .text.main     0x00000000080016b8       0x2e CMakeFiles/Proj32.elf.dir/Core/Src/main.c.obj
                0x00000000080016b8                main
 *fill*         0x00000000080016e6        0x2 
 .text.Write_IIC_Command
                0x00000000080016e8       0x2c CMakeFiles/Proj32.elf.dir/Core/Src/oled.c.obj
                0x00000000080016e8                Write_IIC_Command
 .text.Write_IIC_Data
                0x0000000008001714       0x2c CMakeFiles/Proj32.elf.dir/Core/Src/oled.c.obj
                0x0000000008001714                Write_IIC_Data
 .text.OLED_WR_Byte
                0x0000000008001740       0x14 CMakeFiles/Proj32.elf.dir/Core/Src/oled.c.obj
                0x0000000008001740                OLED_WR_Byte
 .text.OLED_WR_MutiByte
                0x0000000008001754       0x24 CMakeFiles/Proj32.elf.dir/Core/Src/oled.c.obj
                0x0000000008001754                OLED_WR_MutiByte
 .text.OLED_Init
                0x0000000008001778       0xdc CMakeFiles/Proj32.elf.dir/Core/Src/oled.c.obj
                0x0000000008001778                OLED_Init
 .text.OLED_Display_On
                0x0000000008001854       0x1c CMakeFiles/Proj32.elf.dir/Core/Src/oled.c.obj
                0x0000000008001854                OLED_Display_On
 .text.OLED_Clear
                0x0000000008001870       0x40 CMakeFiles/Proj32.elf.dir/Core/Src/oled.c.obj
                0x0000000008001870                OLED_Clear
 .text.OLED_Refresh_Gram
                0x00000000080018b0       0x6c CMakeFiles/Proj32.elf.dir/Core/Src/oled.c.obj
                0x00000000080018b0                OLED_Refresh_Gram
 .text.OLED_DrawPoint
                0x000000000800191c       0x50 CMakeFiles/Proj32.elf.dir/Core/Src/oled.c.obj
                0x000000000800191c                OLED_DrawPoint
 .text.OLED_Fill
                0x000000000800196c       0x34 CMakeFiles/Proj32.elf.dir/Core/Src/oled.c.obj
                0x000000000800196c                OLED_Fill
 .text.OLED_ClearGram
                0x00000000080019a0       0x2c CMakeFiles/Proj32.elf.dir/Core/Src/oled.c.obj
                0x00000000080019a0                OLED_ClearGram
 .text.HAL_MspInit
                0x00000000080019cc       0x44 CMakeFiles/Proj32.elf.dir/Core/Src/stm32f1xx_hal_msp.c.obj
                0x00000000080019cc                HAL_MspInit
 .text.HAL_I2C_MspInit
                0x0000000008001a10       0x64 CMakeFiles/Proj32.elf.dir/Core/Src/stm32f1xx_hal_msp.c.obj
                0x0000000008001a10                HAL_I2C_MspInit
 .text.HAL_SPI_MspInit
                0x0000000008001a74       0x74 CMakeFiles/Proj32.elf.dir/Core/Src/stm32f1xx_hal_msp.c.obj
                0x0000000008001a74                HAL_SPI_MspInit
 .text.HAL_UART_MspInit
                0x0000000008001ae8       0x88 CMakeFiles/Proj32.elf.dir/Core/Src/stm32f1xx_hal_msp.c.obj
                0x0000000008001ae8                HAL_UART_MspInit
 .text.NMI_Handler
                0x0000000008001b70        0x2 CMakeFiles/Proj32.elf.dir/Core/Src/stm32f1xx_it.c.obj
                0x0000000008001b70                NMI_Handler
 .text.HardFault_Handler
                0x0000000008001b72        0x2 CMakeFiles/Proj32.elf.dir/Core/Src/stm32f1xx_it.c.obj
                0x0000000008001b72                HardFault_Handler
 .text.MemManage_Handler
                0x0000000008001b74        0x2 CMakeFiles/Proj32.elf.dir/Core/Src/stm32f1xx_it.c.obj
                0x0000000008001b74                MemManage_Handler
 .text.BusFault_Handler
                0x0000000008001b76        0x2 CMakeFiles/Proj32.elf.dir/Core/Src/stm32f1xx_it.c.obj
                0x0000000008001b76                BusFault_Handler
 .text.UsageFault_Handler
                0x0000000008001b78        0x2 CMakeFiles/Proj32.elf.dir/Core/Src/stm32f1xx_it.c.obj
                0x0000000008001b78                UsageFault_Handler
 .text.SVC_Handler
                0x0000000008001b7a        0x2 CMakeFiles/Proj32.elf.dir/Core/Src/stm32f1xx_it.c.obj
                0x0000000008001b7a                SVC_Handler
 .text.DebugMon_Handler
                0x0000000008001b7c        0x2 CMakeFiles/Proj32.elf.dir/Core/Src/stm32f1xx_it.c.obj
                0x0000000008001b7c                DebugMon_Handler
 .text.PendSV_Handler
                0x0000000008001b7e        0x2 CMakeFiles/Proj32.elf.dir/Core/Src/stm32f1xx_it.c.obj
                0x0000000008001b7e                PendSV_Handler
 .text.SysTick_Handler
                0x0000000008001b80        0x8 CMakeFiles/Proj32.elf.dir/Core/Src/stm32f1xx_it.c.obj
                0x0000000008001b80                SysTick_Handler
 .text.USART1_IRQHandler
                0x0000000008001b88       0x78 CMakeFiles/Proj32.elf.dir/Core/Src/stm32f1xx_it.c.obj
                0x0000000008001b88                USART1_IRQHandler
 .text.EXTI15_10_IRQHandler
                0x0000000008001c00        0xc CMakeFiles/Proj32.elf.dir/Core/Src/stm32f1xx_it.c.obj
                0x0000000008001c00                EXTI15_10_IRQHandler
 .text._getpid  0x0000000008001c0c        0x4 CMakeFiles/Proj32.elf.dir/Core/Src/syscalls.c.obj
                0x0000000008001c0c                _getpid
 .text._kill    0x0000000008001c10       0x10 CMakeFiles/Proj32.elf.dir/Core/Src/syscalls.c.obj
                0x0000000008001c10                _kill
 .text._exit    0x0000000008001c20        0xc CMakeFiles/Proj32.elf.dir/Core/Src/syscalls.c.obj
                0x0000000008001c20                _exit
 .text._read    0x0000000008001c2c       0x20 CMakeFiles/Proj32.elf.dir/Core/Src/syscalls.c.obj
                0x0000000008001c2c                _read
 .text._write   0x0000000008001c4c       0x1c CMakeFiles/Proj32.elf.dir/Core/Src/syscalls.c.obj
                0x0000000008001c4c                _write
 .text._close   0x0000000008001c68        0x6 CMakeFiles/Proj32.elf.dir/Core/Src/syscalls.c.obj
                0x0000000008001c68                _close
 .text._fstat   0x0000000008001c6e        0xa CMakeFiles/Proj32.elf.dir/Core/Src/syscalls.c.obj
                0x0000000008001c6e                _fstat
 .text._isatty  0x0000000008001c78        0x4 CMakeFiles/Proj32.elf.dir/Core/Src/syscalls.c.obj
                0x0000000008001c78                _isatty
 .text._lseek   0x0000000008001c7c        0x4 CMakeFiles/Proj32.elf.dir/Core/Src/syscalls.c.obj
                0x0000000008001c7c                _lseek
 .text._sbrk    0x0000000008001c80       0x48 CMakeFiles/Proj32.elf.dir/Core/Src/sysmem.c.obj
                0x0000000008001c80                _sbrk
 .text.SystemInit
                0x0000000008001cc8        0x2 CMakeFiles/Proj32.elf.dir/Core/Src/system_stm32f1xx.c.obj
                0x0000000008001cc8                SystemInit
 *fill*         0x0000000008001cca        0x2 
 .text.Reset_Handler
                0x0000000008001ccc       0x48 CMakeFiles/Proj32.elf.dir/Core/Startup/startup_stm32f103vbtx.s.obj
                0x0000000008001ccc                Reset_Handler
 .text.Default_Handler
                0x0000000008001d14        0x2 CMakeFiles/Proj32.elf.dir/Core/Startup/startup_stm32f103vbtx.s.obj
                0x0000000008001d14                USBWakeUp_IRQHandler
                0x0000000008001d14                EXTI2_IRQHandler
                0x0000000008001d14                TIM1_CC_IRQHandler
                0x0000000008001d14                PVD_IRQHandler
                0x0000000008001d14                EXTI3_IRQHandler
                0x0000000008001d14                EXTI0_IRQHandler
                0x0000000008001d14                I2C2_EV_IRQHandler
                0x0000000008001d14                ADC1_2_IRQHandler
                0x0000000008001d14                SPI1_IRQHandler
                0x0000000008001d14                TAMPER_IRQHandler
                0x0000000008001d14                DMA1_Channel4_IRQHandler
                0x0000000008001d14                USART3_IRQHandler
                0x0000000008001d14                RTC_IRQHandler
                0x0000000008001d14                DMA1_Channel7_IRQHandler
                0x0000000008001d14                CAN1_RX1_IRQHandler
                0x0000000008001d14                TIM4_IRQHandler
                0x0000000008001d14                I2C1_EV_IRQHandler
                0x0000000008001d14                DMA1_Channel6_IRQHandler
                0x0000000008001d14                TIM3_IRQHandler
                0x0000000008001d14                RCC_IRQHandler
                0x0000000008001d14                TIM1_TRG_COM_IRQHandler
                0x0000000008001d14                DMA1_Channel1_IRQHandler
                0x0000000008001d14                Default_Handler
                0x0000000008001d14                EXTI9_5_IRQHandler
                0x0000000008001d14                SPI2_IRQHandler
                0x0000000008001d14                DMA1_Channel5_IRQHandler
                0x0000000008001d14                EXTI4_IRQHandler
                0x0000000008001d14                USB_LP_CAN1_RX0_IRQHandler
                0x0000000008001d14                USB_HP_CAN1_TX_IRQHandler
                0x0000000008001d14                DMA1_Channel3_IRQHandler
                0x0000000008001d14                TIM1_UP_IRQHandler
                0x0000000008001d14                WWDG_IRQHandler
                0x0000000008001d14                TIM2_IRQHandler
                0x0000000008001d14                TIM1_BRK_IRQHandler
                0x0000000008001d14                EXTI1_IRQHandler
                0x0000000008001d14                USART2_IRQHandler
                0x0000000008001d14                I2C2_ER_IRQHandler
                0x0000000008001d14                DMA1_Channel2_IRQHandler
                0x0000000008001d14                CAN1_SCE_IRQHandler
                0x0000000008001d14                FLASH_IRQHandler
                0x0000000008001d14                I2C1_ER_IRQHandler
                0x0000000008001d14                RTC_Alarm_IRQHandler
 *fill*         0x0000000008001d16        0x2 
 .text.HAL_InitTick
                0x0000000008001d18       0x4c CMakeFiles/Proj32.elf.dir/Drivers/STM32F1xx_HAL_Driver/Src/stm32f1xx_hal.c.obj
                0x0000000008001d18                HAL_InitTick
 .text.HAL_Init
                0x0000000008001d64       0x24 CMakeFiles/Proj32.elf.dir/Drivers/STM32F1xx_HAL_Driver/Src/stm32f1xx_hal.c.obj
                0x0000000008001d64                HAL_Init
 .text.HAL_IncTick
                0x0000000008001d88       0x18 CMakeFiles/Proj32.elf.dir/Drivers/STM32F1xx_HAL_Driver/Src/stm32f1xx_hal.c.obj
                0x0000000008001d88                HAL_IncTick
 .text.HAL_GetTick
                0x0000000008001da0        0xc CMakeFiles/Proj32.elf.dir/Drivers/STM32F1xx_HAL_Driver/Src/stm32f1xx_hal.c.obj
                0x0000000008001da0                HAL_GetTick
 .text.HAL_Delay
                0x0000000008001dac       0x28 CMakeFiles/Proj32.elf.dir/Drivers/STM32F1xx_HAL_Driver/Src/stm32f1xx_hal.c.obj
                0x0000000008001dac                HAL_Delay
 .text.HAL_NVIC_SetPriorityGrouping
                0x0000000008001dd4       0x24 CMakeFiles/Proj32.elf.dir/Drivers/STM32F1xx_HAL_Driver/Src/stm32f1xx_hal_cortex.c.obj
                0x0000000008001dd4                HAL_NVIC_SetPriorityGrouping
 .text.HAL_NVIC_SetPriority
                0x0000000008001df8       0x70 CMakeFiles/Proj32.elf.dir/Drivers/STM32F1xx_HAL_Driver/Src/stm32f1xx_hal_cortex.c.obj
                0x0000000008001df8                HAL_NVIC_SetPriority
 .text.HAL_NVIC_EnableIRQ
                0x0000000008001e68       0x1c CMakeFiles/Proj32.elf.dir/Drivers/STM32F1xx_HAL_Driver/Src/stm32f1xx_hal_cortex.c.obj
                0x0000000008001e68                HAL_NVIC_EnableIRQ
 .text.HAL_SYSTICK_Config
                0x0000000008001e84       0x28 CMakeFiles/Proj32.elf.dir/Drivers/STM32F1xx_HAL_Driver/Src/stm32f1xx_hal_cortex.c.obj
                0x0000000008001e84                HAL_SYSTICK_Config
 .text.HAL_DMA_Abort
                0x0000000008001eac       0x44 CMakeFiles/Proj32.elf.dir/Drivers/STM32F1xx_HAL_Driver/Src/stm32f1xx_hal_dma.c.obj
                0x0000000008001eac                HAL_DMA_Abort
 .text.HAL_DMA_Abort_IT
                0x0000000008001ef0       0x98 CMakeFiles/Proj32.elf.dir/Drivers/STM32F1xx_HAL_Driver/Src/stm32f1xx_hal_dma.c.obj
                0x0000000008001ef0                HAL_DMA_Abort_IT
 .text.HAL_GPIO_Init
                0x0000000008001f88      0x224 CMakeFiles/Proj32.elf.dir/Drivers/STM32F1xx_HAL_Driver/Src/stm32f1xx_hal_gpio.c.obj
                0x0000000008001f88                HAL_GPIO_Init
 .text.HAL_GPIO_WritePin
                0x00000000080021ac        0xc CMakeFiles/Proj32.elf.dir/Drivers/STM32F1xx_HAL_Driver/Src/stm32f1xx_hal_gpio.c.obj
                0x00000000080021ac                HAL_GPIO_WritePin
 .text.HAL_GPIO_TogglePin
                0x00000000080021b8       0x12 CMakeFiles/Proj32.elf.dir/Drivers/STM32F1xx_HAL_Driver/Src/stm32f1xx_hal_gpio.c.obj
                0x00000000080021b8                HAL_GPIO_TogglePin
 *fill*         0x00000000080021ca        0x2 
 .text.HAL_GPIO_EXTI_IRQHandler
                0x00000000080021cc       0x1c CMakeFiles/Proj32.elf.dir/Drivers/STM32F1xx_HAL_Driver/Src/stm32f1xx_hal_gpio.c.obj
                0x00000000080021cc                HAL_GPIO_EXTI_IRQHandler
 .text.I2C_IsAcknowledgeFailed
                0x00000000080021e8       0x32 CMakeFiles/Proj32.elf.dir/Drivers/STM32F1xx_HAL_Driver/Src/stm32f1xx_hal_i2c.c.obj
 .text.I2C_WaitOnFlagUntilTimeout
                0x000000000800221a       0x7c CMakeFiles/Proj32.elf.dir/Drivers/STM32F1xx_HAL_Driver/Src/stm32f1xx_hal_i2c.c.obj
 .text.I2C_WaitOnMasterAddressFlagUntilTimeout
                0x0000000008002296       0xaa CMakeFiles/Proj32.elf.dir/Drivers/STM32F1xx_HAL_Driver/Src/stm32f1xx_hal_i2c.c.obj
 .text.I2C_WaitOnTXEFlagUntilTimeout
                0x0000000008002340       0x54 CMakeFiles/Proj32.elf.dir/Drivers/STM32F1xx_HAL_Driver/Src/stm32f1xx_hal_i2c.c.obj
 .text.I2C_RequestMemoryWrite
                0x0000000008002394       0xd8 CMakeFiles/Proj32.elf.dir/Drivers/STM32F1xx_HAL_Driver/Src/stm32f1xx_hal_i2c.c.obj
 .text.I2C_RequestMemoryRead
                0x000000000800246c      0x154 CMakeFiles/Proj32.elf.dir/Drivers/STM32F1xx_HAL_Driver/Src/stm32f1xx_hal_i2c.c.obj
 .text.I2C_WaitOnBTFFlagUntilTimeout
                0x00000000080025c0       0x54 CMakeFiles/Proj32.elf.dir/Drivers/STM32F1xx_HAL_Driver/Src/stm32f1xx_hal_i2c.c.obj
 .text.I2C_WaitOnRXNEFlagUntilTimeout
                0x0000000008002614       0x6a CMakeFiles/Proj32.elf.dir/Drivers/STM32F1xx_HAL_Driver/Src/stm32f1xx_hal_i2c.c.obj
 *fill*         0x000000000800267e        0x2 
 .text.HAL_I2C_Init
                0x0000000008002680      0x1bc CMakeFiles/Proj32.elf.dir/Drivers/STM32F1xx_HAL_Driver/Src/stm32f1xx_hal_i2c.c.obj
                0x0000000008002680                HAL_I2C_Init
 .text.HAL_I2C_Mem_Write
                0x000000000800283c      0x164 CMakeFiles/Proj32.elf.dir/Drivers/STM32F1xx_HAL_Driver/Src/stm32f1xx_hal_i2c.c.obj
                0x000000000800283c                HAL_I2C_Mem_Write
 .text.HAL_I2C_Mem_Read
                0x00000000080029a0      0x348 CMakeFiles/Proj32.elf.dir/Drivers/STM32F1xx_HAL_Driver/Src/stm32f1xx_hal_i2c.c.obj
                0x00000000080029a0                HAL_I2C_Mem_Read
 .text.RCC_Delay
                0x0000000008002ce8       0x2c CMakeFiles/Proj32.elf.dir/Drivers/STM32F1xx_HAL_Driver/Src/stm32f1xx_hal_rcc.c.obj
 .text.HAL_RCC_OscConfig
                0x0000000008002d14      0x410 CMakeFiles/Proj32.elf.dir/Drivers/STM32F1xx_HAL_Driver/Src/stm32f1xx_hal_rcc.c.obj
                0x0000000008002d14                HAL_RCC_OscConfig
 .text.HAL_RCC_GetSysClockFreq
                0x0000000008003124       0x70 CMakeFiles/Proj32.elf.dir/Drivers/STM32F1xx_HAL_Driver/Src/stm32f1xx_hal_rcc.c.obj
                0x0000000008003124                HAL_RCC_GetSysClockFreq
 .text.HAL_RCC_ClockConfig
                0x0000000008003194      0x16c CMakeFiles/Proj32.elf.dir/Drivers/STM32F1xx_HAL_Driver/Src/stm32f1xx_hal_rcc.c.obj
                0x0000000008003194                HAL_RCC_ClockConfig
 .text.HAL_RCC_GetHCLKFreq
                0x0000000008003300        0xc CMakeFiles/Proj32.elf.dir/Drivers/STM32F1xx_HAL_Driver/Src/stm32f1xx_hal_rcc.c.obj
                0x0000000008003300                HAL_RCC_GetHCLKFreq
 .text.HAL_RCC_GetPCLK1Freq
                0x000000000800330c       0x20 CMakeFiles/Proj32.elf.dir/Drivers/STM32F1xx_HAL_Driver/Src/stm32f1xx_hal_rcc.c.obj
                0x000000000800330c                HAL_RCC_GetPCLK1Freq
 .text.HAL_RCC_GetPCLK2Freq
                0x000000000800332c       0x20 CMakeFiles/Proj32.elf.dir/Drivers/STM32F1xx_HAL_Driver/Src/stm32f1xx_hal_rcc.c.obj
                0x000000000800332c                HAL_RCC_GetPCLK2Freq
 .text.SPI_WaitFlagStateUntilTimeout
                0x000000000800334c       0xd4 CMakeFiles/Proj32.elf.dir/Drivers/STM32F1xx_HAL_Driver/Src/stm32f1xx_hal_spi.c.obj
 .text.SPI_EndRxTxTransaction
                0x0000000008003420       0x24 CMakeFiles/Proj32.elf.dir/Drivers/STM32F1xx_HAL_Driver/Src/stm32f1xx_hal_spi.c.obj
 .text.HAL_SPI_Init
                0x0000000008003444       0xb6 CMakeFiles/Proj32.elf.dir/Drivers/STM32F1xx_HAL_Driver/Src/stm32f1xx_hal_spi.c.obj
                0x0000000008003444                HAL_SPI_Init
 .text.HAL_SPI_TransmitReceive
                0x00000000080034fa      0x238 CMakeFiles/Proj32.elf.dir/Drivers/STM32F1xx_HAL_Driver/Src/stm32f1xx_hal_spi.c.obj
                0x00000000080034fa                HAL_SPI_TransmitReceive
 .text.UART_EndRxTransfer
                0x0000000008003732       0x32 CMakeFiles/Proj32.elf.dir/Drivers/STM32F1xx_HAL_Driver/Src/stm32f1xx_hal_uart.c.obj
 .text.UART_Transmit_IT
                0x0000000008003764       0x60 CMakeFiles/Proj32.elf.dir/Drivers/STM32F1xx_HAL_Driver/Src/stm32f1xx_hal_uart.c.obj
 .text.UART_SetConfig
                0x00000000080037c4       0x94 CMakeFiles/Proj32.elf.dir/Drivers/STM32F1xx_HAL_Driver/Src/stm32f1xx_hal_uart.c.obj
 .text.UART_WaitOnFlagUntilTimeout
                0x0000000008003858       0x6c CMakeFiles/Proj32.elf.dir/Drivers/STM32F1xx_HAL_Driver/Src/stm32f1xx_hal_uart.c.obj
 .text.HAL_UART_Init
                0x00000000080038c4       0x5e CMakeFiles/Proj32.elf.dir/Drivers/STM32F1xx_HAL_Driver/Src/stm32f1xx_hal_uart.c.obj
                0x00000000080038c4                HAL_UART_Init
 .text.HAL_UART_Transmit
                0x0000000008003922       0xd8 CMakeFiles/Proj32.elf.dir/Drivers/STM32F1xx_HAL_Driver/Src/stm32f1xx_hal_uart.c.obj
                0x0000000008003922                HAL_UART_Transmit
 .text.HAL_UART_Receive
                0x00000000080039fa       0xe4 CMakeFiles/Proj32.elf.dir/Drivers/STM32F1xx_HAL_Driver/Src/stm32f1xx_hal_uart.c.obj
                0x00000000080039fa                HAL_UART_Receive
 .text.HAL_UART_TxCpltCallback
                0x0000000008003ade        0x2 CMakeFiles/Proj32.elf.dir/Drivers/STM32F1xx_HAL_Driver/Src/stm32f1xx_hal_uart.c.obj
                0x0000000008003ade                HAL_UART_TxCpltCallback
 .text.UART_EndTransmit_IT
                0x0000000008003ae0       0x1a CMakeFiles/Proj32.elf.dir/Drivers/STM32F1xx_HAL_Driver/Src/stm32f1xx_hal_uart.c.obj
 .text.HAL_UART_RxCpltCallback
                0x0000000008003afa        0x2 CMakeFiles/Proj32.elf.dir/Drivers/STM32F1xx_HAL_Driver/Src/stm32f1xx_hal_uart.c.obj
                0x0000000008003afa                HAL_UART_RxCpltCallback
 .text.HAL_UART_ErrorCallback
                0x0000000008003afc        0x2 CMakeFiles/Proj32.elf.dir/Drivers/STM32F1xx_HAL_Driver/Src/stm32f1xx_hal_uart.c.obj
                0x0000000008003afc                HAL_UART_ErrorCallback
 .text.UART_DMAAbortOnError
                0x0000000008003afe       0x10 CMakeFiles/Proj32.elf.dir/Drivers/STM32F1xx_HAL_Driver/Src/stm32f1xx_hal_uart.c.obj
 .text.HAL_UARTEx_RxEventCallback
                0x0000000008003b0e        0x2 CMakeFiles/Proj32.elf.dir/Drivers/STM32F1xx_HAL_Driver/Src/stm32f1xx_hal_uart.c.obj
                0x0000000008003b0e                HAL_UARTEx_RxEventCallback
 .text.UART_Receive_IT
                0x0000000008003b10       0xd4 CMakeFiles/Proj32.elf.dir/Drivers/STM32F1xx_HAL_Driver/Src/stm32f1xx_hal_uart.c.obj
 .text.HAL_UART_IRQHandler
                0x0000000008003be4      0x204 CMakeFiles/Proj32.elf.dir/Drivers/STM32F1xx_HAL_Driver/Src/stm32f1xx_hal_uart.c.obj
                0x0000000008003be4                HAL_UART_IRQHandler
 .text.MX_FATFS_Init
                0x0000000008003de8       0x1c CMakeFiles/Proj32.elf.dir/FATFS/App/fatfs.c.obj
                0x0000000008003de8                MX_FATFS_Init
 .text.get_fattime
                0x0000000008003e04        0x4 CMakeFiles/Proj32.elf.dir/FATFS/App/fatfs.c.obj
                0x0000000008003e04                get_fattime
 .text.USER_initialize
                0x0000000008003e08       0x2c CMakeFiles/Proj32.elf.dir/FATFS/Target/user_diskio.c.obj
                0x0000000008003e08                USER_initialize
 .text.USER_status
                0x0000000008003e34       0x18 CMakeFiles/Proj32.elf.dir/FATFS/Target/user_diskio.c.obj
                0x0000000008003e34                USER_status
 .text.USER_ioctl
                0x0000000008003e4c       0x38 CMakeFiles/Proj32.elf.dir/FATFS/Target/user_diskio.c.obj
                0x0000000008003e4c                USER_ioctl
 .text.USER_read
                0x0000000008003e84       0x20 CMakeFiles/Proj32.elf.dir/FATFS/Target/user_diskio.c.obj
                0x0000000008003e84                USER_read
 .text.USER_write
                0x0000000008003ea4       0x28 CMakeFiles/Proj32.elf.dir/FATFS/Target/user_diskio.c.obj
                0x0000000008003ea4                USER_write
 .text.disk_status
                0x0000000008003ecc       0x18 CMakeFiles/Proj32.elf.dir/Middlewares/Third_Party/FatFs/src/diskio.c.obj
                0x0000000008003ecc                disk_status
 .text.disk_initialize
                0x0000000008003ee4       0x28 CMakeFiles/Proj32.elf.dir/Middlewares/Third_Party/FatFs/src/diskio.c.obj
                0x0000000008003ee4                disk_initialize
 .text.disk_read
                0x0000000008003f0c       0x18 CMakeFiles/Proj32.elf.dir/Middlewares/Third_Party/FatFs/src/diskio.c.obj
                0x0000000008003f0c                disk_read
 .text.disk_write
                0x0000000008003f24       0x18 CMakeFiles/Proj32.elf.dir/Middlewares/Third_Party/FatFs/src/diskio.c.obj
                0x0000000008003f24                disk_write
 .text.disk_ioctl
                0x0000000008003f3c       0x18 CMakeFiles/Proj32.elf.dir/Middlewares/Third_Party/FatFs/src/diskio.c.obj
                0x0000000008003f3c                disk_ioctl
 .text.mem_cpy  0x0000000008003f54       0x14 CMakeFiles/Proj32.elf.dir/Middlewares/Third_Party/FatFs/src/ff.c.obj
 .text.mem_set  0x0000000008003f68       0x10 CMakeFiles/Proj32.elf.dir/Middlewares/Third_Party/FatFs/src/ff.c.obj
 .text.mem_cmp  0x0000000008003f78       0x1e CMakeFiles/Proj32.elf.dir/Middlewares/Third_Party/FatFs/src/ff.c.obj
 .text.chk_chr  0x0000000008003f96       0x10 CMakeFiles/Proj32.elf.dir/Middlewares/Third_Party/FatFs/src/ff.c.obj
 *fill*         0x0000000008003fa6        0x2 
 .text.chk_lock
                0x0000000008003fa8       0x84 CMakeFiles/Proj32.elf.dir/Middlewares/Third_Party/FatFs/src/ff.c.obj
 .text.enq_lock
                0x000000000800402c       0x24 CMakeFiles/Proj32.elf.dir/Middlewares/Third_Party/FatFs/src/ff.c.obj
 .text.inc_lock
                0x0000000008004050       0xc4 CMakeFiles/Proj32.elf.dir/Middlewares/Third_Party/FatFs/src/ff.c.obj
 .text.dec_lock
                0x0000000008004114       0x48 CMakeFiles/Proj32.elf.dir/Middlewares/Third_Party/FatFs/src/ff.c.obj
 .text.clear_lock
                0x000000000800415c       0x44 CMakeFiles/Proj32.elf.dir/Middlewares/Third_Party/FatFs/src/ff.c.obj
 .text.clmt_clust
                0x00000000080041a0       0x26 CMakeFiles/Proj32.elf.dir/Middlewares/Third_Party/FatFs/src/ff.c.obj
 .text.ld_clust
                0x00000000080041c6       0x24 CMakeFiles/Proj32.elf.dir/Middlewares/Third_Party/FatFs/src/ff.c.obj
 .text.st_clust
                0x00000000080041ea       0x14 CMakeFiles/Proj32.elf.dir/Middlewares/Third_Party/FatFs/src/ff.c.obj
 *fill*         0x00000000080041fe        0x2 
 .text.create_name
                0x0000000008004200      0x14c CMakeFiles/Proj32.elf.dir/Middlewares/Third_Party/FatFs/src/ff.c.obj
 .text.get_ldnumber
                0x000000000800434c       0x50 CMakeFiles/Proj32.elf.dir/Middlewares/Third_Party/FatFs/src/ff.c.obj
 .text.sync_window
                0x000000000800439c       0x5e CMakeFiles/Proj32.elf.dir/Middlewares/Third_Party/FatFs/src/ff.c.obj
 .text.move_window
                0x00000000080043fa       0x40 CMakeFiles/Proj32.elf.dir/Middlewares/Third_Party/FatFs/src/ff.c.obj
 *fill*         0x000000000800443a        0x2 
 .text.check_fs
                0x000000000800443c       0x90 CMakeFiles/Proj32.elf.dir/Middlewares/Third_Party/FatFs/src/ff.c.obj
 .text.validate
                0x00000000080044cc       0x36 CMakeFiles/Proj32.elf.dir/Middlewares/Third_Party/FatFs/src/ff.c.obj
 *fill*         0x0000000008004502        0x2 
 .text.find_volume
                0x0000000008004504      0x3bc CMakeFiles/Proj32.elf.dir/Middlewares/Third_Party/FatFs/src/ff.c.obj
 .text.sync_fs  0x00000000080048c0       0xc0 CMakeFiles/Proj32.elf.dir/Middlewares/Third_Party/FatFs/src/ff.c.obj
 .text.clust2sect
                0x0000000008004980       0x20 CMakeFiles/Proj32.elf.dir/Middlewares/Third_Party/FatFs/src/ff.c.obj
                0x0000000008004980                clust2sect
 .text.get_fat  0x00000000080049a0       0xec CMakeFiles/Proj32.elf.dir/Middlewares/Third_Party/FatFs/src/ff.c.obj
                0x00000000080049a0                get_fat
 .text.dir_sdi  0x0000000008004a8c       0xb2 CMakeFiles/Proj32.elf.dir/Middlewares/Third_Party/FatFs/src/ff.c.obj
 .text.put_fat  0x0000000008004b3e      0x12e CMakeFiles/Proj32.elf.dir/Middlewares/Third_Party/FatFs/src/ff.c.obj
                0x0000000008004b3e                put_fat
 .text.create_chain
                0x0000000008004c6c       0xd0 CMakeFiles/Proj32.elf.dir/Middlewares/Third_Party/FatFs/src/ff.c.obj
 .text.dir_next
                0x0000000008004d3c      0x124 CMakeFiles/Proj32.elf.dir/Middlewares/Third_Party/FatFs/src/ff.c.obj
 .text.dir_find
                0x0000000008004e60       0x4e CMakeFiles/Proj32.elf.dir/Middlewares/Third_Party/FatFs/src/ff.c.obj
 .text.follow_path
                0x0000000008004eae       0x7c CMakeFiles/Proj32.elf.dir/Middlewares/Third_Party/FatFs/src/ff.c.obj
 .text.dir_alloc
                0x0000000008004f2a       0x4e CMakeFiles/Proj32.elf.dir/Middlewares/Third_Party/FatFs/src/ff.c.obj
 .text.dir_register
                0x0000000008004f78       0x40 CMakeFiles/Proj32.elf.dir/Middlewares/Third_Party/FatFs/src/ff.c.obj
 .text.remove_chain
                0x0000000008004fb8       0x78 CMakeFiles/Proj32.elf.dir/Middlewares/Third_Party/FatFs/src/ff.c.obj
 .text.f_mount  0x0000000008005030       0x64 CMakeFiles/Proj32.elf.dir/Middlewares/Third_Party/FatFs/src/ff.c.obj
                0x0000000008005030                f_mount
 .text.f_open   0x0000000008005094      0x1d2 CMakeFiles/Proj32.elf.dir/Middlewares/Third_Party/FatFs/src/ff.c.obj
                0x0000000008005094                f_open
 .text.f_read   0x0000000008005266      0x178 CMakeFiles/Proj32.elf.dir/Middlewares/Third_Party/FatFs/src/ff.c.obj
                0x0000000008005266                f_read
 .text.f_write  0x00000000080053de      0x1f4 CMakeFiles/Proj32.elf.dir/Middlewares/Third_Party/FatFs/src/ff.c.obj
                0x00000000080053de                f_write
 .text.f_sync   0x00000000080055d2       0x7a CMakeFiles/Proj32.elf.dir/Middlewares/Third_Party/FatFs/src/ff.c.obj
                0x00000000080055d2                f_sync
 .text.f_close  0x000000000800564c       0x24 CMakeFiles/Proj32.elf.dir/Middlewares/Third_Party/FatFs/src/ff.c.obj
                0x000000000800564c                f_close
 .text.f_mkfs   0x0000000008005670      0x608 CMakeFiles/Proj32.elf.dir/Middlewares/Third_Party/FatFs/src/ff.c.obj
                0x0000000008005670                f_mkfs
 .text.FATFS_LinkDriverEx
                0x0000000008005c78       0x54 CMakeFiles/Proj32.elf.dir/Middlewares/Third_Party/FatFs/src/ff_gen_drv.c.obj
                0x0000000008005c78                FATFS_LinkDriverEx
 .text.FATFS_LinkDriver
                0x0000000008005ccc        0xa CMakeFiles/Proj32.elf.dir/Middlewares/Third_Party/FatFs/src/ff_gen_drv.c.obj
                0x0000000008005ccc                FATFS_LinkDriver
 *fill*         0x0000000008005cd6        0x2 
 .text.__errno  0x0000000008005cd8        0xc /opt/homebrew/Cellar/arm-none-eabi-gcc/10.3-2021.07/gcc/bin/../lib/gcc/arm-none-eabi/10.3.1/../../../../arm-none-eabi/lib/thumb/v7-m/nofp/libg.a(lib_a-errno.o)
                0x0000000008005cd8                __errno
 .text.__libc_init_array
                0x0000000008005ce4       0x48 /opt/homebrew/Cellar/arm-none-eabi-gcc/10.3-2021.07/gcc/bin/../lib/gcc/arm-none-eabi/10.3.1/../../../../arm-none-eabi/lib/thumb/v7-m/nofp/libg.a(lib_a-init.o)
                0x0000000008005ce4                __libc_init_array
 .text.memset   0x0000000008005d2c       0xa4 /opt/homebrew/Cellar/arm-none-eabi-gcc/10.3-2021.07/gcc/bin/../lib/gcc/arm-none-eabi/10.3.1/../../../../arm-none-eabi/lib/thumb/v7-m/nofp/libg.a(lib_a-memset.o)
                0x0000000008005d2c                memset
 .text.printf   0x0000000008005dd0       0x28 /opt/homebrew/Cellar/arm-none-eabi-gcc/10.3-2021.07/gcc/bin/../lib/gcc/arm-none-eabi/10.3.1/../../../../arm-none-eabi/lib/thumb/v7-m/nofp/libg.a(lib_a-printf.o)
                0x0000000008005dd0                printf
 .text._puts_r  0x0000000008005df8       0x9c /opt/homebrew/Cellar/arm-none-eabi-gcc/10.3-2021.07/gcc/bin/../lib/gcc/arm-none-eabi/10.3.1/../../../../arm-none-eabi/lib/thumb/v7-m/nofp/libg.a(lib_a-puts.o)
                0x0000000008005df8                _puts_r
 .text.puts     0x0000000008005e94       0x10 /opt/homebrew/Cellar/arm-none-eabi-gcc/10.3-2021.07/gcc/bin/../lib/gcc/arm-none-eabi/10.3.1/../../../../arm-none-eabi/lib/thumb/v7-m/nofp/libg.a(lib_a-puts.o)
                0x0000000008005e94                puts
 .text.rand     0x0000000008005ea4       0x38 /opt/homebrew/Cellar/arm-none-eabi-gcc/10.3-2021.07/gcc/bin/../lib/gcc/arm-none-eabi/10.3.1/../../../../arm-none-eabi/lib/thumb/v7-m/nofp/libg.a(lib_a-rand.o)
                0x0000000008005ea4                rand
 .text.strlen   0x0000000008005edc       0x5c /opt/homebrew/Cellar/arm-none-eabi-gcc/10.3-2021.07/gcc/bin/../lib/gcc/arm-none-eabi/10.3.1/../../../../arm-none-eabi/lib/thumb/v7-m/nofp/libg.a(lib_a-strlen-stub.o)
                0x0000000008005edc                strlen
 .text._vfprintf_r
                0x0000000008005f38     0x1b58 /opt/homebrew/Cellar/arm-none-eabi-gcc/10.3-2021.07/gcc/bin/../lib/gcc/arm-none-eabi/10.3.1/../../../../arm-none-eabi/lib/thumb/v7-m/nofp/libg.a(lib_a-vfprintf.o)
                0x0000000008005f38                _vfprintf_r
 .text.__sbprintf
                0x0000000008007a90       0x84 /opt/homebrew/Cellar/arm-none-eabi-gcc/10.3-2021.07/gcc/bin/../lib/gcc/arm-none-eabi/10.3.1/../../../../arm-none-eabi/lib/thumb/v7-m/nofp/libg.a(lib_a-vfprintf.o)
 .text.__swsetup_r
                0x0000000008007b14       0xd4 /opt/homebrew/Cellar/arm-none-eabi-gcc/10.3-2021.07/gcc/bin/../lib/gcc/arm-none-eabi/10.3.1/../../../../arm-none-eabi/lib/thumb/v7-m/nofp/libg.a(lib_a-wsetup.o)
                0x0000000008007b14                __swsetup_r
 .text.startup.register_fini
                0x0000000008007be8       0x14 /opt/homebrew/Cellar/arm-none-eabi-gcc/10.3-2021.07/gcc/bin/../lib/gcc/arm-none-eabi/10.3.1/../../../../arm-none-eabi/lib/thumb/v7-m/nofp/libg.a(lib_a-__call_atexit.o)
 .text.atexit   0x0000000008007bfc        0xc /opt/homebrew/Cellar/arm-none-eabi-gcc/10.3-2021.07/gcc/bin/../lib/gcc/arm-none-eabi/10.3.1/../../../../arm-none-eabi/lib/thumb/v7-m/nofp/libg.a(lib_a-atexit.o)
                0x0000000008007bfc                atexit
 .text.quorem   0x0000000008007c08      0x12c /opt/homebrew/Cellar/arm-none-eabi-gcc/10.3-2021.07/gcc/bin/../lib/gcc/arm-none-eabi/10.3.1/../../../../arm-none-eabi/lib/thumb/v7-m/nofp/libg.a(lib_a-dtoa.o)
 *fill*         0x0000000008007d34        0x4 
 .text._dtoa_r  0x0000000008007d38      0xecc /opt/homebrew/Cellar/arm-none-eabi-gcc/10.3-2021.07/gcc/bin/../lib/gcc/arm-none-eabi/10.3.1/../../../../arm-none-eabi/lib/thumb/v7-m/nofp/libg.a(lib_a-dtoa.o)
                0x0000000008007d38                _dtoa_r
 .text.__sflush_r
                0x0000000008008c04      0x124 /opt/homebrew/Cellar/arm-none-eabi-gcc/10.3-2021.07/gcc/bin/../lib/gcc/arm-none-eabi/10.3.1/../../../../arm-none-eabi/lib/thumb/v7-m/nofp/libg.a(lib_a-fflush.o)
                0x0000000008008c04                __sflush_r
 .text._fflush_r
                0x0000000008008d28       0x5c /opt/homebrew/Cellar/arm-none-eabi-gcc/10.3-2021.07/gcc/bin/../lib/gcc/arm-none-eabi/10.3.1/../../../../arm-none-eabi/lib/thumb/v7-m/nofp/libg.a(lib_a-fflush.o)
                0x0000000008008d28                _fflush_r
 .text._cleanup_r
                0x0000000008008d84        0xc /opt/homebrew/Cellar/arm-none-eabi-gcc/10.3-2021.07/gcc/bin/../lib/gcc/arm-none-eabi/10.3.1/../../../../arm-none-eabi/lib/thumb/v7-m/nofp/libg.a(lib_a-findfp.o)
                0x0000000008008d84                _cleanup_r
 .text.__sinit  0x0000000008008d90      0x10c /opt/homebrew/Cellar/arm-none-eabi-gcc/10.3-2021.07/gcc/bin/../lib/gcc/arm-none-eabi/10.3.1/../../../../arm-none-eabi/lib/thumb/v7-m/nofp/libg.a(lib_a-findfp.o)
                0x0000000008008d90                __sinit
 .text.__sfp_lock_acquire
                0x0000000008008e9c        0xc /opt/homebrew/Cellar/arm-none-eabi-gcc/10.3-2021.07/gcc/bin/../lib/gcc/arm-none-eabi/10.3.1/../../../../arm-none-eabi/lib/thumb/v7-m/nofp/libg.a(lib_a-findfp.o)
                0x0000000008008e9c                __sfp_lock_acquire
 .text.__sfp_lock_release
                0x0000000008008ea8        0xc /opt/homebrew/Cellar/arm-none-eabi-gcc/10.3-2021.07/gcc/bin/../lib/gcc/arm-none-eabi/10.3.1/../../../../arm-none-eabi/lib/thumb/v7-m/nofp/libg.a(lib_a-findfp.o)
                0x0000000008008ea8                __sfp_lock_release
 .text.__libc_fini_array
                0x0000000008008eb4       0x2c /opt/homebrew/Cellar/arm-none-eabi-gcc/10.3-2021.07/gcc/bin/../lib/gcc/arm-none-eabi/10.3.1/../../../../arm-none-eabi/lib/thumb/v7-m/nofp/libg.a(lib_a-fini.o)
                0x0000000008008eb4                __libc_fini_array
 .text._malloc_trim_r
                0x0000000008008ee0       0xa0 /opt/homebrew/Cellar/arm-none-eabi-gcc/10.3-2021.07/gcc/bin/../lib/gcc/arm-none-eabi/10.3.1/../../../../arm-none-eabi/lib/thumb/v7-m/nofp/libg.a(lib_a-freer.o)
                0x0000000008008ee0                _malloc_trim_r
 .text._free_r  0x0000000008008f80      0x200 /opt/homebrew/Cellar/arm-none-eabi-gcc/10.3-2021.07/gcc/bin/../lib/gcc/arm-none-eabi/10.3.1/../../../../arm-none-eabi/lib/thumb/v7-m/nofp/libg.a(lib_a-freer.o)
                0x0000000008008f80                _free_r
 .text.__sfvwrite_r
                0x0000000008009180      0x2f0 /opt/homebrew/Cellar/arm-none-eabi-gcc/10.3-2021.07/gcc/bin/../lib/gcc/arm-none-eabi/10.3.1/../../../../arm-none-eabi/lib/thumb/v7-m/nofp/libg.a(lib_a-fvwrite.o)
                0x0000000008009180                __sfvwrite_r
 .text._fwalk_reent
                0x0000000008009470       0x48 /opt/homebrew/Cellar/arm-none-eabi-gcc/10.3-2021.07/gcc/bin/../lib/gcc/arm-none-eabi/10.3.1/../../../../arm-none-eabi/lib/thumb/v7-m/nofp/libg.a(lib_a-fwalk.o)
                0x0000000008009470                _fwalk_reent
 .text._localeconv_r
                0x00000000080094b8        0x8 /opt/homebrew/Cellar/arm-none-eabi-gcc/10.3-2021.07/gcc/bin/../lib/gcc/arm-none-eabi/10.3.1/../../../../arm-none-eabi/lib/thumb/v7-m/nofp/libg.a(lib_a-localeconv.o)
                0x00000000080094b8                _localeconv_r
 .text.__retarget_lock_init_recursive
                0x00000000080094c0        0x4 /opt/homebrew/Cellar/arm-none-eabi-gcc/10.3-2021.07/gcc/bin/../lib/gcc/arm-none-eabi/10.3.1/../../../../arm-none-eabi/lib/thumb/v7-m/nofp/libg.a(lib_a-lock.o)
                0x00000000080094c0                __retarget_lock_init_recursive
 .text.__retarget_lock_close_recursive
                0x00000000080094c4        0x4 /opt/homebrew/Cellar/arm-none-eabi-gcc/10.3-2021.07/gcc/bin/../lib/gcc/arm-none-eabi/10.3.1/../../../../arm-none-eabi/lib/thumb/v7-m/nofp/libg.a(lib_a-lock.o)
                0x00000000080094c4                __retarget_lock_close_recursive
 .text.__retarget_lock_acquire_recursive
                0x00000000080094c8        0x4 /opt/homebrew/Cellar/arm-none-eabi-gcc/10.3-2021.07/gcc/bin/../lib/gcc/arm-none-eabi/10.3.1/../../../../arm-none-eabi/lib/thumb/v7-m/nofp/libg.a(lib_a-lock.o)
                0x00000000080094c8                __retarget_lock_acquire_recursive
 .text.__retarget_lock_release_recursive
                0x00000000080094cc        0x4 /opt/homebrew/Cellar/arm-none-eabi-gcc/10.3-2021.07/gcc/bin/../lib/gcc/arm-none-eabi/10.3.1/../../../../arm-none-eabi/lib/thumb/v7-m/nofp/libg.a(lib_a-lock.o)
                0x00000000080094cc                __retarget_lock_release_recursive
 .text.__smakebuf_r
                0x00000000080094d0       0xe0 /opt/homebrew/Cellar/arm-none-eabi-gcc/10.3-2021.07/gcc/bin/../lib/gcc/arm-none-eabi/10.3.1/../../../../arm-none-eabi/lib/thumb/v7-m/nofp/libg.a(lib_a-makebuf.o)
                0x00000000080094d0                __smakebuf_r
 .text._malloc_r
                0x00000000080095b0      0x558 /opt/homebrew/Cellar/arm-none-eabi-gcc/10.3-2021.07/gcc/bin/../lib/gcc/arm-none-eabi/10.3.1/../../../../arm-none-eabi/lib/thumb/v7-m/nofp/libg.a(lib_a-mallocr.o)
                0x00000000080095b0                _malloc_r
 .text.memchr   0x0000000008009b08       0x90 /opt/homebrew/Cellar/arm-none-eabi-gcc/10.3-2021.07/gcc/bin/../lib/gcc/arm-none-eabi/10.3.1/../../../../arm-none-eabi/lib/thumb/v7-m/nofp/libg.a(lib_a-memchr-stub.o)
                0x0000000008009b08                memchr
 .text.memmove  0x0000000008009b98       0xf8 /opt/homebrew/Cellar/arm-none-eabi-gcc/10.3-2021.07/gcc/bin/../lib/gcc/arm-none-eabi/10.3.1/../../../../arm-none-eabi/lib/thumb/v7-m/nofp/libg.a(lib_a-memmove.o)
                0x0000000008009b98                memmove
 .text.__malloc_lock
                0x0000000008009c90        0xc /opt/homebrew/Cellar/arm-none-eabi-gcc/10.3-2021.07/gcc/bin/../lib/gcc/arm-none-eabi/10.3.1/../../../../arm-none-eabi/lib/thumb/v7-m/nofp/libg.a(lib_a-mlock.o)
                0x0000000008009c90                __malloc_lock
 .text.__malloc_unlock
                0x0000000008009c9c        0xc /opt/homebrew/Cellar/arm-none-eabi-gcc/10.3-2021.07/gcc/bin/../lib/gcc/arm-none-eabi/10.3.1/../../../../arm-none-eabi/lib/thumb/v7-m/nofp/libg.a(lib_a-mlock.o)
                0x0000000008009c9c                __malloc_unlock
 .text._Balloc  0x0000000008009ca8       0x4c /opt/homebrew/Cellar/arm-none-eabi-gcc/10.3-2021.07/gcc/bin/../lib/gcc/arm-none-eabi/10.3.1/../../../../arm-none-eabi/lib/thumb/v7-m/nofp/libg.a(lib_a-mprec.o)
                0x0000000008009ca8                _Balloc
 .text._Bfree   0x0000000008009cf4       0x14 /opt/homebrew/Cellar/arm-none-eabi-gcc/10.3-2021.07/gcc/bin/../lib/gcc/arm-none-eabi/10.3.1/../../../../arm-none-eabi/lib/thumb/v7-m/nofp/libg.a(lib_a-mprec.o)
                0x0000000008009cf4                _Bfree
 .text.__multadd
                0x0000000008009d08       0xa4 /opt/homebrew/Cellar/arm-none-eabi-gcc/10.3-2021.07/gcc/bin/../lib/gcc/arm-none-eabi/10.3.1/../../../../arm-none-eabi/lib/thumb/v7-m/nofp/libg.a(lib_a-mprec.o)
                0x0000000008009d08                __multadd
 .text.__hi0bits
                0x0000000008009dac       0x40 /opt/homebrew/Cellar/arm-none-eabi-gcc/10.3-2021.07/gcc/bin/../lib/gcc/arm-none-eabi/10.3.1/../../../../arm-none-eabi/lib/thumb/v7-m/nofp/libg.a(lib_a-mprec.o)
                0x0000000008009dac                __hi0bits
 .text.__lo0bits
                0x0000000008009dec       0x58 /opt/homebrew/Cellar/arm-none-eabi-gcc/10.3-2021.07/gcc/bin/../lib/gcc/arm-none-eabi/10.3.1/../../../../arm-none-eabi/lib/thumb/v7-m/nofp/libg.a(lib_a-mprec.o)
                0x0000000008009dec                __lo0bits
 .text.__i2b    0x0000000008009e44       0x5c /opt/homebrew/Cellar/arm-none-eabi-gcc/10.3-2021.07/gcc/bin/../lib/gcc/arm-none-eabi/10.3.1/../../../../arm-none-eabi/lib/thumb/v7-m/nofp/libg.a(lib_a-mprec.o)
                0x0000000008009e44                __i2b
 .text.__multiply
                0x0000000008009ea0      0x15c /opt/homebrew/Cellar/arm-none-eabi-gcc/10.3-2021.07/gcc/bin/../lib/gcc/arm-none-eabi/10.3.1/../../../../arm-none-eabi/lib/thumb/v7-m/nofp/libg.a(lib_a-mprec.o)
                0x0000000008009ea0                __multiply
 .text.__pow5mult
                0x0000000008009ffc       0xb8 /opt/homebrew/Cellar/arm-none-eabi-gcc/10.3-2021.07/gcc/bin/../lib/gcc/arm-none-eabi/10.3.1/../../../../arm-none-eabi/lib/thumb/v7-m/nofp/libg.a(lib_a-mprec.o)
                0x0000000008009ffc                __pow5mult
 .text.__lshift
                0x000000000800a0b4       0xec /opt/homebrew/Cellar/arm-none-eabi-gcc/10.3-2021.07/gcc/bin/../lib/gcc/arm-none-eabi/10.3.1/../../../../arm-none-eabi/lib/thumb/v7-m/nofp/libg.a(lib_a-mprec.o)
                0x000000000800a0b4                __lshift
 .text.__mcmp   0x000000000800a1a0       0x40 /opt/homebrew/Cellar/arm-none-eabi-gcc/10.3-2021.07/gcc/bin/../lib/gcc/arm-none-eabi/10.3.1/../../../../arm-none-eabi/lib/thumb/v7-m/nofp/libg.a(lib_a-mprec.o)
                0x000000000800a1a0                __mcmp
 .text.__mdiff  0x000000000800a1e0      0x14c /opt/homebrew/Cellar/arm-none-eabi-gcc/10.3-2021.07/gcc/bin/../lib/gcc/arm-none-eabi/10.3.1/../../../../arm-none-eabi/lib/thumb/v7-m/nofp/libg.a(lib_a-mprec.o)
                0x000000000800a1e0                __mdiff
 .text.__d2b    0x000000000800a32c       0xc4 /opt/homebrew/Cellar/arm-none-eabi-gcc/10.3-2021.07/gcc/bin/../lib/gcc/arm-none-eabi/10.3.1/../../../../arm-none-eabi/lib/thumb/v7-m/nofp/libg.a(lib_a-mprec.o)
                0x000000000800a32c                __d2b
 .text._realloc_r
                0x000000000800a3f0      0x3dc /opt/homebrew/Cellar/arm-none-eabi-gcc/10.3-2021.07/gcc/bin/../lib/gcc/arm-none-eabi/10.3.1/../../../../arm-none-eabi/lib/thumb/v7-m/nofp/libg.a(lib_a-reallocr.o)
                0x000000000800a3f0                _realloc_r
 .text.frexp    0x000000000800a7cc       0x70 /opt/homebrew/Cellar/arm-none-eabi-gcc/10.3-2021.07/gcc/bin/../lib/gcc/arm-none-eabi/10.3.1/../../../../arm-none-eabi/lib/thumb/v7-m/nofp/libg.a(lib_a-s_frexp.o)
                0x000000000800a7cc                frexp
 .text._sbrk_r  0x000000000800a83c       0x24 /opt/homebrew/Cellar/arm-none-eabi-gcc/10.3-2021.07/gcc/bin/../lib/gcc/arm-none-eabi/10.3.1/../../../../arm-none-eabi/lib/thumb/v7-m/nofp/libg.a(lib_a-sbrkr.o)
                0x000000000800a83c                _sbrk_r
 .text.__sread  0x000000000800a860       0x24 /opt/homebrew/Cellar/arm-none-eabi-gcc/10.3-2021.07/gcc/bin/../lib/gcc/arm-none-eabi/10.3.1/../../../../arm-none-eabi/lib/thumb/v7-m/nofp/libg.a(lib_a-stdio.o)
                0x000000000800a860                __sread
 .text.__swrite
                0x000000000800a884       0x40 /opt/homebrew/Cellar/arm-none-eabi-gcc/10.3-2021.07/gcc/bin/../lib/gcc/arm-none-eabi/10.3.1/../../../../arm-none-eabi/lib/thumb/v7-m/nofp/libg.a(lib_a-stdio.o)
                0x000000000800a884                __swrite
 .text.__sseek  0x000000000800a8c4       0x20 /opt/homebrew/Cellar/arm-none-eabi-gcc/10.3-2021.07/gcc/bin/../lib/gcc/arm-none-eabi/10.3.1/../../../../arm-none-eabi/lib/thumb/v7-m/nofp/libg.a(lib_a-stdio.o)
                0x000000000800a8c4                __sseek
 .text.__sclose
                0x000000000800a8e4        0x8 /opt/homebrew/Cellar/arm-none-eabi-gcc/10.3-2021.07/gcc/bin/../lib/gcc/arm-none-eabi/10.3.1/../../../../arm-none-eabi/lib/thumb/v7-m/nofp/libg.a(lib_a-stdio.o)
                0x000000000800a8e4                __sclose
 .text.strncpy  0x000000000800a8ec       0x68 /opt/homebrew/Cellar/arm-none-eabi-gcc/10.3-2021.07/gcc/bin/../lib/gcc/arm-none-eabi/10.3.1/../../../../arm-none-eabi/lib/thumb/v7-m/nofp/libg.a(lib_a-strncpy.o)
                0x000000000800a8ec                strncpy
 .text.__sprint_r.part.0
                0x000000000800a954       0x78 /opt/homebrew/Cellar/arm-none-eabi-gcc/10.3-2021.07/gcc/bin/../lib/gcc/arm-none-eabi/10.3.1/../../../../arm-none-eabi/lib/thumb/v7-m/nofp/libg.a(lib_a-vfiprintf.o)
 .text.__sprint_r
                0x000000000800a9cc       0x14 /opt/homebrew/Cellar/arm-none-eabi-gcc/10.3-2021.07/gcc/bin/../lib/gcc/arm-none-eabi/10.3.1/../../../../arm-none-eabi/lib/thumb/v7-m/nofp/libg.a(lib_a-vfiprintf.o)
                0x000000000800a9cc                __sprint_r
 .text._vfiprintf_r
                0x000000000800a9e0      0xd98 /opt/homebrew/Cellar/arm-none-eabi-gcc/10.3-2021.07/gcc/bin/../lib/gcc/arm-none-eabi/10.3.1/../../../../arm-none-eabi/lib/thumb/v7-m/nofp/libg.a(lib_a-vfiprintf.o)
                0x000000000800a9e0                _vfiprintf_r
 .text.__sbprintf
                0x000000000800b778       0x84 /opt/homebrew/Cellar/arm-none-eabi-gcc/10.3-2021.07/gcc/bin/../lib/gcc/arm-none-eabi/10.3.1/../../../../arm-none-eabi/lib/thumb/v7-m/nofp/libg.a(lib_a-vfiprintf.o)
 .text._write_r
                0x000000000800b7fc       0x2c /opt/homebrew/Cellar/arm-none-eabi-gcc/10.3-2021.07/gcc/bin/../lib/gcc/arm-none-eabi/10.3.1/../../../../arm-none-eabi/lib/thumb/v7-m/nofp/libg.a(lib_a-writer.o)
                0x000000000800b7fc                _write_r
 .text.__register_exitproc
                0x000000000800b828       0x8c /opt/homebrew/Cellar/arm-none-eabi-gcc/10.3-2021.07/gcc/bin/../lib/gcc/arm-none-eabi/10.3.1/../../../../arm-none-eabi/lib/thumb/v7-m/nofp/libg.a(lib_a-__atexit.o)
                0x000000000800b828                __register_exitproc
 .text.__assert_func
                0x000000000800b8b4       0x40 /opt/homebrew/Cellar/arm-none-eabi-gcc/10.3-2021.07/gcc/bin/../lib/gcc/arm-none-eabi/10.3.1/../../../../arm-none-eabi/lib/thumb/v7-m/nofp/libg.a(lib_a-assert.o)
                0x000000000800b8b4                __assert_func
 .text._calloc_r
                0x000000000800b8f4       0x78 /opt/homebrew/Cellar/arm-none-eabi-gcc/10.3-2021.07/gcc/bin/../lib/gcc/arm-none-eabi/10.3.1/../../../../arm-none-eabi/lib/thumb/v7-m/nofp/libg.a(lib_a-callocr.o)
                0x000000000800b8f4                _calloc_r
 .text._close_r
                0x000000000800b96c       0x24 /opt/homebrew/Cellar/arm-none-eabi-gcc/10.3-2021.07/gcc/bin/../lib/gcc/arm-none-eabi/10.3.1/../../../../arm-none-eabi/lib/thumb/v7-m/nofp/libg.a(lib_a-closer.o)
                0x000000000800b96c                _close_r
 .text._fclose_r
                0x000000000800b990       0xcc /opt/homebrew/Cellar/arm-none-eabi-gcc/10.3-2021.07/gcc/bin/../lib/gcc/arm-none-eabi/10.3.1/../../../../arm-none-eabi/lib/thumb/v7-m/nofp/libg.a(lib_a-fclose.o)
                0x000000000800b990                _fclose_r
 .text.fiprintf
                0x000000000800ba5c       0x28 /opt/homebrew/Cellar/arm-none-eabi-gcc/10.3-2021.07/gcc/bin/../lib/gcc/arm-none-eabi/10.3.1/../../../../arm-none-eabi/lib/thumb/v7-m/nofp/libg.a(lib_a-fiprintf.o)
                0x000000000800ba5c                fiprintf
 .text.__fputwc
                0x000000000800ba84       0xa0 /opt/homebrew/Cellar/arm-none-eabi-gcc/10.3-2021.07/gcc/bin/../lib/gcc/arm-none-eabi/10.3.1/../../../../arm-none-eabi/lib/thumb/v7-m/nofp/libg.a(lib_a-fputwc.o)
                0x000000000800ba84                __fputwc
 .text._fputwc_r
                0x000000000800bb24       0x68 /opt/homebrew/Cellar/arm-none-eabi-gcc/10.3-2021.07/gcc/bin/../lib/gcc/arm-none-eabi/10.3.1/../../../../arm-none-eabi/lib/thumb/v7-m/nofp/libg.a(lib_a-fputwc.o)
                0x000000000800bb24                _fputwc_r
 .text._fstat_r
                0x000000000800bb8c       0x28 /opt/homebrew/Cellar/arm-none-eabi-gcc/10.3-2021.07/gcc/bin/../lib/gcc/arm-none-eabi/10.3.1/../../../../arm-none-eabi/lib/thumb/v7-m/nofp/libg.a(lib_a-fstatr.o)
                0x000000000800bb8c                _fstat_r
 .text._isatty_r
                0x000000000800bbb4       0x24 /opt/homebrew/Cellar/arm-none-eabi-gcc/10.3-2021.07/gcc/bin/../lib/gcc/arm-none-eabi/10.3.1/../../../../arm-none-eabi/lib/thumb/v7-m/nofp/libg.a(lib_a-isattyr.o)
                0x000000000800bbb4                _isatty_r
 .text.__locale_mb_cur_max
                0x000000000800bbd8        0xc /opt/homebrew/Cellar/arm-none-eabi-gcc/10.3-2021.07/gcc/bin/../lib/gcc/arm-none-eabi/10.3.1/../../../../arm-none-eabi/lib/thumb/v7-m/nofp/libg.a(lib_a-locale.o)
                0x000000000800bbd8                __locale_mb_cur_max
 .text._lseek_r
                0x000000000800bbe4       0x2c /opt/homebrew/Cellar/arm-none-eabi-gcc/10.3-2021.07/gcc/bin/../lib/gcc/arm-none-eabi/10.3.1/../../../../arm-none-eabi/lib/thumb/v7-m/nofp/libg.a(lib_a-lseekr.o)
                0x000000000800bbe4                _lseek_r
 .text.__ascii_mbtowc
                0x000000000800bc10       0x2c /opt/homebrew/Cellar/arm-none-eabi-gcc/10.3-2021.07/gcc/bin/../lib/gcc/arm-none-eabi/10.3.1/../../../../arm-none-eabi/lib/thumb/v7-m/nofp/libg.a(lib_a-mbtowc_r.o)
                0x000000000800bc10                __ascii_mbtowc
 .text._read_r  0x000000000800bc3c       0x2c /opt/homebrew/Cellar/arm-none-eabi-gcc/10.3-2021.07/gcc/bin/../lib/gcc/arm-none-eabi/10.3.1/../../../../arm-none-eabi/lib/thumb/v7-m/nofp/libg.a(lib_a-readr.o)
                0x000000000800bc3c                _read_r
 .text.__swbuf_r
                0x000000000800bc68       0xb0 /opt/homebrew/Cellar/arm-none-eabi-gcc/10.3-2021.07/gcc/bin/../lib/gcc/arm-none-eabi/10.3.1/../../../../arm-none-eabi/lib/thumb/v7-m/nofp/libg.a(lib_a-wbuf.o)
                0x000000000800bc68                __swbuf_r
 .text._wcrtomb_r
                0x000000000800bd18       0x3c /opt/homebrew/Cellar/arm-none-eabi-gcc/10.3-2021.07/gcc/bin/../lib/gcc/arm-none-eabi/10.3.1/../../../../arm-none-eabi/lib/thumb/v7-m/nofp/libg.a(lib_a-wcrtomb.o)
                0x000000000800bd18                _wcrtomb_r
 .text.__ascii_wctomb
                0x000000000800bd54       0x1c /opt/homebrew/Cellar/arm-none-eabi-gcc/10.3-2021.07/gcc/bin/../lib/gcc/arm-none-eabi/10.3.1/../../../../arm-none-eabi/lib/thumb/v7-m/nofp/libg.a(lib_a-wctomb_r.o)
                0x000000000800bd54                __ascii_wctomb
 .text.abort    0x000000000800bd70       0x10 /opt/homebrew/Cellar/arm-none-eabi-gcc/10.3-2021.07/gcc/bin/../lib/gcc/arm-none-eabi/10.3.1/../../../../arm-none-eabi/lib/thumb/v7-m/nofp/libg.a(lib_a-abort.o)
                0x000000000800bd70                abort
 .text.raise    0x000000000800bd80       0x5c /opt/homebrew/Cellar/arm-none-eabi-gcc/10.3-2021.07/gcc/bin/../lib/gcc/arm-none-eabi/10.3.1/../../../../arm-none-eabi/lib/thumb/v7-m/nofp/libg.a(lib_a-signal.o)
                0x000000000800bd80                raise
 .text._kill_r  0x000000000800bddc       0x28 /opt/homebrew/Cellar/arm-none-eabi-gcc/10.3-2021.07/gcc/bin/../lib/gcc/arm-none-eabi/10.3.1/../../../../arm-none-eabi/lib/thumb/v7-m/nofp/libg.a(lib_a-signalr.o)
                0x000000000800bddc                _kill_r
 .text._getpid_r
                0x000000000800be04        0x4 /opt/homebrew/Cellar/arm-none-eabi-gcc/10.3-2021.07/gcc/bin/../lib/gcc/arm-none-eabi/10.3.1/../../../../arm-none-eabi/lib/thumb/v7-m/nofp/libg.a(lib_a-signalr.o)
                0x000000000800be04                _getpid_r
 *(.glue_7)
 .glue_7        0x000000000800be08        0x0 linker stubs
 *(.glue_7t)
 .glue_7t       0x000000000800be08        0x0 linker stubs
 *(.eh_frame)
 .eh_frame      0x000000000800be08        0x0 /opt/homebrew/Cellar/arm-none-eabi-gcc/10.3-2021.07/gcc/bin/../lib/gcc/arm-none-eabi/10.3.1/thumb/v7-m/nofp/crtbegin.o
 *(.init)
 .init          0x000000000800be08        0x4 /opt/homebrew/Cellar/arm-none-eabi-gcc/10.3-2021.07/gcc/bin/../lib/gcc/arm-none-eabi/10.3.1/thumb/v7-m/nofp/crti.o
                0x000000000800be08                _init
 .init          0x000000000800be0c        0x8 /opt/homebrew/Cellar/arm-none-eabi-gcc/10.3-2021.07/gcc/bin/../lib/gcc/arm-none-eabi/10.3.1/thumb/v7-m/nofp/crtn.o
 *(.fini)
 .fini          0x000000000800be14        0x4 /opt/homebrew/Cellar/arm-none-eabi-gcc/10.3-2021.07/gcc/bin/../lib/gcc/arm-none-eabi/10.3.1/thumb/v7-m/nofp/crti.o
                0x000000000800be14                _fini
 .fini          0x000000000800be18        0x8 /opt/homebrew/Cellar/arm-none-eabi-gcc/10.3-2021.07/gcc/bin/../lib/gcc/arm-none-eabi/10.3.1/thumb/v7-m/nofp/crtn.o
                0x000000000800be20                . = ALIGN (0x4)
                0x000000000800be20                _etext = .

.vfp11_veneer   0x000000000800be20        0x0
 .vfp11_veneer  0x000000000800be20        0x0 linker stubs

.v4_bx          0x000000000800be20        0x0
 .v4_bx         0x000000000800be20        0x0 linker stubs

.iplt           0x000000000800be20        0x0
 .iplt          0x000000000800be20        0x0 /opt/homebrew/Cellar/arm-none-eabi-gcc/10.3-2021.07/gcc/bin/../lib/gcc/arm-none-eabi/10.3.1/thumb/v7-m/nofp/crtbegin.o

.rodata         0x000000000800be20      0x830
                0x000000000800be20                . = ALIGN (0x4)
 *(.rodata)
 .rodata        0x000000000800be20       0x80 CMakeFiles/Proj32.elf.dir/Core/Src/main.c.obj
 *(.rodata*)
 .rodata.FATFS_FLASH_Test.str1.4
                0x000000000800bea0      0x28c CMakeFiles/Proj32.elf.dir/Core/Src/main.c.obj
 .rodata.SPI_FLASH_Test.str1.4
                0x000000000800c12c       0x7e CMakeFiles/Proj32.elf.dir/Core/Src/main.c.obj
 *fill*         0x000000000800c1aa        0x2 
 .rodata.EEPROM_IIC_Test.str1.4
                0x000000000800c1ac       0x3b CMakeFiles/Proj32.elf.dir/Core/Src/main.c.obj
 *fill*         0x000000000800c1e7        0x1 
 .rodata.HAL_GPIO_EXTI_Callback.str1.4
                0x000000000800c1e8       0x13 CMakeFiles/Proj32.elf.dir/Core/Src/main.c.obj
 *fill*         0x000000000800c1fb        0x1 
 .rodata.AHBPrescTable
                0x000000000800c1fc       0x10 CMakeFiles/Proj32.elf.dir/Core/Src/system_stm32f1xx.c.obj
                0x000000000800c1fc                AHBPrescTable
 .rodata.APBPrescTable
                0x000000000800c20c        0x8 CMakeFiles/Proj32.elf.dir/Core/Src/system_stm32f1xx.c.obj
                0x000000000800c20c                APBPrescTable
 .rodata.HAL_RCC_GetSysClockFreq.str1.4
                0x000000000800c214       0x11 CMakeFiles/Proj32.elf.dir/Drivers/STM32F1xx_HAL_Driver/Src/stm32f1xx_hal_rcc.c.obj
 *fill*         0x000000000800c225        0x3 
 .rodata.create_name.str1.4
                0x000000000800c228        0xf CMakeFiles/Proj32.elf.dir/Middlewares/Third_Party/FatFs/src/ff.c.obj
 *fill*         0x000000000800c237        0x1 
 .rodata.f_mkfs.str1.4
                0x000000000800c238       0x34 CMakeFiles/Proj32.elf.dir/Middlewares/Third_Party/FatFs/src/ff.c.obj
 .rodata.cst.0  0x000000000800c26c       0x16 CMakeFiles/Proj32.elf.dir/Middlewares/Third_Party/FatFs/src/ff.c.obj
 *fill*         0x000000000800c282        0x2 
 .rodata.vst.1  0x000000000800c284       0x16 CMakeFiles/Proj32.elf.dir/Middlewares/Third_Party/FatFs/src/ff.c.obj
 *fill*         0x000000000800c29a        0x2 
 .rodata._global_impure_ptr
                0x000000000800c29c        0x4 /opt/homebrew/Cellar/arm-none-eabi-gcc/10.3-2021.07/gcc/bin/../lib/gcc/arm-none-eabi/10.3.1/../../../../arm-none-eabi/lib/thumb/v7-m/nofp/libg.a(lib_a-impure.o)
                0x000000000800c29c                _global_impure_ptr
 .rodata._puts_r.str1.4
                0x000000000800c2a0       0x34 /opt/homebrew/Cellar/arm-none-eabi-gcc/10.3-2021.07/gcc/bin/../lib/gcc/arm-none-eabi/10.3.1/../../../../arm-none-eabi/lib/thumb/v7-m/nofp/libg.a(lib_a-puts.o)
                                          0x2 (size before relaxing)
 .rodata._vfprintf_r.str1.4
                0x000000000800c2a0       0x42 /opt/homebrew/Cellar/arm-none-eabi-gcc/10.3-2021.07/gcc/bin/../lib/gcc/arm-none-eabi/10.3.1/../../../../arm-none-eabi/lib/thumb/v7-m/nofp/libg.a(lib_a-vfprintf.o)
 *fill*         0x000000000800c2e2        0x2 
 .rodata.blanks.1
                0x000000000800c2e4       0x10 /opt/homebrew/Cellar/arm-none-eabi-gcc/10.3-2021.07/gcc/bin/../lib/gcc/arm-none-eabi/10.3.1/../../../../arm-none-eabi/lib/thumb/v7-m/nofp/libg.a(lib_a-vfprintf.o)
 .rodata.zeroes.0
                0x000000000800c2f4       0x10 /opt/homebrew/Cellar/arm-none-eabi-gcc/10.3-2021.07/gcc/bin/../lib/gcc/arm-none-eabi/10.3.1/../../../../arm-none-eabi/lib/thumb/v7-m/nofp/libg.a(lib_a-vfprintf.o)
 .rodata._dtoa_r.str1.4
                0x000000000800c304       0x7e /opt/homebrew/Cellar/arm-none-eabi-gcc/10.3-2021.07/gcc/bin/../lib/gcc/arm-none-eabi/10.3.1/../../../../arm-none-eabi/lib/thumb/v7-m/nofp/libg.a(lib_a-dtoa.o)
                                         0x82 (size before relaxing)
 *fill*         0x000000000800c382        0x2 
 .rodata.__multadd.str1.4
                0x000000000800c384       0x5b /opt/homebrew/Cellar/arm-none-eabi-gcc/10.3-2021.07/gcc/bin/../lib/gcc/arm-none-eabi/10.3.1/../../../../arm-none-eabi/lib/thumb/v7-m/nofp/libg.a(lib_a-mprec.o)
                                         0x6f (size before relaxing)
 *fill*         0x000000000800c3df        0x1 
 .rodata.__mprec_bigtens
                0x000000000800c3e0       0x28 /opt/homebrew/Cellar/arm-none-eabi-gcc/10.3-2021.07/gcc/bin/../lib/gcc/arm-none-eabi/10.3.1/../../../../arm-none-eabi/lib/thumb/v7-m/nofp/libg.a(lib_a-mprec.o)
                0x000000000800c3e0                __mprec_bigtens
 .rodata.__mprec_tens
                0x000000000800c408       0xc8 /opt/homebrew/Cellar/arm-none-eabi-gcc/10.3-2021.07/gcc/bin/../lib/gcc/arm-none-eabi/10.3.1/../../../../arm-none-eabi/lib/thumb/v7-m/nofp/libg.a(lib_a-mprec.o)
                0x000000000800c408                __mprec_tens
 .rodata.p05.0  0x000000000800c4d0        0xc /opt/homebrew/Cellar/arm-none-eabi-gcc/10.3-2021.07/gcc/bin/../lib/gcc/arm-none-eabi/10.3.1/../../../../arm-none-eabi/lib/thumb/v7-m/nofp/libg.a(lib_a-mprec.o)
 .rodata._vfiprintf_r.str1.4
                0x000000000800c4dc       0x2f /opt/homebrew/Cellar/arm-none-eabi-gcc/10.3-2021.07/gcc/bin/../lib/gcc/arm-none-eabi/10.3.1/../../../../arm-none-eabi/lib/thumb/v7-m/nofp/libg.a(lib_a-vfiprintf.o)
 .rodata.blanks.1
                0x000000000800c4dc       0x10 /opt/homebrew/Cellar/arm-none-eabi-gcc/10.3-2021.07/gcc/bin/../lib/gcc/arm-none-eabi/10.3.1/../../../../arm-none-eabi/lib/thumb/v7-m/nofp/libg.a(lib_a-vfiprintf.o)
 .rodata.zeroes.0
                0x000000000800c4ec       0x10 /opt/homebrew/Cellar/arm-none-eabi-gcc/10.3-2021.07/gcc/bin/../lib/gcc/arm-none-eabi/10.3.1/../../../../arm-none-eabi/lib/thumb/v7-m/nofp/libg.a(lib_a-vfiprintf.o)
 .rodata.__assert_func.str1.4
                0x000000000800c4fc       0x3f /opt/homebrew/Cellar/arm-none-eabi-gcc/10.3-2021.07/gcc/bin/../lib/gcc/arm-none-eabi/10.3.1/../../../../arm-none-eabi/lib/thumb/v7-m/nofp/libg.a(lib_a-assert.o)
                                         0x43 (size before relaxing)
 *fill*         0x000000000800c53b        0x1 
 .rodata._setlocale_r.str1.4
                0x000000000800c53c        0xa /opt/homebrew/Cellar/arm-none-eabi-gcc/10.3-2021.07/gcc/bin/../lib/gcc/arm-none-eabi/10.3.1/../../../../arm-none-eabi/lib/thumb/v7-m/nofp/libg.a(lib_a-locale.o)
                                          0xd (size before relaxing)
 *fill*         0x000000000800c546        0x2 
 .rodata.str1.4
                0x000000000800c548        0x2 /opt/homebrew/Cellar/arm-none-eabi-gcc/10.3-2021.07/gcc/bin/../lib/gcc/arm-none-eabi/10.3.1/../../../../arm-none-eabi/lib/thumb/v7-m/nofp/libg.a(lib_a-locale.o)
 *fill*         0x000000000800c54a        0x2 
 .rodata._ctype_
                0x000000000800c54c      0x101 /opt/homebrew/Cellar/arm-none-eabi-gcc/10.3-2021.07/gcc/bin/../lib/gcc/arm-none-eabi/10.3.1/../../../../arm-none-eabi/lib/thumb/v7-m/nofp/libg.a(lib_a-ctype_.o)
                0x000000000800c54c                _ctype_
                0x000000000800c650                . = ALIGN (0x4)
 *fill*         0x000000000800c64d        0x3 

.ARM.extab      0x000000000800c650        0x0
                0x000000000800c650                . = ALIGN (0x4)
 *(.ARM.extab* .gnu.linkonce.armextab.*)
                0x000000000800c650                . = ALIGN (0x4)

.ARM            0x000000000800c650        0x8
                0x000000000800c650                . = ALIGN (0x4)
                0x000000000800c650                __exidx_start = .
 *(.ARM.exidx*)
 .ARM.exidx     0x000000000800c650        0x8 /opt/homebrew/Cellar/arm-none-eabi-gcc/10.3-2021.07/gcc/bin/../lib/gcc/arm-none-eabi/10.3.1/thumb/v7-m/nofp/libgcc.a(_udivmoddi4.o)
                0x000000000800c658                __exidx_end = .
                0x000000000800c658                . = ALIGN (0x4)

.rel.dyn        0x000000000800c658        0x0
 .rel.iplt      0x000000000800c658        0x0 /opt/homebrew/Cellar/arm-none-eabi-gcc/10.3-2021.07/gcc/bin/../lib/gcc/arm-none-eabi/10.3.1/thumb/v7-m/nofp/crtbegin.o

.preinit_array  0x000000000800c658        0x0
                0x000000000800c658                . = ALIGN (0x4)
                0x000000000800c658                PROVIDE (__preinit_array_start = .)
 *(.preinit_array*)
                0x000000000800c658                PROVIDE (__preinit_array_end = .)
                0x000000000800c658                . = ALIGN (0x4)

.init_array     0x000000000800c658        0x8
                0x000000000800c658                . = ALIGN (0x4)
                0x000000000800c658                PROVIDE (__init_array_start = .)
 *(SORT_BY_NAME(.init_array.*))
 .init_array.00000
                0x000000000800c658        0x4 /opt/homebrew/Cellar/arm-none-eabi-gcc/10.3-2021.07/gcc/bin/../lib/gcc/arm-none-eabi/10.3.1/../../../../arm-none-eabi/lib/thumb/v7-m/nofp/libg.a(lib_a-__call_atexit.o)
 *(.init_array*)
 .init_array    0x000000000800c65c        0x4 /opt/homebrew/Cellar/arm-none-eabi-gcc/10.3-2021.07/gcc/bin/../lib/gcc/arm-none-eabi/10.3.1/thumb/v7-m/nofp/crtbegin.o
                0x000000000800c660                PROVIDE (__init_array_end = .)
                0x000000000800c660                . = ALIGN (0x4)

.fini_array     0x000000000800c660        0x4
                0x000000000800c660                . = ALIGN (0x4)
                0x000000000800c660                PROVIDE (__fini_array_start = .)
 *(SORT_BY_NAME(.fini_array.*))
 *(.fini_array*)
 .fini_array    0x000000000800c660        0x4 /opt/homebrew/Cellar/arm-none-eabi-gcc/10.3-2021.07/gcc/bin/../lib/gcc/arm-none-eabi/10.3.1/thumb/v7-m/nofp/crtbegin.o
                0x000000000800c664                PROVIDE (__fini_array_end = .)
                0x000000000800c664                . = ALIGN (0x4)
                0x000000000800c664                _sidata = LOADADDR (.data)

.data           0x0000000020000000      0xdd0 load address 0x000000000800c664
                0x0000000020000000                . = ALIGN (0x4)
                0x0000000020000000                _sdata = .
 *(.data)
 *(.data*)
 .data.User_OLED_GRAM
                0x0000000020000000      0x400 CMakeFiles/Proj32.elf.dir/Core/Src/oled.c.obj
                0x0000000020000000                User_OLED_GRAM
 .data.SystemCoreClock
                0x0000000020000400        0x4 CMakeFiles/Proj32.elf.dir/Core/Src/system_stm32f1xx.c.obj
                0x0000000020000400                SystemCoreClock
 .data.uwTickFreq
                0x0000000020000404        0x1 CMakeFiles/Proj32.elf.dir/Drivers/STM32F1xx_HAL_Driver/Src/stm32f1xx_hal.c.obj
                0x0000000020000404                uwTickFreq
 *fill*         0x0000000020000405        0x3 
 .data.uwTickPrio
                0x0000000020000408        0x4 CMakeFiles/Proj32.elf.dir/Drivers/STM32F1xx_HAL_Driver/Src/stm32f1xx_hal.c.obj
                0x0000000020000408                uwTickPrio
 .data.Stat     0x000000002000040c        0x1 CMakeFiles/Proj32.elf.dir/FATFS/Target/user_diskio.c.obj
 *fill*         0x000000002000040d        0x3 
 .data.USER_Driver
                0x0000000020000410       0x14 CMakeFiles/Proj32.elf.dir/FATFS/Target/user_diskio.c.obj
                0x0000000020000410                USER_Driver
 .data._impure_ptr
                0x0000000020000424        0x4 /opt/homebrew/Cellar/arm-none-eabi-gcc/10.3-2021.07/gcc/bin/../lib/gcc/arm-none-eabi/10.3.1/../../../../arm-none-eabi/lib/thumb/v7-m/nofp/libg.a(lib_a-impure.o)
                0x0000000020000424                _impure_ptr
 .data.impure_data
                0x0000000020000428      0x428 /opt/homebrew/Cellar/arm-none-eabi-gcc/10.3-2021.07/gcc/bin/../lib/gcc/arm-none-eabi/10.3.1/../../../../arm-none-eabi/lib/thumb/v7-m/nofp/libg.a(lib_a-impure.o)
 .data.__atexit_recursive_mutex
                0x0000000020000850        0x4 /opt/homebrew/Cellar/arm-none-eabi-gcc/10.3-2021.07/gcc/bin/../lib/gcc/arm-none-eabi/10.3.1/../../../../arm-none-eabi/lib/thumb/v7-m/nofp/libg.a(lib_a-__call_atexit.o)
                0x0000000020000850                __atexit_recursive_mutex
 .data.__malloc_av_
                0x0000000020000854      0x408 /opt/homebrew/Cellar/arm-none-eabi-gcc/10.3-2021.07/gcc/bin/../lib/gcc/arm-none-eabi/10.3.1/../../../../arm-none-eabi/lib/thumb/v7-m/nofp/libg.a(lib_a-mallocr.o)
                0x0000000020000854                __malloc_av_
 .data.__malloc_sbrk_base
                0x0000000020000c5c        0x4 /opt/homebrew/Cellar/arm-none-eabi-gcc/10.3-2021.07/gcc/bin/../lib/gcc/arm-none-eabi/10.3.1/../../../../arm-none-eabi/lib/thumb/v7-m/nofp/libg.a(lib_a-mallocr.o)
                0x0000000020000c5c                __malloc_sbrk_base
 .data.__malloc_trim_threshold
                0x0000000020000c60        0x4 /opt/homebrew/Cellar/arm-none-eabi-gcc/10.3-2021.07/gcc/bin/../lib/gcc/arm-none-eabi/10.3.1/../../../../arm-none-eabi/lib/thumb/v7-m/nofp/libg.a(lib_a-mallocr.o)
                0x0000000020000c60                __malloc_trim_threshold
 .data.__global_locale
                0x0000000020000c64      0x16c /opt/homebrew/Cellar/arm-none-eabi-gcc/10.3-2021.07/gcc/bin/../lib/gcc/arm-none-eabi/10.3.1/../../../../arm-none-eabi/lib/thumb/v7-m/nofp/libg.a(lib_a-locale.o)
                0x0000000020000c64                __global_locale
 *(.RamFunc)
 *(.RamFunc*)
                0x0000000020000dd0                . = ALIGN (0x4)
                0x0000000020000dd0                _edata = .

.igot.plt       0x0000000020000dd0        0x0 load address 0x000000000800d434
 .igot.plt      0x0000000020000dd0        0x0 /opt/homebrew/Cellar/arm-none-eabi-gcc/10.3-2021.07/gcc/bin/../lib/gcc/arm-none-eabi/10.3.1/thumb/v7-m/nofp/crtbegin.o
                0x0000000020000dd0                . = ALIGN (0x4)

.bss            0x0000000020000dd0      0x8ac load address 0x000000000800d434
                0x0000000020000dd0                _sbss = .
                0x0000000020000dd0                __bss_start__ = _sbss
 *(.bss)
 .bss           0x0000000020000dd0       0x1c /opt/homebrew/Cellar/arm-none-eabi-gcc/10.3-2021.07/gcc/bin/../lib/gcc/arm-none-eabi/10.3.1/thumb/v7-m/nofp/crtbegin.o
 *(.bss*)
 .bss.hspi1     0x0000000020000dec       0x58 CMakeFiles/Proj32.elf.dir/Core/Src/bsp_spi_flash.c.obj
                0x0000000020000dec                hspi1
 .bss.Rd_buff   0x0000000020000e44      0x100 CMakeFiles/Proj32.elf.dir/Core/Src/main.c.obj
                0x0000000020000e44                Rd_buff
 .bss.Wr_buff   0x0000000020000f44      0x100 CMakeFiles/Proj32.elf.dir/Core/Src/main.c.obj
                0x0000000020000f44                Wr_buff
 .bss.fall_pot  0x0000000020001044       0x80 CMakeFiles/Proj32.elf.dir/Core/Src/main.c.obj
                0x0000000020001044                fall_pot
 .bss.fnew.0    0x00000000200010c4       0x2c CMakeFiles/Proj32.elf.dir/Core/Src/main.c.obj
 .bss.huart1    0x00000000200010f0       0x44 CMakeFiles/Proj32.elf.dir/Core/Src/main.c.obj
                0x00000000200010f0                huart1
 .bss.rx_buff   0x0000000020001134       0x64 CMakeFiles/Proj32.elf.dir/Core/Src/main.c.obj
                0x0000000020001134                rx_buff
 .bss.rx_cnt    0x0000000020001198        0x1 CMakeFiles/Proj32.elf.dir/Core/Src/main.c.obj
                0x0000000020001198                rx_cnt
 .bss.rx_done   0x0000000020001199        0x1 CMakeFiles/Proj32.elf.dir/Core/Src/main.c.obj
                0x0000000020001199                rx_done
 *fill*         0x000000002000119a        0x2 
 .bss.OLED_GRAM
                0x000000002000119c      0x400 CMakeFiles/Proj32.elf.dir/Core/Src/oled.c.obj
                0x000000002000119c                OLED_GRAM
 .bss.hi2c1     0x000000002000159c       0x54 CMakeFiles/Proj32.elf.dir/Core/Src/oled.c.obj
                0x000000002000159c                hi2c1
 .bss.__sbrk_heap_end
                0x00000000200015f0        0x4 CMakeFiles/Proj32.elf.dir/Core/Src/sysmem.c.obj
 .bss.uwTick    0x00000000200015f4        0x4 CMakeFiles/Proj32.elf.dir/Drivers/STM32F1xx_HAL_Driver/Src/stm32f1xx_hal.c.obj
                0x00000000200015f4                uwTick
 .bss.USERPath  0x00000000200015f8        0x4 CMakeFiles/Proj32.elf.dir/FATFS/App/fatfs.c.obj
                0x00000000200015f8                USERPath
 .bss.retUSER   0x00000000200015fc        0x1 CMakeFiles/Proj32.elf.dir/FATFS/App/fatfs.c.obj
                0x00000000200015fc                retUSER
 *fill*         0x00000000200015fd        0x3 
 .bss.FatFs     0x0000000020001600        0x8 CMakeFiles/Proj32.elf.dir/Middlewares/Third_Party/FatFs/src/ff.c.obj
 .bss.Files     0x0000000020001608       0x18 CMakeFiles/Proj32.elf.dir/Middlewares/Third_Party/FatFs/src/ff.c.obj
 .bss.Fsid      0x0000000020001620        0x2 CMakeFiles/Proj32.elf.dir/Middlewares/Third_Party/FatFs/src/ff.c.obj
 *fill*         0x0000000020001622        0x2 
 .bss.disk      0x0000000020001624       0x10 CMakeFiles/Proj32.elf.dir/Middlewares/Third_Party/FatFs/src/ff_gen_drv.c.obj
                0x0000000020001624                disk
 .bss.__lock___atexit_recursive_mutex
                0x0000000020001634        0x1 /opt/homebrew/Cellar/arm-none-eabi-gcc/10.3-2021.07/gcc/bin/../lib/gcc/arm-none-eabi/10.3.1/../../../../arm-none-eabi/lib/thumb/v7-m/nofp/libg.a(lib_a-lock.o)
                0x0000000020001634                __lock___atexit_recursive_mutex
 *fill*         0x0000000020001635        0x3 
 .bss.__lock___malloc_recursive_mutex
                0x0000000020001638        0x1 /opt/homebrew/Cellar/arm-none-eabi-gcc/10.3-2021.07/gcc/bin/../lib/gcc/arm-none-eabi/10.3.1/../../../../arm-none-eabi/lib/thumb/v7-m/nofp/libg.a(lib_a-lock.o)
                0x0000000020001638                __lock___malloc_recursive_mutex
 *fill*         0x0000000020001639        0x3 
 .bss.__lock___sfp_recursive_mutex
                0x000000002000163c        0x1 /opt/homebrew/Cellar/arm-none-eabi-gcc/10.3-2021.07/gcc/bin/../lib/gcc/arm-none-eabi/10.3.1/../../../../arm-none-eabi/lib/thumb/v7-m/nofp/libg.a(lib_a-lock.o)
                0x000000002000163c                __lock___sfp_recursive_mutex
 *fill*         0x000000002000163d        0x3 
 .bss.__lock___sinit_recursive_mutex
                0x0000000020001640        0x1 /opt/homebrew/Cellar/arm-none-eabi-gcc/10.3-2021.07/gcc/bin/../lib/gcc/arm-none-eabi/10.3.1/../../../../arm-none-eabi/lib/thumb/v7-m/nofp/libg.a(lib_a-lock.o)
                0x0000000020001640                __lock___sinit_recursive_mutex
 *fill*         0x0000000020001641        0x3 
 .bss.__malloc_current_mallinfo
                0x0000000020001644       0x28 /opt/homebrew/Cellar/arm-none-eabi-gcc/10.3-2021.07/gcc/bin/../lib/gcc/arm-none-eabi/10.3.1/../../../../arm-none-eabi/lib/thumb/v7-m/nofp/libg.a(lib_a-mallocr.o)
                0x0000000020001644                __malloc_current_mallinfo
 .bss.__malloc_max_sbrked_mem
                0x000000002000166c        0x4 /opt/homebrew/Cellar/arm-none-eabi-gcc/10.3-2021.07/gcc/bin/../lib/gcc/arm-none-eabi/10.3.1/../../../../arm-none-eabi/lib/thumb/v7-m/nofp/libg.a(lib_a-mallocr.o)
                0x000000002000166c                __malloc_max_sbrked_mem
 .bss.__malloc_max_total_mem
                0x0000000020001670        0x4 /opt/homebrew/Cellar/arm-none-eabi-gcc/10.3-2021.07/gcc/bin/../lib/gcc/arm-none-eabi/10.3.1/../../../../arm-none-eabi/lib/thumb/v7-m/nofp/libg.a(lib_a-mallocr.o)
                0x0000000020001670                __malloc_max_total_mem
 .bss.__malloc_top_pad
                0x0000000020001674        0x4 /opt/homebrew/Cellar/arm-none-eabi-gcc/10.3-2021.07/gcc/bin/../lib/gcc/arm-none-eabi/10.3.1/../../../../arm-none-eabi/lib/thumb/v7-m/nofp/libg.a(lib_a-mallocr.o)
                0x0000000020001674                __malloc_top_pad
 .bss.errno     0x0000000020001678        0x4 /opt/homebrew/Cellar/arm-none-eabi-gcc/10.3-2021.07/gcc/bin/../lib/gcc/arm-none-eabi/10.3.1/../../../../arm-none-eabi/lib/thumb/v7-m/nofp/libg.a(lib_a-reent.o)
                0x0000000020001678                errno
 *(COMMON)
                0x000000002000167c                . = ALIGN (0x4)
                0x000000002000167c                _ebss = .
                0x000000002000167c                __bss_end__ = _ebss

._user_heap_stack
                0x000000002000167c     0x1404 load address 0x000000000800d434
                0x0000000020001680                . = ALIGN (0x8)
 *fill*         0x000000002000167c        0x4 
                [!provide]                        PROVIDE (end = .)
                0x0000000020001680                PROVIDE (_end = .)
                0x0000000020001a80                . = (. + _Min_Heap_Size)
 *fill*         0x0000000020001680      0x400 
                0x0000000020002a80                . = (. + _Min_Stack_Size)
 *fill*         0x0000000020001a80     0x1000 
                0x0000000020002a80                . = ALIGN (0x8)

/DISCARD/
 libc.a(*)
 libm.a(*)
 libgcc.a(*)

.ARM.attributes
                0x0000000000000000       0x29
 *(.ARM.attributes)
 .ARM.attributes
                0x0000000000000000       0x1d /opt/homebrew/Cellar/arm-none-eabi-gcc/10.3-2021.07/gcc/bin/../lib/gcc/arm-none-eabi/10.3.1/thumb/v7-m/nofp/crti.o
 .ARM.attributes
                0x000000000000001d       0x2d /opt/homebrew/Cellar/arm-none-eabi-gcc/10.3-2021.07/gcc/bin/../lib/gcc/arm-none-eabi/10.3.1/thumb/v7-m/nofp/crtbegin.o
 .ARM.attributes
                0x000000000000004a       0x2d CMakeFiles/Proj32.elf.dir/Core/Src/bsp_spi_flash.c.obj
 .ARM.attributes
                0x0000000000000077       0x2d CMakeFiles/Proj32.elf.dir/Core/Src/main.c.obj
 .ARM.attributes
                0x00000000000000a4       0x2d CMakeFiles/Proj32.elf.dir/Core/Src/oled.c.obj
 .ARM.attributes
                0x00000000000000d1       0x2d CMakeFiles/Proj32.elf.dir/Core/Src/stm32f1xx_hal_msp.c.obj
 .ARM.attributes
                0x00000000000000fe       0x2d CMakeFiles/Proj32.elf.dir/Core/Src/stm32f1xx_it.c.obj
 .ARM.attributes
                0x000000000000012b       0x2d CMakeFiles/Proj32.elf.dir/Core/Src/syscalls.c.obj
 .ARM.attributes
                0x0000000000000158       0x2d CMakeFiles/Proj32.elf.dir/Core/Src/sysmem.c.obj
 .ARM.attributes
                0x0000000000000185       0x2d CMakeFiles/Proj32.elf.dir/Core/Src/system_stm32f1xx.c.obj
 .ARM.attributes
                0x00000000000001b2       0x21 CMakeFiles/Proj32.elf.dir/Core/Startup/startup_stm32f103vbtx.s.obj
 .ARM.attributes
                0x00000000000001d3       0x2d CMakeFiles/Proj32.elf.dir/Drivers/STM32F1xx_HAL_Driver/Src/stm32f1xx_hal.c.obj
 .ARM.attributes
                0x0000000000000200       0x2d CMakeFiles/Proj32.elf.dir/Drivers/STM32F1xx_HAL_Driver/Src/stm32f1xx_hal_cortex.c.obj
 .ARM.attributes
                0x000000000000022d       0x2d CMakeFiles/Proj32.elf.dir/Drivers/STM32F1xx_HAL_Driver/Src/stm32f1xx_hal_dma.c.obj
 .ARM.attributes
                0x000000000000025a       0x2d CMakeFiles/Proj32.elf.dir/Drivers/STM32F1xx_HAL_Driver/Src/stm32f1xx_hal_gpio.c.obj
 .ARM.attributes
                0x0000000000000287       0x2d CMakeFiles/Proj32.elf.dir/Drivers/STM32F1xx_HAL_Driver/Src/stm32f1xx_hal_i2c.c.obj
 .ARM.attributes
                0x00000000000002b4       0x2d CMakeFiles/Proj32.elf.dir/Drivers/STM32F1xx_HAL_Driver/Src/stm32f1xx_hal_rcc.c.obj
 .ARM.attributes
                0x00000000000002e1       0x2d CMakeFiles/Proj32.elf.dir/Drivers/STM32F1xx_HAL_Driver/Src/stm32f1xx_hal_spi.c.obj
 .ARM.attributes
                0x000000000000030e       0x2d CMakeFiles/Proj32.elf.dir/Drivers/STM32F1xx_HAL_Driver/Src/stm32f1xx_hal_uart.c.obj
 .ARM.attributes
                0x000000000000033b       0x2d CMakeFiles/Proj32.elf.dir/FATFS/App/fatfs.c.obj
 .ARM.attributes
                0x0000000000000368       0x2d CMakeFiles/Proj32.elf.dir/FATFS/Target/user_diskio.c.obj
 .ARM.attributes
                0x0000000000000395       0x2d CMakeFiles/Proj32.elf.dir/Middlewares/Third_Party/FatFs/src/diskio.c.obj
 .ARM.attributes
                0x00000000000003c2       0x2d CMakeFiles/Proj32.elf.dir/Middlewares/Third_Party/FatFs/src/ff.c.obj
 .ARM.attributes
                0x00000000000003ef       0x2d CMakeFiles/Proj32.elf.dir/Middlewares/Third_Party/FatFs/src/ff_gen_drv.c.obj
 .ARM.attributes
                0x000000000000041c       0x2d /opt/homebrew/Cellar/arm-none-eabi-gcc/10.3-2021.07/gcc/bin/../lib/gcc/arm-none-eabi/10.3.1/../../../../arm-none-eabi/lib/thumb/v7-m/nofp/libg.a(lib_a-errno.o)
 .ARM.attributes
                0x0000000000000449       0x2d /opt/homebrew/Cellar/arm-none-eabi-gcc/10.3-2021.07/gcc/bin/../lib/gcc/arm-none-eabi/10.3.1/../../../../arm-none-eabi/lib/thumb/v7-m/nofp/libg.a(lib_a-impure.o)
 .ARM.attributes
                0x0000000000000476       0x2d /opt/homebrew/Cellar/arm-none-eabi-gcc/10.3-2021.07/gcc/bin/../lib/gcc/arm-none-eabi/10.3.1/../../../../arm-none-eabi/lib/thumb/v7-m/nofp/libg.a(lib_a-init.o)
 .ARM.attributes
                0x00000000000004a3       0x2d /opt/homebrew/Cellar/arm-none-eabi-gcc/10.3-2021.07/gcc/bin/../lib/gcc/arm-none-eabi/10.3.1/../../../../arm-none-eabi/lib/thumb/v7-m/nofp/libg.a(lib_a-memset.o)
 .ARM.attributes
                0x00000000000004d0       0x2d /opt/homebrew/Cellar/arm-none-eabi-gcc/10.3-2021.07/gcc/bin/../lib/gcc/arm-none-eabi/10.3.1/../../../../arm-none-eabi/lib/thumb/v7-m/nofp/libg.a(lib_a-printf.o)
 .ARM.attributes
                0x00000000000004fd       0x2d /opt/homebrew/Cellar/arm-none-eabi-gcc/10.3-2021.07/gcc/bin/../lib/gcc/arm-none-eabi/10.3.1/../../../../arm-none-eabi/lib/thumb/v7-m/nofp/libg.a(lib_a-puts.o)
 .ARM.attributes
                0x000000000000052a       0x2d /opt/homebrew/Cellar/arm-none-eabi-gcc/10.3-2021.07/gcc/bin/../lib/gcc/arm-none-eabi/10.3.1/../../../../arm-none-eabi/lib/thumb/v7-m/nofp/libg.a(lib_a-rand.o)
 .ARM.attributes
                0x0000000000000557       0x2d /opt/homebrew/Cellar/arm-none-eabi-gcc/10.3-2021.07/gcc/bin/../lib/gcc/arm-none-eabi/10.3.1/../../../../arm-none-eabi/lib/thumb/v7-m/nofp/libg.a(lib_a-strlen-stub.o)
 .ARM.attributes
                0x0000000000000584       0x2d /opt/homebrew/Cellar/arm-none-eabi-gcc/10.3-2021.07/gcc/bin/../lib/gcc/arm-none-eabi/10.3.1/../../../../arm-none-eabi/lib/thumb/v7-m/nofp/libg.a(lib_a-vfprintf.o)
 .ARM.attributes
                0x00000000000005b1       0x2d /opt/homebrew/Cellar/arm-none-eabi-gcc/10.3-2021.07/gcc/bin/../lib/gcc/arm-none-eabi/10.3.1/../../../../arm-none-eabi/lib/thumb/v7-m/nofp/libg.a(lib_a-wsetup.o)
 .ARM.attributes
                0x00000000000005de       0x2d /opt/homebrew/Cellar/arm-none-eabi-gcc/10.3-2021.07/gcc/bin/../lib/gcc/arm-none-eabi/10.3.1/../../../../arm-none-eabi/lib/thumb/v7-m/nofp/libg.a(lib_a-__call_atexit.o)
 .ARM.attributes
                0x000000000000060b       0x2d /opt/homebrew/Cellar/arm-none-eabi-gcc/10.3-2021.07/gcc/bin/../lib/gcc/arm-none-eabi/10.3.1/../../../../arm-none-eabi/lib/thumb/v7-m/nofp/libg.a(lib_a-atexit.o)
 .ARM.attributes
                0x0000000000000638       0x2d /opt/homebrew/Cellar/arm-none-eabi-gcc/10.3-2021.07/gcc/bin/../lib/gcc/arm-none-eabi/10.3.1/../../../../arm-none-eabi/lib/thumb/v7-m/nofp/libg.a(lib_a-dtoa.o)
 .ARM.attributes
                0x0000000000000665       0x2d /opt/homebrew/Cellar/arm-none-eabi-gcc/10.3-2021.07/gcc/bin/../lib/gcc/arm-none-eabi/10.3.1/../../../../arm-none-eabi/lib/thumb/v7-m/nofp/libg.a(lib_a-fflush.o)
 .ARM.attributes
                0x0000000000000692       0x2d /opt/homebrew/Cellar/arm-none-eabi-gcc/10.3-2021.07/gcc/bin/../lib/gcc/arm-none-eabi/10.3.1/../../../../arm-none-eabi/lib/thumb/v7-m/nofp/libg.a(lib_a-findfp.o)
 .ARM.attributes
                0x00000000000006bf       0x2d /opt/homebrew/Cellar/arm-none-eabi-gcc/10.3-2021.07/gcc/bin/../lib/gcc/arm-none-eabi/10.3.1/../../../../arm-none-eabi/lib/thumb/v7-m/nofp/libg.a(lib_a-fini.o)
 .ARM.attributes
                0x00000000000006ec       0x2d /opt/homebrew/Cellar/arm-none-eabi-gcc/10.3-2021.07/gcc/bin/../lib/gcc/arm-none-eabi/10.3.1/../../../../arm-none-eabi/lib/thumb/v7-m/nofp/libg.a(lib_a-freer.o)
 .ARM.attributes
                0x0000000000000719       0x2d /opt/homebrew/Cellar/arm-none-eabi-gcc/10.3-2021.07/gcc/bin/../lib/gcc/arm-none-eabi/10.3.1/../../../../arm-none-eabi/lib/thumb/v7-m/nofp/libg.a(lib_a-fvwrite.o)
 .ARM.attributes
                0x0000000000000746       0x2d /opt/homebrew/Cellar/arm-none-eabi-gcc/10.3-2021.07/gcc/bin/../lib/gcc/arm-none-eabi/10.3.1/../../../../arm-none-eabi/lib/thumb/v7-m/nofp/libg.a(lib_a-fwalk.o)
 .ARM.attributes
                0x0000000000000773       0x2d /opt/homebrew/Cellar/arm-none-eabi-gcc/10.3-2021.07/gcc/bin/../lib/gcc/arm-none-eabi/10.3.1/../../../../arm-none-eabi/lib/thumb/v7-m/nofp/libg.a(lib_a-localeconv.o)
 .ARM.attributes
                0x00000000000007a0       0x2d /opt/homebrew/Cellar/arm-none-eabi-gcc/10.3-2021.07/gcc/bin/../lib/gcc/arm-none-eabi/10.3.1/../../../../arm-none-eabi/lib/thumb/v7-m/nofp/libg.a(lib_a-lock.o)
 .ARM.attributes
                0x00000000000007cd       0x2d /opt/homebrew/Cellar/arm-none-eabi-gcc/10.3-2021.07/gcc/bin/../lib/gcc/arm-none-eabi/10.3.1/../../../../arm-none-eabi/lib/thumb/v7-m/nofp/libg.a(lib_a-makebuf.o)
 .ARM.attributes
                0x00000000000007fa       0x2d /opt/homebrew/Cellar/arm-none-eabi-gcc/10.3-2021.07/gcc/bin/../lib/gcc/arm-none-eabi/10.3.1/../../../../arm-none-eabi/lib/thumb/v7-m/nofp/libg.a(lib_a-mallocr.o)
 .ARM.attributes
                0x0000000000000827       0x2d /opt/homebrew/Cellar/arm-none-eabi-gcc/10.3-2021.07/gcc/bin/../lib/gcc/arm-none-eabi/10.3.1/../../../../arm-none-eabi/lib/thumb/v7-m/nofp/libg.a(lib_a-memchr-stub.o)
 .ARM.attributes
                0x0000000000000854       0x1b /opt/homebrew/Cellar/arm-none-eabi-gcc/10.3-2021.07/gcc/bin/../lib/gcc/arm-none-eabi/10.3.1/../../../../arm-none-eabi/lib/thumb/v7-m/nofp/libg.a(lib_a-memcpy.o)
 .ARM.attributes
                0x000000000000086f       0x2d /opt/homebrew/Cellar/arm-none-eabi-gcc/10.3-2021.07/gcc/bin/../lib/gcc/arm-none-eabi/10.3.1/../../../../arm-none-eabi/lib/thumb/v7-m/nofp/libg.a(lib_a-memmove.o)
 .ARM.attributes
                0x000000000000089c       0x2d /opt/homebrew/Cellar/arm-none-eabi-gcc/10.3-2021.07/gcc/bin/../lib/gcc/arm-none-eabi/10.3.1/../../../../arm-none-eabi/lib/thumb/v7-m/nofp/libg.a(lib_a-mlock.o)
 .ARM.attributes
                0x00000000000008c9       0x2d /opt/homebrew/Cellar/arm-none-eabi-gcc/10.3-2021.07/gcc/bin/../lib/gcc/arm-none-eabi/10.3.1/../../../../arm-none-eabi/lib/thumb/v7-m/nofp/libg.a(lib_a-mprec.o)
 .ARM.attributes
                0x00000000000008f6       0x2d /opt/homebrew/Cellar/arm-none-eabi-gcc/10.3-2021.07/gcc/bin/../lib/gcc/arm-none-eabi/10.3.1/../../../../arm-none-eabi/lib/thumb/v7-m/nofp/libg.a(lib_a-reallocr.o)
 .ARM.attributes
                0x0000000000000923       0x2d /opt/homebrew/Cellar/arm-none-eabi-gcc/10.3-2021.07/gcc/bin/../lib/gcc/arm-none-eabi/10.3.1/../../../../arm-none-eabi/lib/thumb/v7-m/nofp/libg.a(lib_a-s_frexp.o)
 .ARM.attributes
                0x0000000000000950       0x2d /opt/homebrew/Cellar/arm-none-eabi-gcc/10.3-2021.07/gcc/bin/../lib/gcc/arm-none-eabi/10.3.1/../../../../arm-none-eabi/lib/thumb/v7-m/nofp/libg.a(lib_a-sbrkr.o)
 .ARM.attributes
                0x000000000000097d       0x2d /opt/homebrew/Cellar/arm-none-eabi-gcc/10.3-2021.07/gcc/bin/../lib/gcc/arm-none-eabi/10.3.1/../../../../arm-none-eabi/lib/thumb/v7-m/nofp/libg.a(lib_a-stdio.o)
 .ARM.attributes
                0x00000000000009aa       0x2d /opt/homebrew/Cellar/arm-none-eabi-gcc/10.3-2021.07/gcc/bin/../lib/gcc/arm-none-eabi/10.3.1/../../../../arm-none-eabi/lib/thumb/v7-m/nofp/libg.a(lib_a-strncpy.o)
 .ARM.attributes
                0x00000000000009d7       0x2d /opt/homebrew/Cellar/arm-none-eabi-gcc/10.3-2021.07/gcc/bin/../lib/gcc/arm-none-eabi/10.3.1/../../../../arm-none-eabi/lib/thumb/v7-m/nofp/libg.a(lib_a-vfiprintf.o)
 .ARM.attributes
                0x0000000000000a04       0x2d /opt/homebrew/Cellar/arm-none-eabi-gcc/10.3-2021.07/gcc/bin/../lib/gcc/arm-none-eabi/10.3.1/../../../../arm-none-eabi/lib/thumb/v7-m/nofp/libg.a(lib_a-writer.o)
 .ARM.attributes
                0x0000000000000a31       0x2d /opt/homebrew/Cellar/arm-none-eabi-gcc/10.3-2021.07/gcc/bin/../lib/gcc/arm-none-eabi/10.3.1/../../../../arm-none-eabi/lib/thumb/v7-m/nofp/libg.a(lib_a-__atexit.o)
 .ARM.attributes
                0x0000000000000a5e       0x2d /opt/homebrew/Cellar/arm-none-eabi-gcc/10.3-2021.07/gcc/bin/../lib/gcc/arm-none-eabi/10.3.1/../../../../arm-none-eabi/lib/thumb/v7-m/nofp/libg.a(lib_a-assert.o)
 .ARM.attributes
                0x0000000000000a8b       0x2d /opt/homebrew/Cellar/arm-none-eabi-gcc/10.3-2021.07/gcc/bin/../lib/gcc/arm-none-eabi/10.3.1/../../../../arm-none-eabi/lib/thumb/v7-m/nofp/libg.a(lib_a-callocr.o)
 .ARM.attributes
                0x0000000000000ab8       0x2d /opt/homebrew/Cellar/arm-none-eabi-gcc/10.3-2021.07/gcc/bin/../lib/gcc/arm-none-eabi/10.3.1/../../../../arm-none-eabi/lib/thumb/v7-m/nofp/libg.a(lib_a-closer.o)
 .ARM.attributes
                0x0000000000000ae5       0x2d /opt/homebrew/Cellar/arm-none-eabi-gcc/10.3-2021.07/gcc/bin/../lib/gcc/arm-none-eabi/10.3.1/../../../../arm-none-eabi/lib/thumb/v7-m/nofp/libg.a(lib_a-fclose.o)
 .ARM.attributes
                0x0000000000000b12       0x2d /opt/homebrew/Cellar/arm-none-eabi-gcc/10.3-2021.07/gcc/bin/../lib/gcc/arm-none-eabi/10.3.1/../../../../arm-none-eabi/lib/thumb/v7-m/nofp/libg.a(lib_a-fiprintf.o)
 .ARM.attributes
                0x0000000000000b3f       0x2d /opt/homebrew/Cellar/arm-none-eabi-gcc/10.3-2021.07/gcc/bin/../lib/gcc/arm-none-eabi/10.3.1/../../../../arm-none-eabi/lib/thumb/v7-m/nofp/libg.a(lib_a-fputwc.o)
 .ARM.attributes
                0x0000000000000b6c       0x2d /opt/homebrew/Cellar/arm-none-eabi-gcc/10.3-2021.07/gcc/bin/../lib/gcc/arm-none-eabi/10.3.1/../../../../arm-none-eabi/lib/thumb/v7-m/nofp/libg.a(lib_a-fstatr.o)
 .ARM.attributes
                0x0000000000000b99       0x2d /opt/homebrew/Cellar/arm-none-eabi-gcc/10.3-2021.07/gcc/bin/../lib/gcc/arm-none-eabi/10.3.1/../../../../arm-none-eabi/lib/thumb/v7-m/nofp/libg.a(lib_a-isattyr.o)
 .ARM.attributes
                0x0000000000000bc6       0x2d /opt/homebrew/Cellar/arm-none-eabi-gcc/10.3-2021.07/gcc/bin/../lib/gcc/arm-none-eabi/10.3.1/../../../../arm-none-eabi/lib/thumb/v7-m/nofp/libg.a(lib_a-locale.o)
 .ARM.attributes
                0x0000000000000bf3       0x2d /opt/homebrew/Cellar/arm-none-eabi-gcc/10.3-2021.07/gcc/bin/../lib/gcc/arm-none-eabi/10.3.1/../../../../arm-none-eabi/lib/thumb/v7-m/nofp/libg.a(lib_a-lseekr.o)
 .ARM.attributes
                0x0000000000000c20       0x2d /opt/homebrew/Cellar/arm-none-eabi-gcc/10.3-2021.07/gcc/bin/../lib/gcc/arm-none-eabi/10.3.1/../../../../arm-none-eabi/lib/thumb/v7-m/nofp/libg.a(lib_a-mbtowc_r.o)
 .ARM.attributes
                0x0000000000000c4d       0x2d /opt/homebrew/Cellar/arm-none-eabi-gcc/10.3-2021.07/gcc/bin/../lib/gcc/arm-none-eabi/10.3.1/../../../../arm-none-eabi/lib/thumb/v7-m/nofp/libg.a(lib_a-readr.o)
 .ARM.attributes
                0x0000000000000c7a       0x2d /opt/homebrew/Cellar/arm-none-eabi-gcc/10.3-2021.07/gcc/bin/../lib/gcc/arm-none-eabi/10.3.1/../../../../arm-none-eabi/lib/thumb/v7-m/nofp/libg.a(lib_a-reent.o)
 .ARM.attributes
                0x0000000000000ca7       0x2d /opt/homebrew/Cellar/arm-none-eabi-gcc/10.3-2021.07/gcc/bin/../lib/gcc/arm-none-eabi/10.3.1/../../../../arm-none-eabi/lib/thumb/v7-m/nofp/libg.a(lib_a-wbuf.o)
 .ARM.attributes
                0x0000000000000cd4       0x2d /opt/homebrew/Cellar/arm-none-eabi-gcc/10.3-2021.07/gcc/bin/../lib/gcc/arm-none-eabi/10.3.1/../../../../arm-none-eabi/lib/thumb/v7-m/nofp/libg.a(lib_a-wcrtomb.o)
 .ARM.attributes
                0x0000000000000d01       0x2d /opt/homebrew/Cellar/arm-none-eabi-gcc/10.3-2021.07/gcc/bin/../lib/gcc/arm-none-eabi/10.3.1/../../../../arm-none-eabi/lib/thumb/v7-m/nofp/libg.a(lib_a-wctomb_r.o)
 .ARM.attributes
                0x0000000000000d2e       0x2d /opt/homebrew/Cellar/arm-none-eabi-gcc/10.3-2021.07/gcc/bin/../lib/gcc/arm-none-eabi/10.3.1/../../../../arm-none-eabi/lib/thumb/v7-m/nofp/libg.a(lib_a-abort.o)
 .ARM.attributes
                0x0000000000000d5b       0x2d /opt/homebrew/Cellar/arm-none-eabi-gcc/10.3-2021.07/gcc/bin/../lib/gcc/arm-none-eabi/10.3.1/../../../../arm-none-eabi/lib/thumb/v7-m/nofp/libg.a(lib_a-ctype_.o)
 .ARM.attributes
                0x0000000000000d88       0x2d /opt/homebrew/Cellar/arm-none-eabi-gcc/10.3-2021.07/gcc/bin/../lib/gcc/arm-none-eabi/10.3.1/../../../../arm-none-eabi/lib/thumb/v7-m/nofp/libg.a(lib_a-signal.o)
 .ARM.attributes
                0x0000000000000db5       0x2d /opt/homebrew/Cellar/arm-none-eabi-gcc/10.3-2021.07/gcc/bin/../lib/gcc/arm-none-eabi/10.3.1/../../../../arm-none-eabi/lib/thumb/v7-m/nofp/libg.a(lib_a-signalr.o)
 .ARM.attributes
                0x0000000000000de2       0x1d /opt/homebrew/Cellar/arm-none-eabi-gcc/10.3-2021.07/gcc/bin/../lib/gcc/arm-none-eabi/10.3.1/thumb/v7-m/nofp/libgcc.a(_arm_addsubdf3.o)
 .ARM.attributes
                0x0000000000000dff       0x1d /opt/homebrew/Cellar/arm-none-eabi-gcc/10.3-2021.07/gcc/bin/../lib/gcc/arm-none-eabi/10.3.1/thumb/v7-m/nofp/libgcc.a(_arm_muldivdf3.o)
 .ARM.attributes
                0x0000000000000e1c       0x1d /opt/homebrew/Cellar/arm-none-eabi-gcc/10.3-2021.07/gcc/bin/../lib/gcc/arm-none-eabi/10.3.1/thumb/v7-m/nofp/libgcc.a(_arm_cmpdf2.o)
 .ARM.attributes
                0x0000000000000e39       0x1d /opt/homebrew/Cellar/arm-none-eabi-gcc/10.3-2021.07/gcc/bin/../lib/gcc/arm-none-eabi/10.3.1/thumb/v7-m/nofp/libgcc.a(_arm_unorddf2.o)
 .ARM.attributes
                0x0000000000000e56       0x1d /opt/homebrew/Cellar/arm-none-eabi-gcc/10.3-2021.07/gcc/bin/../lib/gcc/arm-none-eabi/10.3.1/thumb/v7-m/nofp/libgcc.a(_arm_fixdfsi.o)
 .ARM.attributes
                0x0000000000000e73       0x1d /opt/homebrew/Cellar/arm-none-eabi-gcc/10.3-2021.07/gcc/bin/../lib/gcc/arm-none-eabi/10.3.1/thumb/v7-m/nofp/libgcc.a(_aeabi_uldivmod.o)
 .ARM.attributes
                0x0000000000000e90       0x2d /opt/homebrew/Cellar/arm-none-eabi-gcc/10.3-2021.07/gcc/bin/../lib/gcc/arm-none-eabi/10.3.1/thumb/v7-m/nofp/libgcc.a(_udivmoddi4.o)
 .ARM.attributes
                0x0000000000000ebd       0x1d /opt/homebrew/Cellar/arm-none-eabi-gcc/10.3-2021.07/gcc/bin/../lib/gcc/arm-none-eabi/10.3.1/thumb/v7-m/nofp/libgcc.a(_dvmd_tls.o)
 .ARM.attributes
                0x0000000000000eda       0x1d /opt/homebrew/Cellar/arm-none-eabi-gcc/10.3-2021.07/gcc/bin/../lib/gcc/arm-none-eabi/10.3.1/thumb/v7-m/nofp/crtn.o
OUTPUT(Proj32.elf elf32-littlearm)
LOAD linker stubs
LOAD /opt/homebrew/Cellar/arm-none-eabi-gcc/10.3-2021.07/gcc/bin/../lib/gcc/arm-none-eabi/10.3.1/../../../../arm-none-eabi/lib/thumb/v7-m/nofp/libc.a
LOAD /opt/homebrew/Cellar/arm-none-eabi-gcc/10.3-2021.07/gcc/bin/../lib/gcc/arm-none-eabi/10.3.1/../../../../arm-none-eabi/lib/thumb/v7-m/nofp/libm.a
LOAD /opt/homebrew/Cellar/arm-none-eabi-gcc/10.3-2021.07/gcc/bin/../lib/gcc/arm-none-eabi/10.3.1/thumb/v7-m/nofp/libgcc.a

.debug_info     0x0000000000000000    0x1600d
 .debug_info    0x0000000000000000     0x17d0 CMakeFiles/Proj32.elf.dir/Core/Src/bsp_spi_flash.c.obj
 .debug_info    0x00000000000017d0     0x1fd4 CMakeFiles/Proj32.elf.dir/Core/Src/main.c.obj
 .debug_info    0x00000000000037a4     0x166c CMakeFiles/Proj32.elf.dir/Core/Src/oled.c.obj
 .debug_info    0x0000000000004e10     0x1127 CMakeFiles/Proj32.elf.dir/Core/Src/stm32f1xx_hal_msp.c.obj
 .debug_info    0x0000000000005f37      0x6eb CMakeFiles/Proj32.elf.dir/Core/Src/stm32f1xx_it.c.obj
 .debug_info    0x0000000000006622      0x7af CMakeFiles/Proj32.elf.dir/Core/Src/syscalls.c.obj
 .debug_info    0x0000000000006dd1      0x174 CMakeFiles/Proj32.elf.dir/Core/Src/sysmem.c.obj
 .debug_info    0x0000000000006f45      0x248 CMakeFiles/Proj32.elf.dir/Core/Src/system_stm32f1xx.c.obj
 .debug_info    0x000000000000718d       0x22 CMakeFiles/Proj32.elf.dir/Core/Startup/startup_stm32f103vbtx.s.obj
 .debug_info    0x00000000000071af      0x7a8 CMakeFiles/Proj32.elf.dir/Drivers/STM32F1xx_HAL_Driver/Src/stm32f1xx_hal.c.obj
 .debug_info    0x0000000000007957      0xd8a CMakeFiles/Proj32.elf.dir/Drivers/STM32F1xx_HAL_Driver/Src/stm32f1xx_hal_cortex.c.obj
 .debug_info    0x00000000000086e1      0x846 CMakeFiles/Proj32.elf.dir/Drivers/STM32F1xx_HAL_Driver/Src/stm32f1xx_hal_dma.c.obj
 .debug_info    0x0000000000008f27      0x66f CMakeFiles/Proj32.elf.dir/Drivers/STM32F1xx_HAL_Driver/Src/stm32f1xx_hal_gpio.c.obj
 .debug_info    0x0000000000009596     0x3a6b CMakeFiles/Proj32.elf.dir/Drivers/STM32F1xx_HAL_Driver/Src/stm32f1xx_hal_i2c.c.obj
 .debug_info    0x000000000000d001      0xa36 CMakeFiles/Proj32.elf.dir/Drivers/STM32F1xx_HAL_Driver/Src/stm32f1xx_hal_rcc.c.obj
 .debug_info    0x000000000000da37     0x1d70 CMakeFiles/Proj32.elf.dir/Drivers/STM32F1xx_HAL_Driver/Src/stm32f1xx_hal_spi.c.obj
 .debug_info    0x000000000000f7a7     0x1c8b CMakeFiles/Proj32.elf.dir/Drivers/STM32F1xx_HAL_Driver/Src/stm32f1xx_hal_uart.c.obj
 .debug_info    0x0000000000011432      0x4db CMakeFiles/Proj32.elf.dir/FATFS/App/fatfs.c.obj
 .debug_info    0x000000000001190d      0x42f CMakeFiles/Proj32.elf.dir/FATFS/Target/user_diskio.c.obj
 .debug_info    0x0000000000011d3c      0x4af CMakeFiles/Proj32.elf.dir/Middlewares/Third_Party/FatFs/src/diskio.c.obj
 .debug_info    0x00000000000121eb     0x3a19 CMakeFiles/Proj32.elf.dir/Middlewares/Third_Party/FatFs/src/ff.c.obj
 .debug_info    0x0000000000015c04      0x409 CMakeFiles/Proj32.elf.dir/Middlewares/Third_Party/FatFs/src/ff_gen_drv.c.obj

.debug_abbrev   0x0000000000000000     0x2ce6
 .debug_abbrev  0x0000000000000000      0x2c1 CMakeFiles/Proj32.elf.dir/Core/Src/bsp_spi_flash.c.obj
 .debug_abbrev  0x00000000000002c1      0x3b7 CMakeFiles/Proj32.elf.dir/Core/Src/main.c.obj
 .debug_abbrev  0x0000000000000678      0x2df CMakeFiles/Proj32.elf.dir/Core/Src/oled.c.obj
 .debug_abbrev  0x0000000000000957      0x1fc CMakeFiles/Proj32.elf.dir/Core/Src/stm32f1xx_hal_msp.c.obj
 .debug_abbrev  0x0000000000000b53      0x1c4 CMakeFiles/Proj32.elf.dir/Core/Src/stm32f1xx_it.c.obj
 .debug_abbrev  0x0000000000000d17      0x1a3 CMakeFiles/Proj32.elf.dir/Core/Src/syscalls.c.obj
 .debug_abbrev  0x0000000000000eba       0xe7 CMakeFiles/Proj32.elf.dir/Core/Src/sysmem.c.obj
 .debug_abbrev  0x0000000000000fa1      0x13e CMakeFiles/Proj32.elf.dir/Core/Src/system_stm32f1xx.c.obj
 .debug_abbrev  0x00000000000010df       0x12 CMakeFiles/Proj32.elf.dir/Core/Startup/startup_stm32f103vbtx.s.obj
 .debug_abbrev  0x00000000000010f1      0x1f4 CMakeFiles/Proj32.elf.dir/Drivers/STM32F1xx_HAL_Driver/Src/stm32f1xx_hal.c.obj
 .debug_abbrev  0x00000000000012e5      0x341 CMakeFiles/Proj32.elf.dir/Drivers/STM32F1xx_HAL_Driver/Src/stm32f1xx_hal_cortex.c.obj
 .debug_abbrev  0x0000000000001626      0x223 CMakeFiles/Proj32.elf.dir/Drivers/STM32F1xx_HAL_Driver/Src/stm32f1xx_hal_dma.c.obj
 .debug_abbrev  0x0000000000001849      0x1e6 CMakeFiles/Proj32.elf.dir/Drivers/STM32F1xx_HAL_Driver/Src/stm32f1xx_hal_gpio.c.obj
 .debug_abbrev  0x0000000000001a2f      0x293 CMakeFiles/Proj32.elf.dir/Drivers/STM32F1xx_HAL_Driver/Src/stm32f1xx_hal_i2c.c.obj
 .debug_abbrev  0x0000000000001cc2      0x27a CMakeFiles/Proj32.elf.dir/Drivers/STM32F1xx_HAL_Driver/Src/stm32f1xx_hal_rcc.c.obj
 .debug_abbrev  0x0000000000001f3c      0x23b CMakeFiles/Proj32.elf.dir/Drivers/STM32F1xx_HAL_Driver/Src/stm32f1xx_hal_spi.c.obj
 .debug_abbrev  0x0000000000002177      0x254 CMakeFiles/Proj32.elf.dir/Drivers/STM32F1xx_HAL_Driver/Src/stm32f1xx_hal_uart.c.obj
 .debug_abbrev  0x00000000000023cb      0x1ac CMakeFiles/Proj32.elf.dir/FATFS/App/fatfs.c.obj
 .debug_abbrev  0x0000000000002577      0x17a CMakeFiles/Proj32.elf.dir/FATFS/Target/user_diskio.c.obj
 .debug_abbrev  0x00000000000026f1      0x1b7 CMakeFiles/Proj32.elf.dir/Middlewares/Third_Party/FatFs/src/diskio.c.obj
 .debug_abbrev  0x00000000000028a8      0x295 CMakeFiles/Proj32.elf.dir/Middlewares/Third_Party/FatFs/src/ff.c.obj
 .debug_abbrev  0x0000000000002b3d      0x1a9 CMakeFiles/Proj32.elf.dir/Middlewares/Third_Party/FatFs/src/ff_gen_drv.c.obj

.debug_loc      0x0000000000000000    0x111ae
 .debug_loc     0x0000000000000000      0xbd4 CMakeFiles/Proj32.elf.dir/Core/Src/bsp_spi_flash.c.obj
 .debug_loc     0x0000000000000bd4      0x25d CMakeFiles/Proj32.elf.dir/Core/Src/main.c.obj
 .debug_loc     0x0000000000000e31      0xc90 CMakeFiles/Proj32.elf.dir/Core/Src/oled.c.obj
 .debug_loc     0x0000000000001ac1      0x184 CMakeFiles/Proj32.elf.dir/Core/Src/stm32f1xx_hal_msp.c.obj
 .debug_loc     0x0000000000001c45      0x3c5 CMakeFiles/Proj32.elf.dir/Core/Src/syscalls.c.obj
 .debug_loc     0x000000000000200a       0x64 CMakeFiles/Proj32.elf.dir/Core/Src/sysmem.c.obj
 .debug_loc     0x000000000000206e       0xff CMakeFiles/Proj32.elf.dir/Core/Src/system_stm32f1xx.c.obj
 .debug_loc     0x000000000000216d      0x141 CMakeFiles/Proj32.elf.dir/Drivers/STM32F1xx_HAL_Driver/Src/stm32f1xx_hal.c.obj
 .debug_loc     0x00000000000022ae      0x71f CMakeFiles/Proj32.elf.dir/Drivers/STM32F1xx_HAL_Driver/Src/stm32f1xx_hal_cortex.c.obj
 .debug_loc     0x00000000000029cd      0x7d1 CMakeFiles/Proj32.elf.dir/Drivers/STM32F1xx_HAL_Driver/Src/stm32f1xx_hal_dma.c.obj
 .debug_loc     0x000000000000319e      0x47d CMakeFiles/Proj32.elf.dir/Drivers/STM32F1xx_HAL_Driver/Src/stm32f1xx_hal_gpio.c.obj
 .debug_loc     0x000000000000361b     0x41a9 CMakeFiles/Proj32.elf.dir/Drivers/STM32F1xx_HAL_Driver/Src/stm32f1xx_hal_i2c.c.obj
 .debug_loc     0x00000000000077c4      0x63e CMakeFiles/Proj32.elf.dir/Drivers/STM32F1xx_HAL_Driver/Src/stm32f1xx_hal_rcc.c.obj
 .debug_loc     0x0000000000007e02     0x1d4e CMakeFiles/Proj32.elf.dir/Drivers/STM32F1xx_HAL_Driver/Src/stm32f1xx_hal_spi.c.obj
 .debug_loc     0x0000000000009b50     0x2037 CMakeFiles/Proj32.elf.dir/Drivers/STM32F1xx_HAL_Driver/Src/stm32f1xx_hal_uart.c.obj
 .debug_loc     0x000000000000bb87      0x2f2 CMakeFiles/Proj32.elf.dir/FATFS/Target/user_diskio.c.obj
 .debug_loc     0x000000000000be79      0x283 CMakeFiles/Proj32.elf.dir/Middlewares/Third_Party/FatFs/src/diskio.c.obj
 .debug_loc     0x000000000000c0fc     0x4e0d CMakeFiles/Proj32.elf.dir/Middlewares/Third_Party/FatFs/src/ff.c.obj
 .debug_loc     0x0000000000010f09      0x2a5 CMakeFiles/Proj32.elf.dir/Middlewares/Third_Party/FatFs/src/ff_gen_drv.c.obj

.debug_aranges  0x0000000000000000     0x1008
 .debug_aranges
                0x0000000000000000       0xc8 CMakeFiles/Proj32.elf.dir/Core/Src/bsp_spi_flash.c.obj
 .debug_aranges
                0x00000000000000c8       0x88 CMakeFiles/Proj32.elf.dir/Core/Src/main.c.obj
 .debug_aranges
                0x0000000000000150       0xc0 CMakeFiles/Proj32.elf.dir/Core/Src/oled.c.obj
 .debug_aranges
                0x0000000000000210       0x50 CMakeFiles/Proj32.elf.dir/Core/Src/stm32f1xx_hal_msp.c.obj
 .debug_aranges
                0x0000000000000260       0x70 CMakeFiles/Proj32.elf.dir/Core/Src/stm32f1xx_it.c.obj
 .debug_aranges
                0x00000000000002d0       0xa8 CMakeFiles/Proj32.elf.dir/Core/Src/syscalls.c.obj
 .debug_aranges
                0x0000000000000378       0x20 CMakeFiles/Proj32.elf.dir/Core/Src/sysmem.c.obj
 .debug_aranges
                0x0000000000000398       0x28 CMakeFiles/Proj32.elf.dir/Core/Src/system_stm32f1xx.c.obj
 .debug_aranges
                0x00000000000003c0       0x28 CMakeFiles/Proj32.elf.dir/Core/Startup/startup_stm32f103vbtx.s.obj
 .debug_aranges
                0x00000000000003e8       0xe0 CMakeFiles/Proj32.elf.dir/Drivers/STM32F1xx_HAL_Driver/Src/stm32f1xx_hal.c.obj
 .debug_aranges
                0x00000000000004c8       0x90 CMakeFiles/Proj32.elf.dir/Drivers/STM32F1xx_HAL_Driver/Src/stm32f1xx_hal_cortex.c.obj
 .debug_aranges
                0x0000000000000558       0x80 CMakeFiles/Proj32.elf.dir/Drivers/STM32F1xx_HAL_Driver/Src/stm32f1xx_hal_dma.c.obj
 .debug_aranges
                0x00000000000005d8       0x58 CMakeFiles/Proj32.elf.dir/Drivers/STM32F1xx_HAL_Driver/Src/stm32f1xx_hal_gpio.c.obj
 .debug_aranges
                0x0000000000000630      0x2a0 CMakeFiles/Proj32.elf.dir/Drivers/STM32F1xx_HAL_Driver/Src/stm32f1xx_hal_i2c.c.obj
 .debug_aranges
                0x00000000000008d0       0x90 CMakeFiles/Proj32.elf.dir/Drivers/STM32F1xx_HAL_Driver/Src/stm32f1xx_hal_rcc.c.obj
 .debug_aranges
                0x0000000000000960      0x1d0 CMakeFiles/Proj32.elf.dir/Drivers/STM32F1xx_HAL_Driver/Src/stm32f1xx_hal_spi.c.obj
 .debug_aranges
                0x0000000000000b30      0x200 CMakeFiles/Proj32.elf.dir/Drivers/STM32F1xx_HAL_Driver/Src/stm32f1xx_hal_uart.c.obj
 .debug_aranges
                0x0000000000000d30       0x28 CMakeFiles/Proj32.elf.dir/FATFS/App/fatfs.c.obj
 .debug_aranges
                0x0000000000000d58       0x40 CMakeFiles/Proj32.elf.dir/FATFS/Target/user_diskio.c.obj
 .debug_aranges
                0x0000000000000d98       0x48 CMakeFiles/Proj32.elf.dir/Middlewares/Third_Party/FatFs/src/diskio.c.obj
 .debug_aranges
                0x0000000000000de0      0x1e8 CMakeFiles/Proj32.elf.dir/Middlewares/Third_Party/FatFs/src/ff.c.obj
 .debug_aranges
                0x0000000000000fc8       0x40 CMakeFiles/Proj32.elf.dir/Middlewares/Third_Party/FatFs/src/ff_gen_drv.c.obj

.debug_ranges   0x0000000000000000      0xf78
 .debug_ranges  0x0000000000000000       0xb8 CMakeFiles/Proj32.elf.dir/Core/Src/bsp_spi_flash.c.obj
 .debug_ranges  0x00000000000000b8       0x90 CMakeFiles/Proj32.elf.dir/Core/Src/main.c.obj
 .debug_ranges  0x0000000000000148       0xc8 CMakeFiles/Proj32.elf.dir/Core/Src/oled.c.obj
 .debug_ranges  0x0000000000000210       0x40 CMakeFiles/Proj32.elf.dir/Core/Src/stm32f1xx_hal_msp.c.obj
 .debug_ranges  0x0000000000000250       0x60 CMakeFiles/Proj32.elf.dir/Core/Src/stm32f1xx_it.c.obj
 .debug_ranges  0x00000000000002b0       0x98 CMakeFiles/Proj32.elf.dir/Core/Src/syscalls.c.obj
 .debug_ranges  0x0000000000000348       0x10 CMakeFiles/Proj32.elf.dir/Core/Src/sysmem.c.obj
 .debug_ranges  0x0000000000000358       0x18 CMakeFiles/Proj32.elf.dir/Core/Src/system_stm32f1xx.c.obj
 .debug_ranges  0x0000000000000370       0x20 CMakeFiles/Proj32.elf.dir/Core/Startup/startup_stm32f103vbtx.s.obj
 .debug_ranges  0x0000000000000390       0xd0 CMakeFiles/Proj32.elf.dir/Drivers/STM32F1xx_HAL_Driver/Src/stm32f1xx_hal.c.obj
 .debug_ranges  0x0000000000000460       0xe0 CMakeFiles/Proj32.elf.dir/Drivers/STM32F1xx_HAL_Driver/Src/stm32f1xx_hal_cortex.c.obj
 .debug_ranges  0x0000000000000540       0x70 CMakeFiles/Proj32.elf.dir/Drivers/STM32F1xx_HAL_Driver/Src/stm32f1xx_hal_dma.c.obj
 .debug_ranges  0x00000000000005b0       0x48 CMakeFiles/Proj32.elf.dir/Drivers/STM32F1xx_HAL_Driver/Src/stm32f1xx_hal_gpio.c.obj
 .debug_ranges  0x00000000000005f8      0x2a8 CMakeFiles/Proj32.elf.dir/Drivers/STM32F1xx_HAL_Driver/Src/stm32f1xx_hal_i2c.c.obj
 .debug_ranges  0x00000000000008a0       0xa0 CMakeFiles/Proj32.elf.dir/Drivers/STM32F1xx_HAL_Driver/Src/stm32f1xx_hal_rcc.c.obj
 .debug_ranges  0x0000000000000940      0x1c0 CMakeFiles/Proj32.elf.dir/Drivers/STM32F1xx_HAL_Driver/Src/stm32f1xx_hal_spi.c.obj
 .debug_ranges  0x0000000000000b00      0x1f0 CMakeFiles/Proj32.elf.dir/Drivers/STM32F1xx_HAL_Driver/Src/stm32f1xx_hal_uart.c.obj
 .debug_ranges  0x0000000000000cf0       0x18 CMakeFiles/Proj32.elf.dir/FATFS/App/fatfs.c.obj
 .debug_ranges  0x0000000000000d08       0x30 CMakeFiles/Proj32.elf.dir/FATFS/Target/user_diskio.c.obj
 .debug_ranges  0x0000000000000d38       0x38 CMakeFiles/Proj32.elf.dir/Middlewares/Third_Party/FatFs/src/diskio.c.obj
 .debug_ranges  0x0000000000000d70      0x1d8 CMakeFiles/Proj32.elf.dir/Middlewares/Third_Party/FatFs/src/ff.c.obj
 .debug_ranges  0x0000000000000f48       0x30 CMakeFiles/Proj32.elf.dir/Middlewares/Third_Party/FatFs/src/ff_gen_drv.c.obj

.debug_line     0x0000000000000000    0x14836
 .debug_line    0x0000000000000000      0x9cf CMakeFiles/Proj32.elf.dir/Core/Src/bsp_spi_flash.c.obj
 .debug_line    0x00000000000009cf      0xc73 CMakeFiles/Proj32.elf.dir/Core/Src/main.c.obj
 .debug_line    0x0000000000001642      0xbc2 CMakeFiles/Proj32.elf.dir/Core/Src/oled.c.obj
 .debug_line    0x0000000000002204      0x4ec CMakeFiles/Proj32.elf.dir/Core/Src/stm32f1xx_hal_msp.c.obj
 .debug_line    0x00000000000026f0      0x4a8 CMakeFiles/Proj32.elf.dir/Core/Src/stm32f1xx_it.c.obj
 .debug_line    0x0000000000002b98      0x442 CMakeFiles/Proj32.elf.dir/Core/Src/syscalls.c.obj
 .debug_line    0x0000000000002fda      0x21c CMakeFiles/Proj32.elf.dir/Core/Src/sysmem.c.obj
 .debug_line    0x00000000000031f6      0x2ca CMakeFiles/Proj32.elf.dir/Core/Src/system_stm32f1xx.c.obj
 .debug_line    0x00000000000034c0       0xcf CMakeFiles/Proj32.elf.dir/Core/Startup/startup_stm32f103vbtx.s.obj
 .debug_line    0x000000000000358f      0x648 CMakeFiles/Proj32.elf.dir/Drivers/STM32F1xx_HAL_Driver/Src/stm32f1xx_hal.c.obj
 .debug_line    0x0000000000003bd7      0x708 CMakeFiles/Proj32.elf.dir/Drivers/STM32F1xx_HAL_Driver/Src/stm32f1xx_hal_cortex.c.obj
 .debug_line    0x00000000000042df      0xb22 CMakeFiles/Proj32.elf.dir/Drivers/STM32F1xx_HAL_Driver/Src/stm32f1xx_hal_dma.c.obj
 .debug_line    0x0000000000004e01      0x6b2 CMakeFiles/Proj32.elf.dir/Drivers/STM32F1xx_HAL_Driver/Src/stm32f1xx_hal_gpio.c.obj
 .debug_line    0x00000000000054b3     0x5634 CMakeFiles/Proj32.elf.dir/Drivers/STM32F1xx_HAL_Driver/Src/stm32f1xx_hal_i2c.c.obj
 .debug_line    0x000000000000aae7      0xcfb CMakeFiles/Proj32.elf.dir/Drivers/STM32F1xx_HAL_Driver/Src/stm32f1xx_hal_rcc.c.obj
 .debug_line    0x000000000000b7e2     0x2539 CMakeFiles/Proj32.elf.dir/Drivers/STM32F1xx_HAL_Driver/Src/stm32f1xx_hal_spi.c.obj
 .debug_line    0x000000000000dd1b     0x218a CMakeFiles/Proj32.elf.dir/Drivers/STM32F1xx_HAL_Driver/Src/stm32f1xx_hal_uart.c.obj
 .debug_line    0x000000000000fea5      0x28e CMakeFiles/Proj32.elf.dir/FATFS/App/fatfs.c.obj
 .debug_line    0x0000000000010133      0x3a1 CMakeFiles/Proj32.elf.dir/FATFS/Target/user_diskio.c.obj
 .debug_line    0x00000000000104d4      0x294 CMakeFiles/Proj32.elf.dir/Middlewares/Third_Party/FatFs/src/diskio.c.obj
 .debug_line    0x0000000000010768     0x3df8 CMakeFiles/Proj32.elf.dir/Middlewares/Third_Party/FatFs/src/ff.c.obj
 .debug_line    0x0000000000014560      0x2d6 CMakeFiles/Proj32.elf.dir/Middlewares/Third_Party/FatFs/src/ff_gen_drv.c.obj

.debug_str      0x0000000000000000     0x45c2
 .debug_str     0x0000000000000000      0x86c CMakeFiles/Proj32.elf.dir/Core/Src/bsp_spi_flash.c.obj
                                        0x942 (size before relaxing)
 .debug_str     0x000000000000086c      0xd5c CMakeFiles/Proj32.elf.dir/Core/Src/main.c.obj
                                       0x143f (size before relaxing)
 .debug_str     0x00000000000015c8      0x182 CMakeFiles/Proj32.elf.dir/Core/Src/oled.c.obj
                                        0x854 (size before relaxing)
 .debug_str     0x000000000000174a      0x13e CMakeFiles/Proj32.elf.dir/Core/Src/stm32f1xx_hal_msp.c.obj
                                        0xe5e (size before relaxing)
 .debug_str     0x0000000000001888      0x164 CMakeFiles/Proj32.elf.dir/Core/Src/stm32f1xx_it.c.obj
                                        0x72b (size before relaxing)
 .debug_str     0x00000000000019ec      0x21a CMakeFiles/Proj32.elf.dir/Core/Src/syscalls.c.obj
                                        0x47a (size before relaxing)
 .debug_str     0x0000000000001c06       0xbd CMakeFiles/Proj32.elf.dir/Core/Src/sysmem.c.obj
                                        0x2a6 (size before relaxing)
 .debug_str     0x0000000000001cc3       0xc6 CMakeFiles/Proj32.elf.dir/Core/Src/system_stm32f1xx.c.obj
                                        0x2e2 (size before relaxing)
 .debug_str     0x0000000000001d89       0x7e CMakeFiles/Proj32.elf.dir/Core/Startup/startup_stm32f103vbtx.s.obj
                                         0xdb (size before relaxing)
 .debug_str     0x0000000000001e07      0x32b CMakeFiles/Proj32.elf.dir/Drivers/STM32F1xx_HAL_Driver/Src/stm32f1xx_hal.c.obj
                                        0x8b2 (size before relaxing)
 .debug_str     0x0000000000002132      0x3e6 CMakeFiles/Proj32.elf.dir/Drivers/STM32F1xx_HAL_Driver/Src/stm32f1xx_hal_cortex.c.obj
                                        0x961 (size before relaxing)
 .debug_str     0x0000000000002518      0x287 CMakeFiles/Proj32.elf.dir/Drivers/STM32F1xx_HAL_Driver/Src/stm32f1xx_hal_dma.c.obj
                                        0x68b (size before relaxing)
 .debug_str     0x000000000000279f      0x111 CMakeFiles/Proj32.elf.dir/Drivers/STM32F1xx_HAL_Driver/Src/stm32f1xx_hal_gpio.c.obj
                                        0x48e (size before relaxing)
 .debug_str     0x00000000000028b0      0x8d6 CMakeFiles/Proj32.elf.dir/Drivers/STM32F1xx_HAL_Driver/Src/stm32f1xx_hal_i2c.c.obj
                                       0x1046 (size before relaxing)
 .debug_str     0x0000000000003186      0x21c CMakeFiles/Proj32.elf.dir/Drivers/STM32F1xx_HAL_Driver/Src/stm32f1xx_hal_rcc.c.obj
                                        0x6b9 (size before relaxing)
 .debug_str     0x00000000000033a2      0x538 CMakeFiles/Proj32.elf.dir/Drivers/STM32F1xx_HAL_Driver/Src/stm32f1xx_hal_spi.c.obj
                                        0xbf5 (size before relaxing)
 .debug_str     0x00000000000038da      0x5e7 CMakeFiles/Proj32.elf.dir/Drivers/STM32F1xx_HAL_Driver/Src/stm32f1xx_hal_uart.c.obj
                                        0xd1c (size before relaxing)
 .debug_str     0x0000000000003ec1      0x139 CMakeFiles/Proj32.elf.dir/FATFS/App/fatfs.c.obj
                                        0x3e1 (size before relaxing)
 .debug_str     0x0000000000003ffa       0xb3 CMakeFiles/Proj32.elf.dir/FATFS/Target/user_diskio.c.obj
                                        0x372 (size before relaxing)
 .debug_str     0x00000000000040ad       0x9a CMakeFiles/Proj32.elf.dir/Middlewares/Third_Party/FatFs/src/diskio.c.obj
                                        0x329 (size before relaxing)
 .debug_str     0x0000000000004147      0x3a2 CMakeFiles/Proj32.elf.dir/Middlewares/Third_Party/FatFs/src/ff.c.obj
                                        0x845 (size before relaxing)
 .debug_str     0x00000000000044e9       0xd9 CMakeFiles/Proj32.elf.dir/Middlewares/Third_Party/FatFs/src/ff_gen_drv.c.obj
                                        0x37a (size before relaxing)

.comment        0x0000000000000000       0x49
 .comment       0x0000000000000000       0x49 CMakeFiles/Proj32.elf.dir/Core/Src/bsp_spi_flash.c.obj
                                         0x4a (size before relaxing)
 .comment       0x0000000000000049       0x4a CMakeFiles/Proj32.elf.dir/Core/Src/main.c.obj
 .comment       0x0000000000000049       0x4a CMakeFiles/Proj32.elf.dir/Core/Src/oled.c.obj
 .comment       0x0000000000000049       0x4a CMakeFiles/Proj32.elf.dir/Core/Src/stm32f1xx_hal_msp.c.obj
 .comment       0x0000000000000049       0x4a CMakeFiles/Proj32.elf.dir/Core/Src/stm32f1xx_it.c.obj
 .comment       0x0000000000000049       0x4a CMakeFiles/Proj32.elf.dir/Core/Src/syscalls.c.obj
 .comment       0x0000000000000049       0x4a CMakeFiles/Proj32.elf.dir/Core/Src/sysmem.c.obj
 .comment       0x0000000000000049       0x4a CMakeFiles/Proj32.elf.dir/Core/Src/system_stm32f1xx.c.obj
 .comment       0x0000000000000049       0x4a CMakeFiles/Proj32.elf.dir/Drivers/STM32F1xx_HAL_Driver/Src/stm32f1xx_hal.c.obj
 .comment       0x0000000000000049       0x4a CMakeFiles/Proj32.elf.dir/Drivers/STM32F1xx_HAL_Driver/Src/stm32f1xx_hal_cortex.c.obj
 .comment       0x0000000000000049       0x4a CMakeFiles/Proj32.elf.dir/Drivers/STM32F1xx_HAL_Driver/Src/stm32f1xx_hal_dma.c.obj
 .comment       0x0000000000000049       0x4a CMakeFiles/Proj32.elf.dir/Drivers/STM32F1xx_HAL_Driver/Src/stm32f1xx_hal_gpio.c.obj
 .comment       0x0000000000000049       0x4a CMakeFiles/Proj32.elf.dir/Drivers/STM32F1xx_HAL_Driver/Src/stm32f1xx_hal_i2c.c.obj
 .comment       0x0000000000000049       0x4a CMakeFiles/Proj32.elf.dir/Drivers/STM32F1xx_HAL_Driver/Src/stm32f1xx_hal_rcc.c.obj
 .comment       0x0000000000000049       0x4a CMakeFiles/Proj32.elf.dir/Drivers/STM32F1xx_HAL_Driver/Src/stm32f1xx_hal_spi.c.obj
 .comment       0x0000000000000049       0x4a CMakeFiles/Proj32.elf.dir/Drivers/STM32F1xx_HAL_Driver/Src/stm32f1xx_hal_uart.c.obj
 .comment       0x0000000000000049       0x4a CMakeFiles/Proj32.elf.dir/FATFS/App/fatfs.c.obj
 .comment       0x0000000000000049       0x4a CMakeFiles/Proj32.elf.dir/FATFS/Target/user_diskio.c.obj
 .comment       0x0000000000000049       0x4a CMakeFiles/Proj32.elf.dir/Middlewares/Third_Party/FatFs/src/diskio.c.obj
 .comment       0x0000000000000049       0x4a CMakeFiles/Proj32.elf.dir/Middlewares/Third_Party/FatFs/src/ff.c.obj
 .comment       0x0000000000000049       0x4a CMakeFiles/Proj32.elf.dir/Middlewares/Third_Party/FatFs/src/ff_gen_drv.c.obj

.debug_frame    0x0000000000000000     0x44c0
 .debug_frame   0x0000000000000000      0x264 CMakeFiles/Proj32.elf.dir/Core/Src/bsp_spi_flash.c.obj
 .debug_frame   0x0000000000000264      0x1a8 CMakeFiles/Proj32.elf.dir/Core/Src/main.c.obj
 .debug_frame   0x000000000000040c      0x258 CMakeFiles/Proj32.elf.dir/Core/Src/oled.c.obj
 .debug_frame   0x0000000000000664       0xd4 CMakeFiles/Proj32.elf.dir/Core/Src/stm32f1xx_hal_msp.c.obj
 .debug_frame   0x0000000000000738       0xe0 CMakeFiles/Proj32.elf.dir/Core/Src/stm32f1xx_it.c.obj
 .debug_frame   0x0000000000000818      0x190 CMakeFiles/Proj32.elf.dir/Core/Src/syscalls.c.obj
 .debug_frame   0x00000000000009a8       0x28 CMakeFiles/Proj32.elf.dir/Core/Src/sysmem.c.obj
 .debug_frame   0x00000000000009d0       0x30 CMakeFiles/Proj32.elf.dir/Core/Src/system_stm32f1xx.c.obj
 .debug_frame   0x0000000000000a00      0x1cc CMakeFiles/Proj32.elf.dir/Drivers/STM32F1xx_HAL_Driver/Src/stm32f1xx_hal.c.obj
 .debug_frame   0x0000000000000bcc      0x118 CMakeFiles/Proj32.elf.dir/Drivers/STM32F1xx_HAL_Driver/Src/stm32f1xx_hal_cortex.c.obj
 .debug_frame   0x0000000000000ce4      0x144 CMakeFiles/Proj32.elf.dir/Drivers/STM32F1xx_HAL_Driver/Src/stm32f1xx_hal_dma.c.obj
 .debug_frame   0x0000000000000e28       0xe4 CMakeFiles/Proj32.elf.dir/Drivers/STM32F1xx_HAL_Driver/Src/stm32f1xx_hal_gpio.c.obj
 .debug_frame   0x0000000000000f0c      0x970 CMakeFiles/Proj32.elf.dir/Drivers/STM32F1xx_HAL_Driver/Src/stm32f1xx_hal_i2c.c.obj
 .debug_frame   0x000000000000187c      0x190 CMakeFiles/Proj32.elf.dir/Drivers/STM32F1xx_HAL_Driver/Src/stm32f1xx_hal_rcc.c.obj
 .debug_frame   0x0000000000001a0c      0x5a4 CMakeFiles/Proj32.elf.dir/Drivers/STM32F1xx_HAL_Driver/Src/stm32f1xx_hal_spi.c.obj
 .debug_frame   0x0000000000001fb0      0x5c4 CMakeFiles/Proj32.elf.dir/Drivers/STM32F1xx_HAL_Driver/Src/stm32f1xx_hal_uart.c.obj
 .debug_frame   0x0000000000002574       0x38 CMakeFiles/Proj32.elf.dir/FATFS/App/fatfs.c.obj
 .debug_frame   0x00000000000025ac       0x78 CMakeFiles/Proj32.elf.dir/FATFS/Target/user_diskio.c.obj
 .debug_frame   0x0000000000002624       0xa0 CMakeFiles/Proj32.elf.dir/Middlewares/Third_Party/FatFs/src/diskio.c.obj
 .debug_frame   0x00000000000026c4      0x768 CMakeFiles/Proj32.elf.dir/Middlewares/Third_Party/FatFs/src/ff.c.obj
 .debug_frame   0x0000000000002e2c       0x7c CMakeFiles/Proj32.elf.dir/Middlewares/Third_Party/FatFs/src/ff_gen_drv.c.obj
 .debug_frame   0x0000000000002ea8       0x20 /opt/homebrew/Cellar/arm-none-eabi-gcc/10.3-2021.07/gcc/bin/../lib/gcc/arm-none-eabi/10.3.1/../../../../arm-none-eabi/lib/thumb/v7-m/nofp/libg.a(lib_a-errno.o)
 .debug_frame   0x0000000000002ec8       0x2c /opt/homebrew/Cellar/arm-none-eabi-gcc/10.3-2021.07/gcc/bin/../lib/gcc/arm-none-eabi/10.3.1/../../../../arm-none-eabi/lib/thumb/v7-m/nofp/libg.a(lib_a-init.o)
 .debug_frame   0x0000000000002ef4       0x2c /opt/homebrew/Cellar/arm-none-eabi-gcc/10.3-2021.07/gcc/bin/../lib/gcc/arm-none-eabi/10.3.1/../../../../arm-none-eabi/lib/thumb/v7-m/nofp/libg.a(lib_a-memset.o)
 .debug_frame   0x0000000000002f20       0x74 /opt/homebrew/Cellar/arm-none-eabi-gcc/10.3-2021.07/gcc/bin/../lib/gcc/arm-none-eabi/10.3.1/../../../../arm-none-eabi/lib/thumb/v7-m/nofp/libg.a(lib_a-printf.o)
 .debug_frame   0x0000000000002f94       0x48 /opt/homebrew/Cellar/arm-none-eabi-gcc/10.3-2021.07/gcc/bin/../lib/gcc/arm-none-eabi/10.3.1/../../../../arm-none-eabi/lib/thumb/v7-m/nofp/libg.a(lib_a-puts.o)
 .debug_frame   0x0000000000002fdc       0x3c /opt/homebrew/Cellar/arm-none-eabi-gcc/10.3-2021.07/gcc/bin/../lib/gcc/arm-none-eabi/10.3.1/../../../../arm-none-eabi/lib/thumb/v7-m/nofp/libg.a(lib_a-rand.o)
 .debug_frame   0x0000000000003018       0x20 /opt/homebrew/Cellar/arm-none-eabi-gcc/10.3-2021.07/gcc/bin/../lib/gcc/arm-none-eabi/10.3.1/../../../../arm-none-eabi/lib/thumb/v7-m/nofp/libg.a(lib_a-strlen-stub.o)
 .debug_frame   0x0000000000003038       0x94 /opt/homebrew/Cellar/arm-none-eabi-gcc/10.3-2021.07/gcc/bin/../lib/gcc/arm-none-eabi/10.3.1/../../../../arm-none-eabi/lib/thumb/v7-m/nofp/libg.a(lib_a-vfprintf.o)
 .debug_frame   0x00000000000030cc       0x2c /opt/homebrew/Cellar/arm-none-eabi-gcc/10.3-2021.07/gcc/bin/../lib/gcc/arm-none-eabi/10.3.1/../../../../arm-none-eabi/lib/thumb/v7-m/nofp/libg.a(lib_a-wsetup.o)
 .debug_frame   0x00000000000030f8       0x5c /opt/homebrew/Cellar/arm-none-eabi-gcc/10.3-2021.07/gcc/bin/../lib/gcc/arm-none-eabi/10.3.1/../../../../arm-none-eabi/lib/thumb/v7-m/nofp/libg.a(lib_a-__call_atexit.o)
 .debug_frame   0x0000000000003154       0x20 /opt/homebrew/Cellar/arm-none-eabi-gcc/10.3-2021.07/gcc/bin/../lib/gcc/arm-none-eabi/10.3.1/../../../../arm-none-eabi/lib/thumb/v7-m/nofp/libg.a(lib_a-atexit.o)
 .debug_frame   0x0000000000003174       0x8c /opt/homebrew/Cellar/arm-none-eabi-gcc/10.3-2021.07/gcc/bin/../lib/gcc/arm-none-eabi/10.3.1/../../../../arm-none-eabi/lib/thumb/v7-m/nofp/libg.a(lib_a-dtoa.o)
 .debug_frame   0x0000000000003200       0x70 /opt/homebrew/Cellar/arm-none-eabi-gcc/10.3-2021.07/gcc/bin/../lib/gcc/arm-none-eabi/10.3.1/../../../../arm-none-eabi/lib/thumb/v7-m/nofp/libg.a(lib_a-fflush.o)
 .debug_frame   0x0000000000003270      0x154 /opt/homebrew/Cellar/arm-none-eabi-gcc/10.3-2021.07/gcc/bin/../lib/gcc/arm-none-eabi/10.3.1/../../../../arm-none-eabi/lib/thumb/v7-m/nofp/libg.a(lib_a-findfp.o)
 .debug_frame   0x00000000000033c4       0x34 /opt/homebrew/Cellar/arm-none-eabi-gcc/10.3-2021.07/gcc/bin/../lib/gcc/arm-none-eabi/10.3.1/../../../../arm-none-eabi/lib/thumb/v7-m/nofp/libg.a(lib_a-fini.o)
 .debug_frame   0x00000000000033f8       0x8c /opt/homebrew/Cellar/arm-none-eabi-gcc/10.3-2021.07/gcc/bin/../lib/gcc/arm-none-eabi/10.3.1/../../../../arm-none-eabi/lib/thumb/v7-m/nofp/libg.a(lib_a-freer.o)
 .debug_frame   0x0000000000003484       0x64 /opt/homebrew/Cellar/arm-none-eabi-gcc/10.3-2021.07/gcc/bin/../lib/gcc/arm-none-eabi/10.3.1/../../../../arm-none-eabi/lib/thumb/v7-m/nofp/libg.a(lib_a-fvwrite.o)
 .debug_frame   0x00000000000034e8       0x54 /opt/homebrew/Cellar/arm-none-eabi-gcc/10.3-2021.07/gcc/bin/../lib/gcc/arm-none-eabi/10.3.1/../../../../arm-none-eabi/lib/thumb/v7-m/nofp/libg.a(lib_a-fwalk.o)
 .debug_frame   0x000000000000353c       0x40 /opt/homebrew/Cellar/arm-none-eabi-gcc/10.3-2021.07/gcc/bin/../lib/gcc/arm-none-eabi/10.3.1/../../../../arm-none-eabi/lib/thumb/v7-m/nofp/libg.a(lib_a-localeconv.o)
 .debug_frame   0x000000000000357c       0xb0 /opt/homebrew/Cellar/arm-none-eabi-gcc/10.3-2021.07/gcc/bin/../lib/gcc/arm-none-eabi/10.3.1/../../../../arm-none-eabi/lib/thumb/v7-m/nofp/libg.a(lib_a-lock.o)
 .debug_frame   0x000000000000362c       0x70 /opt/homebrew/Cellar/arm-none-eabi-gcc/10.3-2021.07/gcc/bin/../lib/gcc/arm-none-eabi/10.3.1/../../../../arm-none-eabi/lib/thumb/v7-m/nofp/libg.a(lib_a-makebuf.o)
 .debug_frame   0x000000000000369c       0x4c /opt/homebrew/Cellar/arm-none-eabi-gcc/10.3-2021.07/gcc/bin/../lib/gcc/arm-none-eabi/10.3.1/../../../../arm-none-eabi/lib/thumb/v7-m/nofp/libg.a(lib_a-mallocr.o)
 .debug_frame   0x00000000000036e8       0x28 /opt/homebrew/Cellar/arm-none-eabi-gcc/10.3-2021.07/gcc/bin/../lib/gcc/arm-none-eabi/10.3.1/../../../../arm-none-eabi/lib/thumb/v7-m/nofp/libg.a(lib_a-memchr-stub.o)
 .debug_frame   0x0000000000003710       0x40 /opt/homebrew/Cellar/arm-none-eabi-gcc/10.3-2021.07/gcc/bin/../lib/gcc/arm-none-eabi/10.3.1/../../../../arm-none-eabi/lib/thumb/v7-m/nofp/libg.a(lib_a-memmove.o)
 .debug_frame   0x0000000000003750       0x30 /opt/homebrew/Cellar/arm-none-eabi-gcc/10.3-2021.07/gcc/bin/../lib/gcc/arm-none-eabi/10.3.1/../../../../arm-none-eabi/lib/thumb/v7-m/nofp/libg.a(lib_a-mlock.o)
 .debug_frame   0x0000000000003780      0x260 /opt/homebrew/Cellar/arm-none-eabi-gcc/10.3-2021.07/gcc/bin/../lib/gcc/arm-none-eabi/10.3.1/../../../../arm-none-eabi/lib/thumb/v7-m/nofp/libg.a(lib_a-mprec.o)
 .debug_frame   0x00000000000039e0       0x48 /opt/homebrew/Cellar/arm-none-eabi-gcc/10.3-2021.07/gcc/bin/../lib/gcc/arm-none-eabi/10.3.1/../../../../arm-none-eabi/lib/thumb/v7-m/nofp/libg.a(lib_a-reallocr.o)
 .debug_frame   0x0000000000003a28       0x30 /opt/homebrew/Cellar/arm-none-eabi-gcc/10.3-2021.07/gcc/bin/../lib/gcc/arm-none-eabi/10.3.1/../../../../arm-none-eabi/lib/thumb/v7-m/nofp/libg.a(lib_a-s_frexp.o)
 .debug_frame   0x0000000000003a58       0x2c /opt/homebrew/Cellar/arm-none-eabi-gcc/10.3-2021.07/gcc/bin/../lib/gcc/arm-none-eabi/10.3.1/../../../../arm-none-eabi/lib/thumb/v7-m/nofp/libg.a(lib_a-sbrkr.o)
 .debug_frame   0x0000000000003a84       0x8c /opt/homebrew/Cellar/arm-none-eabi-gcc/10.3-2021.07/gcc/bin/../lib/gcc/arm-none-eabi/10.3.1/../../../../arm-none-eabi/lib/thumb/v7-m/nofp/libg.a(lib_a-stdio.o)
 .debug_frame   0x0000000000003b10       0x2c /opt/homebrew/Cellar/arm-none-eabi-gcc/10.3-2021.07/gcc/bin/../lib/gcc/arm-none-eabi/10.3.1/../../../../arm-none-eabi/lib/thumb/v7-m/nofp/libg.a(lib_a-strncpy.o)
 .debug_frame   0x0000000000003b3c       0xdc /opt/homebrew/Cellar/arm-none-eabi-gcc/10.3-2021.07/gcc/bin/../lib/gcc/arm-none-eabi/10.3.1/../../../../arm-none-eabi/lib/thumb/v7-m/nofp/libg.a(lib_a-vfiprintf.o)
 .debug_frame   0x0000000000003c18       0x2c /opt/homebrew/Cellar/arm-none-eabi-gcc/10.3-2021.07/gcc/bin/../lib/gcc/arm-none-eabi/10.3.1/../../../../arm-none-eabi/lib/thumb/v7-m/nofp/libg.a(lib_a-writer.o)
 .debug_frame   0x0000000000003c44       0x34 /opt/homebrew/Cellar/arm-none-eabi-gcc/10.3-2021.07/gcc/bin/../lib/gcc/arm-none-eabi/10.3.1/../../../../arm-none-eabi/lib/thumb/v7-m/nofp/libg.a(lib_a-__atexit.o)
 .debug_frame   0x0000000000003c78       0x40 /opt/homebrew/Cellar/arm-none-eabi-gcc/10.3-2021.07/gcc/bin/../lib/gcc/arm-none-eabi/10.3.1/../../../../arm-none-eabi/lib/thumb/v7-m/nofp/libg.a(lib_a-assert.o)
 .debug_frame   0x0000000000003cb8       0x2c /opt/homebrew/Cellar/arm-none-eabi-gcc/10.3-2021.07/gcc/bin/../lib/gcc/arm-none-eabi/10.3.1/../../../../arm-none-eabi/lib/thumb/v7-m/nofp/libg.a(lib_a-callocr.o)
 .debug_frame   0x0000000000003ce4       0x2c /opt/homebrew/Cellar/arm-none-eabi-gcc/10.3-2021.07/gcc/bin/../lib/gcc/arm-none-eabi/10.3.1/../../../../arm-none-eabi/lib/thumb/v7-m/nofp/libg.a(lib_a-closer.o)
 .debug_frame   0x0000000000003d10       0x3c /opt/homebrew/Cellar/arm-none-eabi-gcc/10.3-2021.07/gcc/bin/../lib/gcc/arm-none-eabi/10.3.1/../../../../arm-none-eabi/lib/thumb/v7-m/nofp/libg.a(lib_a-fclose.o)
 .debug_frame   0x0000000000003d4c       0x6c /opt/homebrew/Cellar/arm-none-eabi-gcc/10.3-2021.07/gcc/bin/../lib/gcc/arm-none-eabi/10.3.1/../../../../arm-none-eabi/lib/thumb/v7-m/nofp/libg.a(lib_a-fiprintf.o)
 .debug_frame   0x0000000000003db8       0x88 /opt/homebrew/Cellar/arm-none-eabi-gcc/10.3-2021.07/gcc/bin/../lib/gcc/arm-none-eabi/10.3.1/../../../../arm-none-eabi/lib/thumb/v7-m/nofp/libg.a(lib_a-fputwc.o)
 .debug_frame   0x0000000000003e40       0x2c /opt/homebrew/Cellar/arm-none-eabi-gcc/10.3-2021.07/gcc/bin/../lib/gcc/arm-none-eabi/10.3.1/../../../../arm-none-eabi/lib/thumb/v7-m/nofp/libg.a(lib_a-fstatr.o)
 .debug_frame   0x0000000000003e6c       0x2c /opt/homebrew/Cellar/arm-none-eabi-gcc/10.3-2021.07/gcc/bin/../lib/gcc/arm-none-eabi/10.3.1/../../../../arm-none-eabi/lib/thumb/v7-m/nofp/libg.a(lib_a-isattyr.o)
 .debug_frame   0x0000000000003e98       0x68 /opt/homebrew/Cellar/arm-none-eabi-gcc/10.3-2021.07/gcc/bin/../lib/gcc/arm-none-eabi/10.3.1/../../../../arm-none-eabi/lib/thumb/v7-m/nofp/libg.a(lib_a-locale.o)
 .debug_frame   0x0000000000003f00       0x2c /opt/homebrew/Cellar/arm-none-eabi-gcc/10.3-2021.07/gcc/bin/../lib/gcc/arm-none-eabi/10.3.1/../../../../arm-none-eabi/lib/thumb/v7-m/nofp/libg.a(lib_a-lseekr.o)
 .debug_frame   0x0000000000003f2c       0x4c /opt/homebrew/Cellar/arm-none-eabi-gcc/10.3-2021.07/gcc/bin/../lib/gcc/arm-none-eabi/10.3.1/../../../../arm-none-eabi/lib/thumb/v7-m/nofp/libg.a(lib_a-mbtowc_r.o)
 .debug_frame   0x0000000000003f78       0x2c /opt/homebrew/Cellar/arm-none-eabi-gcc/10.3-2021.07/gcc/bin/../lib/gcc/arm-none-eabi/10.3.1/../../../../arm-none-eabi/lib/thumb/v7-m/nofp/libg.a(lib_a-readr.o)
 .debug_frame   0x0000000000003fa4       0x64 /opt/homebrew/Cellar/arm-none-eabi-gcc/10.3-2021.07/gcc/bin/../lib/gcc/arm-none-eabi/10.3.1/../../../../arm-none-eabi/lib/thumb/v7-m/nofp/libg.a(lib_a-reent.o)
 .debug_frame   0x0000000000004008       0x40 /opt/homebrew/Cellar/arm-none-eabi-gcc/10.3-2021.07/gcc/bin/../lib/gcc/arm-none-eabi/10.3.1/../../../../arm-none-eabi/lib/thumb/v7-m/nofp/libg.a(lib_a-wbuf.o)
 .debug_frame   0x0000000000004048       0x60 /opt/homebrew/Cellar/arm-none-eabi-gcc/10.3-2021.07/gcc/bin/../lib/gcc/arm-none-eabi/10.3.1/../../../../arm-none-eabi/lib/thumb/v7-m/nofp/libg.a(lib_a-wcrtomb.o)
 .debug_frame   0x00000000000040a8       0x3c /opt/homebrew/Cellar/arm-none-eabi-gcc/10.3-2021.07/gcc/bin/../lib/gcc/arm-none-eabi/10.3.1/../../../../arm-none-eabi/lib/thumb/v7-m/nofp/libg.a(lib_a-wctomb_r.o)
 .debug_frame   0x00000000000040e4       0x28 /opt/homebrew/Cellar/arm-none-eabi-gcc/10.3-2021.07/gcc/bin/../lib/gcc/arm-none-eabi/10.3.1/../../../../arm-none-eabi/lib/thumb/v7-m/nofp/libg.a(lib_a-abort.o)
 .debug_frame   0x000000000000410c      0x114 /opt/homebrew/Cellar/arm-none-eabi-gcc/10.3-2021.07/gcc/bin/../lib/gcc/arm-none-eabi/10.3.1/../../../../arm-none-eabi/lib/thumb/v7-m/nofp/libg.a(lib_a-signal.o)
 .debug_frame   0x0000000000004220       0x3c /opt/homebrew/Cellar/arm-none-eabi-gcc/10.3-2021.07/gcc/bin/../lib/gcc/arm-none-eabi/10.3.1/../../../../arm-none-eabi/lib/thumb/v7-m/nofp/libg.a(lib_a-signalr.o)
 .debug_frame   0x000000000000425c       0xac /opt/homebrew/Cellar/arm-none-eabi-gcc/10.3-2021.07/gcc/bin/../lib/gcc/arm-none-eabi/10.3.1/thumb/v7-m/nofp/libgcc.a(_arm_addsubdf3.o)
 .debug_frame   0x0000000000004308       0x50 /opt/homebrew/Cellar/arm-none-eabi-gcc/10.3-2021.07/gcc/bin/../lib/gcc/arm-none-eabi/10.3.1/thumb/v7-m/nofp/libgcc.a(_arm_muldivdf3.o)
 .debug_frame   0x0000000000004358       0xc4 /opt/homebrew/Cellar/arm-none-eabi-gcc/10.3-2021.07/gcc/bin/../lib/gcc/arm-none-eabi/10.3.1/thumb/v7-m/nofp/libgcc.a(_arm_cmpdf2.o)
 .debug_frame   0x000000000000441c       0x20 /opt/homebrew/Cellar/arm-none-eabi-gcc/10.3-2021.07/gcc/bin/../lib/gcc/arm-none-eabi/10.3.1/thumb/v7-m/nofp/libgcc.a(_arm_unorddf2.o)
 .debug_frame   0x000000000000443c       0x24 /opt/homebrew/Cellar/arm-none-eabi-gcc/10.3-2021.07/gcc/bin/../lib/gcc/arm-none-eabi/10.3.1/thumb/v7-m/nofp/libgcc.a(_arm_fixdfsi.o)
 .debug_frame   0x0000000000004460       0x2c /opt/homebrew/Cellar/arm-none-eabi-gcc/10.3-2021.07/gcc/bin/../lib/gcc/arm-none-eabi/10.3.1/thumb/v7-m/nofp/libgcc.a(_aeabi_uldivmod.o)
 .debug_frame   0x000000000000448c       0x34 /opt/homebrew/Cellar/arm-none-eabi-gcc/10.3-2021.07/gcc/bin/../lib/gcc/arm-none-eabi/10.3.1/thumb/v7-m/nofp/libgcc.a(_udivmoddi4.o)
