Archive member included to satisfy reference by file (symbol)

/opt/homebrew/Cellar/arm-none-eabi-gcc/10.3-2021.07/gcc/bin/../lib/gcc/arm-none-eabi/10.3.1/../../../../arm-none-eabi/lib/thumb/v7-m/nofp/libg.a(lib_a-errno.o)
                              CMakeFiles/Proj32.elf.dir/Core/Src/syscalls.c.obj (__errno)
/opt/homebrew/Cellar/arm-none-eabi-gcc/10.3-2021.07/gcc/bin/../lib/gcc/arm-none-eabi/10.3.1/../../../../arm-none-eabi/lib/thumb/v7-m/nofp/libg.a(lib_a-exit.o)
                              /opt/homebrew/Cellar/arm-none-eabi-gcc/10.3-2021.07/gcc/bin/../lib/gcc/arm-none-eabi/10.3.1/../../../../arm-none-eabi/lib/thumb/v7-m/nofp/crt0.o (exit)
/opt/homebrew/Cellar/arm-none-eabi-gcc/10.3-2021.07/gcc/bin/../lib/gcc/arm-none-eabi/10.3.1/../../../../arm-none-eabi/lib/thumb/v7-m/nofp/libg.a(lib_a-impure.o)
                              /opt/homebrew/Cellar/arm-none-eabi-gcc/10.3-2021.07/gcc/bin/../lib/gcc/arm-none-eabi/10.3.1/../../../../arm-none-eabi/lib/thumb/v7-m/nofp/libg.a(lib_a-exit.o) (_global_impure_ptr)
/opt/homebrew/Cellar/arm-none-eabi-gcc/10.3-2021.07/gcc/bin/../lib/gcc/arm-none-eabi/10.3.1/../../../../arm-none-eabi/lib/thumb/v7-m/nofp/libg.a(lib_a-init.o)
                              /opt/homebrew/Cellar/arm-none-eabi-gcc/10.3-2021.07/gcc/bin/../lib/gcc/arm-none-eabi/10.3.1/../../../../arm-none-eabi/lib/thumb/v7-m/nofp/crt0.o (__libc_init_array)
/opt/homebrew/Cellar/arm-none-eabi-gcc/10.3-2021.07/gcc/bin/../lib/gcc/arm-none-eabi/10.3.1/../../../../arm-none-eabi/lib/thumb/v7-m/nofp/libg.a(lib_a-memset.o)
                              /opt/homebrew/Cellar/arm-none-eabi-gcc/10.3-2021.07/gcc/bin/../lib/gcc/arm-none-eabi/10.3.1/../../../../arm-none-eabi/lib/thumb/v7-m/nofp/crt0.o (memset)
/opt/homebrew/Cellar/arm-none-eabi-gcc/10.3-2021.07/gcc/bin/../lib/gcc/arm-none-eabi/10.3.1/../../../../arm-none-eabi/lib/thumb/v7-m/nofp/libg.a(lib_a-printf.o)
                              CMakeFiles/Proj32.elf.dir/Core/Src/main.c.obj (printf)
/opt/homebrew/Cellar/arm-none-eabi-gcc/10.3-2021.07/gcc/bin/../lib/gcc/arm-none-eabi/10.3.1/../../../../arm-none-eabi/lib/thumb/v7-m/nofp/libg.a(lib_a-putchar.o)
                              CMakeFiles/Proj32.elf.dir/Core/Src/main.c.obj (putchar)
/opt/homebrew/Cellar/arm-none-eabi-gcc/10.3-2021.07/gcc/bin/../lib/gcc/arm-none-eabi/10.3.1/../../../../arm-none-eabi/lib/thumb/v7-m/nofp/libg.a(lib_a-puts.o)
                              CMakeFiles/Proj32.elf.dir/Core/Src/main.c.obj (puts)
/opt/homebrew/Cellar/arm-none-eabi-gcc/10.3-2021.07/gcc/bin/../lib/gcc/arm-none-eabi/10.3.1/../../../../arm-none-eabi/lib/thumb/v7-m/nofp/libg.a(lib_a-strlen-stub.o)
                              /opt/homebrew/Cellar/arm-none-eabi-gcc/10.3-2021.07/gcc/bin/../lib/gcc/arm-none-eabi/10.3.1/../../../../arm-none-eabi/lib/thumb/v7-m/nofp/libg.a(lib_a-puts.o) (strlen)
/opt/homebrew/Cellar/arm-none-eabi-gcc/10.3-2021.07/gcc/bin/../lib/gcc/arm-none-eabi/10.3.1/../../../../arm-none-eabi/lib/thumb/v7-m/nofp/libg.a(lib_a-vfprintf.o)
                              /opt/homebrew/Cellar/arm-none-eabi-gcc/10.3-2021.07/gcc/bin/../lib/gcc/arm-none-eabi/10.3.1/../../../../arm-none-eabi/lib/thumb/v7-m/nofp/libg.a(lib_a-printf.o) (_vfprintf_r)
/opt/homebrew/Cellar/arm-none-eabi-gcc/10.3-2021.07/gcc/bin/../lib/gcc/arm-none-eabi/10.3.1/../../../../arm-none-eabi/lib/thumb/v7-m/nofp/libg.a(lib_a-wsetup.o)
                              /opt/homebrew/Cellar/arm-none-eabi-gcc/10.3-2021.07/gcc/bin/../lib/gcc/arm-none-eabi/10.3.1/../../../../arm-none-eabi/lib/thumb/v7-m/nofp/libg.a(lib_a-vfprintf.o) (__swsetup_r)
/opt/homebrew/Cellar/arm-none-eabi-gcc/10.3-2021.07/gcc/bin/../lib/gcc/arm-none-eabi/10.3.1/../../../../arm-none-eabi/lib/thumb/v7-m/nofp/libg.a(lib_a-__call_atexit.o)
                              /opt/homebrew/Cellar/arm-none-eabi-gcc/10.3-2021.07/gcc/bin/../lib/gcc/arm-none-eabi/10.3.1/../../../../arm-none-eabi/lib/thumb/v7-m/nofp/libg.a(lib_a-exit.o) (__call_exitprocs)
/opt/homebrew/Cellar/arm-none-eabi-gcc/10.3-2021.07/gcc/bin/../lib/gcc/arm-none-eabi/10.3.1/../../../../arm-none-eabi/lib/thumb/v7-m/nofp/libg.a(lib_a-atexit.o)
                              /opt/homebrew/Cellar/arm-none-eabi-gcc/10.3-2021.07/gcc/bin/../lib/gcc/arm-none-eabi/10.3.1/../../../../arm-none-eabi/lib/thumb/v7-m/nofp/libg.a(lib_a-__call_atexit.o) (atexit)
/opt/homebrew/Cellar/arm-none-eabi-gcc/10.3-2021.07/gcc/bin/../lib/gcc/arm-none-eabi/10.3.1/../../../../arm-none-eabi/lib/thumb/v7-m/nofp/libg.a(lib_a-dtoa.o)
                              /opt/homebrew/Cellar/arm-none-eabi-gcc/10.3-2021.07/gcc/bin/../lib/gcc/arm-none-eabi/10.3.1/../../../../arm-none-eabi/lib/thumb/v7-m/nofp/libg.a(lib_a-vfprintf.o) (_dtoa_r)
/opt/homebrew/Cellar/arm-none-eabi-gcc/10.3-2021.07/gcc/bin/../lib/gcc/arm-none-eabi/10.3.1/../../../../arm-none-eabi/lib/thumb/v7-m/nofp/libg.a(lib_a-fflush.o)
                              /opt/homebrew/Cellar/arm-none-eabi-gcc/10.3-2021.07/gcc/bin/../lib/gcc/arm-none-eabi/10.3.1/../../../../arm-none-eabi/lib/thumb/v7-m/nofp/libg.a(lib_a-vfprintf.o) (_fflush_r)
/opt/homebrew/Cellar/arm-none-eabi-gcc/10.3-2021.07/gcc/bin/../lib/gcc/arm-none-eabi/10.3.1/../../../../arm-none-eabi/lib/thumb/v7-m/nofp/libg.a(lib_a-findfp.o)
                              /opt/homebrew/Cellar/arm-none-eabi-gcc/10.3-2021.07/gcc/bin/../lib/gcc/arm-none-eabi/10.3.1/../../../../arm-none-eabi/lib/thumb/v7-m/nofp/libg.a(lib_a-puts.o) (__sinit)
/opt/homebrew/Cellar/arm-none-eabi-gcc/10.3-2021.07/gcc/bin/../lib/gcc/arm-none-eabi/10.3.1/../../../../arm-none-eabi/lib/thumb/v7-m/nofp/libg.a(lib_a-fini.o)
                              /opt/homebrew/Cellar/arm-none-eabi-gcc/10.3-2021.07/gcc/bin/../lib/gcc/arm-none-eabi/10.3.1/../../../../arm-none-eabi/lib/thumb/v7-m/nofp/libg.a(lib_a-__call_atexit.o) (__libc_fini_array)
/opt/homebrew/Cellar/arm-none-eabi-gcc/10.3-2021.07/gcc/bin/../lib/gcc/arm-none-eabi/10.3.1/../../../../arm-none-eabi/lib/thumb/v7-m/nofp/libg.a(lib_a-freer.o)
                              /opt/homebrew/Cellar/arm-none-eabi-gcc/10.3-2021.07/gcc/bin/../lib/gcc/arm-none-eabi/10.3.1/../../../../arm-none-eabi/lib/thumb/v7-m/nofp/libg.a(lib_a-vfprintf.o) (_free_r)
/opt/homebrew/Cellar/arm-none-eabi-gcc/10.3-2021.07/gcc/bin/../lib/gcc/arm-none-eabi/10.3.1/../../../../arm-none-eabi/lib/thumb/v7-m/nofp/libg.a(lib_a-fvwrite.o)
                              /opt/homebrew/Cellar/arm-none-eabi-gcc/10.3-2021.07/gcc/bin/../lib/gcc/arm-none-eabi/10.3.1/../../../../arm-none-eabi/lib/thumb/v7-m/nofp/libg.a(lib_a-puts.o) (__sfvwrite_r)
/opt/homebrew/Cellar/arm-none-eabi-gcc/10.3-2021.07/gcc/bin/../lib/gcc/arm-none-eabi/10.3.1/../../../../arm-none-eabi/lib/thumb/v7-m/nofp/libg.a(lib_a-fwalk.o)
                              /opt/homebrew/Cellar/arm-none-eabi-gcc/10.3-2021.07/gcc/bin/../lib/gcc/arm-none-eabi/10.3.1/../../../../arm-none-eabi/lib/thumb/v7-m/nofp/libg.a(lib_a-findfp.o) (_fwalk)
/opt/homebrew/Cellar/arm-none-eabi-gcc/10.3-2021.07/gcc/bin/../lib/gcc/arm-none-eabi/10.3.1/../../../../arm-none-eabi/lib/thumb/v7-m/nofp/libg.a(lib_a-localeconv.o)
                              /opt/homebrew/Cellar/arm-none-eabi-gcc/10.3-2021.07/gcc/bin/../lib/gcc/arm-none-eabi/10.3.1/../../../../arm-none-eabi/lib/thumb/v7-m/nofp/libg.a(lib_a-vfprintf.o) (_localeconv_r)
/opt/homebrew/Cellar/arm-none-eabi-gcc/10.3-2021.07/gcc/bin/../lib/gcc/arm-none-eabi/10.3.1/../../../../arm-none-eabi/lib/thumb/v7-m/nofp/libg.a(lib_a-lock.o)
                              /opt/homebrew/Cellar/arm-none-eabi-gcc/10.3-2021.07/gcc/bin/../lib/gcc/arm-none-eabi/10.3.1/../../../../arm-none-eabi/lib/thumb/v7-m/nofp/libg.a(lib_a-vfprintf.o) (__retarget_lock_init_recursive)
/opt/homebrew/Cellar/arm-none-eabi-gcc/10.3-2021.07/gcc/bin/../lib/gcc/arm-none-eabi/10.3.1/../../../../arm-none-eabi/lib/thumb/v7-m/nofp/libg.a(lib_a-makebuf.o)
                              /opt/homebrew/Cellar/arm-none-eabi-gcc/10.3-2021.07/gcc/bin/../lib/gcc/arm-none-eabi/10.3.1/../../../../arm-none-eabi/lib/thumb/v7-m/nofp/libg.a(lib_a-wsetup.o) (__smakebuf_r)
/opt/homebrew/Cellar/arm-none-eabi-gcc/10.3-2021.07/gcc/bin/../lib/gcc/arm-none-eabi/10.3.1/../../../../arm-none-eabi/lib/thumb/v7-m/nofp/libg.a(lib_a-mallocr.o)
                              /opt/homebrew/Cellar/arm-none-eabi-gcc/10.3-2021.07/gcc/bin/../lib/gcc/arm-none-eabi/10.3.1/../../../../arm-none-eabi/lib/thumb/v7-m/nofp/libg.a(lib_a-vfprintf.o) (_malloc_r)
/opt/homebrew/Cellar/arm-none-eabi-gcc/10.3-2021.07/gcc/bin/../lib/gcc/arm-none-eabi/10.3.1/../../../../arm-none-eabi/lib/thumb/v7-m/nofp/libg.a(lib_a-memchr-stub.o)
                              /opt/homebrew/Cellar/arm-none-eabi-gcc/10.3-2021.07/gcc/bin/../lib/gcc/arm-none-eabi/10.3.1/../../../../arm-none-eabi/lib/thumb/v7-m/nofp/libg.a(lib_a-vfprintf.o) (memchr)
/opt/homebrew/Cellar/arm-none-eabi-gcc/10.3-2021.07/gcc/bin/../lib/gcc/arm-none-eabi/10.3.1/../../../../arm-none-eabi/lib/thumb/v7-m/nofp/libg.a(lib_a-memcpy.o)
                              /opt/homebrew/Cellar/arm-none-eabi-gcc/10.3-2021.07/gcc/bin/../lib/gcc/arm-none-eabi/10.3.1/../../../../arm-none-eabi/lib/thumb/v7-m/nofp/libg.a(lib_a-dtoa.o) (memcpy)
/opt/homebrew/Cellar/arm-none-eabi-gcc/10.3-2021.07/gcc/bin/../lib/gcc/arm-none-eabi/10.3.1/../../../../arm-none-eabi/lib/thumb/v7-m/nofp/libg.a(lib_a-memmove.o)
                              /opt/homebrew/Cellar/arm-none-eabi-gcc/10.3-2021.07/gcc/bin/../lib/gcc/arm-none-eabi/10.3.1/../../../../arm-none-eabi/lib/thumb/v7-m/nofp/libg.a(lib_a-fvwrite.o) (memmove)
/opt/homebrew/Cellar/arm-none-eabi-gcc/10.3-2021.07/gcc/bin/../lib/gcc/arm-none-eabi/10.3.1/../../../../arm-none-eabi/lib/thumb/v7-m/nofp/libg.a(lib_a-mlock.o)
                              /opt/homebrew/Cellar/arm-none-eabi-gcc/10.3-2021.07/gcc/bin/../lib/gcc/arm-none-eabi/10.3.1/../../../../arm-none-eabi/lib/thumb/v7-m/nofp/libg.a(lib_a-freer.o) (__malloc_lock)
/opt/homebrew/Cellar/arm-none-eabi-gcc/10.3-2021.07/gcc/bin/../lib/gcc/arm-none-eabi/10.3.1/../../../../arm-none-eabi/lib/thumb/v7-m/nofp/libg.a(lib_a-mprec.o)
                              /opt/homebrew/Cellar/arm-none-eabi-gcc/10.3-2021.07/gcc/bin/../lib/gcc/arm-none-eabi/10.3.1/../../../../arm-none-eabi/lib/thumb/v7-m/nofp/libg.a(lib_a-dtoa.o) (_Balloc)
/opt/homebrew/Cellar/arm-none-eabi-gcc/10.3-2021.07/gcc/bin/../lib/gcc/arm-none-eabi/10.3.1/../../../../arm-none-eabi/lib/thumb/v7-m/nofp/libg.a(lib_a-putc.o)
                              /opt/homebrew/Cellar/arm-none-eabi-gcc/10.3-2021.07/gcc/bin/../lib/gcc/arm-none-eabi/10.3.1/../../../../arm-none-eabi/lib/thumb/v7-m/nofp/libg.a(lib_a-putchar.o) (_putc_r)
/opt/homebrew/Cellar/arm-none-eabi-gcc/10.3-2021.07/gcc/bin/../lib/gcc/arm-none-eabi/10.3.1/../../../../arm-none-eabi/lib/thumb/v7-m/nofp/libg.a(lib_a-reallocr.o)
                              /opt/homebrew/Cellar/arm-none-eabi-gcc/10.3-2021.07/gcc/bin/../lib/gcc/arm-none-eabi/10.3.1/../../../../arm-none-eabi/lib/thumb/v7-m/nofp/libg.a(lib_a-fvwrite.o) (_realloc_r)
/opt/homebrew/Cellar/arm-none-eabi-gcc/10.3-2021.07/gcc/bin/../lib/gcc/arm-none-eabi/10.3.1/../../../../arm-none-eabi/lib/thumb/v7-m/nofp/libg.a(lib_a-s_frexp.o)
                              /opt/homebrew/Cellar/arm-none-eabi-gcc/10.3-2021.07/gcc/bin/../lib/gcc/arm-none-eabi/10.3.1/../../../../arm-none-eabi/lib/thumb/v7-m/nofp/libg.a(lib_a-vfprintf.o) (frexp)
/opt/homebrew/Cellar/arm-none-eabi-gcc/10.3-2021.07/gcc/bin/../lib/gcc/arm-none-eabi/10.3.1/../../../../arm-none-eabi/lib/thumb/v7-m/nofp/libg.a(lib_a-sbrkr.o)
                              /opt/homebrew/Cellar/arm-none-eabi-gcc/10.3-2021.07/gcc/bin/../lib/gcc/arm-none-eabi/10.3.1/../../../../arm-none-eabi/lib/thumb/v7-m/nofp/libg.a(lib_a-freer.o) (_sbrk_r)
/opt/homebrew/Cellar/arm-none-eabi-gcc/10.3-2021.07/gcc/bin/../lib/gcc/arm-none-eabi/10.3.1/../../../../arm-none-eabi/lib/thumb/v7-m/nofp/libg.a(lib_a-stdio.o)
                              /opt/homebrew/Cellar/arm-none-eabi-gcc/10.3-2021.07/gcc/bin/../lib/gcc/arm-none-eabi/10.3.1/../../../../arm-none-eabi/lib/thumb/v7-m/nofp/libg.a(lib_a-findfp.o) (__sread)
/opt/homebrew/Cellar/arm-none-eabi-gcc/10.3-2021.07/gcc/bin/../lib/gcc/arm-none-eabi/10.3.1/../../../../arm-none-eabi/lib/thumb/v7-m/nofp/libg.a(lib_a-strncpy.o)
                              /opt/homebrew/Cellar/arm-none-eabi-gcc/10.3-2021.07/gcc/bin/../lib/gcc/arm-none-eabi/10.3.1/../../../../arm-none-eabi/lib/thumb/v7-m/nofp/libg.a(lib_a-vfprintf.o) (strncpy)
/opt/homebrew/Cellar/arm-none-eabi-gcc/10.3-2021.07/gcc/bin/../lib/gcc/arm-none-eabi/10.3.1/../../../../arm-none-eabi/lib/thumb/v7-m/nofp/libg.a(lib_a-vfiprintf.o)
                              /opt/homebrew/Cellar/arm-none-eabi-gcc/10.3-2021.07/gcc/bin/../lib/gcc/arm-none-eabi/10.3.1/../../../../arm-none-eabi/lib/thumb/v7-m/nofp/libg.a(lib_a-vfprintf.o) (__sprint_r)
/opt/homebrew/Cellar/arm-none-eabi-gcc/10.3-2021.07/gcc/bin/../lib/gcc/arm-none-eabi/10.3.1/../../../../arm-none-eabi/lib/thumb/v7-m/nofp/libg.a(lib_a-wbuf.o)
                              /opt/homebrew/Cellar/arm-none-eabi-gcc/10.3-2021.07/gcc/bin/../lib/gcc/arm-none-eabi/10.3.1/../../../../arm-none-eabi/lib/thumb/v7-m/nofp/libg.a(lib_a-putc.o) (__swbuf_r)
/opt/homebrew/Cellar/arm-none-eabi-gcc/10.3-2021.07/gcc/bin/../lib/gcc/arm-none-eabi/10.3.1/../../../../arm-none-eabi/lib/thumb/v7-m/nofp/libg.a(lib_a-writer.o)
                              /opt/homebrew/Cellar/arm-none-eabi-gcc/10.3-2021.07/gcc/bin/../lib/gcc/arm-none-eabi/10.3.1/../../../../arm-none-eabi/lib/thumb/v7-m/nofp/libg.a(lib_a-stdio.o) (_write_r)
/opt/homebrew/Cellar/arm-none-eabi-gcc/10.3-2021.07/gcc/bin/../lib/gcc/arm-none-eabi/10.3.1/../../../../arm-none-eabi/lib/thumb/v7-m/nofp/libg.a(lib_a-__atexit.o)
                              /opt/homebrew/Cellar/arm-none-eabi-gcc/10.3-2021.07/gcc/bin/../lib/gcc/arm-none-eabi/10.3.1/../../../../arm-none-eabi/lib/thumb/v7-m/nofp/libg.a(lib_a-atexit.o) (__register_exitproc)
/opt/homebrew/Cellar/arm-none-eabi-gcc/10.3-2021.07/gcc/bin/../lib/gcc/arm-none-eabi/10.3.1/../../../../arm-none-eabi/lib/thumb/v7-m/nofp/libg.a(lib_a-assert.o)
                              /opt/homebrew/Cellar/arm-none-eabi-gcc/10.3-2021.07/gcc/bin/../lib/gcc/arm-none-eabi/10.3.1/../../../../arm-none-eabi/lib/thumb/v7-m/nofp/libg.a(lib_a-dtoa.o) (__assert_func)
/opt/homebrew/Cellar/arm-none-eabi-gcc/10.3-2021.07/gcc/bin/../lib/gcc/arm-none-eabi/10.3.1/../../../../arm-none-eabi/lib/thumb/v7-m/nofp/libg.a(lib_a-callocr.o)
                              /opt/homebrew/Cellar/arm-none-eabi-gcc/10.3-2021.07/gcc/bin/../lib/gcc/arm-none-eabi/10.3.1/../../../../arm-none-eabi/lib/thumb/v7-m/nofp/libg.a(lib_a-mprec.o) (_calloc_r)
/opt/homebrew/Cellar/arm-none-eabi-gcc/10.3-2021.07/gcc/bin/../lib/gcc/arm-none-eabi/10.3.1/../../../../arm-none-eabi/lib/thumb/v7-m/nofp/libg.a(lib_a-closer.o)
                              /opt/homebrew/Cellar/arm-none-eabi-gcc/10.3-2021.07/gcc/bin/../lib/gcc/arm-none-eabi/10.3.1/../../../../arm-none-eabi/lib/thumb/v7-m/nofp/libg.a(lib_a-stdio.o) (_close_r)
/opt/homebrew/Cellar/arm-none-eabi-gcc/10.3-2021.07/gcc/bin/../lib/gcc/arm-none-eabi/10.3.1/../../../../arm-none-eabi/lib/thumb/v7-m/nofp/libg.a(lib_a-fclose.o)
                              /opt/homebrew/Cellar/arm-none-eabi-gcc/10.3-2021.07/gcc/bin/../lib/gcc/arm-none-eabi/10.3.1/../../../../arm-none-eabi/lib/thumb/v7-m/nofp/libg.a(lib_a-findfp.o) (_fclose_r)
/opt/homebrew/Cellar/arm-none-eabi-gcc/10.3-2021.07/gcc/bin/../lib/gcc/arm-none-eabi/10.3.1/../../../../arm-none-eabi/lib/thumb/v7-m/nofp/libg.a(lib_a-fiprintf.o)
                              /opt/homebrew/Cellar/arm-none-eabi-gcc/10.3-2021.07/gcc/bin/../lib/gcc/arm-none-eabi/10.3.1/../../../../arm-none-eabi/lib/thumb/v7-m/nofp/libg.a(lib_a-assert.o) (fiprintf)
/opt/homebrew/Cellar/arm-none-eabi-gcc/10.3-2021.07/gcc/bin/../lib/gcc/arm-none-eabi/10.3.1/../../../../arm-none-eabi/lib/thumb/v7-m/nofp/libg.a(lib_a-fputwc.o)
                              /opt/homebrew/Cellar/arm-none-eabi-gcc/10.3-2021.07/gcc/bin/../lib/gcc/arm-none-eabi/10.3.1/../../../../arm-none-eabi/lib/thumb/v7-m/nofp/libg.a(lib_a-vfiprintf.o) (_fputwc_r)
/opt/homebrew/Cellar/arm-none-eabi-gcc/10.3-2021.07/gcc/bin/../lib/gcc/arm-none-eabi/10.3.1/../../../../arm-none-eabi/lib/thumb/v7-m/nofp/libg.a(lib_a-fstatr.o)
                              /opt/homebrew/Cellar/arm-none-eabi-gcc/10.3-2021.07/gcc/bin/../lib/gcc/arm-none-eabi/10.3.1/../../../../arm-none-eabi/lib/thumb/v7-m/nofp/libg.a(lib_a-makebuf.o) (_fstat_r)
/opt/homebrew/Cellar/arm-none-eabi-gcc/10.3-2021.07/gcc/bin/../lib/gcc/arm-none-eabi/10.3.1/../../../../arm-none-eabi/lib/thumb/v7-m/nofp/libg.a(lib_a-isattyr.o)
                              /opt/homebrew/Cellar/arm-none-eabi-gcc/10.3-2021.07/gcc/bin/../lib/gcc/arm-none-eabi/10.3.1/../../../../arm-none-eabi/lib/thumb/v7-m/nofp/libg.a(lib_a-makebuf.o) (_isatty_r)
/opt/homebrew/Cellar/arm-none-eabi-gcc/10.3-2021.07/gcc/bin/../lib/gcc/arm-none-eabi/10.3.1/../../../../arm-none-eabi/lib/thumb/v7-m/nofp/libg.a(lib_a-locale.o)
                              /opt/homebrew/Cellar/arm-none-eabi-gcc/10.3-2021.07/gcc/bin/../lib/gcc/arm-none-eabi/10.3.1/../../../../arm-none-eabi/lib/thumb/v7-m/nofp/libg.a(lib_a-fputwc.o) (__locale_mb_cur_max)
/opt/homebrew/Cellar/arm-none-eabi-gcc/10.3-2021.07/gcc/bin/../lib/gcc/arm-none-eabi/10.3.1/../../../../arm-none-eabi/lib/thumb/v7-m/nofp/libg.a(lib_a-lseekr.o)
                              /opt/homebrew/Cellar/arm-none-eabi-gcc/10.3-2021.07/gcc/bin/../lib/gcc/arm-none-eabi/10.3.1/../../../../arm-none-eabi/lib/thumb/v7-m/nofp/libg.a(lib_a-stdio.o) (_lseek_r)
/opt/homebrew/Cellar/arm-none-eabi-gcc/10.3-2021.07/gcc/bin/../lib/gcc/arm-none-eabi/10.3.1/../../../../arm-none-eabi/lib/thumb/v7-m/nofp/libg.a(lib_a-mbtowc_r.o)
                              /opt/homebrew/Cellar/arm-none-eabi-gcc/10.3-2021.07/gcc/bin/../lib/gcc/arm-none-eabi/10.3.1/../../../../arm-none-eabi/lib/thumb/v7-m/nofp/libg.a(lib_a-locale.o) (__ascii_mbtowc)
/opt/homebrew/Cellar/arm-none-eabi-gcc/10.3-2021.07/gcc/bin/../lib/gcc/arm-none-eabi/10.3.1/../../../../arm-none-eabi/lib/thumb/v7-m/nofp/libg.a(lib_a-readr.o)
                              /opt/homebrew/Cellar/arm-none-eabi-gcc/10.3-2021.07/gcc/bin/../lib/gcc/arm-none-eabi/10.3.1/../../../../arm-none-eabi/lib/thumb/v7-m/nofp/libg.a(lib_a-stdio.o) (_read_r)
/opt/homebrew/Cellar/arm-none-eabi-gcc/10.3-2021.07/gcc/bin/../lib/gcc/arm-none-eabi/10.3.1/../../../../arm-none-eabi/lib/thumb/v7-m/nofp/libg.a(lib_a-reent.o)
                              /opt/homebrew/Cellar/arm-none-eabi-gcc/10.3-2021.07/gcc/bin/../lib/gcc/arm-none-eabi/10.3.1/../../../../arm-none-eabi/lib/thumb/v7-m/nofp/libg.a(lib_a-sbrkr.o) (errno)
/opt/homebrew/Cellar/arm-none-eabi-gcc/10.3-2021.07/gcc/bin/../lib/gcc/arm-none-eabi/10.3.1/../../../../arm-none-eabi/lib/thumb/v7-m/nofp/libg.a(lib_a-strcmp.o)
                              /opt/homebrew/Cellar/arm-none-eabi-gcc/10.3-2021.07/gcc/bin/../lib/gcc/arm-none-eabi/10.3.1/../../../../arm-none-eabi/lib/thumb/v7-m/nofp/libg.a(lib_a-locale.o) (strcmp)
/opt/homebrew/Cellar/arm-none-eabi-gcc/10.3-2021.07/gcc/bin/../lib/gcc/arm-none-eabi/10.3.1/../../../../arm-none-eabi/lib/thumb/v7-m/nofp/libg.a(lib_a-wcrtomb.o)
                              /opt/homebrew/Cellar/arm-none-eabi-gcc/10.3-2021.07/gcc/bin/../lib/gcc/arm-none-eabi/10.3.1/../../../../arm-none-eabi/lib/thumb/v7-m/nofp/libg.a(lib_a-fputwc.o) (_wcrtomb_r)
/opt/homebrew/Cellar/arm-none-eabi-gcc/10.3-2021.07/gcc/bin/../lib/gcc/arm-none-eabi/10.3.1/../../../../arm-none-eabi/lib/thumb/v7-m/nofp/libg.a(lib_a-wctomb_r.o)
                              /opt/homebrew/Cellar/arm-none-eabi-gcc/10.3-2021.07/gcc/bin/../lib/gcc/arm-none-eabi/10.3.1/../../../../arm-none-eabi/lib/thumb/v7-m/nofp/libg.a(lib_a-locale.o) (__ascii_wctomb)
/opt/homebrew/Cellar/arm-none-eabi-gcc/10.3-2021.07/gcc/bin/../lib/gcc/arm-none-eabi/10.3.1/../../../../arm-none-eabi/lib/thumb/v7-m/nofp/libg.a(lib_a-abort.o)
                              /opt/homebrew/Cellar/arm-none-eabi-gcc/10.3-2021.07/gcc/bin/../lib/gcc/arm-none-eabi/10.3.1/../../../../arm-none-eabi/lib/thumb/v7-m/nofp/libg.a(lib_a-assert.o) (abort)
/opt/homebrew/Cellar/arm-none-eabi-gcc/10.3-2021.07/gcc/bin/../lib/gcc/arm-none-eabi/10.3.1/../../../../arm-none-eabi/lib/thumb/v7-m/nofp/libg.a(lib_a-ctype_.o)
                              /opt/homebrew/Cellar/arm-none-eabi-gcc/10.3-2021.07/gcc/bin/../lib/gcc/arm-none-eabi/10.3.1/../../../../arm-none-eabi/lib/thumb/v7-m/nofp/libg.a(lib_a-locale.o) (_ctype_)
/opt/homebrew/Cellar/arm-none-eabi-gcc/10.3-2021.07/gcc/bin/../lib/gcc/arm-none-eabi/10.3.1/../../../../arm-none-eabi/lib/thumb/v7-m/nofp/libg.a(lib_a-signal.o)
                              /opt/homebrew/Cellar/arm-none-eabi-gcc/10.3-2021.07/gcc/bin/../lib/gcc/arm-none-eabi/10.3.1/../../../../arm-none-eabi/lib/thumb/v7-m/nofp/libg.a(lib_a-abort.o) (raise)
/opt/homebrew/Cellar/arm-none-eabi-gcc/10.3-2021.07/gcc/bin/../lib/gcc/arm-none-eabi/10.3.1/../../../../arm-none-eabi/lib/thumb/v7-m/nofp/libg.a(lib_a-signalr.o)
                              /opt/homebrew/Cellar/arm-none-eabi-gcc/10.3-2021.07/gcc/bin/../lib/gcc/arm-none-eabi/10.3.1/../../../../arm-none-eabi/lib/thumb/v7-m/nofp/libg.a(lib_a-signal.o) (_kill_r)
/opt/homebrew/Cellar/arm-none-eabi-gcc/10.3-2021.07/gcc/bin/../lib/gcc/arm-none-eabi/10.3.1/thumb/v7-m/nofp/libgcc.a(_arm_muldf3.o)
                              /opt/homebrew/Cellar/arm-none-eabi-gcc/10.3-2021.07/gcc/bin/../lib/gcc/arm-none-eabi/10.3.1/../../../../arm-none-eabi/lib/thumb/v7-m/nofp/libg.a(lib_a-vfprintf.o) (__aeabi_dmul)
/opt/homebrew/Cellar/arm-none-eabi-gcc/10.3-2021.07/gcc/bin/../lib/gcc/arm-none-eabi/10.3.1/thumb/v7-m/nofp/libgcc.a(_arm_addsubdf3.o)
                              /opt/homebrew/Cellar/arm-none-eabi-gcc/10.3-2021.07/gcc/bin/../lib/gcc/arm-none-eabi/10.3.1/../../../../arm-none-eabi/lib/thumb/v7-m/nofp/libg.a(lib_a-vfprintf.o) (__aeabi_dsub)
/opt/homebrew/Cellar/arm-none-eabi-gcc/10.3-2021.07/gcc/bin/../lib/gcc/arm-none-eabi/10.3.1/thumb/v7-m/nofp/libgcc.a(_arm_muldivdf3.o)
                              /opt/homebrew/Cellar/arm-none-eabi-gcc/10.3-2021.07/gcc/bin/../lib/gcc/arm-none-eabi/10.3.1/../../../../arm-none-eabi/lib/thumb/v7-m/nofp/libg.a(lib_a-dtoa.o) (__aeabi_ddiv)
/opt/homebrew/Cellar/arm-none-eabi-gcc/10.3-2021.07/gcc/bin/../lib/gcc/arm-none-eabi/10.3.1/thumb/v7-m/nofp/libgcc.a(_arm_cmpdf2.o)
                              /opt/homebrew/Cellar/arm-none-eabi-gcc/10.3-2021.07/gcc/bin/../lib/gcc/arm-none-eabi/10.3.1/../../../../arm-none-eabi/lib/thumb/v7-m/nofp/libg.a(lib_a-vfprintf.o) (__aeabi_dcmpeq)
/opt/homebrew/Cellar/arm-none-eabi-gcc/10.3-2021.07/gcc/bin/../lib/gcc/arm-none-eabi/10.3.1/thumb/v7-m/nofp/libgcc.a(_arm_unorddf2.o)
                              /opt/homebrew/Cellar/arm-none-eabi-gcc/10.3-2021.07/gcc/bin/../lib/gcc/arm-none-eabi/10.3.1/../../../../arm-none-eabi/lib/thumb/v7-m/nofp/libg.a(lib_a-vfprintf.o) (__aeabi_dcmpun)
/opt/homebrew/Cellar/arm-none-eabi-gcc/10.3-2021.07/gcc/bin/../lib/gcc/arm-none-eabi/10.3.1/thumb/v7-m/nofp/libgcc.a(_arm_fixdfsi.o)
                              /opt/homebrew/Cellar/arm-none-eabi-gcc/10.3-2021.07/gcc/bin/../lib/gcc/arm-none-eabi/10.3.1/../../../../arm-none-eabi/lib/thumb/v7-m/nofp/libg.a(lib_a-vfprintf.o) (__aeabi_d2iz)
/opt/homebrew/Cellar/arm-none-eabi-gcc/10.3-2021.07/gcc/bin/../lib/gcc/arm-none-eabi/10.3.1/thumb/v7-m/nofp/libgcc.a(_aeabi_uldivmod.o)
                              /opt/homebrew/Cellar/arm-none-eabi-gcc/10.3-2021.07/gcc/bin/../lib/gcc/arm-none-eabi/10.3.1/../../../../arm-none-eabi/lib/thumb/v7-m/nofp/libg.a(lib_a-vfprintf.o) (__aeabi_uldivmod)
/opt/homebrew/Cellar/arm-none-eabi-gcc/10.3-2021.07/gcc/bin/../lib/gcc/arm-none-eabi/10.3.1/thumb/v7-m/nofp/libgcc.a(_udivmoddi4.o)
                              /opt/homebrew/Cellar/arm-none-eabi-gcc/10.3-2021.07/gcc/bin/../lib/gcc/arm-none-eabi/10.3.1/thumb/v7-m/nofp/libgcc.a(_aeabi_uldivmod.o) (__udivmoddi4)
/opt/homebrew/Cellar/arm-none-eabi-gcc/10.3-2021.07/gcc/bin/../lib/gcc/arm-none-eabi/10.3.1/thumb/v7-m/nofp/libgcc.a(_dvmd_tls.o)
                              /opt/homebrew/Cellar/arm-none-eabi-gcc/10.3-2021.07/gcc/bin/../lib/gcc/arm-none-eabi/10.3.1/thumb/v7-m/nofp/libgcc.a(_aeabi_uldivmod.o) (__aeabi_ldiv0)

Discarded input sections

 .text          0x0000000000000000        0x0 /opt/homebrew/Cellar/arm-none-eabi-gcc/10.3-2021.07/gcc/bin/../lib/gcc/arm-none-eabi/10.3.1/thumb/v7-m/nofp/crti.o
 .data          0x0000000000000000        0x0 /opt/homebrew/Cellar/arm-none-eabi-gcc/10.3-2021.07/gcc/bin/../lib/gcc/arm-none-eabi/10.3.1/thumb/v7-m/nofp/crti.o
 .bss           0x0000000000000000        0x0 /opt/homebrew/Cellar/arm-none-eabi-gcc/10.3-2021.07/gcc/bin/../lib/gcc/arm-none-eabi/10.3.1/thumb/v7-m/nofp/crti.o
 .data          0x0000000000000000        0x4 /opt/homebrew/Cellar/arm-none-eabi-gcc/10.3-2021.07/gcc/bin/../lib/gcc/arm-none-eabi/10.3.1/thumb/v7-m/nofp/crtbegin.o
 .rodata        0x0000000000000000       0x24 /opt/homebrew/Cellar/arm-none-eabi-gcc/10.3-2021.07/gcc/bin/../lib/gcc/arm-none-eabi/10.3.1/thumb/v7-m/nofp/crtbegin.o
 .text          0x0000000000000000       0x7c /opt/homebrew/Cellar/arm-none-eabi-gcc/10.3-2021.07/gcc/bin/../lib/gcc/arm-none-eabi/10.3.1/../../../../arm-none-eabi/lib/thumb/v7-m/nofp/crt0.o
 .data          0x0000000000000000        0x0 /opt/homebrew/Cellar/arm-none-eabi-gcc/10.3-2021.07/gcc/bin/../lib/gcc/arm-none-eabi/10.3.1/../../../../arm-none-eabi/lib/thumb/v7-m/nofp/crt0.o
 .bss           0x0000000000000000        0x0 /opt/homebrew/Cellar/arm-none-eabi-gcc/10.3-2021.07/gcc/bin/../lib/gcc/arm-none-eabi/10.3.1/../../../../arm-none-eabi/lib/thumb/v7-m/nofp/crt0.o
 .ARM.extab     0x0000000000000000        0x0 /opt/homebrew/Cellar/arm-none-eabi-gcc/10.3-2021.07/gcc/bin/../lib/gcc/arm-none-eabi/10.3.1/../../../../arm-none-eabi/lib/thumb/v7-m/nofp/crt0.o
 .ARM.exidx     0x0000000000000000       0x10 /opt/homebrew/Cellar/arm-none-eabi-gcc/10.3-2021.07/gcc/bin/../lib/gcc/arm-none-eabi/10.3.1/../../../../arm-none-eabi/lib/thumb/v7-m/nofp/crt0.o
 .ARM.attributes
                0x0000000000000000       0x1b /opt/homebrew/Cellar/arm-none-eabi-gcc/10.3-2021.07/gcc/bin/../lib/gcc/arm-none-eabi/10.3.1/../../../../arm-none-eabi/lib/thumb/v7-m/nofp/crt0.o
 .text          0x0000000000000000        0x0 CMakeFiles/Proj32.elf.dir/Core/Src/bsp_spi_flash.c.obj
 .data          0x0000000000000000        0x0 CMakeFiles/Proj32.elf.dir/Core/Src/bsp_spi_flash.c.obj
 .bss           0x0000000000000000        0x0 CMakeFiles/Proj32.elf.dir/Core/Src/bsp_spi_flash.c.obj
 .text.SPI2_SetSpeed
                0x0000000000000000       0x34 CMakeFiles/Proj32.elf.dir/Core/Src/bsp_spi_flash.c.obj
 .text.W25QXX_ReadSR
Memory Configuration

Name             Origin             Length             Attributes
RAM              0x0000000020000000 0x0000000000005000 xrw
FLASH            0x0000000008000000 0x0000000000020000 xr
*default*        0x0000000000000000 0xffffffffffffffff

Linker script and memory map

LOAD /opt/homebrew/Cellar/arm-none-eabi-gcc/10.3-2021.07/gcc/bin/../lib/gcc/arm-none-eabi/10.3.1/thumb/v7-m/nofp/crti.o
LOAD /opt/homebrew/Cellar/arm-none-eabi-gcc/10.3-2021.07/gcc/bin/../lib/gcc/arm-none-eabi/10.3.1/thumb/v7-m/nofp/crtbegin.o
LOAD /opt/homebrew/Cellar/arm-none-eabi-gcc/10.3-2021.07/gcc/bin/../lib/gcc/arm-none-eabi/10.3.1/../../../../arm-none-eabi/lib/thumb/v7-m/nofp/crt0.o
LOAD CMakeFiles/Proj32.elf.dir/Core/Src/bsp_spi_flash.c.obj
LOAD CMakeFiles/Proj32.elf.dir/Core/Src/main.c.obj
LOAD CMakeFiles/Proj32.elf.dir/Core/Src/oled.c.obj
LOAD CMakeFiles/Proj32.elf.dir/Core/Src/stm32f1xx_hal_msp.c.obj
LOAD CMakeFiles/Proj32.elf.dir/Core/Src/stm32f1xx_it.c.obj
LOAD CMakeFiles/Proj32.elf.dir/Core/Src/syscalls.c.obj
LOAD CMakeFiles/Proj32.elf.dir/Core/Src/sysmem.c.obj
LOAD CMakeFiles/Proj32.elf.dir/Core/Src/system_stm32f1xx.c.obj
LOAD CMakeFiles/Proj32.elf.dir/Core/Startup/startup_stm32f103vbtx.s.obj
LOAD CMakeFiles/Proj32.elf.dir/Drivers/STM32F1xx_HAL_Driver/Src/stm32f1xx_hal.c.obj
LOAD CMakeFiles/Proj32.elf.dir/Drivers/STM32F1xx_HAL_Driver/Src/stm32f1xx_hal_can.c.obj
LOAD CMakeFiles/Proj32.elf.dir/Drivers/STM32F1xx_HAL_Driver/Src/stm32f1xx_hal_cortex.c.obj
LOAD CMakeFiles/Proj32.elf.dir/Drivers/STM32F1xx_HAL_Driver/Src/stm32f1xx_hal_dma.c.obj
LOAD CMakeFiles/Proj32.elf.dir/Drivers/STM32F1xx_HAL_Driver/Src/stm32f1xx_hal_exti.c.obj
LOAD CMakeFiles/Proj32.elf.dir/Drivers/STM32F1xx_HAL_Driver/Src/stm32f1xx_hal_flash.c.obj
LOAD CMakeFiles/Proj32.elf.dir/Drivers/STM32F1xx_HAL_Driver/Src/stm32f1xx_hal_flash_ex.c.obj
LOAD CMakeFiles/Proj32.elf.dir/Drivers/STM32F1xx_HAL_Driver/Src/stm32f1xx_hal_gpio.c.obj
LOAD CMakeFiles/Proj32.elf.dir/Drivers/STM32F1xx_HAL_Driver/Src/stm32f1xx_hal_gpio_ex.c.obj
LOAD CMakeFiles/Proj32.elf.dir/Drivers/STM32F1xx_HAL_Driver/Src/stm32f1xx_hal_i2c.c.obj
LOAD CMakeFiles/Proj32.elf.dir/Drivers/STM32F1xx_HAL_Driver/Src/stm32f1xx_hal_pwr.c.obj
LOAD CMakeFiles/Proj32.elf.dir/Drivers/STM32F1xx_HAL_Driver/Src/stm32f1xx_hal_rcc.c.obj
LOAD CMakeFiles/Proj32.elf.dir/Drivers/STM32F1xx_HAL_Driver/Src/stm32f1xx_hal_rcc_ex.c.obj
LOAD CMakeFiles/Proj32.elf.dir/Drivers/STM32F1xx_HAL_Driver/Src/stm32f1xx_hal_spi.c.obj
LOAD CMakeFiles/Proj32.elf.dir/Drivers/STM32F1xx_HAL_Driver/Src/stm32f1xx_hal_tim.c.obj
LOAD CMakeFiles/Proj32.elf.dir/Drivers/STM32F1xx_HAL_Driver/Src/stm32f1xx_hal_tim_ex.c.obj
LOAD CMakeFiles/Proj32.elf.dir/Drivers/STM32F1xx_HAL_Driver/Src/stm32f1xx_hal_uart.c.obj
LOAD CMakeFiles/Proj32.elf.dir/FATFS/App/fatfs.c.obj
LOAD CMakeFiles/Proj32.elf.dir/FATFS/Target/user_diskio.c.obj
LOAD CMakeFiles/Proj32.elf.dir/Middlewares/Third_Party/FatFs/src/diskio.c.obj
LOAD CMakeFiles/Proj32.elf.dir/Middlewares/Third_Party/FatFs/src/ff.c.obj
LOAD CMakeFiles/Proj32.elf.dir/Middlewares/Third_Party/FatFs/src/ff_gen_drv.c.obj
LOAD CMakeFiles/Proj32.elf.dir/Middlewares/Third_Party/FatFs/src/option/syscall.c.obj
START GROUP
LOAD /opt/homebrew/Cellar/arm-none-eabi-gcc/10.3-2021.07/gcc/bin/../lib/gcc/arm-none-eabi/10.3.1/thumb/v7-m/nofp/libgcc.a
LOAD /opt/homebrew/Cellar/arm-none-eabi-gcc/10.3-2021.07/gcc/bin/../lib/gcc/arm-none-eabi/10.3.1/../../../../arm-none-eabi/lib/thumb/v7-m/nofp/libg.a
LOAD /opt/homebrew/Cellar/arm-none-eabi-gcc/10.3-2021.07/gcc/bin/../lib/gcc/arm-none-eabi/10.3.1/../../../../arm-none-eabi/lib/thumb/v7-m/nofp/libc.a
END GROUP
LOAD /opt/homebrew/Cellar/arm-none-eabi-gcc/10.3-2021.07/gcc/bin/../lib/gcc/arm-none-eabi/10.3.1/thumb/v7-m/nofp/crtend.o
LOAD /opt/homebrew/Cellar/arm-none-eabi-gcc/10.3-2021.07/gcc/bin/../lib/gcc/arm-none-eabi/10.3.1/thumb/v7-m/nofp/crtn.o
                0x0000000020005000                _estack = (ORIGIN (RAM) + LENGTH (RAM))
                0x0000000000000400                _Min_Heap_Size = 0x400
                0x0000000000001000                _Min_Stack_Size = 0x1000

.isr_vector     0x0000000008000000      0x10c
                0x0000000008000000                . = ALIGN (0x4)
 *(.isr_vector)
 .isr_vector    0x0000000008000000      0x10c CMakeFiles/Proj32.elf.dir/Core/Startup/startup_stm32f103vbtx.s.obj
                0x0000000008000000                g_pfnVectors
                0x000000000800010c                . = ALIGN (0x4)

.text           0x0000000008000110     0xc3f4
                0x0000000008000110                . = ALIGN (0x4)
 *(.text)
 .text          0x0000000008000110       0x40 /opt/homebrew/Cellar/arm-none-eabi-gcc/10.3-2021.07/gcc/bin/../lib/gcc/arm-none-eabi/10.3.1/thumb/v7-m/nofp/crtbegin.o
 .text          0x0000000008000150       0xec /opt/homebrew/Cellar/arm-none-eabi-gcc/10.3-2021.07/gcc/bin/../lib/gcc/arm-none-eabi/10.3.1/../../../../arm-none-eabi/lib/thumb/v7-m/nofp/libg.a(lib_a-memcpy.o)
                0x0000000008000150                memcpy
 .text          0x000000000800023c      0x378 /opt/homebrew/Cellar/arm-none-eabi-gcc/10.3-2021.07/gcc/bin/../lib/gcc/arm-none-eabi/10.3.1/thumb/v7-m/nofp/libgcc.a(_arm_addsubdf3.o)
                0x000000000800023c                __aeabi_drsub
                0x0000000008000244                __subdf3
                0x0000000008000244                __aeabi_dsub
                0x0000000008000248                __aeabi_dadd
                0x0000000008000248                __adddf3
                0x00000000080004c0                __aeabi_ui2d
                0x00000000080004c0                __floatunsidf
                0x00000000080004e0                __floatsidf
                0x00000000080004e0                __aeabi_i2d
                0x0000000008000504                __extendsfdf2
                0x0000000008000504                __aeabi_f2d
                0x0000000008000548                __aeabi_ul2d
                0x0000000008000548                __floatundidf
                0x0000000008000558                __aeabi_l2d
                0x0000000008000558                __floatdidf
 .text          0x00000000080005b4      0x424 /opt/homebrew/Cellar/arm-none-eabi-gcc/10.3-2021.07/gcc/bin/../lib/gcc/arm-none-eabi/10.3.1/thumb/v7-m/nofp/libgcc.a(_arm_muldivdf3.o)
                0x00000000080005b4                __aeabi_dmul
                0x00000000080005b4                __muldf3
                0x0000000008000808                __aeabi_ddiv
                0x0000000008000808                __divdf3
 .text          0x00000000080009d8      0x110 /opt/homebrew/Cellar/arm-none-eabi-gcc/10.3-2021.07/gcc/bin/../lib/gcc/arm-none-eabi/10.3.1/thumb/v7-m/nofp/libgcc.a(_arm_cmpdf2.o)
                0x00000000080009d8                __gedf2
                0x00000000080009d8                __gtdf2
                0x00000000080009e0                __ledf2
                0x00000000080009e0                __ltdf2
                0x00000000080009e8                __cmpdf2
                0x00000000080009e8                __eqdf2
                0x00000000080009e8                __nedf2
                0x0000000008000a64                __aeabi_cdrcmple
                0x0000000008000a74                __aeabi_cdcmple
                0x0000000008000a74                __aeabi_cdcmpeq
                0x0000000008000a84                __aeabi_dcmpeq
                0x0000000008000a98                __aeabi_dcmplt
                0x0000000008000aac                __aeabi_dcmple
                0x0000000008000ac0                __aeabi_dcmpge
                0x0000000008000ad4                __aeabi_dcmpgt
 .text          0x0000000008000ae8       0x2c /opt/homebrew/Cellar/arm-none-eabi-gcc/10.3-2021.07/gcc/bin/../lib/gcc/arm-none-eabi/10.3.1/thumb/v7-m/nofp/libgcc.a(_arm_unorddf2.o)
                0x0000000008000ae8                __aeabi_dcmpun
                0x0000000008000ae8                __unorddf2
 .text          0x0000000008000b14       0x50 /opt/homebrew/Cellar/arm-none-eabi-gcc/10.3-2021.07/gcc/bin/../lib/gcc/arm-none-eabi/10.3.1/thumb/v7-m/nofp/libgcc.a(_arm_fixdfsi.o)
                0x0000000008000b14                __fixdfsi
                0x0000000008000b14                __aeabi_d2iz
 .text          0x0000000008000b64       0x30 /opt/homebrew/Cellar/arm-none-eabi-gcc/10.3-2021.07/gcc/bin/../lib/gcc/arm-none-eabi/10.3.1/thumb/v7-m/nofp/libgcc.a(_aeabi_uldivmod.o)
                0x0000000008000b64                __aeabi_uldivmod
 .text          0x0000000008000b94      0x2d4 /opt/homebrew/Cellar/arm-none-eabi-gcc/10.3-2021.07/gcc/bin/../lib/gcc/arm-none-eabi/10.3.1/thumb/v7-m/nofp/libgcc.a(_udivmoddi4.o)
                0x0000000008000b94                __udivmoddi4
 .text          0x0000000008000e68        0x4 /opt/homebrew/Cellar/arm-none-eabi-gcc/10.3-2021.07/gcc/bin/../lib/gcc/arm-none-eabi/10.3.1/thumb/v7-m/nofp/libgcc.a(_dvmd_tls.o)
                0x0000000008000e68                __aeabi_ldiv0
                0x0000000008000e68                __aeabi_idiv0
 *(.text*)
 .text.SPI2_ReadWriteByte
                0x0000000008000e6c       0x2c CMakeFiles/Proj32.elf.dir/Core/Src/bsp_spi_flash.c.obj
                0x0000000008000e6c                SPI2_ReadWriteByte
 .text.W25QXX_Write_Enable
                0x0000000008000e98       0x24 CMakeFiles/Proj32.elf.dir/Core/Src/bsp_spi_flash.c.obj
                0x0000000008000e98                W25QXX_Write_Enable
 .text.W25QXX_ReadID
                0x0000000008000ebc       0x4c CMakeFiles/Proj32.elf.dir/Core/Src/bsp_spi_flash.c.obj
                0x0000000008000ebc                W25QXX_ReadID
 .text.SPI_FLASH_BufferRead
                0x0000000008000f08       0x54 CMakeFiles/Proj32.elf.dir/Core/Src/bsp_spi_flash.c.obj
                0x0000000008000f08                SPI_FLASH_BufferRead
 .text.SPI_FLASH_WaitForWriteEnd
                0x0000000008000f5c       0x30 CMakeFiles/Proj32.elf.dir/Core/Src/bsp_spi_flash.c.obj
                0x0000000008000f5c                SPI_FLASH_WaitForWriteEnd
 .text.SPI_FLASH_SectorErase
                0x0000000008000f8c       0x48 CMakeFiles/Proj32.elf.dir/Core/Src/bsp_spi_flash.c.obj
                0x0000000008000f8c                SPI_FLASH_SectorErase
 .text.SPI_FLASH_PageWrite
                0x0000000008000fd4       0x64 CMakeFiles/Proj32.elf.dir/Core/Src/bsp_spi_flash.c.obj
                0x0000000008000fd4                SPI_FLASH_PageWrite
 .text.SPI_FLASH_BufferWrite
                0x0000000008001038       0xc8 CMakeFiles/Proj32.elf.dir/Core/Src/bsp_spi_flash.c.obj
                0x0000000008001038                SPI_FLASH_BufferWrite
 .text.MX_GPIO_Init
                0x0000000008001100      0x108 CMakeFiles/Proj32.elf.dir/Core/Src/main.c.obj
 .text.CAN_Test
                0x0000000008001208       0x80 CMakeFiles/Proj32.elf.dir/Core/Src/main.c.obj
                0x0000000008001208                CAN_Test
 .text.HAL_CAN_RxFifo0MsgPendingCallback
                0x0000000008001288       0x34 CMakeFiles/Proj32.elf.dir/Core/Src/main.c.obj
                0x0000000008001288                HAL_CAN_RxFifo0MsgPendingCallback
 .text.FATFS_FLASH_Test
                0x00000000080012bc      0x184 CMakeFiles/Proj32.elf.dir/Core/Src/main.c.obj
                0x00000000080012bc                FATFS_FLASH_Test
 .text.SPI_FLASH_Test
                0x0000000008001440       0x94 CMakeFiles/Proj32.elf.dir/Core/Src/main.c.obj
                0x0000000008001440                SPI_FLASH_Test
 .text.EEPROM_IIC_Test
                0x00000000080014d4       0xb0 CMakeFiles/Proj32.elf.dir/Core/Src/main.c.obj
                0x00000000080014d4                EEPROM_IIC_Test
 .text.HAL_GPIO_EXTI_Callback
                0x0000000008001584       0x1c CMakeFiles/Proj32.elf.dir/Core/Src/main.c.obj
                0x0000000008001584                HAL_GPIO_EXTI_Callback
 .text.__io_putchar
                0x00000000080015a0       0x20 CMakeFiles/Proj32.elf.dir/Core/Src/main.c.obj
                0x00000000080015a0                __io_putchar
 .text.Error_Handler
                0x00000000080015c0        0x4 CMakeFiles/Proj32.elf.dir/Core/Src/main.c.obj
                0x00000000080015c0                Error_Handler
 .text.MX_USART1_UART_Init
                0x00000000080015c4       0x40 CMakeFiles/Proj32.elf.dir/Core/Src/main.c.obj
 .text.MX_I2C1_Init
                0x0000000008001604       0x38 CMakeFiles/Proj32.elf.dir/Core/Src/main.c.obj
 .text.MX_SPI1_Init
                0x000000000800163c       0x40 CMakeFiles/Proj32.elf.dir/Core/Src/main.c.obj
 .text.MX_CAN_Init
                0x000000000800167c       0x60 CMakeFiles/Proj32.elf.dir/Core/Src/main.c.obj
 .text.SystemClock_Config
                0x00000000080016dc       0x64 CMakeFiles/Proj32.elf.dir/Core/Src/main.c.obj
                0x00000000080016dc                SystemClock_Config
 .text.filter_init
                0x0000000008001740       0x40 CMakeFiles/Proj32.elf.dir/Core/Src/main.c.obj
                0x0000000008001740                filter_init
 .text.main     0x0000000008001780       0xc4 CMakeFiles/Proj32.elf.dir/Core/Src/main.c.obj
                0x0000000008001780                main
 .text.HAL_MspInit
                0x0000000008001844       0x44 CMakeFiles/Proj32.elf.dir/Core/Src/stm32f1xx_hal_msp.c.obj
                0x0000000008001844                HAL_MspInit
 .text.HAL_CAN_MspInit
                0x0000000008001888       0x84 CMakeFiles/Proj32.elf.dir/Core/Src/stm32f1xx_hal_msp.c.obj
                0x0000000008001888                HAL_CAN_MspInit
 .text.HAL_I2C_MspInit
                0x000000000800190c       0x64 CMakeFiles/Proj32.elf.dir/Core/Src/stm32f1xx_hal_msp.c.obj
                0x000000000800190c                HAL_I2C_MspInit
 .text.HAL_SPI_MspInit
                0x0000000008001970       0x74 CMakeFiles/Proj32.elf.dir/Core/Src/stm32f1xx_hal_msp.c.obj
                0x0000000008001970                HAL_SPI_MspInit
 .text.HAL_UART_MspInit
                0x00000000080019e4       0x88 CMakeFiles/Proj32.elf.dir/Core/Src/stm32f1xx_hal_msp.c.obj
                0x00000000080019e4                HAL_UART_MspInit
 .text.NMI_Handler
                0x0000000008001a6c        0x2 CMakeFiles/Proj32.elf.dir/Core/Src/stm32f1xx_it.c.obj
                0x0000000008001a6c                NMI_Handler
 .text.HardFault_Handler
                0x0000000008001a6e        0x2 CMakeFiles/Proj32.elf.dir/Core/Src/stm32f1xx_it.c.obj
                0x0000000008001a6e                HardFault_Handler
 .text.MemManage_Handler
                0x0000000008001a70        0x2 CMakeFiles/Proj32.elf.dir/Core/Src/stm32f1xx_it.c.obj
                0x0000000008001a70                MemManage_Handler
 .text.BusFault_Handler
                0x0000000008001a72        0x2 CMakeFiles/Proj32.elf.dir/Core/Src/stm32f1xx_it.c.obj
                0x0000000008001a72                BusFault_Handler
 .text.UsageFault_Handler
                0x0000000008001a74        0x2 CMakeFiles/Proj32.elf.dir/Core/Src/stm32f1xx_it.c.obj
                0x0000000008001a74                UsageFault_Handler
 .text.SVC_Handler
                0x0000000008001a76        0x2 CMakeFiles/Proj32.elf.dir/Core/Src/stm32f1xx_it.c.obj
                0x0000000008001a76                SVC_Handler
 .text.DebugMon_Handler
                0x0000000008001a78        0x2 CMakeFiles/Proj32.elf.dir/Core/Src/stm32f1xx_it.c.obj
                0x0000000008001a78                DebugMon_Handler
 .text.PendSV_Handler
                0x0000000008001a7a        0x2 CMakeFiles/Proj32.elf.dir/Core/Src/stm32f1xx_it.c.obj
                0x0000000008001a7a                PendSV_Handler
 .text.SysTick_Handler
                0x0000000008001a7c        0x8 CMakeFiles/Proj32.elf.dir/Core/Src/stm32f1xx_it.c.obj
                0x0000000008001a7c                SysTick_Handler
 .text.USB_LP_CAN1_RX0_IRQHandler
                0x0000000008001a84       0x10 CMakeFiles/Proj32.elf.dir/Core/Src/stm32f1xx_it.c.obj
                0x0000000008001a84                USB_LP_CAN1_RX0_IRQHandler
 .text.USART1_IRQHandler
                0x0000000008001a94       0x78 CMakeFiles/Proj32.elf.dir/Core/Src/stm32f1xx_it.c.obj
                0x0000000008001a94                USART1_IRQHandler
 .text.EXTI15_10_IRQHandler
                0x0000000008001b0c        0xc CMakeFiles/Proj32.elf.dir/Core/Src/stm32f1xx_it.c.obj
                0x0000000008001b0c                EXTI15_10_IRQHandler
 .text._getpid  0x0000000008001b18        0x4 CMakeFiles/Proj32.elf.dir/Core/Src/syscalls.c.obj
                0x0000000008001b18                _getpid
 .text._kill    0x0000000008001b1c       0x10 CMakeFiles/Proj32.elf.dir/Core/Src/syscalls.c.obj
                0x0000000008001b1c                _kill
 .text._exit    0x0000000008001b2c        0xc CMakeFiles/Proj32.elf.dir/Core/Src/syscalls.c.obj
                0x0000000008001b2c                _exit
 .text._read    0x0000000008001b38       0x20 CMakeFiles/Proj32.elf.dir/Core/Src/syscalls.c.obj
                0x0000000008001b38                _read
 .text._write   0x0000000008001b58       0x1c CMakeFiles/Proj32.elf.dir/Core/Src/syscalls.c.obj
                0x0000000008001b58                _write
 .text._close   0x0000000008001b74        0x6 CMakeFiles/Proj32.elf.dir/Core/Src/syscalls.c.obj
                0x0000000008001b74                _close
 .text._fstat   0x0000000008001b7a        0xa CMakeFiles/Proj32.elf.dir/Core/Src/syscalls.c.obj
                0x0000000008001b7a                _fstat
 .text._isatty  0x0000000008001b84        0x4 CMakeFiles/Proj32.elf.dir/Core/Src/syscalls.c.obj
                0x0000000008001b84                _isatty
 .text._lseek   0x0000000008001b88        0x4 CMakeFiles/Proj32.elf.dir/Core/Src/syscalls.c.obj
                0x0000000008001b88                _lseek
 .text._sbrk    0x0000000008001b8c       0x48 CMakeFiles/Proj32.elf.dir/Core/Src/sysmem.c.obj
                0x0000000008001b8c                _sbrk
 .text.SystemInit
                0x0000000008001bd4        0x2 CMakeFiles/Proj32.elf.dir/Core/Src/system_stm32f1xx.c.obj
                0x0000000008001bd4                SystemInit
 *fill*         0x0000000008001bd6        0x2 
 .text.Reset_Handler
                0x0000000008001bd8       0x48 CMakeFiles/Proj32.elf.dir/Core/Startup/startup_stm32f103vbtx.s.obj
                0x0000000008001bd8                Reset_Handler
 .text.Default_Handler
                0x0000000008001c20        0x2 CMakeFiles/Proj32.elf.dir/Core/Startup/startup_stm32f103vbtx.s.obj
                0x0000000008001c20                USBWakeUp_IRQHandler
                0x0000000008001c20                EXTI2_IRQHandler
                0x0000000008001c20                TIM1_CC_IRQHandler
                0x0000000008001c20                PVD_IRQHandler
                0x0000000008001c20                EXTI3_IRQHandler
                0x0000000008001c20                EXTI0_IRQHandler
                0x0000000008001c20                I2C2_EV_IRQHandler
                0x0000000008001c20                ADC1_2_IRQHandler
                0x0000000008001c20                SPI1_IRQHandler
                0x0000000008001c20                TAMPER_IRQHandler
                0x0000000008001c20                DMA1_Channel4_IRQHandler
                0x0000000008001c20                USART3_IRQHandler
                0x0000000008001c20                RTC_IRQHandler
                0x0000000008001c20                DMA1_Channel7_IRQHandler
                0x0000000008001c20                CAN1_RX1_IRQHandler
                0x0000000008001c20                TIM4_IRQHandler
                0x0000000008001c20                I2C1_EV_IRQHandler
                0x0000000008001c20                DMA1_Channel6_IRQHandler
                0x0000000008001c20                TIM3_IRQHandler
                0x0000000008001c20                RCC_IRQHandler
                0x0000000008001c20                TIM1_TRG_COM_IRQHandler
                0x0000000008001c20                DMA1_Channel1_IRQHandler
                0x0000000008001c20                Default_Handler
                0x0000000008001c20                EXTI9_5_IRQHandler
                0x0000000008001c20                SPI2_IRQHandler
                0x0000000008001c20                DMA1_Channel5_IRQHandler
                0x0000000008001c20                EXTI4_IRQHandler
                0x0000000008001c20                USB_HP_CAN1_TX_IRQHandler
                0x0000000008001c20                DMA1_Channel3_IRQHandler
                0x0000000008001c20                TIM1_UP_IRQHandler
                0x0000000008001c20                WWDG_IRQHandler
                0x0000000008001c20                TIM2_IRQHandler
                0x0000000008001c20                TIM1_BRK_IRQHandler
                0x0000000008001c20                EXTI1_IRQHandler
                0x0000000008001c20                USART2_IRQHandler
                0x0000000008001c20                I2C2_ER_IRQHandler
                0x0000000008001c20                DMA1_Channel2_IRQHandler
                0x0000000008001c20                CAN1_SCE_IRQHandler
                0x0000000008001c20                FLASH_IRQHandler
                0x0000000008001c20                I2C1_ER_IRQHandler
                0x0000000008001c20                RTC_Alarm_IRQHandler
 *fill*         0x0000000008001c22        0x2 
 .text.HAL_InitTick
                0x0000000008001c24       0x4c CMakeFiles/Proj32.elf.dir/Drivers/STM32F1xx_HAL_Driver/Src/stm32f1xx_hal.c.obj
                0x0000000008001c24                HAL_InitTick
 .text.HAL_Init
                0x0000000008001c70       0x24 CMakeFiles/Proj32.elf.dir/Drivers/STM32F1xx_HAL_Driver/Src/stm32f1xx_hal.c.obj
                0x0000000008001c70                HAL_Init
 .text.HAL_IncTick
                0x0000000008001c94       0x18 CMakeFiles/Proj32.elf.dir/Drivers/STM32F1xx_HAL_Driver/Src/stm32f1xx_hal.c.obj
                0x0000000008001c94                HAL_IncTick
 .text.HAL_GetTick
                0x0000000008001cac        0xc CMakeFiles/Proj32.elf.dir/Drivers/STM32F1xx_HAL_Driver/Src/stm32f1xx_hal.c.obj
                0x0000000008001cac                HAL_GetTick
 .text.HAL_Delay
                0x0000000008001cb8       0x28 CMakeFiles/Proj32.elf.dir/Drivers/STM32F1xx_HAL_Driver/Src/stm32f1xx_hal.c.obj
                0x0000000008001cb8                HAL_Delay
 .text.HAL_CAN_Init
                0x0000000008001ce0      0x14c CMakeFiles/Proj32.elf.dir/Drivers/STM32F1xx_HAL_Driver/Src/stm32f1xx_hal_can.c.obj
                0x0000000008001ce0                HAL_CAN_Init
 .text.HAL_CAN_ConfigFilter
                0x0000000008001e2c      0x10c CMakeFiles/Proj32.elf.dir/Drivers/STM32F1xx_HAL_Driver/Src/stm32f1xx_hal_can.c.obj
                0x0000000008001e2c                HAL_CAN_ConfigFilter
 .text.HAL_CAN_Start
                0x0000000008001f38       0x5c CMakeFiles/Proj32.elf.dir/Drivers/STM32F1xx_HAL_Driver/Src/stm32f1xx_hal_can.c.obj
                0x0000000008001f38                HAL_CAN_Start
 .text.HAL_CAN_AddTxMessage
                0x0000000008001f94       0xfc CMakeFiles/Proj32.elf.dir/Drivers/STM32F1xx_HAL_Driver/Src/stm32f1xx_hal_can.c.obj
                0x0000000008001f94                HAL_CAN_AddTxMessage
 .text.HAL_CAN_GetRxMessage
                0x0000000008002090      0x156 CMakeFiles/Proj32.elf.dir/Drivers/STM32F1xx_HAL_Driver/Src/stm32f1xx_hal_can.c.obj
                0x0000000008002090                HAL_CAN_GetRxMessage
 .text.HAL_CAN_ActivateNotification
                0x00000000080021e6       0x24 CMakeFiles/Proj32.elf.dir/Drivers/STM32F1xx_HAL_Driver/Src/stm32f1xx_hal_can.c.obj
                0x00000000080021e6                HAL_CAN_ActivateNotification
 .text.HAL_CAN_TxMailbox0CompleteCallback
                0x000000000800220a        0x2 CMakeFiles/Proj32.elf.dir/Drivers/STM32F1xx_HAL_Driver/Src/stm32f1xx_hal_can.c.obj
                0x000000000800220a                HAL_CAN_TxMailbox0CompleteCallback
 .text.HAL_CAN_TxMailbox1CompleteCallback
                0x000000000800220c        0x2 CMakeFiles/Proj32.elf.dir/Drivers/STM32F1xx_HAL_Driver/Src/stm32f1xx_hal_can.c.obj
                0x000000000800220c                HAL_CAN_TxMailbox1CompleteCallback
 .text.HAL_CAN_TxMailbox2CompleteCallback
                0x000000000800220e        0x2 CMakeFiles/Proj32.elf.dir/Drivers/STM32F1xx_HAL_Driver/Src/stm32f1xx_hal_can.c.obj
                0x000000000800220e                HAL_CAN_TxMailbox2CompleteCallback
 .text.HAL_CAN_TxMailbox0AbortCallback
                0x0000000008002210        0x2 CMakeFiles/Proj32.elf.dir/Drivers/STM32F1xx_HAL_Driver/Src/stm32f1xx_hal_can.c.obj
                0x0000000008002210                HAL_CAN_TxMailbox0AbortCallback
 .text.HAL_CAN_TxMailbox1AbortCallback
                0x0000000008002212        0x2 CMakeFiles/Proj32.elf.dir/Drivers/STM32F1xx_HAL_Driver/Src/stm32f1xx_hal_can.c.obj
                0x0000000008002212                HAL_CAN_TxMailbox1AbortCallback
 .text.HAL_CAN_TxMailbox2AbortCallback
                0x0000000008002214        0x2 CMakeFiles/Proj32.elf.dir/Drivers/STM32F1xx_HAL_Driver/Src/stm32f1xx_hal_can.c.obj
                0x0000000008002214                HAL_CAN_TxMailbox2AbortCallback
 .text.HAL_CAN_RxFifo0FullCallback
                0x0000000008002216        0x2 CMakeFiles/Proj32.elf.dir/Drivers/STM32F1xx_HAL_Driver/Src/stm32f1xx_hal_can.c.obj
                0x0000000008002216                HAL_CAN_RxFifo0FullCallback
 .text.HAL_CAN_RxFifo1MsgPendingCallback
                0x0000000008002218        0x2 CMakeFiles/Proj32.elf.dir/Drivers/STM32F1xx_HAL_Driver/Src/stm32f1xx_hal_can.c.obj
                0x0000000008002218                HAL_CAN_RxFifo1MsgPendingCallback
 .text.HAL_CAN_RxFifo1FullCallback
                0x000000000800221a        0x2 CMakeFiles/Proj32.elf.dir/Drivers/STM32F1xx_HAL_Driver/Src/stm32f1xx_hal_can.c.obj
                0x000000000800221a                HAL_CAN_RxFifo1FullCallback
 .text.HAL_CAN_SleepCallback
                0x000000000800221c        0x2 CMakeFiles/Proj32.elf.dir/Drivers/STM32F1xx_HAL_Driver/Src/stm32f1xx_hal_can.c.obj
                0x000000000800221c                HAL_CAN_SleepCallback
 .text.HAL_CAN_WakeUpFromRxMsgCallback
                0x000000000800221e        0x2 CMakeFiles/Proj32.elf.dir/Drivers/STM32F1xx_HAL_Driver/Src/stm32f1xx_hal_can.c.obj
                0x000000000800221e                HAL_CAN_WakeUpFromRxMsgCallback
 .text.HAL_CAN_ErrorCallback
                0x0000000008002220        0x2 CMakeFiles/Proj32.elf.dir/Drivers/STM32F1xx_HAL_Driver/Src/stm32f1xx_hal_can.c.obj
                0x0000000008002220                HAL_CAN_ErrorCallback
 .text.HAL_CAN_IRQHandler
                0x0000000008002222      0x24a CMakeFiles/Proj32.elf.dir/Drivers/STM32F1xx_HAL_Driver/Src/stm32f1xx_hal_can.c.obj
                0x0000000008002222                HAL_CAN_IRQHandler
 .text.HAL_NVIC_SetPriorityGrouping
                0x000000000800246c       0x24 CMakeFiles/Proj32.elf.dir/Drivers/STM32F1xx_HAL_Driver/Src/stm32f1xx_hal_cortex.c.obj
                0x000000000800246c                HAL_NVIC_SetPriorityGrouping
 .text.HAL_NVIC_SetPriority
                0x0000000008002490       0x70 CMakeFiles/Proj32.elf.dir/Drivers/STM32F1xx_HAL_Driver/Src/stm32f1xx_hal_cortex.c.obj
                0x0000000008002490                HAL_NVIC_SetPriority
 .text.HAL_NVIC_EnableIRQ
                0x0000000008002500       0x1c CMakeFiles/Proj32.elf.dir/Drivers/STM32F1xx_HAL_Driver/Src/stm32f1xx_hal_cortex.c.obj
                0x0000000008002500                HAL_NVIC_EnableIRQ
 .text.HAL_SYSTICK_Config
                0x000000000800251c       0x28 CMakeFiles/Proj32.elf.dir/Drivers/STM32F1xx_HAL_Driver/Src/stm32f1xx_hal_cortex.c.obj
                0x000000000800251c                HAL_SYSTICK_Config
 .text.HAL_DMA_Abort
                0x0000000008002544       0x44 CMakeFiles/Proj32.elf.dir/Drivers/STM32F1xx_HAL_Driver/Src/stm32f1xx_hal_dma.c.obj
                0x0000000008002544                HAL_DMA_Abort
 .text.HAL_DMA_Abort_IT
                0x0000000008002588       0x98 CMakeFiles/Proj32.elf.dir/Drivers/STM32F1xx_HAL_Driver/Src/stm32f1xx_hal_dma.c.obj
                0x0000000008002588                HAL_DMA_Abort_IT
 .text.HAL_GPIO_Init
                0x0000000008002620      0x224 CMakeFiles/Proj32.elf.dir/Drivers/STM32F1xx_HAL_Driver/Src/stm32f1xx_hal_gpio.c.obj
                0x0000000008002620                HAL_GPIO_Init
 .text.HAL_GPIO_WritePin
                0x0000000008002844        0xc CMakeFiles/Proj32.elf.dir/Drivers/STM32F1xx_HAL_Driver/Src/stm32f1xx_hal_gpio.c.obj
                0x0000000008002844                HAL_GPIO_WritePin
 .text.HAL_GPIO_TogglePin
                0x0000000008002850       0x12 CMakeFiles/Proj32.elf.dir/Drivers/STM32F1xx_HAL_Driver/Src/stm32f1xx_hal_gpio.c.obj
                0x0000000008002850                HAL_GPIO_TogglePin
 *fill*         0x0000000008002862        0x2 
 .text.HAL_GPIO_EXTI_IRQHandler
                0x0000000008002864       0x1c CMakeFiles/Proj32.elf.dir/Drivers/STM32F1xx_HAL_Driver/Src/stm32f1xx_hal_gpio.c.obj
                0x0000000008002864                HAL_GPIO_EXTI_IRQHandler
 .text.I2C_IsAcknowledgeFailed
                0x0000000008002880       0x32 CMakeFiles/Proj32.elf.dir/Drivers/STM32F1xx_HAL_Driver/Src/stm32f1xx_hal_i2c.c.obj
 .text.I2C_WaitOnFlagUntilTimeout
                0x00000000080028b2       0x7c CMakeFiles/Proj32.elf.dir/Drivers/STM32F1xx_HAL_Driver/Src/stm32f1xx_hal_i2c.c.obj
 .text.I2C_WaitOnMasterAddressFlagUntilTimeout
                0x000000000800292e       0xaa CMakeFiles/Proj32.elf.dir/Drivers/STM32F1xx_HAL_Driver/Src/stm32f1xx_hal_i2c.c.obj
 .text.I2C_WaitOnTXEFlagUntilTimeout
                0x00000000080029d8       0x54 CMakeFiles/Proj32.elf.dir/Drivers/STM32F1xx_HAL_Driver/Src/stm32f1xx_hal_i2c.c.obj
 .text.I2C_RequestMemoryWrite
                0x0000000008002a2c       0xd8 CMakeFiles/Proj32.elf.dir/Drivers/STM32F1xx_HAL_Driver/Src/stm32f1xx_hal_i2c.c.obj
 .text.I2C_RequestMemoryRead
                0x0000000008002b04      0x154 CMakeFiles/Proj32.elf.dir/Drivers/STM32F1xx_HAL_Driver/Src/stm32f1xx_hal_i2c.c.obj
 .text.I2C_WaitOnBTFFlagUntilTimeout
                0x0000000008002c58       0x54 CMakeFiles/Proj32.elf.dir/Drivers/STM32F1xx_HAL_Driver/Src/stm32f1xx_hal_i2c.c.obj
 .text.I2C_WaitOnRXNEFlagUntilTimeout
                0x0000000008002cac       0x6a CMakeFiles/Proj32.elf.dir/Drivers/STM32F1xx_HAL_Driver/Src/stm32f1xx_hal_i2c.c.obj
 *fill*         0x0000000008002d16        0x2 
 .text.HAL_I2C_Init
                0x0000000008002d18      0x1bc CMakeFiles/Proj32.elf.dir/Drivers/STM32F1xx_HAL_Driver/Src/stm32f1xx_hal_i2c.c.obj
                0x0000000008002d18                HAL_I2C_Init
 .text.HAL_I2C_Mem_Write
                0x0000000008002ed4      0x164 CMakeFiles/Proj32.elf.dir/Drivers/STM32F1xx_HAL_Driver/Src/stm32f1xx_hal_i2c.c.obj
                0x0000000008002ed4                HAL_I2C_Mem_Write
 .text.HAL_I2C_Mem_Read
                0x0000000008003038      0x348 CMakeFiles/Proj32.elf.dir/Drivers/STM32F1xx_HAL_Driver/Src/stm32f1xx_hal_i2c.c.obj
                0x0000000008003038                HAL_I2C_Mem_Read
 .text.RCC_Delay
                0x0000000008003380       0x2c CMakeFiles/Proj32.elf.dir/Drivers/STM32F1xx_HAL_Driver/Src/stm32f1xx_hal_rcc.c.obj
 .text.HAL_RCC_OscConfig
                0x00000000080033ac      0x410 CMakeFiles/Proj32.elf.dir/Drivers/STM32F1xx_HAL_Driver/Src/stm32f1xx_hal_rcc.c.obj
                0x00000000080033ac                HAL_RCC_OscConfig
 .text.HAL_RCC_GetSysClockFreq
                0x00000000080037bc       0x70 CMakeFiles/Proj32.elf.dir/Drivers/STM32F1xx_HAL_Driver/Src/stm32f1xx_hal_rcc.c.obj
                0x00000000080037bc                HAL_RCC_GetSysClockFreq
 .text.HAL_RCC_ClockConfig
                0x000000000800382c      0x16c CMakeFiles/Proj32.elf.dir/Drivers/STM32F1xx_HAL_Driver/Src/stm32f1xx_hal_rcc.c.obj
                0x000000000800382c                HAL_RCC_ClockConfig
 .text.HAL_RCC_GetHCLKFreq
                0x0000000008003998        0xc CMakeFiles/Proj32.elf.dir/Drivers/STM32F1xx_HAL_Driver/Src/stm32f1xx_hal_rcc.c.obj
                0x0000000008003998                HAL_RCC_GetHCLKFreq
 .text.HAL_RCC_GetPCLK1Freq
                0x00000000080039a4       0x20 CMakeFiles/Proj32.elf.dir/Drivers/STM32F1xx_HAL_Driver/Src/stm32f1xx_hal_rcc.c.obj
                0x00000000080039a4                HAL_RCC_GetPCLK1Freq
 .text.HAL_RCC_GetPCLK2Freq
                0x00000000080039c4       0x20 CMakeFiles/Proj32.elf.dir/Drivers/STM32F1xx_HAL_Driver/Src/stm32f1xx_hal_rcc.c.obj
                0x00000000080039c4                HAL_RCC_GetPCLK2Freq
 .text.SPI_WaitFlagStateUntilTimeout
                0x00000000080039e4       0xd4 CMakeFiles/Proj32.elf.dir/Drivers/STM32F1xx_HAL_Driver/Src/stm32f1xx_hal_spi.c.obj
 .text.SPI_EndRxTxTransaction
                0x0000000008003ab8       0x24 CMakeFiles/Proj32.elf.dir/Drivers/STM32F1xx_HAL_Driver/Src/stm32f1xx_hal_spi.c.obj
 .text.HAL_SPI_Init
                0x0000000008003adc       0xb6 CMakeFiles/Proj32.elf.dir/Drivers/STM32F1xx_HAL_Driver/Src/stm32f1xx_hal_spi.c.obj
                0x0000000008003adc                HAL_SPI_Init
 .text.HAL_SPI_TransmitReceive
                0x0000000008003b92      0x238 CMakeFiles/Proj32.elf.dir/Drivers/STM32F1xx_HAL_Driver/Src/stm32f1xx_hal_spi.c.obj
                0x0000000008003b92                HAL_SPI_TransmitReceive
 .text.UART_EndRxTransfer
                0x0000000008003dca       0x32 CMakeFiles/Proj32.elf.dir/Drivers/STM32F1xx_HAL_Driver/Src/stm32f1xx_hal_uart.c.obj
 .text.UART_Transmit_IT
                0x0000000008003dfc       0x60 CMakeFiles/Proj32.elf.dir/Drivers/STM32F1xx_HAL_Driver/Src/stm32f1xx_hal_uart.c.obj
 .text.UART_SetConfig
                0x0000000008003e5c       0x94 CMakeFiles/Proj32.elf.dir/Drivers/STM32F1xx_HAL_Driver/Src/stm32f1xx_hal_uart.c.obj
 .text.UART_WaitOnFlagUntilTimeout
                0x0000000008003ef0       0x6c CMakeFiles/Proj32.elf.dir/Drivers/STM32F1xx_HAL_Driver/Src/stm32f1xx_hal_uart.c.obj
 .text.HAL_UART_Init
                0x0000000008003f5c       0x5e CMakeFiles/Proj32.elf.dir/Drivers/STM32F1xx_HAL_Driver/Src/stm32f1xx_hal_uart.c.obj
                0x0000000008003f5c                HAL_UART_Init
 .text.HAL_UART_Transmit
                0x0000000008003fba       0xd8 CMakeFiles/Proj32.elf.dir/Drivers/STM32F1xx_HAL_Driver/Src/stm32f1xx_hal_uart.c.obj
                0x0000000008003fba                HAL_UART_Transmit
 .text.HAL_UART_Receive
                0x0000000008004092       0xe4 CMakeFiles/Proj32.elf.dir/Drivers/STM32F1xx_HAL_Driver/Src/stm32f1xx_hal_uart.c.obj
                0x0000000008004092                HAL_UART_Receive
 .text.HAL_UART_TxCpltCallback
                0x0000000008004176        0x2 CMakeFiles/Proj32.elf.dir/Drivers/STM32F1xx_HAL_Driver/Src/stm32f1xx_hal_uart.c.obj
                0x0000000008004176                HAL_UART_TxCpltCallback
 .text.UART_EndTransmit_IT
                0x0000000008004178       0x1a CMakeFiles/Proj32.elf.dir/Drivers/STM32F1xx_HAL_Driver/Src/stm32f1xx_hal_uart.c.obj
 .text.HAL_UART_RxCpltCallback
                0x0000000008004192        0x2 CMakeFiles/Proj32.elf.dir/Drivers/STM32F1xx_HAL_Driver/Src/stm32f1xx_hal_uart.c.obj
                0x0000000008004192                HAL_UART_RxCpltCallback
 .text.HAL_UART_ErrorCallback
                0x0000000008004194        0x2 CMakeFiles/Proj32.elf.dir/Drivers/STM32F1xx_HAL_Driver/Src/stm32f1xx_hal_uart.c.obj
                0x0000000008004194                HAL_UART_ErrorCallback
 .text.UART_DMAAbortOnError
                0x0000000008004196       0x10 CMakeFiles/Proj32.elf.dir/Drivers/STM32F1xx_HAL_Driver/Src/stm32f1xx_hal_uart.c.obj
 .text.HAL_UARTEx_RxEventCallback
                0x00000000080041a6        0x2 CMakeFiles/Proj32.elf.dir/Drivers/STM32F1xx_HAL_Driver/Src/stm32f1xx_hal_uart.c.obj
                0x00000000080041a6                HAL_UARTEx_RxEventCallback
 .text.UART_Receive_IT
                0x00000000080041a8       0xd4 CMakeFiles/Proj32.elf.dir/Drivers/STM32F1xx_HAL_Driver/Src/stm32f1xx_hal_uart.c.obj
 .text.HAL_UART_IRQHandler
                0x000000000800427c      0x204 CMakeFiles/Proj32.elf.dir/Drivers/STM32F1xx_HAL_Driver/Src/stm32f1xx_hal_uart.c.obj
                0x000000000800427c                HAL_UART_IRQHandler
 .text.MX_FATFS_Init
                0x0000000008004480       0x1c CMakeFiles/Proj32.elf.dir/FATFS/App/fatfs.c.obj
                0x0000000008004480                MX_FATFS_Init
 .text.get_fattime
                0x000000000800449c        0x4 CMakeFiles/Proj32.elf.dir/FATFS/App/fatfs.c.obj
                0x000000000800449c                get_fattime
 .text.USER_initialize
                0x00000000080044a0       0x2c CMakeFiles/Proj32.elf.dir/FATFS/Target/user_diskio.c.obj
                0x00000000080044a0                USER_initialize
 .text.USER_status
                0x00000000080044cc       0x18 CMakeFiles/Proj32.elf.dir/FATFS/Target/user_diskio.c.obj
                0x00000000080044cc                USER_status
 .text.USER_ioctl
                0x00000000080044e4       0x38 CMakeFiles/Proj32.elf.dir/FATFS/Target/user_diskio.c.obj
                0x00000000080044e4                USER_ioctl
 .text.USER_read
                0x000000000800451c       0x20 CMakeFiles/Proj32.elf.dir/FATFS/Target/user_diskio.c.obj
                0x000000000800451c                USER_read
 .text.USER_write
                0x000000000800453c       0x28 CMakeFiles/Proj32.elf.dir/FATFS/Target/user_diskio.c.obj
                0x000000000800453c                USER_write
 .text.disk_status
                0x0000000008004564       0x18 CMakeFiles/Proj32.elf.dir/Middlewares/Third_Party/FatFs/src/diskio.c.obj
                0x0000000008004564                disk_status
 .text.disk_initialize
                0x000000000800457c       0x28 CMakeFiles/Proj32.elf.dir/Middlewares/Third_Party/FatFs/src/diskio.c.obj
                0x000000000800457c                disk_initialize
 .text.disk_read
                0x00000000080045a4       0x18 CMakeFiles/Proj32.elf.dir/Middlewares/Third_Party/FatFs/src/diskio.c.obj
                0x00000000080045a4                disk_read
 .text.disk_write
                0x00000000080045bc       0x18 CMakeFiles/Proj32.elf.dir/Middlewares/Third_Party/FatFs/src/diskio.c.obj
                0x00000000080045bc                disk_write
 .text.disk_ioctl
                0x00000000080045d4       0x18 CMakeFiles/Proj32.elf.dir/Middlewares/Third_Party/FatFs/src/diskio.c.obj
                0x00000000080045d4                disk_ioctl
 .text.mem_cpy  0x00000000080045ec       0x14 CMakeFiles/Proj32.elf.dir/Middlewares/Third_Party/FatFs/src/ff.c.obj
 .text.mem_set  0x0000000008004600       0x10 CMakeFiles/Proj32.elf.dir/Middlewares/Third_Party/FatFs/src/ff.c.obj
 .text.mem_cmp  0x0000000008004610       0x1e CMakeFiles/Proj32.elf.dir/Middlewares/Third_Party/FatFs/src/ff.c.obj
 .text.chk_chr  0x000000000800462e       0x10 CMakeFiles/Proj32.elf.dir/Middlewares/Third_Party/FatFs/src/ff.c.obj
 *fill*         0x000000000800463e        0x2 
 .text.chk_lock
                0x0000000008004640       0x84 CMakeFiles/Proj32.elf.dir/Middlewares/Third_Party/FatFs/src/ff.c.obj
 .text.enq_lock
                0x00000000080046c4       0x24 CMakeFiles/Proj32.elf.dir/Middlewares/Third_Party/FatFs/src/ff.c.obj
 .text.inc_lock
                0x00000000080046e8       0xc4 CMakeFiles/Proj32.elf.dir/Middlewares/Third_Party/FatFs/src/ff.c.obj
 .text.dec_lock
                0x00000000080047ac       0x48 CMakeFiles/Proj32.elf.dir/Middlewares/Third_Party/FatFs/src/ff.c.obj
 .text.clear_lock
                0x00000000080047f4       0x44 CMakeFiles/Proj32.elf.dir/Middlewares/Third_Party/FatFs/src/ff.c.obj
 .text.clmt_clust
                0x0000000008004838       0x26 CMakeFiles/Proj32.elf.dir/Middlewares/Third_Party/FatFs/src/ff.c.obj
 .text.ld_clust
                0x000000000800485e       0x24 CMakeFiles/Proj32.elf.dir/Middlewares/Third_Party/FatFs/src/ff.c.obj
 .text.st_clust
                0x0000000008004882       0x14 CMakeFiles/Proj32.elf.dir/Middlewares/Third_Party/FatFs/src/ff.c.obj
 *fill*         0x0000000008004896        0x2 
 .text.create_name
                0x0000000008004898      0x14c CMakeFiles/Proj32.elf.dir/Middlewares/Third_Party/FatFs/src/ff.c.obj
 .text.get_ldnumber
                0x00000000080049e4       0x50 CMakeFiles/Proj32.elf.dir/Middlewares/Third_Party/FatFs/src/ff.c.obj
 .text.sync_window
                0x0000000008004a34       0x5e CMakeFiles/Proj32.elf.dir/Middlewares/Third_Party/FatFs/src/ff.c.obj
 .text.move_window
                0x0000000008004a92       0x40 CMakeFiles/Proj32.elf.dir/Middlewares/Third_Party/FatFs/src/ff.c.obj
 *fill*         0x0000000008004ad2        0x2 
 .text.check_fs
                0x0000000008004ad4       0x90 CMakeFiles/Proj32.elf.dir/Middlewares/Third_Party/FatFs/src/ff.c.obj
 .text.validate
                0x0000000008004b64       0x36 CMakeFiles/Proj32.elf.dir/Middlewares/Third_Party/FatFs/src/ff.c.obj
 *fill*         0x0000000008004b9a        0x2 
 .text.find_volume
                0x0000000008004b9c      0x3bc CMakeFiles/Proj32.elf.dir/Middlewares/Third_Party/FatFs/src/ff.c.obj
 .text.sync_fs  0x0000000008004f58       0xc0 CMakeFiles/Proj32.elf.dir/Middlewares/Third_Party/FatFs/src/ff.c.obj
 .text.clust2sect
                0x0000000008005018       0x20 CMakeFiles/Proj32.elf.dir/Middlewares/Third_Party/FatFs/src/ff.c.obj
                0x0000000008005018                clust2sect
 .text.get_fat  0x0000000008005038       0xec CMakeFiles/Proj32.elf.dir/Middlewares/Third_Party/FatFs/src/ff.c.obj
                0x0000000008005038                get_fat
 .text.dir_sdi  0x0000000008005124       0xb2 CMakeFiles/Proj32.elf.dir/Middlewares/Third_Party/FatFs/src/ff.c.obj
 .text.put_fat  0x00000000080051d6      0x12e CMakeFiles/Proj32.elf.dir/Middlewares/Third_Party/FatFs/src/ff.c.obj
                0x00000000080051d6                put_fat
 .text.create_chain
                0x0000000008005304       0xd0 CMakeFiles/Proj32.elf.dir/Middlewares/Third_Party/FatFs/src/ff.c.obj
 .text.dir_next
                0x00000000080053d4      0x124 CMakeFiles/Proj32.elf.dir/Middlewares/Third_Party/FatFs/src/ff.c.obj
 .text.dir_find
                0x00000000080054f8       0x4e CMakeFiles/Proj32.elf.dir/Middlewares/Third_Party/FatFs/src/ff.c.obj
 .text.follow_path
                0x0000000008005546       0x7c CMakeFiles/Proj32.elf.dir/Middlewares/Third_Party/FatFs/src/ff.c.obj
 .text.dir_alloc
                0x00000000080055c2       0x4e CMakeFiles/Proj32.elf.dir/Middlewares/Third_Party/FatFs/src/ff.c.obj
 .text.dir_register
                0x0000000008005610       0x40 CMakeFiles/Proj32.elf.dir/Middlewares/Third_Party/FatFs/src/ff.c.obj
 .text.remove_chain
                0x0000000008005650       0x78 CMakeFiles/Proj32.elf.dir/Middlewares/Third_Party/FatFs/src/ff.c.obj
 .text.f_mount  0x00000000080056c8       0x64 CMakeFiles/Proj32.elf.dir/Middlewares/Third_Party/FatFs/src/ff.c.obj
                0x00000000080056c8                f_mount
 .text.f_open   0x000000000800572c      0x1d2 CMakeFiles/Proj32.elf.dir/Middlewares/Third_Party/FatFs/src/ff.c.obj
                0x000000000800572c                f_open
 .text.f_read   0x00000000080058fe      0x178 CMakeFiles/Proj32.elf.dir/Middlewares/Third_Party/FatFs/src/ff.c.obj
                0x00000000080058fe                f_read
 .text.f_write  0x0000000008005a76      0x1f4 CMakeFiles/Proj32.elf.dir/Middlewares/Third_Party/FatFs/src/ff.c.obj
                0x0000000008005a76                f_write
 .text.f_sync   0x0000000008005c6a       0x7a CMakeFiles/Proj32.elf.dir/Middlewares/Third_Party/FatFs/src/ff.c.obj
                0x0000000008005c6a                f_sync
 .text.f_close  0x0000000008005ce4       0x24 CMakeFiles/Proj32.elf.dir/Middlewares/Third_Party/FatFs/src/ff.c.obj
                0x0000000008005ce4                f_close
 .text.f_mkfs   0x0000000008005d08      0x608 CMakeFiles/Proj32.elf.dir/Middlewares/Third_Party/FatFs/src/ff.c.obj
                0x0000000008005d08                f_mkfs
 .text.FATFS_LinkDriverEx
                0x0000000008006310       0x54 CMakeFiles/Proj32.elf.dir/Middlewares/Third_Party/FatFs/src/ff_gen_drv.c.obj
                0x0000000008006310                FATFS_LinkDriverEx
 .text.FATFS_LinkDriver
                0x0000000008006364        0xa CMakeFiles/Proj32.elf.dir/Middlewares/Third_Party/FatFs/src/ff_gen_drv.c.obj
                0x0000000008006364                FATFS_LinkDriver
 *fill*         0x000000000800636e        0x2 
 .text.__errno  0x0000000008006370        0xc /opt/homebrew/Cellar/arm-none-eabi-gcc/10.3-2021.07/gcc/bin/../lib/gcc/arm-none-eabi/10.3.1/../../../../arm-none-eabi/lib/thumb/v7-m/nofp/libg.a(lib_a-errno.o)
                0x0000000008006370                __errno
 .text.__libc_init_array
                0x000000000800637c       0x48 /opt/homebrew/Cellar/arm-none-eabi-gcc/10.3-2021.07/gcc/bin/../lib/gcc/arm-none-eabi/10.3.1/../../../../arm-none-eabi/lib/thumb/v7-m/nofp/libg.a(lib_a-init.o)
                0x000000000800637c                __libc_init_array
 .text.memset   0x00000000080063c4       0xa4 /opt/homebrew/Cellar/arm-none-eabi-gcc/10.3-2021.07/gcc/bin/../lib/gcc/arm-none-eabi/10.3.1/../../../../arm-none-eabi/lib/thumb/v7-m/nofp/libg.a(lib_a-memset.o)
                0x00000000080063c4                memset
 .text.printf   0x0000000008006468       0x28 /opt/homebrew/Cellar/arm-none-eabi-gcc/10.3-2021.07/gcc/bin/../lib/gcc/arm-none-eabi/10.3.1/../../../../arm-none-eabi/lib/thumb/v7-m/nofp/libg.a(lib_a-printf.o)
                0x0000000008006468                printf
 .text.putchar  0x0000000008006490       0x10 /opt/homebrew/Cellar/arm-none-eabi-gcc/10.3-2021.07/gcc/bin/../lib/gcc/arm-none-eabi/10.3.1/../../../../arm-none-eabi/lib/thumb/v7-m/nofp/libg.a(lib_a-putchar.o)
                0x0000000008006490                putchar
 .text._puts_r  0x00000000080064a0       0x9c /opt/homebrew/Cellar/arm-none-eabi-gcc/10.3-2021.07/gcc/bin/../lib/gcc/arm-none-eabi/10.3.1/../../../../arm-none-eabi/lib/thumb/v7-m/nofp/libg.a(lib_a-puts.o)
                0x00000000080064a0                _puts_r
 .text.puts     0x000000000800653c       0x10 /opt/homebrew/Cellar/arm-none-eabi-gcc/10.3-2021.07/gcc/bin/../lib/gcc/arm-none-eabi/10.3.1/../../../../arm-none-eabi/lib/thumb/v7-m/nofp/libg.a(lib_a-puts.o)
                0x000000000800653c                puts
 .text.strlen   0x000000000800654c       0x5c /opt/homebrew/Cellar/arm-none-eabi-gcc/10.3-2021.07/gcc/bin/../lib/gcc/arm-none-eabi/10.3.1/../../../../arm-none-eabi/lib/thumb/v7-m/nofp/libg.a(lib_a-strlen-stub.o)
                0x000000000800654c                strlen
 .text._vfprintf_r
                0x00000000080065a8     0x1b58 /opt/homebrew/Cellar/arm-none-eabi-gcc/10.3-2021.07/gcc/bin/../lib/gcc/arm-none-eabi/10.3.1/../../../../arm-none-eabi/lib/thumb/v7-m/nofp/libg.a(lib_a-vfprintf.o)
                0x00000000080065a8                _vfprintf_r
 .text.__sbprintf
                0x0000000008008100       0x84 /opt/homebrew/Cellar/arm-none-eabi-gcc/10.3-2021.07/gcc/bin/../lib/gcc/arm-none-eabi/10.3.1/../../../../arm-none-eabi/lib/thumb/v7-m/nofp/libg.a(lib_a-vfprintf.o)
 .text.__swsetup_r
                0x0000000008008184       0xd4 /opt/homebrew/Cellar/arm-none-eabi-gcc/10.3-2021.07/gcc/bin/../lib/gcc/arm-none-eabi/10.3.1/../../../../arm-none-eabi/lib/thumb/v7-m/nofp/libg.a(lib_a-wsetup.o)
                0x0000000008008184                __swsetup_r
 .text.startup.register_fini
                0x0000000008008258       0x14 /opt/homebrew/Cellar/arm-none-eabi-gcc/10.3-2021.07/gcc/bin/../lib/gcc/arm-none-eabi/10.3.1/../../../../arm-none-eabi/lib/thumb/v7-m/nofp/libg.a(lib_a-__call_atexit.o)
 .text.atexit   0x000000000800826c        0xc /opt/homebrew/Cellar/arm-none-eabi-gcc/10.3-2021.07/gcc/bin/../lib/gcc/arm-none-eabi/10.3.1/../../../../arm-none-eabi/lib/thumb/v7-m/nofp/libg.a(lib_a-atexit.o)
                0x000000000800826c                atexit
 .text.quorem   0x0000000008008278      0x12c /opt/homebrew/Cellar/arm-none-eabi-gcc/10.3-2021.07/gcc/bin/../lib/gcc/arm-none-eabi/10.3.1/../../../../arm-none-eabi/lib/thumb/v7-m/nofp/libg.a(lib_a-dtoa.o)
 *fill*         0x00000000080083a4        0x4 
 .text._dtoa_r  0x00000000080083a8      0xecc /opt/homebrew/Cellar/arm-none-eabi-gcc/10.3-2021.07/gcc/bin/../lib/gcc/arm-none-eabi/10.3.1/../../../../arm-none-eabi/lib/thumb/v7-m/nofp/libg.a(lib_a-dtoa.o)
                0x00000000080083a8                _dtoa_r
 .text.__sflush_r
                0x0000000008009274      0x124 /opt/homebrew/Cellar/arm-none-eabi-gcc/10.3-2021.07/gcc/bin/../lib/gcc/arm-none-eabi/10.3.1/../../../../arm-none-eabi/lib/thumb/v7-m/nofp/libg.a(lib_a-fflush.o)
                0x0000000008009274                __sflush_r
 .text._fflush_r
                0x0000000008009398       0x5c /opt/homebrew/Cellar/arm-none-eabi-gcc/10.3-2021.07/gcc/bin/../lib/gcc/arm-none-eabi/10.3.1/../../../../arm-none-eabi/lib/thumb/v7-m/nofp/libg.a(lib_a-fflush.o)
                0x0000000008009398                _fflush_r
 .text._cleanup_r
                0x00000000080093f4        0xc /opt/homebrew/Cellar/arm-none-eabi-gcc/10.3-2021.07/gcc/bin/../lib/gcc/arm-none-eabi/10.3.1/../../../../arm-none-eabi/lib/thumb/v7-m/nofp/libg.a(lib_a-findfp.o)
                0x00000000080093f4                _cleanup_r
 .text.__sinit  0x0000000008009400      0x10c /opt/homebrew/Cellar/arm-none-eabi-gcc/10.3-2021.07/gcc/bin/../lib/gcc/arm-none-eabi/10.3.1/../../../../arm-none-eabi/lib/thumb/v7-m/nofp/libg.a(lib_a-findfp.o)
                0x0000000008009400                __sinit
 .text.__sfp_lock_acquire
                0x000000000800950c        0xc /opt/homebrew/Cellar/arm-none-eabi-gcc/10.3-2021.07/gcc/bin/../lib/gcc/arm-none-eabi/10.3.1/../../../../arm-none-eabi/lib/thumb/v7-m/nofp/libg.a(lib_a-findfp.o)
                0x000000000800950c                __sfp_lock_acquire
 .text.__sfp_lock_release
                0x0000000008009518        0xc /opt/homebrew/Cellar/arm-none-eabi-gcc/10.3-2021.07/gcc/bin/../lib/gcc/arm-none-eabi/10.3.1/../../../../arm-none-eabi/lib/thumb/v7-m/nofp/libg.a(lib_a-findfp.o)
                0x0000000008009518                __sfp_lock_release
 .text.__libc_fini_array
                0x0000000008009524       0x2c /opt/homebrew/Cellar/arm-none-eabi-gcc/10.3-2021.07/gcc/bin/../lib/gcc/arm-none-eabi/10.3.1/../../../../arm-none-eabi/lib/thumb/v7-m/nofp/libg.a(lib_a-fini.o)
                0x0000000008009524                __libc_fini_array
 .text._malloc_trim_r
                0x0000000008009550       0xa0 /opt/homebrew/Cellar/arm-none-eabi-gcc/10.3-2021.07/gcc/bin/../lib/gcc/arm-none-eabi/10.3.1/../../../../arm-none-eabi/lib/thumb/v7-m/nofp/libg.a(lib_a-freer.o)
                0x0000000008009550                _malloc_trim_r
 .text._free_r  0x00000000080095f0      0x200 /opt/homebrew/Cellar/arm-none-eabi-gcc/10.3-2021.07/gcc/bin/../lib/gcc/arm-none-eabi/10.3.1/../../../../arm-none-eabi/lib/thumb/v7-m/nofp/libg.a(lib_a-freer.o)
                0x00000000080095f0                _free_r
 .text.__sfvwrite_r
                0x00000000080097f0      0x2f0 /opt/homebrew/Cellar/arm-none-eabi-gcc/10.3-2021.07/gcc/bin/../lib/gcc/arm-none-eabi/10.3.1/../../../../arm-none-eabi/lib/thumb/v7-m/nofp/libg.a(lib_a-fvwrite.o)
                0x00000000080097f0                __sfvwrite_r
 .text._fwalk_reent
                0x0000000008009ae0       0x48 /opt/homebrew/Cellar/arm-none-eabi-gcc/10.3-2021.07/gcc/bin/../lib/gcc/arm-none-eabi/10.3.1/../../../../arm-none-eabi/lib/thumb/v7-m/nofp/libg.a(lib_a-fwalk.o)
                0x0000000008009ae0                _fwalk_reent
 .text._localeconv_r
                0x0000000008009b28        0x8 /opt/homebrew/Cellar/arm-none-eabi-gcc/10.3-2021.07/gcc/bin/../lib/gcc/arm-none-eabi/10.3.1/../../../../arm-none-eabi/lib/thumb/v7-m/nofp/libg.a(lib_a-localeconv.o)
                0x0000000008009b28                _localeconv_r
 .text.__retarget_lock_init_recursive
                0x0000000008009b30        0x4 /opt/homebrew/Cellar/arm-none-eabi-gcc/10.3-2021.07/gcc/bin/../lib/gcc/arm-none-eabi/10.3.1/../../../../arm-none-eabi/lib/thumb/v7-m/nofp/libg.a(lib_a-lock.o)
                0x0000000008009b30                __retarget_lock_init_recursive
 .text.__retarget_lock_close_recursive
                0x0000000008009b34        0x4 /opt/homebrew/Cellar/arm-none-eabi-gcc/10.3-2021.07/gcc/bin/../lib/gcc/arm-none-eabi/10.3.1/../../../../arm-none-eabi/lib/thumb/v7-m/nofp/libg.a(lib_a-lock.o)
                0x0000000008009b34                __retarget_lock_close_recursive
 .text.__retarget_lock_acquire_recursive
                0x0000000008009b38        0x4 /opt/homebrew/Cellar/arm-none-eabi-gcc/10.3-2021.07/gcc/bin/../lib/gcc/arm-none-eabi/10.3.1/../../../../arm-none-eabi/lib/thumb/v7-m/nofp/libg.a(lib_a-lock.o)
                0x0000000008009b38                __retarget_lock_acquire_recursive
 .text.__retarget_lock_release_recursive
                0x0000000008009b3c        0x4 /opt/homebrew/Cellar/arm-none-eabi-gcc/10.3-2021.07/gcc/bin/../lib/gcc/arm-none-eabi/10.3.1/../../../../arm-none-eabi/lib/thumb/v7-m/nofp/libg.a(lib_a-lock.o)
                0x0000000008009b3c                __retarget_lock_release_recursive
 .text.__smakebuf_r
                0x0000000008009b40       0xe0 /opt/homebrew/Cellar/arm-none-eabi-gcc/10.3-2021.07/gcc/bin/../lib/gcc/arm-none-eabi/10.3.1/../../../../arm-none-eabi/lib/thumb/v7-m/nofp/libg.a(lib_a-makebuf.o)
                0x0000000008009b40                __smakebuf_r
 .text._malloc_r
                0x0000000008009c20      0x558 /opt/homebrew/Cellar/arm-none-eabi-gcc/10.3-2021.07/gcc/bin/../lib/gcc/arm-none-eabi/10.3.1/../../../../arm-none-eabi/lib/thumb/v7-m/nofp/libg.a(lib_a-mallocr.o)
                0x0000000008009c20                _malloc_r
 .text.memchr   0x000000000800a178       0x90 /opt/homebrew/Cellar/arm-none-eabi-gcc/10.3-2021.07/gcc/bin/../lib/gcc/arm-none-eabi/10.3.1/../../../../arm-none-eabi/lib/thumb/v7-m/nofp/libg.a(lib_a-memchr-stub.o)
                0x000000000800a178                memchr
 .text.memmove  0x000000000800a208       0xf8 /opt/homebrew/Cellar/arm-none-eabi-gcc/10.3-2021.07/gcc/bin/../lib/gcc/arm-none-eabi/10.3.1/../../../../arm-none-eabi/lib/thumb/v7-m/nofp/libg.a(lib_a-memmove.o)
                0x000000000800a208                memmove
 .text.__malloc_lock
                0x000000000800a300        0xc /opt/homebrew/Cellar/arm-none-eabi-gcc/10.3-2021.07/gcc/bin/../lib/gcc/arm-none-eabi/10.3.1/../../../../arm-none-eabi/lib/thumb/v7-m/nofp/libg.a(lib_a-mlock.o)
                0x000000000800a300                __malloc_lock
 .text.__malloc_unlock
                0x000000000800a30c        0xc /opt/homebrew/Cellar/arm-none-eabi-gcc/10.3-2021.07/gcc/bin/../lib/gcc/arm-none-eabi/10.3.1/../../../../arm-none-eabi/lib/thumb/v7-m/nofp/libg.a(lib_a-mlock.o)
                0x000000000800a30c                __malloc_unlock
 .text._Balloc  0x000000000800a318       0x4c /opt/homebrew/Cellar/arm-none-eabi-gcc/10.3-2021.07/gcc/bin/../lib/gcc/arm-none-eabi/10.3.1/../../../../arm-none-eabi/lib/thumb/v7-m/nofp/libg.a(lib_a-mprec.o)
                0x000000000800a318                _Balloc
 .text._Bfree   0x000000000800a364       0x14 /opt/homebrew/Cellar/arm-none-eabi-gcc/10.3-2021.07/gcc/bin/../lib/gcc/arm-none-eabi/10.3.1/../../../../arm-none-eabi/lib/thumb/v7-m/nofp/libg.a(lib_a-mprec.o)
                0x000000000800a364                _Bfree
 .text.__multadd
                0x000000000800a378       0xa4 /opt/homebrew/Cellar/arm-none-eabi-gcc/10.3-2021.07/gcc/bin/../lib/gcc/arm-none-eabi/10.3.1/../../../../arm-none-eabi/lib/thumb/v7-m/nofp/libg.a(lib_a-mprec.o)
                0x000000000800a378                __multadd
 .text.__hi0bits
                0x000000000800a41c       0x40 /opt/homebrew/Cellar/arm-none-eabi-gcc/10.3-2021.07/gcc/bin/../lib/gcc/arm-none-eabi/10.3.1/../../../../arm-none-eabi/lib/thumb/v7-m/nofp/libg.a(lib_a-mprec.o)
                0x000000000800a41c                __hi0bits
 .text.__lo0bits
                0x000000000800a45c       0x58 /opt/homebrew/Cellar/arm-none-eabi-gcc/10.3-2021.07/gcc/bin/../lib/gcc/arm-none-eabi/10.3.1/../../../../arm-none-eabi/lib/thumb/v7-m/nofp/libg.a(lib_a-mprec.o)
                0x000000000800a45c                __lo0bits
 .text.__i2b    0x000000000800a4b4       0x5c /opt/homebrew/Cellar/arm-none-eabi-gcc/10.3-2021.07/gcc/bin/../lib/gcc/arm-none-eabi/10.3.1/../../../../arm-none-eabi/lib/thumb/v7-m/nofp/libg.a(lib_a-mprec.o)
                0x000000000800a4b4                __i2b
 .text.__multiply
                0x000000000800a510      0x15c /opt/homebrew/Cellar/arm-none-eabi-gcc/10.3-2021.07/gcc/bin/../lib/gcc/arm-none-eabi/10.3.1/../../../../arm-none-eabi/lib/thumb/v7-m/nofp/libg.a(lib_a-mprec.o)
                0x000000000800a510                __multiply
 .text.__pow5mult
                0x000000000800a66c       0xb8 /opt/homebrew/Cellar/arm-none-eabi-gcc/10.3-2021.07/gcc/bin/../lib/gcc/arm-none-eabi/10.3.1/../../../../arm-none-eabi/lib/thumb/v7-m/nofp/libg.a(lib_a-mprec.o)
                0x000000000800a66c                __pow5mult
 .text.__lshift
                0x000000000800a724       0xec /opt/homebrew/Cellar/arm-none-eabi-gcc/10.3-2021.07/gcc/bin/../lib/gcc/arm-none-eabi/10.3.1/../../../../arm-none-eabi/lib/thumb/v7-m/nofp/libg.a(lib_a-mprec.o)
                0x000000000800a724                __lshift
 .text.__mcmp   0x000000000800a810       0x40 /opt/homebrew/Cellar/arm-none-eabi-gcc/10.3-2021.07/gcc/bin/../lib/gcc/arm-none-eabi/10.3.1/../../../../arm-none-eabi/lib/thumb/v7-m/nofp/libg.a(lib_a-mprec.o)
                0x000000000800a810                __mcmp
 .text.__mdiff  0x000000000800a850      0x14c /opt/homebrew/Cellar/arm-none-eabi-gcc/10.3-2021.07/gcc/bin/../lib/gcc/arm-none-eabi/10.3.1/../../../../arm-none-eabi/lib/thumb/v7-m/nofp/libg.a(lib_a-mprec.o)
                0x000000000800a850                __mdiff
 .text.__d2b    0x000000000800a99c       0xc4 /opt/homebrew/Cellar/arm-none-eabi-gcc/10.3-2021.07/gcc/bin/../lib/gcc/arm-none-eabi/10.3.1/../../../../arm-none-eabi/lib/thumb/v7-m/nofp/libg.a(lib_a-mprec.o)
                0x000000000800a99c                __d2b
 .text._putc_r  0x000000000800aa60       0x74 /opt/homebrew/Cellar/arm-none-eabi-gcc/10.3-2021.07/gcc/bin/../lib/gcc/arm-none-eabi/10.3.1/../../../../arm-none-eabi/lib/thumb/v7-m/nofp/libg.a(lib_a-putc.o)
                0x000000000800aa60                _putc_r
 .text._realloc_r
                0x000000000800aad4      0x3dc /opt/homebrew/Cellar/arm-none-eabi-gcc/10.3-2021.07/gcc/bin/../lib/gcc/arm-none-eabi/10.3.1/../../../../arm-none-eabi/lib/thumb/v7-m/nofp/libg.a(lib_a-reallocr.o)
                0x000000000800aad4                _realloc_r
 .text.frexp    0x000000000800aeb0       0x70 /opt/homebrew/Cellar/arm-none-eabi-gcc/10.3-2021.07/gcc/bin/../lib/gcc/arm-none-eabi/10.3.1/../../../../arm-none-eabi/lib/thumb/v7-m/nofp/libg.a(lib_a-s_frexp.o)
                0x000000000800aeb0                frexp
 .text._sbrk_r  0x000000000800af20       0x24 /opt/homebrew/Cellar/arm-none-eabi-gcc/10.3-2021.07/gcc/bin/../lib/gcc/arm-none-eabi/10.3.1/../../../../arm-none-eabi/lib/thumb/v7-m/nofp/libg.a(lib_a-sbrkr.o)
                0x000000000800af20                _sbrk_r
 .text.__sread  0x000000000800af44       0x24 /opt/homebrew/Cellar/arm-none-eabi-gcc/10.3-2021.07/gcc/bin/../lib/gcc/arm-none-eabi/10.3.1/../../../../arm-none-eabi/lib/thumb/v7-m/nofp/libg.a(lib_a-stdio.o)
                0x000000000800af44                __sread
 .text.__swrite
                0x000000000800af68       0x40 /opt/homebrew/Cellar/arm-none-eabi-gcc/10.3-2021.07/gcc/bin/../lib/gcc/arm-none-eabi/10.3.1/../../../../arm-none-eabi/lib/thumb/v7-m/nofp/libg.a(lib_a-stdio.o)
                0x000000000800af68                __swrite
 .text.__sseek  0x000000000800afa8       0x20 /opt/homebrew/Cellar/arm-none-eabi-gcc/10.3-2021.07/gcc/bin/../lib/gcc/arm-none-eabi/10.3.1/../../../../arm-none-eabi/lib/thumb/v7-m/nofp/libg.a(lib_a-stdio.o)
                0x000000000800afa8                __sseek
 .text.__sclose
                0x000000000800afc8        0x8 /opt/homebrew/Cellar/arm-none-eabi-gcc/10.3-2021.07/gcc/bin/../lib/gcc/arm-none-eabi/10.3.1/../../../../arm-none-eabi/lib/thumb/v7-m/nofp/libg.a(lib_a-stdio.o)
                0x000000000800afc8                __sclose
 .text.strncpy  0x000000000800afd0       0x68 /opt/homebrew/Cellar/arm-none-eabi-gcc/10.3-2021.07/gcc/bin/../lib/gcc/arm-none-eabi/10.3.1/../../../../arm-none-eabi/lib/thumb/v7-m/nofp/libg.a(lib_a-strncpy.o)
                0x000000000800afd0                strncpy
 .text.__sprint_r.part.0
                0x000000000800b038       0x78 /opt/homebrew/Cellar/arm-none-eabi-gcc/10.3-2021.07/gcc/bin/../lib/gcc/arm-none-eabi/10.3.1/../../../../arm-none-eabi/lib/thumb/v7-m/nofp/libg.a(lib_a-vfiprintf.o)
 .text.__sprint_r
                0x000000000800b0b0       0x14 /opt/homebrew/Cellar/arm-none-eabi-gcc/10.3-2021.07/gcc/bin/../lib/gcc/arm-none-eabi/10.3.1/../../../../arm-none-eabi/lib/thumb/v7-m/nofp/libg.a(lib_a-vfiprintf.o)
                0x000000000800b0b0                __sprint_r
 .text._vfiprintf_r
                0x000000000800b0c4      0xd98 /opt/homebrew/Cellar/arm-none-eabi-gcc/10.3-2021.07/gcc/bin/../lib/gcc/arm-none-eabi/10.3.1/../../../../arm-none-eabi/lib/thumb/v7-m/nofp/libg.a(lib_a-vfiprintf.o)
                0x000000000800b0c4                _vfiprintf_r
 .text.__sbprintf
                0x000000000800be5c       0x84 /opt/homebrew/Cellar/arm-none-eabi-gcc/10.3-2021.07/gcc/bin/../lib/gcc/arm-none-eabi/10.3.1/../../../../arm-none-eabi/lib/thumb/v7-m/nofp/libg.a(lib_a-vfiprintf.o)
 .text.__swbuf_r
                0x000000000800bee0       0xb0 /opt/homebrew/Cellar/arm-none-eabi-gcc/10.3-2021.07/gcc/bin/../lib/gcc/arm-none-eabi/10.3.1/../../../../arm-none-eabi/lib/thumb/v7-m/nofp/libg.a(lib_a-wbuf.o)
                0x000000000800bee0                __swbuf_r
 .text._write_r
                0x000000000800bf90       0x2c /opt/homebrew/Cellar/arm-none-eabi-gcc/10.3-2021.07/gcc/bin/../lib/gcc/arm-none-eabi/10.3.1/../../../../arm-none-eabi/lib/thumb/v7-m/nofp/libg.a(lib_a-writer.o)
                0x000000000800bf90                _write_r
 .text.__register_exitproc
                0x000000000800bfbc       0x8c /opt/homebrew/Cellar/arm-none-eabi-gcc/10.3-2021.07/gcc/bin/../lib/gcc/arm-none-eabi/10.3.1/../../../../arm-none-eabi/lib/thumb/v7-m/nofp/libg.a(lib_a-__atexit.o)
                0x000000000800bfbc                __register_exitproc
 .text.__assert_func
                0x000000000800c048       0x40 /opt/homebrew/Cellar/arm-none-eabi-gcc/10.3-2021.07/gcc/bin/../lib/gcc/arm-none-eabi/10.3.1/../../../../arm-none-eabi/lib/thumb/v7-m/nofp/libg.a(lib_a-assert.o)
                0x000000000800c048                __assert_func
 .text._calloc_r
                0x000000000800c088       0x78 /opt/homebrew/Cellar/arm-none-eabi-gcc/10.3-2021.07/gcc/bin/../lib/gcc/arm-none-eabi/10.3.1/../../../../arm-none-eabi/lib/thumb/v7-m/nofp/libg.a(lib_a-callocr.o)
                0x000000000800c088                _calloc_r
 .text._close_r
                0x000000000800c100       0x24 /opt/homebrew/Cellar/arm-none-eabi-gcc/10.3-2021.07/gcc/bin/../lib/gcc/arm-none-eabi/10.3.1/../../../../arm-none-eabi/lib/thumb/v7-m/nofp/libg.a(lib_a-closer.o)
                0x000000000800c100                _close_r
 .text._fclose_r
                0x000000000800c124       0xcc /opt/homebrew/Cellar/arm-none-eabi-gcc/10.3-2021.07/gcc/bin/../lib/gcc/arm-none-eabi/10.3.1/../../../../arm-none-eabi/lib/thumb/v7-m/nofp/libg.a(lib_a-fclose.o)
                0x000000000800c124                _fclose_r
 .text.fiprintf
                0x000000000800c1f0       0x28 /opt/homebrew/Cellar/arm-none-eabi-gcc/10.3-2021.07/gcc/bin/../lib/gcc/arm-none-eabi/10.3.1/../../../../arm-none-eabi/lib/thumb/v7-m/nofp/libg.a(lib_a-fiprintf.o)
                0x000000000800c1f0                fiprintf
 .text.__fputwc
                0x000000000800c218       0xa0 /opt/homebrew/Cellar/arm-none-eabi-gcc/10.3-2021.07/gcc/bin/../lib/gcc/arm-none-eabi/10.3.1/../../../../arm-none-eabi/lib/thumb/v7-m/nofp/libg.a(lib_a-fputwc.o)
                0x000000000800c218                __fputwc
 .text._fputwc_r
                0x000000000800c2b8       0x68 /opt/homebrew/Cellar/arm-none-eabi-gcc/10.3-2021.07/gcc/bin/../lib/gcc/arm-none-eabi/10.3.1/../../../../arm-none-eabi/lib/thumb/v7-m/nofp/libg.a(lib_a-fputwc.o)
                0x000000000800c2b8                _fputwc_r
 .text._fstat_r
                0x000000000800c320       0x28 /opt/homebrew/Cellar/arm-none-eabi-gcc/10.3-2021.07/gcc/bin/../lib/gcc/arm-none-eabi/10.3.1/../../../../arm-none-eabi/lib/thumb/v7-m/nofp/libg.a(lib_a-fstatr.o)
                0x000000000800c320                _fstat_r
 .text._isatty_r
                0x000000000800c348       0x24 /opt/homebrew/Cellar/arm-none-eabi-gcc/10.3-2021.07/gcc/bin/../lib/gcc/arm-none-eabi/10.3.1/../../../../arm-none-eabi/lib/thumb/v7-m/nofp/libg.a(lib_a-isattyr.o)
                0x000000000800c348                _isatty_r
 .text.__locale_mb_cur_max
                0x000000000800c36c        0xc /opt/homebrew/Cellar/arm-none-eabi-gcc/10.3-2021.07/gcc/bin/../lib/gcc/arm-none-eabi/10.3.1/../../../../arm-none-eabi/lib/thumb/v7-m/nofp/libg.a(lib_a-locale.o)
                0x000000000800c36c                __locale_mb_cur_max
 .text._lseek_r
                0x000000000800c378       0x2c /opt/homebrew/Cellar/arm-none-eabi-gcc/10.3-2021.07/gcc/bin/../lib/gcc/arm-none-eabi/10.3.1/../../../../arm-none-eabi/lib/thumb/v7-m/nofp/libg.a(lib_a-lseekr.o)
                0x000000000800c378                _lseek_r
 .text.__ascii_mbtowc
                0x000000000800c3a4       0x2c /opt/homebrew/Cellar/arm-none-eabi-gcc/10.3-2021.07/gcc/bin/../lib/gcc/arm-none-eabi/10.3.1/../../../../arm-none-eabi/lib/thumb/v7-m/nofp/libg.a(lib_a-mbtowc_r.o)
                0x000000000800c3a4                __ascii_mbtowc
 .text._read_r  0x000000000800c3d0       0x2c /opt/homebrew/Cellar/arm-none-eabi-gcc/10.3-2021.07/gcc/bin/../lib/gcc/arm-none-eabi/10.3.1/../../../../arm-none-eabi/lib/thumb/v7-m/nofp/libg.a(lib_a-readr.o)
                0x000000000800c3d0                _read_r
 .text._wcrtomb_r
                0x000000000800c3fc       0x3c /opt/homebrew/Cellar/arm-none-eabi-gcc/10.3-2021.07/gcc/bin/../lib/gcc/arm-none-eabi/10.3.1/../../../../arm-none-eabi/lib/thumb/v7-m/nofp/libg.a(lib_a-wcrtomb.o)
                0x000000000800c3fc                _wcrtomb_r
 .text.__ascii_wctomb
                0x000000000800c438       0x1c /opt/homebrew/Cellar/arm-none-eabi-gcc/10.3-2021.07/gcc/bin/../lib/gcc/arm-none-eabi/10.3.1/../../../../arm-none-eabi/lib/thumb/v7-m/nofp/libg.a(lib_a-wctomb_r.o)
                0x000000000800c438                __ascii_wctomb
 .text.abort    0x000000000800c454       0x10 /opt/homebrew/Cellar/arm-none-eabi-gcc/10.3-2021.07/gcc/bin/../lib/gcc/arm-none-eabi/10.3.1/../../../../arm-none-eabi/lib/thumb/v7-m/nofp/libg.a(lib_a-abort.o)
                0x000000000800c454                abort
 .text.raise    0x000000000800c464       0x5c /opt/homebrew/Cellar/arm-none-eabi-gcc/10.3-2021.07/gcc/bin/../lib/gcc/arm-none-eabi/10.3.1/../../../../arm-none-eabi/lib/thumb/v7-m/nofp/libg.a(lib_a-signal.o)
                0x000000000800c464                raise
 .text._kill_r  0x000000000800c4c0       0x28 /opt/homebrew/Cellar/arm-none-eabi-gcc/10.3-2021.07/gcc/bin/../lib/gcc/arm-none-eabi/10.3.1/../../../../arm-none-eabi/lib/thumb/v7-m/nofp/libg.a(lib_a-signalr.o)
                0x000000000800c4c0                _kill_r
 .text._getpid_r
                0x000000000800c4e8        0x4 /opt/homebrew/Cellar/arm-none-eabi-gcc/10.3-2021.07/gcc/bin/../lib/gcc/arm-none-eabi/10.3.1/../../../../arm-none-eabi/lib/thumb/v7-m/nofp/libg.a(lib_a-signalr.o)
                0x000000000800c4e8                _getpid_r
 *(.glue_7)
 .glue_7        0x000000000800c4ec        0x0 linker stubs
 *(.glue_7t)
 .glue_7t       0x000000000800c4ec        0x0 linker stubs
 *(.eh_frame)
 .eh_frame      0x000000000800c4ec        0x0 /opt/homebrew/Cellar/arm-none-eabi-gcc/10.3-2021.07/gcc/bin/../lib/gcc/arm-none-eabi/10.3.1/thumb/v7-m/nofp/crtbegin.o
 *(.init)
 .init          0x000000000800c4ec        0x4 /opt/homebrew/Cellar/arm-none-eabi-gcc/10.3-2021.07/gcc/bin/../lib/gcc/arm-none-eabi/10.3.1/thumb/v7-m/nofp/crti.o
                0x000000000800c4ec                _init
 .init          0x000000000800c4f0        0x8 /opt/homebrew/Cellar/arm-none-eabi-gcc/10.3-2021.07/gcc/bin/../lib/gcc/arm-none-eabi/10.3.1/thumb/v7-m/nofp/crtn.o
 *(.fini)
 .fini          0x000000000800c4f8        0x4 /opt/homebrew/Cellar/arm-none-eabi-gcc/10.3-2021.07/gcc/bin/../lib/gcc/arm-none-eabi/10.3.1/thumb/v7-m/nofp/crti.o
                0x000000000800c4f8                _fini
 .fini          0x000000000800c4fc        0x8 /opt/homebrew/Cellar/arm-none-eabi-gcc/10.3-2021.07/gcc/bin/../lib/gcc/arm-none-eabi/10.3.1/thumb/v7-m/nofp/crtn.o
                0x000000000800c504                . = ALIGN (0x4)
                0x000000000800c504                _etext = .

.vfp11_veneer   0x000000000800c504        0x0
 .vfp11_veneer  0x000000000800c504        0x0 linker stubs

.v4_bx          0x000000000800c504        0x0
 .v4_bx         0x000000000800c504        0x0 linker stubs

.iplt           0x000000000800c504        0x0
 .iplt          0x000000000800c504        0x0 /opt/homebrew/Cellar/arm-none-eabi-gcc/10.3-2021.07/gcc/bin/../lib/gcc/arm-none-eabi/10.3.1/thumb/v7-m/nofp/crtbegin.o

.rodata         0x000000000800c508      0x8f0
                0x000000000800c508                . = ALIGN (0x4)
 *(.rodata)
 .rodata        0x000000000800c508       0x80 CMakeFiles/Proj32.elf.dir/Core/Src/main.c.obj
 *(.rodata*)
 .rodata.CAN_Test.str1.4
                0x000000000800c588       0x5a CMakeFiles/Proj32.elf.dir/Core/Src/main.c.obj
 *fill*         0x000000000800c5e2        0x2 
 .rodata.FATFS_FLASH_Test.str1.4
                0x000000000800c5e4      0x28c CMakeFiles/Proj32.elf.dir/Core/Src/main.c.obj
 .rodata.SPI_FLASH_Test.str1.4
                0x000000000800c870       0x7c CMakeFiles/Proj32.elf.dir/Core/Src/main.c.obj
 .rodata.EEPROM_IIC_Test.str1.4
                0x000000000800c8ec       0x3b CMakeFiles/Proj32.elf.dir/Core/Src/main.c.obj
 *fill*         0x000000000800c927        0x1 
 .rodata.HAL_GPIO_EXTI_Callback.str1.4
                0x000000000800c928       0x13 CMakeFiles/Proj32.elf.dir/Core/Src/main.c.obj
 *fill*         0x000000000800c93b        0x1 
 .rodata.MX_CAN_Init.str1.4
                0x000000000800c93c       0x11 CMakeFiles/Proj32.elf.dir/Core/Src/main.c.obj
 *fill*         0x000000000800c94d        0x3 
 .rodata.filter_init.str1.4
                0x000000000800c950       0x1e CMakeFiles/Proj32.elf.dir/Core/Src/main.c.obj
 *fill*         0x000000000800c96e        0x2 
 .rodata.main.str1.4
                0x000000000800c970       0x2d CMakeFiles/Proj32.elf.dir/Core/Src/main.c.obj
 *fill*         0x000000000800c99d        0x3 
 .rodata.AHBPrescTable
                0x000000000800c9a0       0x10 CMakeFiles/Proj32.elf.dir/Core/Src/system_stm32f1xx.c.obj
                0x000000000800c9a0                AHBPrescTable
 .rodata.APBPrescTable
                0x000000000800c9b0        0x8 CMakeFiles/Proj32.elf.dir/Core/Src/system_stm32f1xx.c.obj
                0x000000000800c9b0                APBPrescTable
 .rodata.HAL_RCC_GetSysClockFreq.str1.4
                0x000000000800c9b8       0x11 CMakeFiles/Proj32.elf.dir/Drivers/STM32F1xx_HAL_Driver/Src/stm32f1xx_hal_rcc.c.obj
 *fill*         0x000000000800c9c9        0x3 
 .rodata.create_name.str1.4
                0x000000000800c9cc        0xf CMakeFiles/Proj32.elf.dir/Middlewares/Third_Party/FatFs/src/ff.c.obj
 *fill*         0x000000000800c9db        0x1 
 .rodata.f_mkfs.str1.4
                0x000000000800c9dc       0x34 CMakeFiles/Proj32.elf.dir/Middlewares/Third_Party/FatFs/src/ff.c.obj
 .rodata.cst.0  0x000000000800ca10       0x16 CMakeFiles/Proj32.elf.dir/Middlewares/Third_Party/FatFs/src/ff.c.obj
 *fill*         0x000000000800ca26        0x2 
 .rodata.vst.1  0x000000000800ca28       0x16 CMakeFiles/Proj32.elf.dir/Middlewares/Third_Party/FatFs/src/ff.c.obj
 *fill*         0x000000000800ca3e        0x2 
 .rodata._global_impure_ptr
                0x000000000800ca40        0x4 /opt/homebrew/Cellar/arm-none-eabi-gcc/10.3-2021.07/gcc/bin/../lib/gcc/arm-none-eabi/10.3.1/../../../../arm-none-eabi/lib/thumb/v7-m/nofp/libg.a(lib_a-impure.o)
                0x000000000800ca40                _global_impure_ptr
 .rodata._puts_r.str1.4
                0x000000000800ca44       0x34 /opt/homebrew/Cellar/arm-none-eabi-gcc/10.3-2021.07/gcc/bin/../lib/gcc/arm-none-eabi/10.3.1/../../../../arm-none-eabi/lib/thumb/v7-m/nofp/libg.a(lib_a-puts.o)
                                          0x2 (size before relaxing)
 .rodata._vfprintf_r.str1.4
                0x000000000800ca44       0x42 /opt/homebrew/Cellar/arm-none-eabi-gcc/10.3-2021.07/gcc/bin/../lib/gcc/arm-none-eabi/10.3.1/../../../../arm-none-eabi/lib/thumb/v7-m/nofp/libg.a(lib_a-vfprintf.o)
 *fill*         0x000000000800ca86        0x2 
 .rodata.blanks.1
                0x000000000800ca88       0x10 /opt/homebrew/Cellar/arm-none-eabi-gcc/10.3-2021.07/gcc/bin/../lib/gcc/arm-none-eabi/10.3.1/../../../../arm-none-eabi/lib/thumb/v7-m/nofp/libg.a(lib_a-vfprintf.o)
 .rodata.zeroes.0
                0x000000000800ca98       0x10 /opt/homebrew/Cellar/arm-none-eabi-gcc/10.3-2021.07/gcc/bin/../lib/gcc/arm-none-eabi/10.3.1/../../../../arm-none-eabi/lib/thumb/v7-m/nofp/libg.a(lib_a-vfprintf.o)
 .rodata._dtoa_r.str1.4
                0x000000000800caa8       0x7e /opt/homebrew/Cellar/arm-none-eabi-gcc/10.3-2021.07/gcc/bin/../lib/gcc/arm-none-eabi/10.3.1/../../../../arm-none-eabi/lib/thumb/v7-m/nofp/libg.a(lib_a-dtoa.o)
                                         0x82 (size before relaxing)
 *fill*         0x000000000800cb26        0x2 
 .rodata.__multadd.str1.4
                0x000000000800cb28       0x5b /opt/homebrew/Cellar/arm-none-eabi-gcc/10.3-2021.07/gcc/bin/../lib/gcc/arm-none-eabi/10.3.1/../../../../arm-none-eabi/lib/thumb/v7-m/nofp/libg.a(lib_a-mprec.o)
                                         0x6f (size before relaxing)
 *fill*         0x000000000800cb83        0x5 
 .rodata.__mprec_bigtens
                0x000000000800cb88       0x28 /opt/homebrew/Cellar/arm-none-eabi-gcc/10.3-2021.07/gcc/bin/../lib/gcc/arm-none-eabi/10.3.1/../../../../arm-none-eabi/lib/thumb/v7-m/nofp/libg.a(lib_a-mprec.o)
                0x000000000800cb88                __mprec_bigtens
 .rodata.__mprec_tens
                0x000000000800cbb0       0xc8 /opt/homebrew/Cellar/arm-none-eabi-gcc/10.3-2021.07/gcc/bin/../lib/gcc/arm-none-eabi/10.3.1/../../../../arm-none-eabi/lib/thumb/v7-m/nofp/libg.a(lib_a-mprec.o)
                0x000000000800cbb0                __mprec_tens
 .rodata.p05.0  0x000000000800cc78        0xc /opt/homebrew/Cellar/arm-none-eabi-gcc/10.3-2021.07/gcc/bin/../lib/gcc/arm-none-eabi/10.3.1/../../../../arm-none-eabi/lib/thumb/v7-m/nofp/libg.a(lib_a-mprec.o)
 .rodata._vfiprintf_r.str1.4
                0x000000000800cc84       0x2f /opt/homebrew/Cellar/arm-none-eabi-gcc/10.3-2021.07/gcc/bin/../lib/gcc/arm-none-eabi/10.3.1/../../../../arm-none-eabi/lib/thumb/v7-m/nofp/libg.a(lib_a-vfiprintf.o)
 .rodata.blanks.1
                0x000000000800cc84       0x10 /opt/homebrew/Cellar/arm-none-eabi-gcc/10.3-2021.07/gcc/bin/../lib/gcc/arm-none-eabi/10.3.1/../../../../arm-none-eabi/lib/thumb/v7-m/nofp/libg.a(lib_a-vfiprintf.o)
 .rodata.zeroes.0
                0x000000000800cc94       0x10 /opt/homebrew/Cellar/arm-none-eabi-gcc/10.3-2021.07/gcc/bin/../lib/gcc/arm-none-eabi/10.3.1/../../../../arm-none-eabi/lib/thumb/v7-m/nofp/libg.a(lib_a-vfiprintf.o)
 .rodata.__assert_func.str1.4
                0x000000000800cca4       0x3f /opt/homebrew/Cellar/arm-none-eabi-gcc/10.3-2021.07/gcc/bin/../lib/gcc/arm-none-eabi/10.3.1/../../../../arm-none-eabi/lib/thumb/v7-m/nofp/libg.a(lib_a-assert.o)
                                         0x43 (size before relaxing)
 *fill*         0x000000000800cce3        0x1 
 .rodata._setlocale_r.str1.4
                0x000000000800cce4        0xa /opt/homebrew/Cellar/arm-none-eabi-gcc/10.3-2021.07/gcc/bin/../lib/gcc/arm-none-eabi/10.3.1/../../../../arm-none-eabi/lib/thumb/v7-m/nofp/libg.a(lib_a-locale.o)
                                          0xd (size before relaxing)
 *fill*         0x000000000800ccee        0x2 
 .rodata.str1.4
                0x000000000800ccf0        0x2 /opt/homebrew/Cellar/arm-none-eabi-gcc/10.3-2021.07/gcc/bin/../lib/gcc/arm-none-eabi/10.3.1/../../../../arm-none-eabi/lib/thumb/v7-m/nofp/libg.a(lib_a-locale.o)
 *fill*         0x000000000800ccf2        0x2 
 .rodata._ctype_
                0x000000000800ccf4      0x101 /opt/homebrew/Cellar/arm-none-eabi-gcc/10.3-2021.07/gcc/bin/../lib/gcc/arm-none-eabi/10.3.1/../../../../arm-none-eabi/lib/thumb/v7-m/nofp/libg.a(lib_a-ctype_.o)
                0x000000000800ccf4                _ctype_
                0x000000000800cdf8                . = ALIGN (0x4)
 *fill*         0x000000000800cdf5        0x3 

.ARM.extab      0x000000000800cdf8        0x0
                0x000000000800cdf8                . = ALIGN (0x4)
 *(.ARM.extab* .gnu.linkonce.armextab.*)
                0x000000000800cdf8                . = ALIGN (0x4)

.ARM            0x000000000800cdf8        0x8
                0x000000000800cdf8                . = ALIGN (0x4)
                0x000000000800cdf8                __exidx_start = .
 *(.ARM.exidx*)
 .ARM.exidx     0x000000000800cdf8        0x8 /opt/homebrew/Cellar/arm-none-eabi-gcc/10.3-2021.07/gcc/bin/../lib/gcc/arm-none-eabi/10.3.1/thumb/v7-m/nofp/libgcc.a(_udivmoddi4.o)
                0x000000000800ce00                __exidx_end = .
                0x000000000800ce00                . = ALIGN (0x4)

.rel.dyn        0x000000000800ce00        0x0
 .rel.iplt      0x000000000800ce00        0x0 /opt/homebrew/Cellar/arm-none-eabi-gcc/10.3-2021.07/gcc/bin/../lib/gcc/arm-none-eabi/10.3.1/thumb/v7-m/nofp/crtbegin.o

.preinit_array  0x000000000800ce00        0x0
                0x000000000800ce00                . = ALIGN (0x4)
                0x000000000800ce00                PROVIDE (__preinit_array_start = .)
 *(.preinit_array*)
                0x000000000800ce00                PROVIDE (__preinit_array_end = .)
                0x000000000800ce00                . = ALIGN (0x4)

.init_array     0x000000000800ce00        0x8
                0x000000000800ce00                . = ALIGN (0x4)
                0x000000000800ce00                PROVIDE (__init_array_start = .)
 *(SORT_BY_NAME(.init_array.*))
 .init_array.00000
                0x000000000800ce00        0x4 /opt/homebrew/Cellar/arm-none-eabi-gcc/10.3-2021.07/gcc/bin/../lib/gcc/arm-none-eabi/10.3.1/../../../../arm-none-eabi/lib/thumb/v7-m/nofp/libg.a(lib_a-__call_atexit.o)
 *(.init_array*)
 .init_array    0x000000000800ce04        0x4 /opt/homebrew/Cellar/arm-none-eabi-gcc/10.3-2021.07/gcc/bin/../lib/gcc/arm-none-eabi/10.3.1/thumb/v7-m/nofp/crtbegin.o
                0x000000000800ce08                PROVIDE (__init_array_end = .)
                0x000000000800ce08                . = ALIGN (0x4)

.fini_array     0x000000000800ce08        0x4
                0x000000000800ce08                . = ALIGN (0x4)
                0x000000000800ce08                PROVIDE (__fini_array_start = .)
 *(SORT_BY_NAME(.fini_array.*))
 *(.fini_array*)
 .fini_array    0x000000000800ce08        0x4 /opt/homebrew/Cellar/arm-none-eabi-gcc/10.3-2021.07/gcc/bin/../lib/gcc/arm-none-eabi/10.3.1/thumb/v7-m/nofp/crtbegin.o
                0x000000000800ce0c                PROVIDE (__fini_array_end = .)
                0x000000000800ce0c                . = ALIGN (0x4)
                0x000000000800ce0c                _sidata = LOADADDR (.data)

.data           0x0000000020000000      0x9d0 load address 0x000000000800ce0c
                0x0000000020000000                . = ALIGN (0x4)
                0x0000000020000000                _sdata = .
 *(.data)
 *(.data*)
 .data.SystemCoreClock
                0x0000000020000000        0x4 CMakeFiles/Proj32.elf.dir/Core/Src/system_stm32f1xx.c.obj
                0x0000000020000000                SystemCoreClock
 .data.uwTickFreq
                0x0000000020000004        0x1 CMakeFiles/Proj32.elf.dir/Drivers/STM32F1xx_HAL_Driver/Src/stm32f1xx_hal.c.obj
                0x0000000020000004                uwTickFreq
 *fill*         0x0000000020000005        0x3 
 .data.uwTickPrio
                0x0000000020000008        0x4 CMakeFiles/Proj32.elf.dir/Drivers/STM32F1xx_HAL_Driver/Src/stm32f1xx_hal.c.obj
                0x0000000020000008                uwTickPrio
 .data.Stat     0x000000002000000c        0x1 CMakeFiles/Proj32.elf.dir/FATFS/Target/user_diskio.c.obj
 *fill*         0x000000002000000d        0x3 
 .data.USER_Driver
                0x0000000020000010       0x14 CMakeFiles/Proj32.elf.dir/FATFS/Target/user_diskio.c.obj
                0x0000000020000010                USER_Driver
 .data._impure_ptr
                0x0000000020000024        0x4 /opt/homebrew/Cellar/arm-none-eabi-gcc/10.3-2021.07/gcc/bin/../lib/gcc/arm-none-eabi/10.3.1/../../../../arm-none-eabi/lib/thumb/v7-m/nofp/libg.a(lib_a-impure.o)
                0x0000000020000024                _impure_ptr
 .data.impure_data
                0x0000000020000028      0x428 /opt/homebrew/Cellar/arm-none-eabi-gcc/10.3-2021.07/gcc/bin/../lib/gcc/arm-none-eabi/10.3.1/../../../../arm-none-eabi/lib/thumb/v7-m/nofp/libg.a(lib_a-impure.o)
 .data.__atexit_recursive_mutex
                0x0000000020000450        0x4 /opt/homebrew/Cellar/arm-none-eabi-gcc/10.3-2021.07/gcc/bin/../lib/gcc/arm-none-eabi/10.3.1/../../../../arm-none-eabi/lib/thumb/v7-m/nofp/libg.a(lib_a-__call_atexit.o)
                0x0000000020000450                __atexit_recursive_mutex
 .data.__malloc_av_
                0x0000000020000454      0x408 /opt/homebrew/Cellar/arm-none-eabi-gcc/10.3-2021.07/gcc/bin/../lib/gcc/arm-none-eabi/10.3.1/../../../../arm-none-eabi/lib/thumb/v7-m/nofp/libg.a(lib_a-mallocr.o)
                0x0000000020000454                __malloc_av_
 .data.__malloc_sbrk_base
                0x000000002000085c        0x4 /opt/homebrew/Cellar/arm-none-eabi-gcc/10.3-2021.07/gcc/bin/../lib/gcc/arm-none-eabi/10.3.1/../../../../arm-none-eabi/lib/thumb/v7-m/nofp/libg.a(lib_a-mallocr.o)
                0x000000002000085c                __malloc_sbrk_base
 .data.__malloc_trim_threshold
                0x0000000020000860        0x4 /opt/homebrew/Cellar/arm-none-eabi-gcc/10.3-2021.07/gcc/bin/../lib/gcc/arm-none-eabi/10.3.1/../../../../arm-none-eabi/lib/thumb/v7-m/nofp/libg.a(lib_a-mallocr.o)
                0x0000000020000860                __malloc_trim_threshold
 .data.__global_locale
                0x0000000020000864      0x16c /opt/homebrew/Cellar/arm-none-eabi-gcc/10.3-2021.07/gcc/bin/../lib/gcc/arm-none-eabi/10.3.1/../../../../arm-none-eabi/lib/thumb/v7-m/nofp/libg.a(lib_a-locale.o)
                0x0000000020000864                __global_locale
 *(.RamFunc)
 *(.RamFunc*)
                0x00000000200009d0                . = ALIGN (0x4)
                0x00000000200009d0                _edata = .

.igot.plt       0x00000000200009d0        0x0 load address 0x000000000800d7dc
 .igot.plt      0x00000000200009d0        0x0 /opt/homebrew/Cellar/arm-none-eabi-gcc/10.3-2021.07/gcc/bin/../lib/gcc/arm-none-eabi/10.3.1/thumb/v7-m/nofp/crtbegin.o
                0x00000000200009d0                . = ALIGN (0x4)

.bss            0x00000000200009d0      0x49c load address 0x000000000800d7dc
                0x00000000200009d0                _sbss = .
                0x00000000200009d0                __bss_start__ = _sbss
 *(.bss)
 .bss           0x00000000200009d0       0x1c /opt/homebrew/Cellar/arm-none-eabi-gcc/10.3-2021.07/gcc/bin/../lib/gcc/arm-none-eabi/10.3.1/thumb/v7-m/nofp/crtbegin.o
 *(.bss*)
 .bss.hspi1     0x00000000200009ec       0x58 CMakeFiles/Proj32.elf.dir/Core/Src/bsp_spi_flash.c.obj
                0x00000000200009ec                hspi1
 .bss.CAN_Rx_Flag
                0x0000000020000a44        0x1 CMakeFiles/Proj32.elf.dir/Core/Src/main.c.obj
                0x0000000020000a44                CAN_Rx_Flag
 *fill*         0x0000000020000a45        0x3 
 .bss.Rd_buff   0x0000000020000a48      0x100 CMakeFiles/Proj32.elf.dir/Core/Src/main.c.obj
                0x0000000020000a48                Rd_buff
 .bss.RxDataCAN
                0x0000000020000b48        0x8 CMakeFiles/Proj32.elf.dir/Core/Src/main.c.obj
                0x0000000020000b48                RxDataCAN
 .bss.RxHeaderCAN
                0x0000000020000b50       0x1c CMakeFiles/Proj32.elf.dir/Core/Src/main.c.obj
                0x0000000020000b50                RxHeaderCAN
 .bss.TxDataCAN
                0x0000000020000b6c        0x8 CMakeFiles/Proj32.elf.dir/Core/Src/main.c.obj
                0x0000000020000b6c                TxDataCAN
 .bss.TxHeaderCAN
                0x0000000020000b74       0x18 CMakeFiles/Proj32.elf.dir/Core/Src/main.c.obj
                0x0000000020000b74                TxHeaderCAN
 .bss.Wr_buff   0x0000000020000b8c      0x100 CMakeFiles/Proj32.elf.dir/Core/Src/main.c.obj
                0x0000000020000b8c                Wr_buff
 .bss.fnew.0    0x0000000020000c8c       0x2c CMakeFiles/Proj32.elf.dir/Core/Src/main.c.obj
 .bss.hcan      0x0000000020000cb8       0x28 CMakeFiles/Proj32.elf.dir/Core/Src/main.c.obj
                0x0000000020000cb8                hcan
 .bss.huart1    0x0000000020000ce0       0x44 CMakeFiles/Proj32.elf.dir/Core/Src/main.c.obj
                0x0000000020000ce0                huart1
 .bss.rx_buff   0x0000000020000d24       0x64 CMakeFiles/Proj32.elf.dir/Core/Src/main.c.obj
                0x0000000020000d24                rx_buff
 .bss.rx_cnt    0x0000000020000d88        0x1 CMakeFiles/Proj32.elf.dir/Core/Src/main.c.obj
                0x0000000020000d88                rx_cnt
 .bss.rx_done   0x0000000020000d89        0x1 CMakeFiles/Proj32.elf.dir/Core/Src/main.c.obj
                0x0000000020000d89                rx_done
 *fill*         0x0000000020000d8a        0x2 
 .bss.hi2c1     0x0000000020000d8c       0x54 CMakeFiles/Proj32.elf.dir/Core/Src/oled.c.obj
                0x0000000020000d8c                hi2c1
 .bss.__sbrk_heap_end
                0x0000000020000de0        0x4 CMakeFiles/Proj32.elf.dir/Core/Src/sysmem.c.obj
 .bss.uwTick    0x0000000020000de4        0x4 CMakeFiles/Proj32.elf.dir/Drivers/STM32F1xx_HAL_Driver/Src/stm32f1xx_hal.c.obj
                0x0000000020000de4                uwTick
 .bss.USERPath  0x0000000020000de8        0x4 CMakeFiles/Proj32.elf.dir/FATFS/App/fatfs.c.obj
                0x0000000020000de8                USERPath
 .bss.retUSER   0x0000000020000dec        0x1 CMakeFiles/Proj32.elf.dir/FATFS/App/fatfs.c.obj
                0x0000000020000dec                retUSER
 *fill*         0x0000000020000ded        0x3 
 .bss.FatFs     0x0000000020000df0        0x8 CMakeFiles/Proj32.elf.dir/Middlewares/Third_Party/FatFs/src/ff.c.obj
 .bss.Files     0x0000000020000df8       0x18 CMakeFiles/Proj32.elf.dir/Middlewares/Third_Party/FatFs/src/ff.c.obj
 .bss.Fsid      0x0000000020000e10        0x2 CMakeFiles/Proj32.elf.dir/Middlewares/Third_Party/FatFs/src/ff.c.obj
 *fill*         0x0000000020000e12        0x2 
 .bss.disk      0x0000000020000e14       0x10 CMakeFiles/Proj32.elf.dir/Middlewares/Third_Party/FatFs/src/ff_gen_drv.c.obj
                0x0000000020000e14                disk
 .bss.__lock___atexit_recursive_mutex
                0x0000000020000e24        0x1 /opt/homebrew/Cellar/arm-none-eabi-gcc/10.3-2021.07/gcc/bin/../lib/gcc/arm-none-eabi/10.3.1/../../../../arm-none-eabi/lib/thumb/v7-m/nofp/libg.a(lib_a-lock.o)
                0x0000000020000e24                __lock___atexit_recursive_mutex
 *fill*         0x0000000020000e25        0x3 
 .bss.__lock___malloc_recursive_mutex
                0x0000000020000e28        0x1 /opt/homebrew/Cellar/arm-none-eabi-gcc/10.3-2021.07/gcc/bin/../lib/gcc/arm-none-eabi/10.3.1/../../../../arm-none-eabi/lib/thumb/v7-m/nofp/libg.a(lib_a-lock.o)
                0x0000000020000e28                __lock___malloc_recursive_mutex
 *fill*         0x0000000020000e29        0x3 
 .bss.__lock___sfp_recursive_mutex
                0x0000000020000e2c        0x1 /opt/homebrew/Cellar/arm-none-eabi-gcc/10.3-2021.07/gcc/bin/../lib/gcc/arm-none-eabi/10.3.1/../../../../arm-none-eabi/lib/thumb/v7-m/nofp/libg.a(lib_a-lock.o)
                0x0000000020000e2c                __lock___sfp_recursive_mutex
 *fill*         0x0000000020000e2d        0x3 
 .bss.__lock___sinit_recursive_mutex
                0x0000000020000e30        0x1 /opt/homebrew/Cellar/arm-none-eabi-gcc/10.3-2021.07/gcc/bin/../lib/gcc/arm-none-eabi/10.3.1/../../../../arm-none-eabi/lib/thumb/v7-m/nofp/libg.a(lib_a-lock.o)
                0x0000000020000e30                __lock___sinit_recursive_mutex
 *fill*         0x0000000020000e31        0x3 
 .bss.__malloc_current_mallinfo
                0x0000000020000e34       0x28 /opt/homebrew/Cellar/arm-none-eabi-gcc/10.3-2021.07/gcc/bin/../lib/gcc/arm-none-eabi/10.3.1/../../../../arm-none-eabi/lib/thumb/v7-m/nofp/libg.a(lib_a-mallocr.o)
                0x0000000020000e34                __malloc_current_mallinfo
 .bss.__malloc_max_sbrked_mem
                0x0000000020000e5c        0x4 /opt/homebrew/Cellar/arm-none-eabi-gcc/10.3-2021.07/gcc/bin/../lib/gcc/arm-none-eabi/10.3.1/../../../../arm-none-eabi/lib/thumb/v7-m/nofp/libg.a(lib_a-mallocr.o)
                0x0000000020000e5c                __malloc_max_sbrked_mem
 .bss.__malloc_max_total_mem
                0x0000000020000e60        0x4 /opt/homebrew/Cellar/arm-none-eabi-gcc/10.3-2021.07/gcc/bin/../lib/gcc/arm-none-eabi/10.3.1/../../../../arm-none-eabi/lib/thumb/v7-m/nofp/libg.a(lib_a-mallocr.o)
                0x0000000020000e60                __malloc_max_total_mem
 .bss.__malloc_top_pad
                0x0000000020000e64        0x4 /opt/homebrew/Cellar/arm-none-eabi-gcc/10.3-2021.07/gcc/bin/../lib/gcc/arm-none-eabi/10.3.1/../../../../arm-none-eabi/lib/thumb/v7-m/nofp/libg.a(lib_a-mallocr.o)
                0x0000000020000e64                __malloc_top_pad
 .bss.errno     0x0000000020000e68        0x4 /opt/homebrew/Cellar/arm-none-eabi-gcc/10.3-2021.07/gcc/bin/../lib/gcc/arm-none-eabi/10.3.1/../../../../arm-none-eabi/lib/thumb/v7-m/nofp/libg.a(lib_a-reent.o)
                0x0000000020000e68                errno
 *(COMMON)
                0x0000000020000e6c                . = ALIGN (0x4)
                0x0000000020000e6c                _ebss = .
                0x0000000020000e6c                __bss_end__ = _ebss

._user_heap_stack
                0x0000000020000e6c     0x1404 load address 0x000000000800d7dc
                0x0000000020000e70                . = ALIGN (0x8)
 *fill*         0x0000000020000e6c        0x4 
                [!provide]                        PROVIDE (end = .)
                0x0000000020000e70                PROVIDE (_end = .)
                0x0000000020001270                . = (. + _Min_Heap_Size)
 *fill*         0x0000000020000e70      0x400 
                0x0000000020002270                . = (. + _Min_Stack_Size)
 *fill*         0x0000000020001270     0x1000 
                0x0000000020002270                . = ALIGN (0x8)

/DISCARD/
 libc.a(*)
 libm.a(*)
 libgcc.a(*)

.ARM.attributes
                0x0000000000000000       0x29
 *(.ARM.attributes)
 .ARM.attributes
                0x0000000000000000       0x1d /opt/homebrew/Cellar/arm-none-eabi-gcc/10.3-2021.07/gcc/bin/../lib/gcc/arm-none-eabi/10.3.1/thumb/v7-m/nofp/crti.o
 .ARM.attributes
                0x000000000000001d       0x2d /opt/homebrew/Cellar/arm-none-eabi-gcc/10.3-2021.07/gcc/bin/../lib/gcc/arm-none-eabi/10.3.1/thumb/v7-m/nofp/crtbegin.o
 .ARM.attributes
                0x000000000000004a       0x2d CMakeFiles/Proj32.elf.dir/Core/Src/bsp_spi_flash.c.obj
 .ARM.attributes
                0x0000000000000077       0x2d CMakeFiles/Proj32.elf.dir/Core/Src/main.c.obj
 .ARM.attributes
                0x00000000000000a4       0x2d CMakeFiles/Proj32.elf.dir/Core/Src/oled.c.obj
 .ARM.attributes
                0x00000000000000d1       0x2d CMakeFiles/Proj32.elf.dir/Core/Src/stm32f1xx_hal_msp.c.obj
 .ARM.attributes
                0x00000000000000fe       0x2d CMakeFiles/Proj32.elf.dir/Core/Src/stm32f1xx_it.c.obj
 .ARM.attributes
                0x000000000000012b       0x2d CMakeFiles/Proj32.elf.dir/Core/Src/syscalls.c.obj
 .ARM.attributes
                0x0000000000000158       0x2d CMakeFiles/Proj32.elf.dir/Core/Src/sysmem.c.obj
 .ARM.attributes
                0x0000000000000185       0x2d CMakeFiles/Proj32.elf.dir/Core/Src/system_stm32f1xx.c.obj
 .ARM.attributes
                0x00000000000001b2       0x21 CMakeFiles/Proj32.elf.dir/Core/Startup/startup_stm32f103vbtx.s.obj
 .ARM.attributes
                0x00000000000001d3       0x2d CMakeFiles/Proj32.elf.dir/Drivers/STM32F1xx_HAL_Driver/Src/stm32f1xx_hal.c.obj
 .ARM.attributes
                0x0000000000000200       0x2d CMakeFiles/Proj32.elf.dir/Drivers/STM32F1xx_HAL_Driver/Src/stm32f1xx_hal_can.c.obj
 .ARM.attributes
                0x000000000000022d       0x2d CMakeFiles/Proj32.elf.dir/Drivers/STM32F1xx_HAL_Driver/Src/stm32f1xx_hal_cortex.c.obj
 .ARM.attributes
                0x000000000000025a       0x2d CMakeFiles/Proj32.elf.dir/Drivers/STM32F1xx_HAL_Driver/Src/stm32f1xx_hal_dma.c.obj
 .ARM.attributes
                0x0000000000000287       0x2d CMakeFiles/Proj32.elf.dir/Drivers/STM32F1xx_HAL_Driver/Src/stm32f1xx_hal_gpio.c.obj
 .ARM.attributes
                0x00000000000002b4       0x2d CMakeFiles/Proj32.elf.dir/Drivers/STM32F1xx_HAL_Driver/Src/stm32f1xx_hal_i2c.c.obj
 .ARM.attributes
                0x00000000000002e1       0x2d CMakeFiles/Proj32.elf.dir/Drivers/STM32F1xx_HAL_Driver/Src/stm32f1xx_hal_rcc.c.obj
 .ARM.attributes
                0x000000000000030e       0x2d CMakeFiles/Proj32.elf.dir/Drivers/STM32F1xx_HAL_Driver/Src/stm32f1xx_hal_spi.c.obj
 .ARM.attributes
                0x000000000000033b       0x2d CMakeFiles/Proj32.elf.dir/Drivers/STM32F1xx_HAL_Driver/Src/stm32f1xx_hal_uart.c.obj
 .ARM.attributes
                0x0000000000000368       0x2d CMakeFiles/Proj32.elf.dir/FATFS/App/fatfs.c.obj
 .ARM.attributes
                0x0000000000000395       0x2d CMakeFiles/Proj32.elf.dir/FATFS/Target/user_diskio.c.obj
 .ARM.attributes
                0x00000000000003c2       0x2d CMakeFiles/Proj32.elf.dir/Middlewares/Third_Party/FatFs/src/diskio.c.obj
 .ARM.attributes
                0x00000000000003ef       0x2d CMakeFiles/Proj32.elf.dir/Middlewares/Third_Party/FatFs/src/ff.c.obj
 .ARM.attributes
                0x000000000000041c       0x2d CMakeFiles/Proj32.elf.dir/Middlewares/Third_Party/FatFs/src/ff_gen_drv.c.obj
 .ARM.attributes
                0x0000000000000449       0x2d /opt/homebrew/Cellar/arm-none-eabi-gcc/10.3-2021.07/gcc/bin/../lib/gcc/arm-none-eabi/10.3.1/../../../../arm-none-eabi/lib/thumb/v7-m/nofp/libg.a(lib_a-errno.o)
 .ARM.attributes
                0x0000000000000476       0x2d /opt/homebrew/Cellar/arm-none-eabi-gcc/10.3-2021.07/gcc/bin/../lib/gcc/arm-none-eabi/10.3.1/../../../../arm-none-eabi/lib/thumb/v7-m/nofp/libg.a(lib_a-impure.o)
 .ARM.attributes
                0x00000000000004a3       0x2d /opt/homebrew/Cellar/arm-none-eabi-gcc/10.3-2021.07/gcc/bin/../lib/gcc/arm-none-eabi/10.3.1/../../../../arm-none-eabi/lib/thumb/v7-m/nofp/libg.a(lib_a-init.o)
 .ARM.attributes
                0x00000000000004d0       0x2d /opt/homebrew/Cellar/arm-none-eabi-gcc/10.3-2021.07/gcc/bin/../lib/gcc/arm-none-eabi/10.3.1/../../../../arm-none-eabi/lib/thumb/v7-m/nofp/libg.a(lib_a-memset.o)
 .ARM.attributes
                0x00000000000004fd       0x2d /opt/homebrew/Cellar/arm-none-eabi-gcc/10.3-2021.07/gcc/bin/../lib/gcc/arm-none-eabi/10.3.1/../../../../arm-none-eabi/lib/thumb/v7-m/nofp/libg.a(lib_a-printf.o)
 .ARM.attributes
                0x000000000000052a       0x2d /opt/homebrew/Cellar/arm-none-eabi-gcc/10.3-2021.07/gcc/bin/../lib/gcc/arm-none-eabi/10.3.1/../../../../arm-none-eabi/lib/thumb/v7-m/nofp/libg.a(lib_a-putchar.o)
 .ARM.attributes
                0x0000000000000557       0x2d /opt/homebrew/Cellar/arm-none-eabi-gcc/10.3-2021.07/gcc/bin/../lib/gcc/arm-none-eabi/10.3.1/../../../../arm-none-eabi/lib/thumb/v7-m/nofp/libg.a(lib_a-puts.o)
 .ARM.attributes
                0x0000000000000584       0x2d /opt/homebrew/Cellar/arm-none-eabi-gcc/10.3-2021.07/gcc/bin/../lib/gcc/arm-none-eabi/10.3.1/../../../../arm-none-eabi/lib/thumb/v7-m/nofp/libg.a(lib_a-strlen-stub.o)
 .ARM.attributes
                0x00000000000005b1       0x2d /opt/homebrew/Cellar/arm-none-eabi-gcc/10.3-2021.07/gcc/bin/../lib/gcc/arm-none-eabi/10.3.1/../../../../arm-none-eabi/lib/thumb/v7-m/nofp/libg.a(lib_a-vfprintf.o)
 .ARM.attributes
                0x00000000000005de       0x2d /opt/homebrew/Cellar/arm-none-eabi-gcc/10.3-2021.07/gcc/bin/../lib/gcc/arm-none-eabi/10.3.1/../../../../arm-none-eabi/lib/thumb/v7-m/nofp/libg.a(lib_a-wsetup.o)
 .ARM.attributes
                0x000000000000060b       0x2d /opt/homebrew/Cellar/arm-none-eabi-gcc/10.3-2021.07/gcc/bin/../lib/gcc/arm-none-eabi/10.3.1/../../../../arm-none-eabi/lib/thumb/v7-m/nofp/libg.a(lib_a-__call_atexit.o)
 .ARM.attributes
                0x0000000000000638       0x2d /opt/homebrew/Cellar/arm-none-eabi-gcc/10.3-2021.07/gcc/bin/../lib/gcc/arm-none-eabi/10.3.1/../../../../arm-none-eabi/lib/thumb/v7-m/nofp/libg.a(lib_a-atexit.o)
 .ARM.attributes
                0x0000000000000665       0x2d /opt/homebrew/Cellar/arm-none-eabi-gcc/10.3-2021.07/gcc/bin/../lib/gcc/arm-none-eabi/10.3.1/../../../../arm-none-eabi/lib/thumb/v7-m/nofp/libg.a(lib_a-dtoa.o)
 .ARM.attributes
                0x0000000000000692       0x2d /opt/homebrew/Cellar/arm-none-eabi-gcc/10.3-2021.07/gcc/bin/../lib/gcc/arm-none-eabi/10.3.1/../../../../arm-none-eabi/lib/thumb/v7-m/nofp/libg.a(lib_a-fflush.o)
 .ARM.attributes
                0x00000000000006bf       0x2d /opt/homebrew/Cellar/arm-none-eabi-gcc/10.3-2021.07/gcc/bin/../lib/gcc/arm-none-eabi/10.3.1/../../../../arm-none-eabi/lib/thumb/v7-m/nofp/libg.a(lib_a-findfp.o)
 .ARM.attributes
                0x00000000000006ec       0x2d /opt/homebrew/Cellar/arm-none-eabi-gcc/10.3-2021.07/gcc/bin/../lib/gcc/arm-none-eabi/10.3.1/../../../../arm-none-eabi/lib/thumb/v7-m/nofp/libg.a(lib_a-fini.o)
 .ARM.attributes
                0x0000000000000719       0x2d /opt/homebrew/Cellar/arm-none-eabi-gcc/10.3-2021.07/gcc/bin/../lib/gcc/arm-none-eabi/10.3.1/../../../../arm-none-eabi/lib/thumb/v7-m/nofp/libg.a(lib_a-freer.o)
 .ARM.attributes
                0x0000000000000746       0x2d /opt/homebrew/Cellar/arm-none-eabi-gcc/10.3-2021.07/gcc/bin/../lib/gcc/arm-none-eabi/10.3.1/../../../../arm-none-eabi/lib/thumb/v7-m/nofp/libg.a(lib_a-fvwrite.o)
 .ARM.attributes
                0x0000000000000773       0x2d /opt/homebrew/Cellar/arm-none-eabi-gcc/10.3-2021.07/gcc/bin/../lib/gcc/arm-none-eabi/10.3.1/../../../../arm-none-eabi/lib/thumb/v7-m/nofp/libg.a(lib_a-fwalk.o)
 .ARM.attributes
                0x00000000000007a0       0x2d /opt/homebrew/Cellar/arm-none-eabi-gcc/10.3-2021.07/gcc/bin/../lib/gcc/arm-none-eabi/10.3.1/../../../../arm-none-eabi/lib/thumb/v7-m/nofp/libg.a(lib_a-localeconv.o)
 .ARM.attributes
                0x00000000000007cd       0x2d /opt/homebrew/Cellar/arm-none-eabi-gcc/10.3-2021.07/gcc/bin/../lib/gcc/arm-none-eabi/10.3.1/../../../../arm-none-eabi/lib/thumb/v7-m/nofp/libg.a(lib_a-lock.o)
 .ARM.attributes
                0x00000000000007fa       0x2d /opt/homebrew/Cellar/arm-none-eabi-gcc/10.3-2021.07/gcc/bin/../lib/gcc/arm-none-eabi/10.3.1/../../../../arm-none-eabi/lib/thumb/v7-m/nofp/libg.a(lib_a-makebuf.o)
 .ARM.attributes
                0x0000000000000827       0x2d /opt/homebrew/Cellar/arm-none-eabi-gcc/10.3-2021.07/gcc/bin/../lib/gcc/arm-none-eabi/10.3.1/../../../../arm-none-eabi/lib/thumb/v7-m/nofp/libg.a(lib_a-mallocr.o)
 .ARM.attributes
                0x0000000000000854       0x2d /opt/homebrew/Cellar/arm-none-eabi-gcc/10.3-2021.07/gcc/bin/../lib/gcc/arm-none-eabi/10.3.1/../../../../arm-none-eabi/lib/thumb/v7-m/nofp/libg.a(lib_a-memchr-stub.o)
 .ARM.attributes
                0x0000000000000881       0x1b /opt/homebrew/Cellar/arm-none-eabi-gcc/10.3-2021.07/gcc/bin/../lib/gcc/arm-none-eabi/10.3.1/../../../../arm-none-eabi/lib/thumb/v7-m/nofp/libg.a(lib_a-memcpy.o)
 .ARM.attributes
                0x000000000000089c       0x2d /opt/homebrew/Cellar/arm-none-eabi-gcc/10.3-2021.07/gcc/bin/../lib/gcc/arm-none-eabi/10.3.1/../../../../arm-none-eabi/lib/thumb/v7-m/nofp/libg.a(lib_a-memmove.o)
 .ARM.attributes
                0x00000000000008c9       0x2d /opt/homebrew/Cellar/arm-none-eabi-gcc/10.3-2021.07/gcc/bin/../lib/gcc/arm-none-eabi/10.3.1/../../../../arm-none-eabi/lib/thumb/v7-m/nofp/libg.a(lib_a-mlock.o)
 .ARM.attributes
                0x00000000000008f6       0x2d /opt/homebrew/Cellar/arm-none-eabi-gcc/10.3-2021.07/gcc/bin/../lib/gcc/arm-none-eabi/10.3.1/../../../../arm-none-eabi/lib/thumb/v7-m/nofp/libg.a(lib_a-mprec.o)
 .ARM.attributes
                0x0000000000000923       0x2d /opt/homebrew/Cellar/arm-none-eabi-gcc/10.3-2021.07/gcc/bin/../lib/gcc/arm-none-eabi/10.3.1/../../../../arm-none-eabi/lib/thumb/v7-m/nofp/libg.a(lib_a-putc.o)
 .ARM.attributes
                0x0000000000000950       0x2d /opt/homebrew/Cellar/arm-none-eabi-gcc/10.3-2021.07/gcc/bin/../lib/gcc/arm-none-eabi/10.3.1/../../../../arm-none-eabi/lib/thumb/v7-m/nofp/libg.a(lib_a-reallocr.o)
 .ARM.attributes
                0x000000000000097d       0x2d /opt/homebrew/Cellar/arm-none-eabi-gcc/10.3-2021.07/gcc/bin/../lib/gcc/arm-none-eabi/10.3.1/../../../../arm-none-eabi/lib/thumb/v7-m/nofp/libg.a(lib_a-s_frexp.o)
 .ARM.attributes
                0x00000000000009aa       0x2d /opt/homebrew/Cellar/arm-none-eabi-gcc/10.3-2021.07/gcc/bin/../lib/gcc/arm-none-eabi/10.3.1/../../../../arm-none-eabi/lib/thumb/v7-m/nofp/libg.a(lib_a-sbrkr.o)
 .ARM.attributes
                0x00000000000009d7       0x2d /opt/homebrew/Cellar/arm-none-eabi-gcc/10.3-2021.07/gcc/bin/../lib/gcc/arm-none-eabi/10.3.1/../../../../arm-none-eabi/lib/thumb/v7-m/nofp/libg.a(lib_a-stdio.o)
 .ARM.attributes
                0x0000000000000a04       0x2d /opt/homebrew/Cellar/arm-none-eabi-gcc/10.3-2021.07/gcc/bin/../lib/gcc/arm-none-eabi/10.3.1/../../../../arm-none-eabi/lib/thumb/v7-m/nofp/libg.a(lib_a-strncpy.o)
 .ARM.attributes
                0x0000000000000a31       0x2d /opt/homebrew/Cellar/arm-none-eabi-gcc/10.3-2021.07/gcc/bin/../lib/gcc/arm-none-eabi/10.3.1/../../../../arm-none-eabi/lib/thumb/v7-m/nofp/libg.a(lib_a-vfiprintf.o)
 .ARM.attributes
                0x0000000000000a5e       0x2d /opt/homebrew/Cellar/arm-none-eabi-gcc/10.3-2021.07/gcc/bin/../lib/gcc/arm-none-eabi/10.3.1/../../../../arm-none-eabi/lib/thumb/v7-m/nofp/libg.a(lib_a-wbuf.o)
 .ARM.attributes
                0x0000000000000a8b       0x2d /opt/homebrew/Cellar/arm-none-eabi-gcc/10.3-2021.07/gcc/bin/../lib/gcc/arm-none-eabi/10.3.1/../../../../arm-none-eabi/lib/thumb/v7-m/nofp/libg.a(lib_a-writer.o)
 .ARM.attributes
                0x0000000000000ab8       0x2d /opt/homebrew/Cellar/arm-none-eabi-gcc/10.3-2021.07/gcc/bin/../lib/gcc/arm-none-eabi/10.3.1/../../../../arm-none-eabi/lib/thumb/v7-m/nofp/libg.a(lib_a-__atexit.o)
 .ARM.attributes
                0x0000000000000ae5       0x2d /opt/homebrew/Cellar/arm-none-eabi-gcc/10.3-2021.07/gcc/bin/../lib/gcc/arm-none-eabi/10.3.1/../../../../arm-none-eabi/lib/thumb/v7-m/nofp/libg.a(lib_a-assert.o)
 .ARM.attributes
                0x0000000000000b12       0x2d /opt/homebrew/Cellar/arm-none-eabi-gcc/10.3-2021.07/gcc/bin/../lib/gcc/arm-none-eabi/10.3.1/../../../../arm-none-eabi/lib/thumb/v7-m/nofp/libg.a(lib_a-callocr.o)
 .ARM.attributes
                0x0000000000000b3f       0x2d /opt/homebrew/Cellar/arm-none-eabi-gcc/10.3-2021.07/gcc/bin/../lib/gcc/arm-none-eabi/10.3.1/../../../../arm-none-eabi/lib/thumb/v7-m/nofp/libg.a(lib_a-closer.o)
 .ARM.attributes
                0x0000000000000b6c       0x2d /opt/homebrew/Cellar/arm-none-eabi-gcc/10.3-2021.07/gcc/bin/../lib/gcc/arm-none-eabi/10.3.1/../../../../arm-none-eabi/lib/thumb/v7-m/nofp/libg.a(lib_a-fclose.o)
 .ARM.attributes
                0x0000000000000b99       0x2d /opt/homebrew/Cellar/arm-none-eabi-gcc/10.3-2021.07/gcc/bin/../lib/gcc/arm-none-eabi/10.3.1/../../../../arm-none-eabi/lib/thumb/v7-m/nofp/libg.a(lib_a-fiprintf.o)
 .ARM.attributes
                0x0000000000000bc6       0x2d /opt/homebrew/Cellar/arm-none-eabi-gcc/10.3-2021.07/gcc/bin/../lib/gcc/arm-none-eabi/10.3.1/../../../../arm-none-eabi/lib/thumb/v7-m/nofp/libg.a(lib_a-fputwc.o)
 .ARM.attributes
                0x0000000000000bf3       0x2d /opt/homebrew/Cellar/arm-none-eabi-gcc/10.3-2021.07/gcc/bin/../lib/gcc/arm-none-eabi/10.3.1/../../../../arm-none-eabi/lib/thumb/v7-m/nofp/libg.a(lib_a-fstatr.o)
 .ARM.attributes
                0x0000000000000c20       0x2d /opt/homebrew/Cellar/arm-none-eabi-gcc/10.3-2021.07/gcc/bin/../lib/gcc/arm-none-eabi/10.3.1/../../../../arm-none-eabi/lib/thumb/v7-m/nofp/libg.a(lib_a-isattyr.o)
 .ARM.attributes
                0x0000000000000c4d       0x2d /opt/homebrew/Cellar/arm-none-eabi-gcc/10.3-2021.07/gcc/bin/../lib/gcc/arm-none-eabi/10.3.1/../../../../arm-none-eabi/lib/thumb/v7-m/nofp/libg.a(lib_a-locale.o)
 .ARM.attributes
                0x0000000000000c7a       0x2d /opt/homebrew/Cellar/arm-none-eabi-gcc/10.3-2021.07/gcc/bin/../lib/gcc/arm-none-eabi/10.3.1/../../../../arm-none-eabi/lib/thumb/v7-m/nofp/libg.a(lib_a-lseekr.o)
 .ARM.attributes
                0x0000000000000ca7       0x2d /opt/homebrew/Cellar/arm-none-eabi-gcc/10.3-2021.07/gcc/bin/../lib/gcc/arm-none-eabi/10.3.1/../../../../arm-none-eabi/lib/thumb/v7-m/nofp/libg.a(lib_a-mbtowc_r.o)
 .ARM.attributes
                0x0000000000000cd4       0x2d /opt/homebrew/Cellar/arm-none-eabi-gcc/10.3-2021.07/gcc/bin/../lib/gcc/arm-none-eabi/10.3.1/../../../../arm-none-eabi/lib/thumb/v7-m/nofp/libg.a(lib_a-readr.o)
 .ARM.attributes
                0x0000000000000d01       0x2d /opt/homebrew/Cellar/arm-none-eabi-gcc/10.3-2021.07/gcc/bin/../lib/gcc/arm-none-eabi/10.3.1/../../../../arm-none-eabi/lib/thumb/v7-m/nofp/libg.a(lib_a-reent.o)
 .ARM.attributes
                0x0000000000000d2e       0x2d /opt/homebrew/Cellar/arm-none-eabi-gcc/10.3-2021.07/gcc/bin/../lib/gcc/arm-none-eabi/10.3.1/../../../../arm-none-eabi/lib/thumb/v7-m/nofp/libg.a(lib_a-wcrtomb.o)
 .ARM.attributes
                0x0000000000000d5b       0x2d /opt/homebrew/Cellar/arm-none-eabi-gcc/10.3-2021.07/gcc/bin/../lib/gcc/arm-none-eabi/10.3.1/../../../../arm-none-eabi/lib/thumb/v7-m/nofp/libg.a(lib_a-wctomb_r.o)
 .ARM.attributes
                0x0000000000000d88       0x2d /opt/homebrew/Cellar/arm-none-eabi-gcc/10.3-2021.07/gcc/bin/../lib/gcc/arm-none-eabi/10.3.1/../../../../arm-none-eabi/lib/thumb/v7-m/nofp/libg.a(lib_a-abort.o)
 .ARM.attributes
                0x0000000000000db5       0x2d /opt/homebrew/Cellar/arm-none-eabi-gcc/10.3-2021.07/gcc/bin/../lib/gcc/arm-none-eabi/10.3.1/../../../../arm-none-eabi/lib/thumb/v7-m/nofp/libg.a(lib_a-ctype_.o)
 .ARM.attributes
                0x0000000000000de2       0x2d /opt/homebrew/Cellar/arm-none-eabi-gcc/10.3-2021.07/gcc/bin/../lib/gcc/arm-none-eabi/10.3.1/../../../../arm-none-eabi/lib/thumb/v7-m/nofp/libg.a(lib_a-signal.o)
 .ARM.attributes
                0x0000000000000e0f       0x2d /opt/homebrew/Cellar/arm-none-eabi-gcc/10.3-2021.07/gcc/bin/../lib/gcc/arm-none-eabi/10.3.1/../../../../arm-none-eabi/lib/thumb/v7-m/nofp/libg.a(lib_a-signalr.o)
 .ARM.attributes
                0x0000000000000e3c       0x1d /opt/homebrew/Cellar/arm-none-eabi-gcc/10.3-2021.07/gcc/bin/../lib/gcc/arm-none-eabi/10.3.1/thumb/v7-m/nofp/libgcc.a(_arm_addsubdf3.o)
 .ARM.attributes
                0x0000000000000e59       0x1d /opt/homebrew/Cellar/arm-none-eabi-gcc/10.3-2021.07/gcc/bin/../lib/gcc/arm-none-eabi/10.3.1/thumb/v7-m/nofp/libgcc.a(_arm_muldivdf3.o)
 .ARM.attributes
                0x0000000000000e76       0x1d /opt/homebrew/Cellar/arm-none-eabi-gcc/10.3-2021.07/gcc/bin/../lib/gcc/arm-none-eabi/10.3.1/thumb/v7-m/nofp/libgcc.a(_arm_cmpdf2.o)
 .ARM.attributes
                0x0000000000000e93       0x1d /opt/homebrew/Cellar/arm-none-eabi-gcc/10.3-2021.07/gcc/bin/../lib/gcc/arm-none-eabi/10.3.1/thumb/v7-m/nofp/libgcc.a(_arm_unorddf2.o)
 .ARM.attributes
                0x0000000000000eb0       0x1d /opt/homebrew/Cellar/arm-none-eabi-gcc/10.3-2021.07/gcc/bin/../lib/gcc/arm-none-eabi/10.3.1/thumb/v7-m/nofp/libgcc.a(_arm_fixdfsi.o)
 .ARM.attributes
                0x0000000000000ecd       0x1d /opt/homebrew/Cellar/arm-none-eabi-gcc/10.3-2021.07/gcc/bin/../lib/gcc/arm-none-eabi/10.3.1/thumb/v7-m/nofp/libgcc.a(_aeabi_uldivmod.o)
 .ARM.attributes
                0x0000000000000eea       0x2d /opt/homebrew/Cellar/arm-none-eabi-gcc/10.3-2021.07/gcc/bin/../lib/gcc/arm-none-eabi/10.3.1/thumb/v7-m/nofp/libgcc.a(_udivmoddi4.o)
 .ARM.attributes
                0x0000000000000f17       0x1d /opt/homebrew/Cellar/arm-none-eabi-gcc/10.3-2021.07/gcc/bin/../lib/gcc/arm-none-eabi/10.3.1/thumb/v7-m/nofp/libgcc.a(_dvmd_tls.o)
 .ARM.attributes
                0x0000000000000f34       0x1d /opt/homebrew/Cellar/arm-none-eabi-gcc/10.3-2021.07/gcc/bin/../lib/gcc/arm-none-eabi/10.3.1/thumb/v7-m/nofp/crtn.o
OUTPUT(Proj32.elf elf32-littlearm)
LOAD linker stubs
LOAD /opt/homebrew/Cellar/arm-none-eabi-gcc/10.3-2021.07/gcc/bin/../lib/gcc/arm-none-eabi/10.3.1/../../../../arm-none-eabi/lib/thumb/v7-m/nofp/libc.a
LOAD /opt/homebrew/Cellar/arm-none-eabi-gcc/10.3-2021.07/gcc/bin/../lib/gcc/arm-none-eabi/10.3.1/../../../../arm-none-eabi/lib/thumb/v7-m/nofp/libm.a
LOAD /opt/homebrew/Cellar/arm-none-eabi-gcc/10.3-2021.07/gcc/bin/../lib/gcc/arm-none-eabi/10.3.1/thumb/v7-m/nofp/libgcc.a

.debug_info     0x0000000000000000    0x1848f
 .debug_info    0x0000000000000000     0x17d0 CMakeFiles/Proj32.elf.dir/Core/Src/bsp_spi_flash.c.obj
 .debug_info    0x00000000000017d0     0x2c59 CMakeFiles/Proj32.elf.dir/Core/Src/main.c.obj
 .debug_info    0x0000000000004429     0x12f9 CMakeFiles/Proj32.elf.dir/Core/Src/oled.c.obj
 .debug_info    0x0000000000005722     0x1630 CMakeFiles/Proj32.elf.dir/Core/Src/stm32f1xx_hal_msp.c.obj
 .debug_info    0x0000000000006d52      0xaf4 CMakeFiles/Proj32.elf.dir/Core/Src/stm32f1xx_it.c.obj
 .debug_info    0x0000000000007846      0x7af CMakeFiles/Proj32.elf.dir/Core/Src/syscalls.c.obj
 .debug_info    0x0000000000007ff5      0x174 CMakeFiles/Proj32.elf.dir/Core/Src/sysmem.c.obj
 .debug_info    0x0000000000008169      0x248 CMakeFiles/Proj32.elf.dir/Core/Src/system_stm32f1xx.c.obj
 .debug_info    0x00000000000083b1       0x22 CMakeFiles/Proj32.elf.dir/Core/Startup/startup_stm32f103vbtx.s.obj
 .debug_info    0x00000000000083d3      0x7a8 CMakeFiles/Proj32.elf.dir/Drivers/STM32F1xx_HAL_Driver/Src/stm32f1xx_hal.c.obj
 .debug_info    0x0000000000008b7b     0x125e CMakeFiles/Proj32.elf.dir/Drivers/STM32F1xx_HAL_Driver/Src/stm32f1xx_hal_can.c.obj
 .debug_info    0x0000000000009dd9      0xd8a CMakeFiles/Proj32.elf.dir/Drivers/STM32F1xx_HAL_Driver/Src/stm32f1xx_hal_cortex.c.obj
 .debug_info    0x000000000000ab63      0x846 CMakeFiles/Proj32.elf.dir/Drivers/STM32F1xx_HAL_Driver/Src/stm32f1xx_hal_dma.c.obj
 .debug_info    0x000000000000b3a9      0x66f CMakeFiles/Proj32.elf.dir/Drivers/STM32F1xx_HAL_Driver/Src/stm32f1xx_hal_gpio.c.obj
 .debug_info    0x000000000000ba18     0x3a6b CMakeFiles/Proj32.elf.dir/Drivers/STM32F1xx_HAL_Driver/Src/stm32f1xx_hal_i2c.c.obj
 .debug_info    0x000000000000f483      0xa36 CMakeFiles/Proj32.elf.dir/Drivers/STM32F1xx_HAL_Driver/Src/stm32f1xx_hal_rcc.c.obj
 .debug_info    0x000000000000feb9     0x1d70 CMakeFiles/Proj32.elf.dir/Drivers/STM32F1xx_HAL_Driver/Src/stm32f1xx_hal_spi.c.obj
 .debug_info    0x0000000000011c29     0x1c8b CMakeFiles/Proj32.elf.dir/Drivers/STM32F1xx_HAL_Driver/Src/stm32f1xx_hal_uart.c.obj
 .debug_info    0x00000000000138b4      0x4db CMakeFiles/Proj32.elf.dir/FATFS/App/fatfs.c.obj
 .debug_info    0x0000000000013d8f      0x42f CMakeFiles/Proj32.elf.dir/FATFS/Target/user_diskio.c.obj
 .debug_info    0x00000000000141be      0x4af CMakeFiles/Proj32.elf.dir/Middlewares/Third_Party/FatFs/src/diskio.c.obj
 .debug_info    0x000000000001466d     0x3a19 CMakeFiles/Proj32.elf.dir/Middlewares/Third_Party/FatFs/src/ff.c.obj
 .debug_info    0x0000000000018086      0x409 CMakeFiles/Proj32.elf.dir/Middlewares/Third_Party/FatFs/src/ff_gen_drv.c.obj

.debug_abbrev   0x0000000000000000     0x2fb2
 .debug_abbrev  0x0000000000000000      0x2c1 CMakeFiles/Proj32.elf.dir/Core/Src/bsp_spi_flash.c.obj
 .debug_abbrev  0x00000000000002c1      0x3c6 CMakeFiles/Proj32.elf.dir/Core/Src/main.c.obj
 .debug_abbrev  0x0000000000000687      0x2a0 CMakeFiles/Proj32.elf.dir/Core/Src/oled.c.obj
 .debug_abbrev  0x0000000000000927      0x24f CMakeFiles/Proj32.elf.dir/Core/Src/stm32f1xx_hal_msp.c.obj
 .debug_abbrev  0x0000000000000b76      0x217 CMakeFiles/Proj32.elf.dir/Core/Src/stm32f1xx_it.c.obj
 .debug_abbrev  0x0000000000000d8d      0x1a3 CMakeFiles/Proj32.elf.dir/Core/Src/syscalls.c.obj
 .debug_abbrev  0x0000000000000f30       0xe7 CMakeFiles/Proj32.elf.dir/Core/Src/sysmem.c.obj
 .debug_abbrev  0x0000000000001017      0x13e CMakeFiles/Proj32.elf.dir/Core/Src/system_stm32f1xx.c.obj
 .debug_abbrev  0x0000000000001155       0x12 CMakeFiles/Proj32.elf.dir/Core/Startup/startup_stm32f103vbtx.s.obj
 .debug_abbrev  0x0000000000001167      0x1f4 CMakeFiles/Proj32.elf.dir/Drivers/STM32F1xx_HAL_Driver/Src/stm32f1xx_hal.c.obj
 .debug_abbrev  0x000000000000135b      0x256 CMakeFiles/Proj32.elf.dir/Drivers/STM32F1xx_HAL_Driver/Src/stm32f1xx_hal_can.c.obj
 .debug_abbrev  0x00000000000015b1      0x341 CMakeFiles/Proj32.elf.dir/Drivers/STM32F1xx_HAL_Driver/Src/stm32f1xx_hal_cortex.c.obj
 .debug_abbrev  0x00000000000018f2      0x223 CMakeFiles/Proj32.elf.dir/Drivers/STM32F1xx_HAL_Driver/Src/stm32f1xx_hal_dma.c.obj
 .debug_abbrev  0x0000000000001b15      0x1e6 CMakeFiles/Proj32.elf.dir/Drivers/STM32F1xx_HAL_Driver/Src/stm32f1xx_hal_gpio.c.obj
 .debug_abbrev  0x0000000000001cfb      0x293 CMakeFiles/Proj32.elf.dir/Drivers/STM32F1xx_HAL_Driver/Src/stm32f1xx_hal_i2c.c.obj
 .debug_abbrev  0x0000000000001f8e      0x27a CMakeFiles/Proj32.elf.dir/Drivers/STM32F1xx_HAL_Driver/Src/stm32f1xx_hal_rcc.c.obj
 .debug_abbrev  0x0000000000002208      0x23b CMakeFiles/Proj32.elf.dir/Drivers/STM32F1xx_HAL_Driver/Src/stm32f1xx_hal_spi.c.obj
 .debug_abbrev  0x0000000000002443      0x254 CMakeFiles/Proj32.elf.dir/Drivers/STM32F1xx_HAL_Driver/Src/stm32f1xx_hal_uart.c.obj
 .debug_abbrev  0x0000000000002697      0x1ac CMakeFiles/Proj32.elf.dir/FATFS/App/fatfs.c.obj
 .debug_abbrev  0x0000000000002843      0x17a CMakeFiles/Proj32.elf.dir/FATFS/Target/user_diskio.c.obj
 .debug_abbrev  0x00000000000029bd      0x1b7 CMakeFiles/Proj32.elf.dir/Middlewares/Third_Party/FatFs/src/diskio.c.obj
 .debug_abbrev  0x0000000000002b74      0x295 CMakeFiles/Proj32.elf.dir/Middlewares/Third_Party/FatFs/src/ff.c.obj
 .debug_abbrev  0x0000000000002e09      0x1a9 CMakeFiles/Proj32.elf.dir/Middlewares/Third_Party/FatFs/src/ff_gen_drv.c.obj

.debug_loc      0x0000000000000000    0x11d95
 .debug_loc     0x0000000000000000      0xbd4 CMakeFiles/Proj32.elf.dir/Core/Src/bsp_spi_flash.c.obj
 .debug_loc     0x0000000000000bd4      0x2f4 CMakeFiles/Proj32.elf.dir/Core/Src/main.c.obj
 .debug_loc     0x0000000000000ec8      0x9a6 CMakeFiles/Proj32.elf.dir/Core/Src/oled.c.obj
 .debug_loc     0x000000000000186e      0x208 CMakeFiles/Proj32.elf.dir/Core/Src/stm32f1xx_hal_msp.c.obj
 .debug_loc     0x0000000000001a76      0x3c5 CMakeFiles/Proj32.elf.dir/Core/Src/syscalls.c.obj
 .debug_loc     0x0000000000001e3b       0x64 CMakeFiles/Proj32.elf.dir/Core/Src/sysmem.c.obj
 .debug_loc     0x0000000000001e9f       0xff CMakeFiles/Proj32.elf.dir/Core/Src/system_stm32f1xx.c.obj
 .debug_loc     0x0000000000001f9e      0x141 CMakeFiles/Proj32.elf.dir/Drivers/STM32F1xx_HAL_Driver/Src/stm32f1xx_hal.c.obj
 .debug_loc     0x00000000000020df      0xdb6 CMakeFiles/Proj32.elf.dir/Drivers/STM32F1xx_HAL_Driver/Src/stm32f1xx_hal_can.c.obj
 .debug_loc     0x0000000000002e95      0x71f CMakeFiles/Proj32.elf.dir/Drivers/STM32F1xx_HAL_Driver/Src/stm32f1xx_hal_cortex.c.obj
 .debug_loc     0x00000000000035b4      0x7d1 CMakeFiles/Proj32.elf.dir/Drivers/STM32F1xx_HAL_Driver/Src/stm32f1xx_hal_dma.c.obj
 .debug_loc     0x0000000000003d85      0x47d CMakeFiles/Proj32.elf.dir/Drivers/STM32F1xx_HAL_Driver/Src/stm32f1xx_hal_gpio.c.obj
 .debug_loc     0x0000000000004202     0x41a9 CMakeFiles/Proj32.elf.dir/Drivers/STM32F1xx_HAL_Driver/Src/stm32f1xx_hal_i2c.c.obj
 .debug_loc     0x00000000000083ab      0x63e CMakeFiles/Proj32.elf.dir/Drivers/STM32F1xx_HAL_Driver/Src/stm32f1xx_hal_rcc.c.obj
 .debug_loc     0x00000000000089e9     0x1d4e CMakeFiles/Proj32.elf.dir/Drivers/STM32F1xx_HAL_Driver/Src/stm32f1xx_hal_spi.c.obj
 .debug_loc     0x000000000000a737     0x2037 CMakeFiles/Proj32.elf.dir/Drivers/STM32F1xx_HAL_Driver/Src/stm32f1xx_hal_uart.c.obj
 .debug_loc     0x000000000000c76e      0x2f2 CMakeFiles/Proj32.elf.dir/FATFS/Target/user_diskio.c.obj
 .debug_loc     0x000000000000ca60      0x283 CMakeFiles/Proj32.elf.dir/Middlewares/Third_Party/FatFs/src/diskio.c.obj
 .debug_loc     0x000000000000cce3     0x4e0d CMakeFiles/Proj32.elf.dir/Middlewares/Third_Party/FatFs/src/ff.c.obj
 .debug_loc     0x0000000000011af0      0x2a5 CMakeFiles/Proj32.elf.dir/Middlewares/Third_Party/FatFs/src/ff_gen_drv.c.obj

.debug_aranges  0x0000000000000000     0x1140
 .debug_aranges
                0x0000000000000000       0xc8 CMakeFiles/Proj32.elf.dir/Core/Src/bsp_spi_flash.c.obj
 .debug_aranges
                0x00000000000000c8       0xa0 CMakeFiles/Proj32.elf.dir/Core/Src/main.c.obj
 .debug_aranges
                0x0000000000000168       0x90 CMakeFiles/Proj32.elf.dir/Core/Src/oled.c.obj
 .debug_aranges
                0x00000000000001f8       0x60 CMakeFiles/Proj32.elf.dir/Core/Src/stm32f1xx_hal_msp.c.obj
 .debug_aranges
                0x0000000000000258       0x78 CMakeFiles/Proj32.elf.dir/Core/Src/stm32f1xx_it.c.obj
 .debug_aranges
                0x00000000000002d0       0xa8 CMakeFiles/Proj32.elf.dir/Core/Src/syscalls.c.obj
 .debug_aranges
                0x0000000000000378       0x20 CMakeFiles/Proj32.elf.dir/Core/Src/sysmem.c.obj
 .debug_aranges
                0x0000000000000398       0x28 CMakeFiles/Proj32.elf.dir/Core/Src/system_stm32f1xx.c.obj
 .debug_aranges
                0x00000000000003c0       0x28 CMakeFiles/Proj32.elf.dir/Core/Startup/startup_stm32f103vbtx.s.obj
 .debug_aranges
                0x00000000000003e8       0xe0 CMakeFiles/Proj32.elf.dir/Drivers/STM32F1xx_HAL_Driver/Src/stm32f1xx_hal.c.obj
 .debug_aranges
                0x00000000000004c8      0x138 CMakeFiles/Proj32.elf.dir/Drivers/STM32F1xx_HAL_Driver/Src/stm32f1xx_hal_can.c.obj
 .debug_aranges
                0x0000000000000600       0x90 CMakeFiles/Proj32.elf.dir/Drivers/STM32F1xx_HAL_Driver/Src/stm32f1xx_hal_cortex.c.obj
 .debug_aranges
                0x0000000000000690       0x80 CMakeFiles/Proj32.elf.dir/Drivers/STM32F1xx_HAL_Driver/Src/stm32f1xx_hal_dma.c.obj
 .debug_aranges
                0x0000000000000710       0x58 CMakeFiles/Proj32.elf.dir/Drivers/STM32F1xx_HAL_Driver/Src/stm32f1xx_hal_gpio.c.obj
 .debug_aranges
                0x0000000000000768      0x2a0 CMakeFiles/Proj32.elf.dir/Drivers/STM32F1xx_HAL_Driver/Src/stm32f1xx_hal_i2c.c.obj
 .debug_aranges
                0x0000000000000a08       0x90 CMakeFiles/Proj32.elf.dir/Drivers/STM32F1xx_HAL_Driver/Src/stm32f1xx_hal_rcc.c.obj
 .debug_aranges
                0x0000000000000a98      0x1d0 CMakeFiles/Proj32.elf.dir/Drivers/STM32F1xx_HAL_Driver/Src/stm32f1xx_hal_spi.c.obj
 .debug_aranges
                0x0000000000000c68      0x200 CMakeFiles/Proj32.elf.dir/Drivers/STM32F1xx_HAL_Driver/Src/stm32f1xx_hal_uart.c.obj
 .debug_aranges
                0x0000000000000e68       0x28 CMakeFiles/Proj32.elf.dir/FATFS/App/fatfs.c.obj
 .debug_aranges
                0x0000000000000e90       0x40 CMakeFiles/Proj32.elf.dir/FATFS/Target/user_diskio.c.obj
 .debug_aranges
                0x0000000000000ed0       0x48 CMakeFiles/Proj32.elf.dir/Middlewares/Third_Party/FatFs/src/diskio.c.obj
 .debug_aranges
                0x0000000000000f18      0x1e8 CMakeFiles/Proj32.elf.dir/Middlewares/Third_Party/FatFs/src/ff.c.obj
 .debug_aranges
                0x0000000000001100       0x40 CMakeFiles/Proj32.elf.dir/Middlewares/Third_Party/FatFs/src/ff_gen_drv.c.obj

.debug_ranges   0x0000000000000000     0x10b8
 .debug_ranges  0x0000000000000000       0xb8 CMakeFiles/Proj32.elf.dir/Core/Src/bsp_spi_flash.c.obj
 .debug_ranges  0x00000000000000b8       0xd8 CMakeFiles/Proj32.elf.dir/Core/Src/main.c.obj
 .debug_ranges  0x0000000000000190       0x80 CMakeFiles/Proj32.elf.dir/Core/Src/oled.c.obj
 .debug_ranges  0x0000000000000210       0x50 CMakeFiles/Proj32.elf.dir/Core/Src/stm32f1xx_hal_msp.c.obj
 .debug_ranges  0x0000000000000260       0x68 CMakeFiles/Proj32.elf.dir/Core/Src/stm32f1xx_it.c.obj
 .debug_ranges  0x00000000000002c8       0x98 CMakeFiles/Proj32.elf.dir/Core/Src/syscalls.c.obj
 .debug_ranges  0x0000000000000360       0x10 CMakeFiles/Proj32.elf.dir/Core/Src/sysmem.c.obj
 .debug_ranges  0x0000000000000370       0x18 CMakeFiles/Proj32.elf.dir/Core/Src/system_stm32f1xx.c.obj
 .debug_ranges  0x0000000000000388       0x20 CMakeFiles/Proj32.elf.dir/Core/Startup/startup_stm32f103vbtx.s.obj
 .debug_ranges  0x00000000000003a8       0xd0 CMakeFiles/Proj32.elf.dir/Drivers/STM32F1xx_HAL_Driver/Src/stm32f1xx_hal.c.obj
 .debug_ranges  0x0000000000000478      0x128 CMakeFiles/Proj32.elf.dir/Drivers/STM32F1xx_HAL_Driver/Src/stm32f1xx_hal_can.c.obj
 .debug_ranges  0x00000000000005a0       0xe0 CMakeFiles/Proj32.elf.dir/Drivers/STM32F1xx_HAL_Driver/Src/stm32f1xx_hal_cortex.c.obj
 .debug_ranges  0x0000000000000680       0x70 CMakeFiles/Proj32.elf.dir/Drivers/STM32F1xx_HAL_Driver/Src/stm32f1xx_hal_dma.c.obj
 .debug_ranges  0x00000000000006f0       0x48 CMakeFiles/Proj32.elf.dir/Drivers/STM32F1xx_HAL_Driver/Src/stm32f1xx_hal_gpio.c.obj
 .debug_ranges  0x0000000000000738      0x2a8 CMakeFiles/Proj32.elf.dir/Drivers/STM32F1xx_HAL_Driver/Src/stm32f1xx_hal_i2c.c.obj
 .debug_ranges  0x00000000000009e0       0xa0 CMakeFiles/Proj32.elf.dir/Drivers/STM32F1xx_HAL_Driver/Src/stm32f1xx_hal_rcc.c.obj
 .debug_ranges  0x0000000000000a80      0x1c0 CMakeFiles/Proj32.elf.dir/Drivers/STM32F1xx_HAL_Driver/Src/stm32f1xx_hal_spi.c.obj
 .debug_ranges  0x0000000000000c40      0x1f0 CMakeFiles/Proj32.elf.dir/Drivers/STM32F1xx_HAL_Driver/Src/stm32f1xx_hal_uart.c.obj
 .debug_ranges  0x0000000000000e30       0x18 CMakeFiles/Proj32.elf.dir/FATFS/App/fatfs.c.obj
 .debug_ranges  0x0000000000000e48       0x30 CMakeFiles/Proj32.elf.dir/FATFS/Target/user_diskio.c.obj
 .debug_ranges  0x0000000000000e78       0x38 CMakeFiles/Proj32.elf.dir/Middlewares/Third_Party/FatFs/src/diskio.c.obj
 .debug_ranges  0x0000000000000eb0      0x1d8 CMakeFiles/Proj32.elf.dir/Middlewares/Third_Party/FatFs/src/ff.c.obj
 .debug_ranges  0x0000000000001088       0x30 CMakeFiles/Proj32.elf.dir/Middlewares/Third_Party/FatFs/src/ff_gen_drv.c.obj

.debug_line     0x0000000000000000    0x155f9
 .debug_line    0x0000000000000000      0x983 CMakeFiles/Proj32.elf.dir/Core/Src/bsp_spi_flash.c.obj
 .debug_line    0x0000000000000983      0xde8 CMakeFiles/Proj32.elf.dir/Core/Src/main.c.obj
 .debug_line    0x000000000000176b      0x921 CMakeFiles/Proj32.elf.dir/Core/Src/oled.c.obj
 .debug_line    0x000000000000208c      0x576 CMakeFiles/Proj32.elf.dir/Core/Src/stm32f1xx_hal_msp.c.obj
 .debug_line    0x0000000000002602      0x48c CMakeFiles/Proj32.elf.dir/Core/Src/stm32f1xx_it.c.obj
 .debug_line    0x0000000000002a8e      0x42f CMakeFiles/Proj32.elf.dir/Core/Src/syscalls.c.obj
 .debug_line    0x0000000000002ebd      0x209 CMakeFiles/Proj32.elf.dir/Core/Src/sysmem.c.obj
 .debug_line    0x00000000000030c6      0x2a4 CMakeFiles/Proj32.elf.dir/Core/Src/system_stm32f1xx.c.obj
 .debug_line    0x000000000000336a       0xbc CMakeFiles/Proj32.elf.dir/Core/Startup/startup_stm32f103vbtx.s.obj
 .debug_line    0x0000000000003426      0x5fc CMakeFiles/Proj32.elf.dir/Drivers/STM32F1xx_HAL_Driver/Src/stm32f1xx_hal.c.obj
 .debug_line    0x0000000000003a22     0x11c5 CMakeFiles/Proj32.elf.dir/Drivers/STM32F1xx_HAL_Driver/Src/stm32f1xx_hal_can.c.obj
 .debug_line    0x0000000000004be7      0x6cf CMakeFiles/Proj32.elf.dir/Drivers/STM32F1xx_HAL_Driver/Src/stm32f1xx_hal_cortex.c.obj
 .debug_line    0x00000000000052b6      0xae9 CMakeFiles/Proj32.elf.dir/Drivers/STM32F1xx_HAL_Driver/Src/stm32f1xx_hal_dma.c.obj
 .debug_line    0x0000000000005d9f      0x679 CMakeFiles/Proj32.elf.dir/Drivers/STM32F1xx_HAL_Driver/Src/stm32f1xx_hal_gpio.c.obj
 .debug_line    0x0000000000006418     0x55e8 CMakeFiles/Proj32.elf.dir/Drivers/STM32F1xx_HAL_Driver/Src/stm32f1xx_hal_i2c.c.obj
 .debug_line    0x000000000000ba00      0xcc2 CMakeFiles/Proj32.elf.dir/Drivers/STM32F1xx_HAL_Driver/Src/stm32f1xx_hal_rcc.c.obj
 .debug_line    0x000000000000c6c2     0x2500 CMakeFiles/Proj32.elf.dir/Drivers/STM32F1xx_HAL_Driver/Src/stm32f1xx_hal_spi.c.obj
 .debug_line    0x000000000000ebc2     0x2151 CMakeFiles/Proj32.elf.dir/Drivers/STM32F1xx_HAL_Driver/Src/stm32f1xx_hal_uart.c.obj
 .debug_line    0x0000000000010d13      0x255 CMakeFiles/Proj32.elf.dir/FATFS/App/fatfs.c.obj
 .debug_line    0x0000000000010f68      0x368 CMakeFiles/Proj32.elf.dir/FATFS/Target/user_diskio.c.obj
 .debug_line    0x00000000000112d0      0x281 CMakeFiles/Proj32.elf.dir/Middlewares/Third_Party/FatFs/src/diskio.c.obj
 .debug_line    0x0000000000011551     0x3de5 CMakeFiles/Proj32.elf.dir/Middlewares/Third_Party/FatFs/src/ff.c.obj
 .debug_line    0x0000000000015336      0x2c3 CMakeFiles/Proj32.elf.dir/Middlewares/Third_Party/FatFs/src/ff_gen_drv.c.obj

.debug_str      0x0000000000000000     0x4bbf
 .debug_str     0x0000000000000000      0x846 CMakeFiles/Proj32.elf.dir/Core/Src/bsp_spi_flash.c.obj
                                        0x91c (size before relaxing)
 .debug_str     0x0000000000000846     0x11ab CMakeFiles/Proj32.elf.dir/Core/Src/main.c.obj
                                       0x18bc (size before relaxing)
 .debug_str     0x00000000000019f1       0xdf CMakeFiles/Proj32.elf.dir/Core/Src/oled.c.obj
                                        0x7b2 (size before relaxing)
 .debug_str     0x0000000000001ad0      0x143 CMakeFiles/Proj32.elf.dir/Core/Src/stm32f1xx_hal_msp.c.obj
                                       0x10cc (size before relaxing)
 .debug_str     0x0000000000001c13      0x17f CMakeFiles/Proj32.elf.dir/Core/Src/stm32f1xx_it.c.obj
                                        0x9af (size before relaxing)
 .debug_str     0x0000000000001d92      0x207 CMakeFiles/Proj32.elf.dir/Core/Src/syscalls.c.obj
                                        0x454 (size before relaxing)
 .debug_str     0x0000000000001f99       0xaa CMakeFiles/Proj32.elf.dir/Core/Src/sysmem.c.obj
                                        0x280 (size before relaxing)
 .debug_str     0x0000000000002043       0xb3 CMakeFiles/Proj32.elf.dir/Core/Src/system_stm32f1xx.c.obj
                                        0x2bc (size before relaxing)
 .debug_str     0x00000000000020f6       0x6b CMakeFiles/Proj32.elf.dir/Core/Startup/startup_stm32f103vbtx.s.obj
                                         0xb5 (size before relaxing)
 .debug_str     0x0000000000002161      0x318 CMakeFiles/Proj32.elf.dir/Drivers/STM32F1xx_HAL_Driver/Src/stm32f1xx_hal.c.obj
                                        0x88c (size before relaxing)
 .debug_str     0x0000000000002479      0x3ea CMakeFiles/Proj32.elf.dir/Drivers/STM32F1xx_HAL_Driver/Src/stm32f1xx_hal_can.c.obj
                                        0xaa6 (size before relaxing)
 .debug_str     0x0000000000002863      0x3ab CMakeFiles/Proj32.elf.dir/Drivers/STM32F1xx_HAL_Driver/Src/stm32f1xx_hal_cortex.c.obj
                                        0x93b (size before relaxing)
 .debug_str     0x0000000000002c0e      0x26a CMakeFiles/Proj32.elf.dir/Drivers/STM32F1xx_HAL_Driver/Src/stm32f1xx_hal_dma.c.obj
                                        0x665 (size before relaxing)
 .debug_str     0x0000000000002e78       0xfe CMakeFiles/Proj32.elf.dir/Drivers/STM32F1xx_HAL_Driver/Src/stm32f1xx_hal_gpio.c.obj
                                        0x468 (size before relaxing)
 .debug_str     0x0000000000002f76      0x8be CMakeFiles/Proj32.elf.dir/Drivers/STM32F1xx_HAL_Driver/Src/stm32f1xx_hal_i2c.c.obj
                                       0x1020 (size before relaxing)
 .debug_str     0x0000000000003834      0x1fa CMakeFiles/Proj32.elf.dir/Drivers/STM32F1xx_HAL_Driver/Src/stm32f1xx_hal_rcc.c.obj
                                        0x693 (size before relaxing)
 .debug_str     0x0000000000003a2e      0x51b CMakeFiles/Proj32.elf.dir/Drivers/STM32F1xx_HAL_Driver/Src/stm32f1xx_hal_spi.c.obj
                                        0xbcf (size before relaxing)
 .debug_str     0x0000000000003f49      0x5d4 CMakeFiles/Proj32.elf.dir/Drivers/STM32F1xx_HAL_Driver/Src/stm32f1xx_hal_uart.c.obj
                                        0xcf6 (size before relaxing)
 .debug_str     0x000000000000451d      0x126 CMakeFiles/Proj32.elf.dir/FATFS/App/fatfs.c.obj
                                        0x3bb (size before relaxing)
 .debug_str     0x0000000000004643       0xa0 CMakeFiles/Proj32.elf.dir/FATFS/Target/user_diskio.c.obj
                                        0x34c (size before relaxing)
 .debug_str     0x00000000000046e3       0x87 CMakeFiles/Proj32.elf.dir/Middlewares/Third_Party/FatFs/src/diskio.c.obj
                                        0x303 (size before relaxing)
 .debug_str     0x000000000000476a      0x38f CMakeFiles/Proj32.elf.dir/Middlewares/Third_Party/FatFs/src/ff.c.obj
                                        0x81f (size before relaxing)
 .debug_str     0x0000000000004af9       0xc6 CMakeFiles/Proj32.elf.dir/Middlewares/Third_Party/FatFs/src/ff_gen_drv.c.obj
                                        0x354 (size before relaxing)

.comment        0x0000000000000000       0x49
 .comment       0x0000000000000000       0x49 CMakeFiles/Proj32.elf.dir/Core/Src/bsp_spi_flash.c.obj
                                         0x4a (size before relaxing)
 .comment       0x0000000000000049       0x4a CMakeFiles/Proj32.elf.dir/Core/Src/main.c.obj
 .comment       0x0000000000000049       0x4a CMakeFiles/Proj32.elf.dir/Core/Src/oled.c.obj
 .comment       0x0000000000000049       0x4a CMakeFiles/Proj32.elf.dir/Core/Src/stm32f1xx_hal_msp.c.obj
 .comment       0x0000000000000049       0x4a CMakeFiles/Proj32.elf.dir/Core/Src/stm32f1xx_it.c.obj
 .comment       0x0000000000000049       0x4a CMakeFiles/Proj32.elf.dir/Core/Src/syscalls.c.obj
 .comment       0x0000000000000049       0x4a CMakeFiles/Proj32.elf.dir/Core/Src/sysmem.c.obj
 .comment       0x0000000000000049       0x4a CMakeFiles/Proj32.elf.dir/Core/Src/system_stm32f1xx.c.obj
 .comment       0x0000000000000049       0x4a CMakeFiles/Proj32.elf.dir/Drivers/STM32F1xx_HAL_Driver/Src/stm32f1xx_hal.c.obj
 .comment       0x0000000000000049       0x4a CMakeFiles/Proj32.elf.dir/Drivers/STM32F1xx_HAL_Driver/Src/stm32f1xx_hal_can.c.obj
 .comment       0x0000000000000049       0x4a CMakeFiles/Proj32.elf.dir/Drivers/STM32F1xx_HAL_Driver/Src/stm32f1xx_hal_cortex.c.obj
 .comment       0x0000000000000049       0x4a CMakeFiles/Proj32.elf.dir/Drivers/STM32F1xx_HAL_Driver/Src/stm32f1xx_hal_dma.c.obj
 .comment       0x0000000000000049       0x4a CMakeFiles/Proj32.elf.dir/Drivers/STM32F1xx_HAL_Driver/Src/stm32f1xx_hal_gpio.c.obj
 .comment       0x0000000000000049       0x4a CMakeFiles/Proj32.elf.dir/Drivers/STM32F1xx_HAL_Driver/Src/stm32f1xx_hal_i2c.c.obj
 .comment       0x0000000000000049       0x4a CMakeFiles/Proj32.elf.dir/Drivers/STM32F1xx_HAL_Driver/Src/stm32f1xx_hal_rcc.c.obj
 .comment       0x0000000000000049       0x4a CMakeFiles/Proj32.elf.dir/Drivers/STM32F1xx_HAL_Driver/Src/stm32f1xx_hal_spi.c.obj
 .comment       0x0000000000000049       0x4a CMakeFiles/Proj32.elf.dir/Drivers/STM32F1xx_HAL_Driver/Src/stm32f1xx_hal_uart.c.obj
 .comment       0x0000000000000049       0x4a CMakeFiles/Proj32.elf.dir/FATFS/App/fatfs.c.obj
 .comment       0x0000000000000049       0x4a CMakeFiles/Proj32.elf.dir/FATFS/Target/user_diskio.c.obj
 .comment       0x0000000000000049       0x4a CMakeFiles/Proj32.elf.dir/Middlewares/Third_Party/FatFs/src/diskio.c.obj
 .comment       0x0000000000000049       0x4a CMakeFiles/Proj32.elf.dir/Middlewares/Third_Party/FatFs/src/ff.c.obj
 .comment       0x0000000000000049       0x4a CMakeFiles/Proj32.elf.dir/Middlewares/Third_Party/FatFs/src/ff_gen_drv.c.obj

.debug_frame    0x0000000000000000     0x47e0
 .debug_frame   0x0000000000000000      0x264 CMakeFiles/Proj32.elf.dir/Core/Src/bsp_spi_flash.c.obj
 .debug_frame   0x0000000000000264      0x200 CMakeFiles/Proj32.elf.dir/Core/Src/main.c.obj
 .debug_frame   0x0000000000000464      0x1c4 CMakeFiles/Proj32.elf.dir/Core/Src/oled.c.obj
 .debug_frame   0x0000000000000628      0x10c CMakeFiles/Proj32.elf.dir/Core/Src/stm32f1xx_hal_msp.c.obj
 .debug_frame   0x0000000000000734       0xf8 CMakeFiles/Proj32.elf.dir/Core/Src/stm32f1xx_it.c.obj
 .debug_frame   0x000000000000082c      0x190 CMakeFiles/Proj32.elf.dir/Core/Src/syscalls.c.obj
 .debug_frame   0x00000000000009bc       0x28 CMakeFiles/Proj32.elf.dir/Core/Src/sysmem.c.obj
 .debug_frame   0x00000000000009e4       0x30 CMakeFiles/Proj32.elf.dir/Core/Src/system_stm32f1xx.c.obj
 .debug_frame   0x0000000000000a14      0x1cc CMakeFiles/Proj32.elf.dir/Drivers/STM32F1xx_HAL_Driver/Src/stm32f1xx_hal.c.obj
 .debug_frame   0x0000000000000be0      0x2d0 CMakeFiles/Proj32.elf.dir/Drivers/STM32F1xx_HAL_Driver/Src/stm32f1xx_hal_can.c.obj
 .debug_frame   0x0000000000000eb0      0x118 CMakeFiles/Proj32.elf.dir/Drivers/STM32F1xx_HAL_Driver/Src/stm32f1xx_hal_cortex.c.obj
 .debug_frame   0x0000000000000fc8      0x144 CMakeFiles/Proj32.elf.dir/Drivers/STM32F1xx_HAL_Driver/Src/stm32f1xx_hal_dma.c.obj
 .debug_frame   0x000000000000110c       0xe4 CMakeFiles/Proj32.elf.dir/Drivers/STM32F1xx_HAL_Driver/Src/stm32f1xx_hal_gpio.c.obj
 .debug_frame   0x00000000000011f0      0x970 CMakeFiles/Proj32.elf.dir/Drivers/STM32F1xx_HAL_Driver/Src/stm32f1xx_hal_i2c.c.obj
 .debug_frame   0x0000000000001b60      0x190 CMakeFiles/Proj32.elf.dir/Drivers/STM32F1xx_HAL_Driver/Src/stm32f1xx_hal_rcc.c.obj
 .debug_frame   0x0000000000001cf0      0x5a4 CMakeFiles/Proj32.elf.dir/Drivers/STM32F1xx_HAL_Driver/Src/stm32f1xx_hal_spi.c.obj
 .debug_frame   0x0000000000002294      0x5c4 CMakeFiles/Proj32.elf.dir/Drivers/STM32F1xx_HAL_Driver/Src/stm32f1xx_hal_uart.c.obj
 .debug_frame   0x0000000000002858       0x38 CMakeFiles/Proj32.elf.dir/FATFS/App/fatfs.c.obj
 .debug_frame   0x0000000000002890       0x78 CMakeFiles/Proj32.elf.dir/FATFS/Target/user_diskio.c.obj
 .debug_frame   0x0000000000002908       0xa0 CMakeFiles/Proj32.elf.dir/Middlewares/Third_Party/FatFs/src/diskio.c.obj
 .debug_frame   0x00000000000029a8      0x768 CMakeFiles/Proj32.elf.dir/Middlewares/Third_Party/FatFs/src/ff.c.obj
 .debug_frame   0x0000000000003110       0x7c CMakeFiles/Proj32.elf.dir/Middlewares/Third_Party/FatFs/src/ff_gen_drv.c.obj
 .debug_frame   0x000000000000318c       0x20 /opt/homebrew/Cellar/arm-none-eabi-gcc/10.3-2021.07/gcc/bin/../lib/gcc/arm-none-eabi/10.3.1/../../../../arm-none-eabi/lib/thumb/v7-m/nofp/libg.a(lib_a-errno.o)
 .debug_frame   0x00000000000031ac       0x2c /opt/homebrew/Cellar/arm-none-eabi-gcc/10.3-2021.07/gcc/bin/../lib/gcc/arm-none-eabi/10.3.1/../../../../arm-none-eabi/lib/thumb/v7-m/nofp/libg.a(lib_a-init.o)
 .debug_frame   0x00000000000031d8       0x2c /opt/homebrew/Cellar/arm-none-eabi-gcc/10.3-2021.07/gcc/bin/../lib/gcc/arm-none-eabi/10.3.1/../../../../arm-none-eabi/lib/thumb/v7-m/nofp/libg.a(lib_a-memset.o)
 .debug_frame   0x0000000000003204       0x74 /opt/homebrew/Cellar/arm-none-eabi-gcc/10.3-2021.07/gcc/bin/../lib/gcc/arm-none-eabi/10.3.1/../../../../arm-none-eabi/lib/thumb/v7-m/nofp/libg.a(lib_a-printf.o)
 .debug_frame   0x0000000000003278       0x30 /opt/homebrew/Cellar/arm-none-eabi-gcc/10.3-2021.07/gcc/bin/../lib/gcc/arm-none-eabi/10.3.1/../../../../arm-none-eabi/lib/thumb/v7-m/nofp/libg.a(lib_a-putchar.o)
 .debug_frame   0x00000000000032a8       0x48 /opt/homebrew/Cellar/arm-none-eabi-gcc/10.3-2021.07/gcc/bin/../lib/gcc/arm-none-eabi/10.3.1/../../../../arm-none-eabi/lib/thumb/v7-m/nofp/libg.a(lib_a-puts.o)
 .debug_frame   0x00000000000032f0       0x20 /opt/homebrew/Cellar/arm-none-eabi-gcc/10.3-2021.07/gcc/bin/../lib/gcc/arm-none-eabi/10.3.1/../../../../arm-none-eabi/lib/thumb/v7-m/nofp/libg.a(lib_a-strlen-stub.o)
 .debug_frame   0x0000000000003310       0x94 /opt/homebrew/Cellar/arm-none-eabi-gcc/10.3-2021.07/gcc/bin/../lib/gcc/arm-none-eabi/10.3.1/../../../../arm-none-eabi/lib/thumb/v7-m/nofp/libg.a(lib_a-vfprintf.o)
 .debug_frame   0x00000000000033a4       0x2c /opt/homebrew/Cellar/arm-none-eabi-gcc/10.3-2021.07/gcc/bin/../lib/gcc/arm-none-eabi/10.3.1/../../../../arm-none-eabi/lib/thumb/v7-m/nofp/libg.a(lib_a-wsetup.o)
 .debug_frame   0x00000000000033d0       0x5c /opt/homebrew/Cellar/arm-none-eabi-gcc/10.3-2021.07/gcc/bin/../lib/gcc/arm-none-eabi/10.3.1/../../../../arm-none-eabi/lib/thumb/v7-m/nofp/libg.a(lib_a-__call_atexit.o)
 .debug_frame   0x000000000000342c       0x20 /opt/homebrew/Cellar/arm-none-eabi-gcc/10.3-2021.07/gcc/bin/../lib/gcc/arm-none-eabi/10.3.1/../../../../arm-none-eabi/lib/thumb/v7-m/nofp/libg.a(lib_a-atexit.o)
 .debug_frame   0x000000000000344c       0x8c /opt/homebrew/Cellar/arm-none-eabi-gcc/10.3-2021.07/gcc/bin/../lib/gcc/arm-none-eabi/10.3.1/../../../../arm-none-eabi/lib/thumb/v7-m/nofp/libg.a(lib_a-dtoa.o)
 .debug_frame   0x00000000000034d8       0x70 /opt/homebrew/Cellar/arm-none-eabi-gcc/10.3-2021.07/gcc/bin/../lib/gcc/arm-none-eabi/10.3.1/../../../../arm-none-eabi/lib/thumb/v7-m/nofp/libg.a(lib_a-fflush.o)
 .debug_frame   0x0000000000003548      0x154 /opt/homebrew/Cellar/arm-none-eabi-gcc/10.3-2021.07/gcc/bin/../lib/gcc/arm-none-eabi/10.3.1/../../../../arm-none-eabi/lib/thumb/v7-m/nofp/libg.a(lib_a-findfp.o)
 .debug_frame   0x000000000000369c       0x34 /opt/homebrew/Cellar/arm-none-eabi-gcc/10.3-2021.07/gcc/bin/../lib/gcc/arm-none-eabi/10.3.1/../../../../arm-none-eabi/lib/thumb/v7-m/nofp/libg.a(lib_a-fini.o)
 .debug_frame   0x00000000000036d0       0x8c /opt/homebrew/Cellar/arm-none-eabi-gcc/10.3-2021.07/gcc/bin/../lib/gcc/arm-none-eabi/10.3.1/../../../../arm-none-eabi/lib/thumb/v7-m/nofp/libg.a(lib_a-freer.o)
 .debug_frame   0x000000000000375c       0x64 /opt/homebrew/Cellar/arm-none-eabi-gcc/10.3-2021.07/gcc/bin/../lib/gcc/arm-none-eabi/10.3.1/../../../../arm-none-eabi/lib/thumb/v7-m/nofp/libg.a(lib_a-fvwrite.o)
 .debug_frame   0x00000000000037c0       0x54 /opt/homebrew/Cellar/arm-none-eabi-gcc/10.3-2021.07/gcc/bin/../lib/gcc/arm-none-eabi/10.3.1/../../../../arm-none-eabi/lib/thumb/v7-m/nofp/libg.a(lib_a-fwalk.o)
 .debug_frame   0x0000000000003814       0x40 /opt/homebrew/Cellar/arm-none-eabi-gcc/10.3-2021.07/gcc/bin/../lib/gcc/arm-none-eabi/10.3.1/../../../../arm-none-eabi/lib/thumb/v7-m/nofp/libg.a(lib_a-localeconv.o)
 .debug_frame   0x0000000000003854       0xb0 /opt/homebrew/Cellar/arm-none-eabi-gcc/10.3-2021.07/gcc/bin/../lib/gcc/arm-none-eabi/10.3.1/../../../../arm-none-eabi/lib/thumb/v7-m/nofp/libg.a(lib_a-lock.o)
 .debug_frame   0x0000000000003904       0x70 /opt/homebrew/Cellar/arm-none-eabi-gcc/10.3-2021.07/gcc/bin/../lib/gcc/arm-none-eabi/10.3.1/../../../../arm-none-eabi/lib/thumb/v7-m/nofp/libg.a(lib_a-makebuf.o)
 .debug_frame   0x0000000000003974       0x4c /opt/homebrew/Cellar/arm-none-eabi-gcc/10.3-2021.07/gcc/bin/../lib/gcc/arm-none-eabi/10.3.1/../../../../arm-none-eabi/lib/thumb/v7-m/nofp/libg.a(lib_a-mallocr.o)
 .debug_frame   0x00000000000039c0       0x28 /opt/homebrew/Cellar/arm-none-eabi-gcc/10.3-2021.07/gcc/bin/../lib/gcc/arm-none-eabi/10.3.1/../../../../arm-none-eabi/lib/thumb/v7-m/nofp/libg.a(lib_a-memchr-stub.o)
 .debug_frame   0x00000000000039e8       0x40 /opt/homebrew/Cellar/arm-none-eabi-gcc/10.3-2021.07/gcc/bin/../lib/gcc/arm-none-eabi/10.3.1/../../../../arm-none-eabi/lib/thumb/v7-m/nofp/libg.a(lib_a-memmove.o)
 .debug_frame   0x0000000000003a28       0x30 /opt/homebrew/Cellar/arm-none-eabi-gcc/10.3-2021.07/gcc/bin/../lib/gcc/arm-none-eabi/10.3.1/../../../../arm-none-eabi/lib/thumb/v7-m/nofp/libg.a(lib_a-mlock.o)
 .debug_frame   0x0000000000003a58      0x260 /opt/homebrew/Cellar/arm-none-eabi-gcc/10.3-2021.07/gcc/bin/../lib/gcc/arm-none-eabi/10.3.1/../../../../arm-none-eabi/lib/thumb/v7-m/nofp/libg.a(lib_a-mprec.o)
 .debug_frame   0x0000000000003cb8       0x48 /opt/homebrew/Cellar/arm-none-eabi-gcc/10.3-2021.07/gcc/bin/../lib/gcc/arm-none-eabi/10.3.1/../../../../arm-none-eabi/lib/thumb/v7-m/nofp/libg.a(lib_a-putc.o)
 .debug_frame   0x0000000000003d00       0x48 /opt/homebrew/Cellar/arm-none-eabi-gcc/10.3-2021.07/gcc/bin/../lib/gcc/arm-none-eabi/10.3.1/../../../../arm-none-eabi/lib/thumb/v7-m/nofp/libg.a(lib_a-reallocr.o)
 .debug_frame   0x0000000000003d48       0x30 /opt/homebrew/Cellar/arm-none-eabi-gcc/10.3-2021.07/gcc/bin/../lib/gcc/arm-none-eabi/10.3.1/../../../../arm-none-eabi/lib/thumb/v7-m/nofp/libg.a(lib_a-s_frexp.o)
 .debug_frame   0x0000000000003d78       0x2c /opt/homebrew/Cellar/arm-none-eabi-gcc/10.3-2021.07/gcc/bin/../lib/gcc/arm-none-eabi/10.3.1/../../../../arm-none-eabi/lib/thumb/v7-m/nofp/libg.a(lib_a-sbrkr.o)
 .debug_frame   0x0000000000003da4       0x8c /opt/homebrew/Cellar/arm-none-eabi-gcc/10.3-2021.07/gcc/bin/../lib/gcc/arm-none-eabi/10.3.1/../../../../arm-none-eabi/lib/thumb/v7-m/nofp/libg.a(lib_a-stdio.o)
 .debug_frame   0x0000000000003e30       0x2c /opt/homebrew/Cellar/arm-none-eabi-gcc/10.3-2021.07/gcc/bin/../lib/gcc/arm-none-eabi/10.3.1/../../../../arm-none-eabi/lib/thumb/v7-m/nofp/libg.a(lib_a-strncpy.o)
 .debug_frame   0x0000000000003e5c       0xdc /opt/homebrew/Cellar/arm-none-eabi-gcc/10.3-2021.07/gcc/bin/../lib/gcc/arm-none-eabi/10.3.1/../../../../arm-none-eabi/lib/thumb/v7-m/nofp/libg.a(lib_a-vfiprintf.o)
 .debug_frame   0x0000000000003f38       0x40 /opt/homebrew/Cellar/arm-none-eabi-gcc/10.3-2021.07/gcc/bin/../lib/gcc/arm-none-eabi/10.3.1/../../../../arm-none-eabi/lib/thumb/v7-m/nofp/libg.a(lib_a-wbuf.o)
 .debug_frame   0x0000000000003f78       0x2c /opt/homebrew/Cellar/arm-none-eabi-gcc/10.3-2021.07/gcc/bin/../lib/gcc/arm-none-eabi/10.3.1/../../../../arm-none-eabi/lib/thumb/v7-m/nofp/libg.a(lib_a-writer.o)
 .debug_frame   0x0000000000003fa4       0x34 /opt/homebrew/Cellar/arm-none-eabi-gcc/10.3-2021.07/gcc/bin/../lib/gcc/arm-none-eabi/10.3.1/../../../../arm-none-eabi/lib/thumb/v7-m/nofp/libg.a(lib_a-__atexit.o)
 .debug_frame   0x0000000000003fd8       0x40 /opt/homebrew/Cellar/arm-none-eabi-gcc/10.3-2021.07/gcc/bin/../lib/gcc/arm-none-eabi/10.3.1/../../../../arm-none-eabi/lib/thumb/v7-m/nofp/libg.a(lib_a-assert.o)
 .debug_frame   0x0000000000004018       0x2c /opt/homebrew/Cellar/arm-none-eabi-gcc/10.3-2021.07/gcc/bin/../lib/gcc/arm-none-eabi/10.3.1/../../../../arm-none-eabi/lib/thumb/v7-m/nofp/libg.a(lib_a-callocr.o)
 .debug_frame   0x0000000000004044       0x2c /opt/homebrew/Cellar/arm-none-eabi-gcc/10.3-2021.07/gcc/bin/../lib/gcc/arm-none-eabi/10.3.1/../../../../arm-none-eabi/lib/thumb/v7-m/nofp/libg.a(lib_a-closer.o)
 .debug_frame   0x0000000000004070       0x3c /opt/homebrew/Cellar/arm-none-eabi-gcc/10.3-2021.07/gcc/bin/../lib/gcc/arm-none-eabi/10.3.1/../../../../arm-none-eabi/lib/thumb/v7-m/nofp/libg.a(lib_a-fclose.o)
 .debug_frame   0x00000000000040ac       0x6c /opt/homebrew/Cellar/arm-none-eabi-gcc/10.3-2021.07/gcc/bin/../lib/gcc/arm-none-eabi/10.3.1/../../../../arm-none-eabi/lib/thumb/v7-m/nofp/libg.a(lib_a-fiprintf.o)
 .debug_frame   0x0000000000004118       0x88 /opt/homebrew/Cellar/arm-none-eabi-gcc/10.3-2021.07/gcc/bin/../lib/gcc/arm-none-eabi/10.3.1/../../../../arm-none-eabi/lib/thumb/v7-m/nofp/libg.a(lib_a-fputwc.o)
 .debug_frame   0x00000000000041a0       0x2c /opt/homebrew/Cellar/arm-none-eabi-gcc/10.3-2021.07/gcc/bin/../lib/gcc/arm-none-eabi/10.3.1/../../../../arm-none-eabi/lib/thumb/v7-m/nofp/libg.a(lib_a-fstatr.o)
 .debug_frame   0x00000000000041cc       0x2c /opt/homebrew/Cellar/arm-none-eabi-gcc/10.3-2021.07/gcc/bin/../lib/gcc/arm-none-eabi/10.3.1/../../../../arm-none-eabi/lib/thumb/v7-m/nofp/libg.a(lib_a-isattyr.o)
 .debug_frame   0x00000000000041f8       0x68 /opt/homebrew/Cellar/arm-none-eabi-gcc/10.3-2021.07/gcc/bin/../lib/gcc/arm-none-eabi/10.3.1/../../../../arm-none-eabi/lib/thumb/v7-m/nofp/libg.a(lib_a-locale.o)
 .debug_frame   0x0000000000004260       0x2c /opt/homebrew/Cellar/arm-none-eabi-gcc/10.3-2021.07/gcc/bin/../lib/gcc/arm-none-eabi/10.3.1/../../../../arm-none-eabi/lib/thumb/v7-m/nofp/libg.a(lib_a-lseekr.o)
 .debug_frame   0x000000000000428c       0x4c /opt/homebrew/Cellar/arm-none-eabi-gcc/10.3-2021.07/gcc/bin/../lib/gcc/arm-none-eabi/10.3.1/../../../../arm-none-eabi/lib/thumb/v7-m/nofp/libg.a(lib_a-mbtowc_r.o)
 .debug_frame   0x00000000000042d8       0x2c /opt/homebrew/Cellar/arm-none-eabi-gcc/10.3-2021.07/gcc/bin/../lib/gcc/arm-none-eabi/10.3.1/../../../../arm-none-eabi/lib/thumb/v7-m/nofp/libg.a(lib_a-readr.o)
 .debug_frame   0x0000000000004304       0x64 /opt/homebrew/Cellar/arm-none-eabi-gcc/10.3-2021.07/gcc/bin/../lib/gcc/arm-none-eabi/10.3.1/../../../../arm-none-eabi/lib/thumb/v7-m/nofp/libg.a(lib_a-reent.o)
 .debug_frame   0x0000000000004368       0x60 /opt/homebrew/Cellar/arm-none-eabi-gcc/10.3-2021.07/gcc/bin/../lib/gcc/arm-none-eabi/10.3.1/../../../../arm-none-eabi/lib/thumb/v7-m/nofp/libg.a(lib_a-wcrtomb.o)
 .debug_frame   0x00000000000043c8       0x3c /opt/homebrew/Cellar/arm-none-eabi-gcc/10.3-2021.07/gcc/bin/../lib/gcc/arm-none-eabi/10.3.1/../../../../arm-none-eabi/lib/thumb/v7-m/nofp/libg.a(lib_a-wctomb_r.o)
 .debug_frame   0x0000000000004404       0x28 /opt/homebrew/Cellar/arm-none-eabi-gcc/10.3-2021.07/gcc/bin/../lib/gcc/arm-none-eabi/10.3.1/../../../../arm-none-eabi/lib/thumb/v7-m/nofp/libg.a(lib_a-abort.o)
 .debug_frame   0x000000000000442c      0x114 /opt/homebrew/Cellar/arm-none-eabi-gcc/10.3-2021.07/gcc/bin/../lib/gcc/arm-none-eabi/10.3.1/../../../../arm-none-eabi/lib/thumb/v7-m/nofp/libg.a(lib_a-signal.o)
 .debug_frame   0x0000000000004540       0x3c /opt/homebrew/Cellar/arm-none-eabi-gcc/10.3-2021.07/gcc/bin/../lib/gcc/arm-none-eabi/10.3.1/../../../../arm-none-eabi/lib/thumb/v7-m/nofp/libg.a(lib_a-signalr.o)
 .debug_frame   0x000000000000457c       0xac /opt/homebrew/Cellar/arm-none-eabi-gcc/10.3-2021.07/gcc/bin/../lib/gcc/arm-none-eabi/10.3.1/thumb/v7-m/nofp/libgcc.a(_arm_addsubdf3.o)
 .debug_frame   0x0000000000004628       0x50 /opt/homebrew/Cellar/arm-none-eabi-gcc/10.3-2021.07/gcc/bin/../lib/gcc/arm-none-eabi/10.3.1/thumb/v7-m/nofp/libgcc.a(_arm_muldivdf3.o)
 .debug_frame   0x0000000000004678       0xc4 /opt/homebrew/Cellar/arm-none-eabi-gcc/10.3-2021.07/gcc/bin/../lib/gcc/arm-none-eabi/10.3.1/thumb/v7-m/nofp/libgcc.a(_arm_cmpdf2.o)
 .debug_frame   0x000000000000473c       0x20 /opt/homebrew/Cellar/arm-none-eabi-gcc/10.3-2021.07/gcc/bin/../lib/gcc/arm-none-eabi/10.3.1/thumb/v7-m/nofp/libgcc.a(_arm_unorddf2.o)
 .debug_frame   0x000000000000475c       0x24 /opt/homebrew/Cellar/arm-none-eabi-gcc/10.3-2021.07/gcc/bin/../lib/gcc/arm-none-eabi/10.3.1/thumb/v7-m/nofp/libgcc.a(_arm_fixdfsi.o)
 .debug_frame   0x0000000000004780       0x2c /opt/homebrew/Cellar/arm-none-eabi-gcc/10.3-2021.07/gcc/bin/../lib/gcc/arm-none-eabi/10.3.1/thumb/v7-m/nofp/libgcc.a(_aeabi_uldivmod.o)
 .debug_frame   0x00000000000047ac       0x34 /opt/homebrew/Cellar/arm-none-eabi-gcc/10.3-2021.07/gcc/bin/../lib/gcc/arm-none-eabi/10.3.1/thumb/v7-m/nofp/libgcc.a(_udivmoddi4.o)
