:020000040800F2
:100000000050002045030008190300081B030008E6
:100010001D0300081F030008210300080000000062
:1000200000000000000000000000000023030008A2
:10003000250300080000000027030008290300082A
:100040008D0300088D0300088D0300088D03000850
:100050008D0300088D0300088D0300088D03000840
:100060008D0300088D0300088D0300088D03000830
:100070008D0300088D0300088D0300088D03000820
:100080008D0300088D0300088D0300088D03000810
:10009000310300088D0300088D0300088D0300085C
:1000A0008D0300088D0300088D0300088D030008F0
:1000B0008D0300088D0300088D0300088D030008E0
:1000C0008D0300088D0300088D0300088D030008D0
:1000D0008D0300088D0300088D0300088D030008C0
:1000E0008D0300088D0300088D0300080000000048
:1000F0000000000000000000000000000000000000
:0C01000000000000000000005FF808F1A3
:10010C0010B5054C237833B9044B13B10448AFF345
:10011C0000800123237010BDAC05002000000000FE
:10012C001040000808B5034B1BB103490348AFF35B
:10013C00008008BD00000000B00500201040000841
:10014C002DE9F04188B0002404940594069407949A
:10015C00284B9A6942F010029A619A6902F01002D7
:10016C000192019A9A6942F008029A619A6902F026
:10017C0008020292029A9A6942F004029A619B69FF
:10018C0003F004030393039BDFF86C80012204212A
:10019C00404600F0C6FA194E01220321304600F009
:1001AC00C0FA42F20103049305940225069504A9B2
:1001BC00404600F09DF90423049301240594069510
:1001CC000327079704A9404600F092F9049405947C
:1001DC000694079704A9304600F08AF90495059413
:1001EC000695079704A9304600F082F908B0BDE8DF
:1001FC00F08100BF0010024000100140000C0140D3
:10020C0072B6FEE700B595B0282200210DEB020076
:10021C0003F036FE00230593069307930893099386
:10022C00019302930393049301220A924FF48033B7
:10023C000B930E920222119212934FF4E01313932C
:10024C000AA801F041FAC0B90F23059302210691C7
:10025C00002307934FF480620892099305A801F0DC
:10026C0073FC60B9102301930023049301A801F0DF
:10027C0021FD30B915B05DF804FBFFF7C1FFFFF7A6
:10028C00BFFFFFF7BDFF000008B500F0A1F8FFF7B6
:10029C00B9FFFFF755FF03F0C5FB04E00022012175
:1002AC00074800F03EFA0121064800F033FA012815
:1002BC00F4D001221146024800F033FAF3E700BFF4
:1002CC00000C01400010014082B00E4B9A6942F0C4
:1002DC0001029A619A6902F001020092009ADA69AD
:1002EC0042F08052DA61DB6903F080530193019B89
:1002FC00054A536823F0E06343F00073536002B087
:10030C00704700BF0010024000000140FEE7FEE70E
:10031C00FEE7FEE7FEE770477047704708B500F050
:10032C0069F808BD08B5024800F074FF08BD00BFAD
:10033C0064120020704700000C480D490D4A002340
:10034C0002E0D458C4500433C4188C42F9D30A4A7E
:10035C000A4C002301E013600432A242FBD3FFF7E6
:10036C00E9FF03F069FDFFF78FFF704700000020E5
:10037C00AC050020A4400008AC0500207417002038
:10038C00FEE7000010B504460E4B18784FF47A7354
:10039C00B3FBF0F30C4A1068B0FBF3F000F094F8E8
:1003AC0068B90F2C01D901200AE0002221464FF038
:1003BC00FF3000F043F8054B1C60002000E00120EA
:1003CC0010BD00BF04000020000000200800002029
:1003DC0008B5074A136843F010031360032000F0BC
:1003EC001BF80F20FFF7CEFFFFF76EFF002008BDB4
:1003FC0000200240034A1168034B1B780B44136026
:10040C00704700BFC805002004000020014B18688D
:10041C00704700BFC8050020074AD36823F4E06387
:10042C001B041B0C000200F4E060034343F0BF63A9
:10043C0043F40033D360704700ED00E000B5194B76
:10044C00DB68C3F30223C3F1070CBCF1040F28BF14
:10045C004FF0040C03F1040EBEF1060F18D9033B48
:10046C004FF0FF3E0EFA0CFC21EA0C0199400EFAFB
:10047C0003F322EA0303194300280BDB0901C9B279
:10048C0000F1604000F5614080F800135DF804FB5A
:10049C000023E5E700F00F000901C9B2024B195423
:1004AC00F4E700BF00ED00E014ED00E0002807DBEE
:1004BC0000F01F02400901239340024A42F8203009
:1004CC00704700BF00E100E00138B0F1807F0BD233
:1004DC004FF0E0235861054AF02182F823100020E8
:1004EC00986107221A6170470120704700ED00E007
:1004FC0070B582B00024A446A6E0804DAA4210D06C
:10050C0007D97F4DAA420CD005F58035AA4208D0F8
:10051C0013E0A5F58015AA4203D005F57025AA4273
:10052C0007D18A68002A58D0012A51D04361082487
:10053C0003E0A5F58015AA42F3D0BEF1FF0F4ED80B
:10054C000646BEF1FF0F4CD84FEA8C0233680F25DC
:10055C00954023EA050304FA02F2134333604B6817
:10056C0013F0805F6ED0674B9A6942F001029A617A
:10057C009B6903F001030193019B4FEA9C02951CBC
:10058C00614B53F825600CF003039D000F23AB4027
:10059C0026EA03065D4B984229D003F58063984206
:1005AC0000F08E8003F58063984200F08B8003F599
:1005BC008063984219D004231AE0CC68BDE7CC685C
:1005CC000434BAE7CC680834B7E7CC680C34B4E729
:1005DC0003610824B1E70024AFE70424ADE7061D4E
:1005EC00AFE7ACF108029200B0E7032300E0002370
:1005FC00AB4033430232444D45F822304B6813F480
:10060C00803F61D0424A136843EA0E0313604B6883
:10061C0013F4003F5ED03E4A536843EA0E03536026
:10062C004B6813F4801F5BD0394A936843EA0E037E
:10063C0093604B6813F4001F58D0354AD36843EAD3
:10064C000E03D3600CF1010C0A6832FA0CF353D090
:10065C00012303FA0CF302EA030E33EA0202F1D18E
:10066C004A68122A3FF649AF122A3FF666AF01A537
:10067C0055F822F02F050008C7050008D105000821
:10068C00E305000847050008470500084705000872
:10069C0047050008470500084705000847050008FE
:1006AC0047050008470500084705000847050008EE
:1006BC004705000847050008CB050008D7050008CA
:1006CC00012395E7022393E7114A136823EA0E03EB
:1006DC0013609CE70E4A536823EA0E0353609FE7AE
:1006EC000B4A936823EA0E039360A2E7084AD36887
:1006FC0023EA0E03D360A5E702B070BD0000221000
:10070C0000003110001002400000014000080140C0
:10071C00000401408368194201D001207047002079
:10072C0070470AB10161704709040161704738B51F
:10073C0012F4804F44D00468B4F850309BB291F856
:10074C0000C003EBCC03023304EB4303B3F80044C7
:10075C00C4F309048B69A34228D31B1B8B618B69DF
:10076C007BB9056835F82C309BB223F4804323F019
:10077C00700383F4005343F4004343F0800325F8E3
:10078C002C3012F0400F0ED002680D7832F8253064
:10079C009BB223F4E04323F0700343F4004343F093
:1007AC00C00322F8253024B9204638BD00238B61C4
:1007BC00D5E723460A894969006802F0CEFAF3E7C7
:1007CC000468B4F850309BB291F800C003EBCC0332
:1007DC00063304EB4303B3F80044C4F309048B69F8
:1007EC00A3422FD31B1B8B618B697BB9056835F832
:1007FC002C309BB223F4804323F0700383F400531A
:10080C0043F4004343F0800325F82C3012F0400FE2
:10081C000FD1026891F800C032F82C309BB223F44F
:10082C00E04323F0700343F4004343F0C00322F889
:10083C002C30002CB8D023464A894969006802F054
:10084C008CFAB1E700238B61CEE770B586B0002837
:10085C0000F08580044690F8A932EBB1032384F8AC
:10086C00A932206801F0C2FA254655F8106BEC4607
:10087C000FCDACE80F002B68CCF80030231D0ECB4D
:10088C00304601F0A3FA054658B1022384F8A93288
:10089C000125284606B070BD80F8A83203F0B6F9E1
:1008AC00DCE70021206801F0ABFA2B461AE05A1C59
:1008BC0002EB820104EBC1010120487002EB8201C2
:1008CC0004F8313003EB830104EBC101CB8602EB5E
:1008DC00820C04EBCC0C00208CF803008863C863FA
:1008EC000864D3B261688B42E1D316E005EB850353
:1008FC0004EBC303002283F8692183F8685183F861
:10090C006B21C3F87821C3F87C2105EB850304EB3C
:10091C00C303C3F880210135EDB2A942E6D82546C0
:10092C0055F8106BEC460FCDACE80F002B68CCF8EB
:10093C000030231D0ECB304601F064FA054620B181
:10094C00022384F8A9320125A3E7002384F824307C
:10095C00012384F8A932206801F08AFD99E701256A
:10096C0097E738B590F8A832012B11D00446012531
:10097C0080F8A852006801F030FA2946204603F0AE
:10098C005AFA206801F072FD002084F8A80238BDE4
:10099C000220FCE770B505460C46164612F0400FD7
:1009AC0000F00D810268B2F850309BB2097803EB6D
:1009BC00C103023302EB4303B3F80024C2F3090270
:1009CC00A369934252D99B1AA361A369002B6AD1E4
:1009DC006378002B4DD12B68B3F8502092B213449E
:1009EC0003EB0111B1F804349BB223F4F8439BB22E
:1009FC00A1F80434B1F804346FEA43436FEA53436B
:100A0C009BB2A1F804342B686278002A3ED1B3F86B
:100A1C00502092B21344227803EB0213B3F80C2447
:100A2C0092B222F4F84292B2A3F80C24B3F80C243C
:100A3C006FEA42426FEA524292B2A3F80C24217838
:100A4C00284603F017F916F4804F41D02A68217814
:100A5C0032F821309BB223F4E04323F0700343F4CB
:100A6C00404343F0800322F8213031E00023A3619E
:100A7C00ABE7012BC7D12B68B3F8502092B21344CB
:100A8C0003EB01110023A1F80434BCE7012AD6D1F1
:100A9C00B3F8502092B21344227803EB02130022D5
:100AAC00A3F80C24CBE716F4804F0DD0286830F84F
:100ABC0021309BB223F4E04323F0700343F4404312
:100ACC0043F0800320F8213094F82430012B12D00D
:100ADC002A68217832F821309BB223F4E04323F0CA
:100AEC00400383F0300343F4004343F0800322F8C7
:100AFC002130002070BD636913446361E3691344C2
:100B0C00E361216A236999421FD3C91A2162627871
:100B1C00002A3FD12A68B2F8501089B20A442178D1
:100B2C0002EB0112EBB9B2F8041489B221F4F841CA
:100B3C0089B2A2F80414B2F804146FEA41416FEAC6
:100B4C00514189B2A2F8041426E021B9002384F89B
:100B5C0024301346DBE7002384F8243023620B4651
:100B6C00D5E73E2B09D8590813F0010F00D00131FD
:100B7C00890289B2A2F804140EE0590913F01F0F70
:100B8C0000D101396FEAC1616FEA514189B2A2F813
:100B9C00041401E0012A06D09BB2228961692868FD
:100BAC0001F06EFC94E72A68B2F8501089B20A443E
:100BBC00217802EB011299B2A2F80414ECE7026856
:100BCC00B2F850309BB2097803EBC103063302EB49
:100BDC004303B3F80024C2F30902A369934253D32D
:100BEC009B1AA361A369002B6BD16378002B4ED1A8
:100BFC002B68B3F8502092B2134403EB0111B1F8F7
:100C0C0004349BB223F4F8439BB2A1F80434B1F83A
:100C1C0004346FEA43436FEA53439BB2A1F80434A4
:100C2C002B686278002A3FD1B3F8502092B213445B
:100C3C00227803EB0213B3F80C2492B222F4F8429C
:100C4C0092B2A3F80C24B3F80C246FEA42426FEA78
:100C5C00524292B2A3F80C242178284603F00AF8E9
:100C6C0016F4804F7FF434AF2A68217832F82130A3
:100C7C009BB223F4E04323F0700343F4404343F06E
:100C8C00800322F8213023E70023A361AAE7012B7C
:100C9C00C6D12B68B3F8502092B2134403EB011168
:100CAC000023A1F80434BBE7012AD5D1B3F85020B6
:100CBC0092B21344227803EB02130022A3F80C2403
:100CCC00CAE716F4804F0DD1286830F821309BB25A
:100CDC0023F4E04323F0700343F4404343F08003D8
:100CEC0020F8213094F82430012B7FF4F1AE6369A5
:100CFC0013446361E3691344E361216A23699942F4
:100D0C001FD3C91A21622A68617800293ED1B2F832
:100D1C00501089B20A44217802EB0112EBB9B2F8F7
:100D2C000C1489B221F4F84189B2A2F80C14B2F86F
:100D3C000C146FEA41416FEA514189B2A2F80C14CC
:100D4C0026E021B9002384F824301346DBE7002386
:100D5C00236284F824300B46D5E73E2B09D859087A
:100D6C0013F0010F00D00131890289B2A2F80C14E2
:100D7C000EE0590913F01F0F00D101396FEAC16160
:100D8C006FEA514189B2A2F80C1401E0012906D096
:100D9C009BB262896169286801F072FB98E6B2F82F
:100DAC00501089B20A44217802EB011299B2A2F8D0
:100DBC000C14EDE72DE9F04105462868B0F84430F5
:100DCC0013F4004F00F00F82B0F84440A3B214F0BB
:100DDC000F0440F0D88013F0100F61D003889AB242
:100DEC0013F4006F40F0938012F4004FE5D00388A9
:100DFC0023F070031B051B0D43F080030380286850
:100E0C00B0F850309BB295F8682103EBC20306335F
:100E1C0000EB4303B3F80034C3F30903C5F8843182
:100E2C008BB1D5F87C1171B1B5F86E2101F095FF3D
:100E3C00D5F88421D5F87C311344C5F87C310021D8
:100E4C00284602F00BFF2B681A8812F4006FB4D1FD
:100E5C00B3F8502092B21344D5F87821002A79D1F6
:100E6C00B3F80C2492B222F4F84292B2A3F80C24F8
:100E7C00B3F80C246FEA42426FEA524292B2A3F8E2
:100E8C000C242A6813889BB223F4804323F070034C
:100E9C0083F4405343F4004343F0800313808CE706
:100EAC0003889BB223F4E14323F070036FEA4343BE
:100EBC006FEA53439BB203802A68B2F850309BB25E
:100ECC0095F8281003EBC103023302EB4303B3F88C
:100EDC000034C3F309036B64EA6B1344EB63002126
:100EEC00284602F0C7FE95F82430002B3FF465AF7E
:100EFC002B6C002B7FF461AF95F824302A6843F0FB
:100F0C008003A2F84C30002385F8243055E7B0F864
:100F1C0050309BB295F8682103EBC203063300EB0B
:100F2C004303B3F80034C3F30903C5F88431B5F8AF
:100F3C006E2105F52C7101F010FF2A68138823F03F
:100F4C0070031B051B0D43F080031380284602F031
:100F5C007DFE32E73E2A09D8510812F0010F00D06D
:100F6C0001318A0292B2A3F80C248AE7510912F0DB
:100F7C001F0F00D101396FEAC1626FEA524292B27F
:100F8C00A3F80C247DE730F824309EB213F4004F04
:100F9C004FD116F0800F3FF410AF621C02EB8201B0
:100FAC0005EBC101286830F824309BB223F4E143EF
:100FBC0023F070036FEA43436FEA53439BB220F86C
:100FCC002430CB78032B07D033B1022B40F00681B1
:100FDC0016F4807F40F002812868B0F850309BB244
:100FEC00621C02EB820215F8326003EBC60302337B
:100FFC0000EB4303B3F80034C3F3090304EB84029E
:10100C0005EBC202126C9A4240F2D48004EB8407C6
:10101C0005EBC707D21A3A6404EB840205EBC20253
:10102C00126C002A40F0CD803146284602F022FE98
:10103C00C3E630F8243023F070031B051B0D43F07E
:10104C00800320F8243004EB8401C90001F5B4714D
:10105C0005EB010804EB840305EBC30393F874312F
:10106C00002B42D12868B0F850309BB204EB8402BC
:10107C0005EBC20292F8682103EBC203063300EBC6
:10108C004303B3F80074C7F3090717BB04EB8403DD
:10109C0005EBC303D3F884213A44C3F88421D3F875
:1010AC007C213A44C3F87C21D3F880313BB104EB6A
:1010BC00840305EBC303D3F878319F4275D204EB5C
:1010CC00840305EBC30393F86811284602F0C6FDB0
:1010DC005FE704EB840105EBC1013B46B1F86E21DF
:1010EC00D1F87C1101F039FED0E704EB840305EB59
:1010FC00C30393F86B31022B35D0296804EB8402BF
:10110C0005EBC20292F8680131F820309BB223F44F
:10111C00E04323F0700343F4004343F0C00321F891
:10112C002030286892F8682130F8223013F4804F70
:10113C0020D0B0F850309BB203EBC203023300EB6B
:10114C004303B3F80074C7F30907002F9ED004EBD8
:10115C00840105EBC1013B46B1F87021D1F87C113B
:10116C0001F0FBFD92E7324641462846FFF7DFFAD5
:10117C0007468BE7B0F850309BB203EBC203063343
:10118C0000EB4303B3F80074C7F30907002F3FF4D7
:10119C007DAF04EB840105EBC1013B46B1F8722134
:1011AC00D1F87C1101F0D9FD70E74146286801F0B7
:1011BC007BF9EEE604EB840205EBC2020027176410
:1011CC002AE704EB840205EBC202D66B1E44D663FD
:1011DC00546C2344536401F067F9EEE5324628461B
:1011EC00FFF7D8FBE9E50020BDE8F08190F8A832C4
:1011FC00012B0DD010B50446012380F8A83280F8DD
:10120C002410006801F02CF9002084F8A80210BD0D
:10121C000220704710B584B00446006801F02AF92A
:10122C0010F4004F47D1206801F024F910F4806FBE
:10123C0045D1206801F01EF910F4804F08D02268C7
:10124C00B2F844309BB223F480439BB2A2F84430F2
:10125C00206801F00FF910F4005F08D02268B2F892
:10126C0044309BB223F400539BB2A2F84430206864
:10127C0001F000F910F4805F32D1206801F0FAF827
:10128C0010F4006F78D1206801F0F4F810F4007FAE
:10129C0040F09D80206801F0EDF810F4807F08D0BC
:1012AC002268B2F844309BB223F480739BB2A2F84C
:1012BC00443004B010BD2046FFF77CFDB3E7226834
:1012CC00B2F844309BB223F480639BB2A2F8443052
:1012DC00204602F0E0FC00212046FFF787FFA8E73C
:1012EC002268B2F840309BB223F004039BB2A2F800
:1012FC0040302268B2F840309BB223F008039BB216
:10130C00A2F84030204602F0E9FC2268B2F84430E2
:10131C009BB223F480539BB2A2F84430ADE7226811
:10132C0032F8231004AA02EB430222F8101C0133FA
:10133C00DBB2072BF3D92268B2F840309BB243F0F2
:10134C000103A2F840302268B2F840309BB223F07F
:10135C0001039BB2A2F840302368B3F8442012F486
:10136C00806FF9D0B3F8442092B222F4806292B22A
:10137C00A3F8442000230BE00023DAE7226804A939
:10138C0001EB430131F8101C22F823100133DBB2BE
:10139C00072BF3D92268B2F840309BB243F0080314
:1013AC00A2F840302268B2F844309BB223F40063B8
:1013BC009BB2A2F844302268B2F840309BB243F0A2
:1013CC000403A2F84030204602F078FC5BE7226868
:1013DC00B2F844309BB223F400739BB2A2F84430B1
:1013EC00204602F052FC55E710B504468C4611F02D
:1013FC00800F2AD101F0070000EB8001C90001F534
:10140C00B47E04EB0E0100EB800004EBC0004FF047
:10141C00000E80F869E10CF0070C81F800C00A613D
:10142C00CB704A780AB1A1F80EC0022B19D094F8EF
:10143C00A832012B18D0012384F8A832206800F0C0
:10144C00F2FC002084F8A80210BD01F00700013066
:10145C0000EB800104EBC1014FF0010E81F801E0BB
:10146C00D9E700230B71E2E70220EDE710B5044643
:10147C000B4611F0800F1FD101F0070202EB820125
:10148C00C90001F5B471014402EB820200EBC20207
:10149C00002082F8690103F007030B7094F8A8325E
:1014AC00012B13D0012384F8A832206800F077FEBA
:1014BC00002084F8A80210BD01F00702013202EBF3
:1014CC00820100EBC10101204870E4E70220F2E741
:1014DC0010B501F0070404EB8401C90001F5B471E7
:1014EC00014404EB840C00EBCC0CCCF87C21CCF844
:1014FC0080310023CCF884318CF869318CF8684148
:10150C0024B9006800F0D0FF002010BD006800F086
:10151C00CBFFF9E701F0070101EB810100EBC10101
:10152C00D1F88401704710B501F0070404F1010CE7
:10153C000CEB8C0100EBC10104EB840E00EBCE0E26
:10154C00CEF83C20CEF8403001228EF84C20CEF85C
:10155C0048300023CEF844304A700CEB8C0C00F869
:10156C003C4024B9006800F09FFF002010BD0068CB
:10157C0000F09AFFF9E738B501F00705426895428B
:10158C0031D804460B4611F0800F1ED101EB8101BE
:10159C00C90001F5B471014403EB830300EBC303F1
:1015AC00002283F8692101238B700D7094F8A83206
:1015BC00012B1AD0012384F8A832206800F0DAFE3F
:1015CC005DB1002084F8A80238BD6B1C03EB8301CD
:1015DC0000EBC10101224A70E5E704F52C7120688B
:1015EC0000F04CFFEDE70120EEE70220ECE70B46A4
:1015FC0001F00F014268914230D810B5044613F047
:10160C00800F21D103F0070202EB8201C90001F522
:10161C00B471014402EB820200EBC202002082F89A
:10162C00690100228A7003F007030B7094F8A8324A
:10163C00012B15D0012384F8A832206800F0BFFEDE
:10164C00002084F8A80210BD03F00702013202EB5F
:10165C00820100EBC10101204870E2E701207047D4
:10166C000220F0E711F0800F0BD001F007010131DF
:10167C0001EB810100EBC10152B90A73CB80002050
:10168C00704701EB8101C90001F5B4710144F3E726
:10169C0001220A730B811B0C4B81F0E782B0084BC3
:1016AC001B68084AA2FB03235B0A00FB03F30193AC
:1016BC0000BF019B5A1E0192002BF9D102B070475A
:1016CC0000000020D34D6210002800F0F18170B5AD
:1016DC0082B00446036813F0010F2CD0994B5B6861
:1016EC0003F00C03042B1DD0964B5B6803F00C032A
:1016FC00082B12D06368B3F5803F41D0002B55D135
:10170C0003F1804303F504331A6822F480321A6023
:10171C001A6822F480221A6037E08A4B5B6813F453
:10172C00803FE7D0874B1B6813F4003F03D06368FE
:10173C00002B00F0BF81236813F0020F75D0814B92
:10174C005B6813F00C0F5FD07E4B5B6803F00C03EF
:10175C00082B54D02369002B00F08A807A4B01228D
:10176C001A60FEF753FE0546764B1B6813F0020F0A
:10177C0075D1FEF74BFE401B0228F5D903209EE1E4
:10178C00704A136843F480331360636843B3FEF705
:10179C003DFE05466B4B1B6813F4003FCBD1FEF7A7
:1017AC0035FE401B6428F5D9032088E1B3F5A02F42
:1017BC0009D0644B1A6822F480321A601A6822F439
:1017CC0080221A60E1E703F18043A3F53C331A68E9
:1017DC0042F480221A601A6842F480321A60D4E70C
:1017EC00FEF714FE0546574B1B6813F4003FA2D0BE
:1017FC00FEF70CFE401B6428F5D903205FE1514B2A
:10180C005B6813F4803FA5D14E4B1B6813F0020F9D
:10181C0003D02369012B40F04F814A4A136823F00F
:10182C00F803616943EAC1031360236813F0080FDE
:10183C0033D0A369002B5CD0434B0122C3F8802426
:10184C00FEF7E4FD05463F4B5B6A13F0020F21D116
:10185C00FEF7DCFD401B0228F5D903202FE1394AA5
:10186C00136823F0F803616943EAC1031360DCE7F2
:10187C00354B00221A60FEF7C9FD0546314B1B683B
:10188C0013F0020FD1D0FEF7C1FD401B0228F5D991
:10189C00032014E10120FFF701FF236813F0040F6C
:1018AC0000F09680274BDB6913F0805F34D1254B19
:1018BC00DA6942F08052DA61DB6903F080530193FC
:1018CC00019B0125214B1B6813F4807F26D0E36814
:1018DC00012B3DD0002B53D103F1804303F504338E
:1018EC001A6A22F001021A621A6A22F004021A62BF
:1018FC0033E0154B0022C3F88024FEF787FD054624
:10190C00104B5B6A13F0020FC7D0FEF77FFD401B34
:10191C000228F5D90320D2E00025D3E70B4A13683F
:10192C0043F480731360FEF771FD0646074B1B688A
:10193C0013F4807FCBD1FEF769FD801B6428F5D9A9
:10194C000320BCE000100240000042420070004046
:10195C005F4A136A43F001031362E36833B3FEF783
:10196C0055FD06465A4B1B6A13F0020F2FD1FEF79A
:10197C004DFD801B41F288339842F3D903209EE041
:10198C00052B09D0524B1A6A22F001021A621A6A0C
:10199C0022F004021A62E0E74D4B1A6A42F004028C
:1019AC001A621A6A42F001021A62D6E7FEF72EFD9D
:1019BC000646474B1B6A13F0020F08D0FEF726FDB4
:1019CC00801B41F288339842F3D9032077E0E5B9C4
:1019DC00E369002B72D03E4A526802F00C02082ACE
:1019EC0056D0022B17D03B4B00221A66FEF70EFD89
:1019FC000446374B1B6813F0007F47D0FEF706FDFB
:101A0C00001B0228F5D9032059E0314AD36923F091
:101A1C008053D361DCE72F4B00221A66FEF7F6FCED
:101A2C0005462B4B1B6813F0007F06D0FEF7EEFC2F
:101A3C00401B0228F5D9032041E0236AB3F5803F0F
:101A4C001AD023494B6823F47413226A606A024348
:101A5C0013434B601F4B01221A66FEF7D7FC04465A
:101A6C001B4B1B6813F0007F0ED1FEF7CFFC001B45
:101A7C000228F5D9032022E0154A536823F40033D9
:101A8C00A1680B435360DCE7002018E0002016E04F
:101A9C00012B16D00E4B5B6803F48031226A914205
:101AAC0011D103F47013626A93420ED1002006E048
:101ABC0001207047012002E0012000E0002002B06C
:101ACC0070BD0120FBE70120F9E70120F7E700BF1B
:101ADC00001002400000424286B0174B0FCB0DF1B4
:101AEC00180C0CE90F0040F20123ADF80430134B35
:101AFC005B6803F00C02082A02D0114806B070474C
:101B0C00C3F3834218326A4412F8100C13F4803F6A
:101B1C000DD00A4B5B68C3F3404318336B4413F886
:101B2C00143C074A02FB00F0B0FBF3F0E6E7054B70
:101B3C0003FB00F0E2E700BF384000080010024051
:101B4C0000127A0000093D00002800F0A08070B55A
:101B5C000D460446524B1B6803F007038B420BD215
:101B6C004F4A136823F007030B431360136803F009
:101B7C0007038B4240F08D80236813F0020F17D0BF
:101B8C0013F0040F04D0474A536843F4E0635360E6
:101B9C00236813F0080F04D0424A536843F460538F
:101BAC005360404A536823F0F003A1680B43536021
:101BBC00236813F0010F31D06368012B20D0022B66
:101BCC0025D0384A126812F0020F64D035494A68A1
:101BDC0022F0030213434B60FEF718FC0646314B10
:101BEC005B6803F00C036268B3EB820F16D0FEF750
:101BFC000DFC801B41F288339842F0D9032045E05C
:101C0C00284A126812F4003FE0D101203EE0254A38
:101C1C00126812F0007FD9D1012037E0204B1B68ED
:101C2C0003F00703AB420AD91D4A136823F00703DC
:101C3C002B431360136803F00703AB422DD12368C9
:101C4C0013F0040F06D0174A536823F4E063E168DD
:101C5C000B435360236813F0080F07D0114A5368E5
:101C6C0023F46053216943EAC1035360FFF734FF47
:101C7C000C4B5B68C3F303130B4AD35CD8400B4B80
:101C8C0018600B4B1868FEF77DFB002070BD01201F
:101C9C0070470120FAE70120F8E70120F6E700BFC2
:101CAC0000200240001002402840000800000020E4
:101CBC000800002070B582B00446036813F0010FD1
:101CCC0036D03F4BDB6913F0805F49D13C4BDA696E
:101CDC0042F08052DA61DB6903F080530193019B7F
:101CEC000125384B1B6813F4807F3BD0344B1B6AA7
:101CFC0013F4407313D0626802F440729A420ED00F
:101D0C002F4A136A23F440702F490126C1F840640E
:101D1C000026C1F84064106213F0010F36D1284A36
:101D2C00136A23F4407361680B431362002D3ED198
:101D3C00236813F0020F06D0214A536823F4404362
:101D4C00A1680B435360236813F0100F34D01C4A66
:101D5C00536823F48003E1680B43536000202CE0AC
:101D6C000025BEE7174A136843F480731360FEF72F
:101D7C004DFB0646134B1B6813F4807FB6D1FEF760
:101D8C0045FB801B6428F5D9032016E0FEF73EFBCB
:101D9C0006460B4B1B6A13F0020FC0D1FEF736FB45
:101DAC00801B41F288339842F3D9032005E0D369B4
:101DBC0023F08053D361BBE7002002B070BD00BF9D
:101DCC0000100240007000400000424284B001A8A4
:101DDC0080E80E00002004B0704703460020A3F8F2
:101DEC0044004FF43F42A3F840207047B0F8403015
:101DFC0023F47C535B045B0CA0F84030002070474C
:101E0C000020704784B0844601A880E80E000123AE
:101E1C00ACF840300020ACF84000ACF84400ACF812
:101E2C00500004B0704710B5034691F800C030F86C
:101E3C002C2092B222F4EC4222F0700292B2C878BA
:101E4C00032861D8DFE800F0555C0258002048F206
:101E5C00800E42EA0E0223F82C2091F800C033F8D1
:101E6C002C2092B222F4E04222F070024CEA0202E0
:101E7C0042EA0E0223F82C200A7B002A40F0C48090
:101E8C004A78002A51D0B3F8502092B21A440C78F8
:101E9C0002EB0412B1F806C04FEA5C0C4FEA4C0C92
:101EAC00A2F800C40C7833F8242012F0400F0CD0A8
:101EBC0033F8242092B222F4E04222F0700242F471
:101ECC00004242F0C00223F82420CA78012A1DD017
:101EDC00097833F8212092B222F4E04222F0400239
:101EEC0082F0200242F4004242F0800223F82120CA
:101EFC006AE042F40072AAE742F4C0620020A6E74E
:101F0C0042F480620020A2E70120A0E7097833F8B0
:101F1C00212092B222F4E04222F0400242F400422C
:101F2C0042F0800223F821204EE0B3F8502092B208
:101F3C001A440C7802EB0412B1F806C04FEA5C0CA0
:101F4C004FEA4C0CA2F808C4B3F8502092B21A44D1
:101F5C000C7802EB04120C69BCBBB2F80CC41FFA6F
:101F6C008CFC2CF4F84C1FFA8CFCA2F80CC4B2F8C4
:101F7C000CC46FEA4C4C6FEA5C4C1FFA8CFCA2F858
:101F8C000CC40C7833F8242012F4804F0CD033F8A6
:101F9C00242092B222F4E04222F0700242F4404239
:101FAC0042F0800223F82420097833F8212092B2E1
:101FBC0022F4804222F0700282F4405242F4004239
:101FCC0042F0800223F8212010BD3E2C0DD84FEAA0
:101FDC00540C14F0010F01D00CF1010C4FEA8C2CB5
:101FEC001FFA8CFCA2F80CC4CBE74FEA541C14F07B
:101FFC001F0F01D10CF1FF3C6FEACC646FEA544423
:10200C00A4B2A2F80C44BCE791F800C033F82C2021
:10201C0092B222F4E04222F0700242F4014242F009
:10202C00800223F82C20B3F8502092B21A4491F875
:10203C0000C002EB0C12B1F808C04FEA5C0C4FEA7E
:10204C004C0CA2F800C4B3F8502092B21A4491F888
:10205C0000C002EB0C12B1F80AC04FEA5C0C4FEA5C
:10206C004C0CA2F808C44A78002A41D10C7833F8F9
:10207C00242012F4804F0CD033F8242092B222F496
:10208C00E04222F0700242F4404242F0800223F817
:10209C0024200C7833F8242012F0400F0CD033F8A5
:1020AC00242092B222F4E04222F0700242F4004268
:1020BC0042F0C00223F8242091F800C033F82C2001
:1020CC0092B222F4804222F0700282F4405248F222
:1020DC008004224323F82C20097833F8212092B273
:1020EC0022F4E04222F04002224323F821206BE745
:1020FC000C7833F8242012F4804F0CD033F82420C1
:10210C0092B222F4E04222F0700242F4404242F0D9
:10211C00800223F824200C7833F8242012F0400F8E
:10212C000CD033F8242092B222F4E04222F0700258
:10213C0042F4004242F0C00223F82420CA78012A5B
:10214C001ED00C7833F8242092B222F4E04222F014
:10215C00400282F0200242F4004242F0800223F856
:10216C002420097833F8212092B222F4804222F004
:10217C00700242F4004242F0800223F8212023E74F
:10218C000C7833F8242092B222F4E04222F0400280
:10219C0042F4004242F0800223F82420E1E70B7B5A
:1021AC00002B46D14B7813B30A7830F8223013F059
:1021BC00400F0CD030F822309BB223F4E04323F0D4
:1021CC00700343F4004343F0C00320F822300A7834
:1021DC0030F822309BB223F4E04323F0400343F465
:1021EC00004343F0800320F82230002070470A7827
:1021FC0030F8223013F4804F0CD030F822309BB2E0
:10220C0023F4E04323F0700343F4404343F0800392
:10221C0020F822300A7830F822309BB223F4804325
:10222C0023F0700343F4004343F0800320F8223082
:10223C00DBE74B78002B4ED10A7830F8223013F4C0
:10224C00804F0CD030F822309BB223F4E04323F0C3
:10225C00700343F4404343F0800320F822300A78A3
:10226C0030F8223013F0400F0CD030F822309BB2F3
:10227C0023F4E04323F0700343F4004343F0C00322
:10228C0020F822300A7830F822309BB223F4E04355
:10229C0023F0700343F4004343F0C00320F82230D2
:1022AC000B7830F8232092B222F4804222F0700294
:1022BC0048F2800C42EA0C0220F823200A7830F80D
:1022CC0022309BB223F4E04323F0400343EA0C0397
:1022DC0020F8223089E70A7830F8223013F4804F46
:1022EC000CD030F822309BB223F4E04323F070037F
:1022FC0043F4404343F0800320F822300A7830F84E
:10230C00223013F0400F0CD030F822309BB223F463
:10231C00E04323F0700343F4004343F0C00320F880
:10232C0022300A7830F822309BB223F4E04323F0B9
:10233C00700343F4404343F0800320F822300B78C1
:10234C0030F8232092B222F4E04222F0400248F20C
:10235C00800C42EA0C0220F823200A7830F8223054
:10236C009BB223F4804323F0700343EA0C0320F860
:10237C0022303AE74B788BB10A7830F822309BB296
:10238C0023F4E04323F0400383F0100343F40043B1
:10239C0043F0800320F82230002070470A7830F890
:1023AC0022309BB223F4804323F0700383F48053D8
:1023BC0043F4004343F0800320F82230ECE70B7B1E
:1023CC00002B4BD14B7833B30A7830F8223013F012
:1023DC00400F0CD030F822309BB223F4E04323F0B2
:1023EC00700343F4004343F0C00320F82230CB7851
:1023FC00012B33D00A7830F822309BB223F4E0431F
:10240C0023F0400383F0200343F4004343F08003A4
:10241C0020F8223022E00A7830F8223013F4804F72
:10242C000CD030F822309BB223F4E04323F070033D
:10243C0043F4404343F0800320F822300A7830F80C
:10244C0022309BB223F4804323F0700383F4405377
:10245C0043F4004343F0800320F8223000207047FF
:10246C0011B98023A0F84C30002070470020704731
:10247C0000207047B0F8440080B2704700207047CD
:10248C0010B45C1C640800EB420202F5806207E0A9
:10249C000B78487843EA002322F8043B0231013CD4
:1024AC00002CF5D110BC704770B505460C464B7826
:1024BC00012B37D00A7B002A40F026838B690A69EE
:1024CC00934240F204839B1A8B61B5F850309BB257
:1024DC002B44217803EB0113002A40F0FC82B3F863
:1024EC000C2492B222F4F84292B2A3F80C24B3F862
:1024FC000C246FEA42426FEA524292B2A3F80C24C7
:10250C00227835F822309BB223F4804323F07003F9
:10251C0083F4405343F4004343F0800325F8223006
:10252C00002070BD8E690A69964200D91646237B3D
:10253C00002B39D0E378022B58D0227835F8223092
:10254C009BB223F4E04323F0700343F4014343F0C4
:10255C00800325F82230236A9B1B2362237835F8ED
:10256C00232012F0400F00F026826278002A40F0FF
:10257C00CA81B5F8502092B22A4402EB0313002E04
:10258C0040F0A881B3F80C2492B222F4F84292B233
:10259C00A3F80C24B3F80C246FEA42426FEA5242BF
:1025AC0092B2A3F80C24B0E1B6B23346E28861696A
:1025BC002846FFF765FFB5F850309BB22B442278C4
:1025CC0003EB0213A3F80464227835F822309BB293
:1025DC0023F4E04323F0400383F0300343F400433F
:1025EC0043F0800325F8223000209AE7236A9A42B0
:1025FC0080F05281227835F822309BB223F4E043EC
:10260C0023F0700343F4014343F0800325F8223098
:10261C00236A9B1B2362237835F8232012F0400F8A
:10262C0000F09D8062788ABBB5F8502092B22A44A3
:10263C0002EB03138EB9B3F80C2492B222F4F842D5
:10264C0092B2A3F80C24B3F80C246FEA42426FEA5E
:10265C00524292B2A3F80C241AE03E2E09D872080A
:10266C0016F0010F00D00132920292B2A3F80C24A2
:10267C000EE0720916F01F0F00D1013A6FEAC26228
:10268C006FEA524292B2A3F80C2401E0012A2BD03B
:10269C00B3B2628961692846FFF7F2FE636933447D
:1026AC006361236A2269934228D99B1B2362637856
:1026BC00002B40D1B5F850309BB22B44227803EB61
:1026CC000213FEB9B3F8042492B222F4F84292B287
:1026DC00A3F80424B3F804246FEA42426FEA52428E
:1026EC0092B2A3F8042428E0B5F8502092B22A4400
:1026FC0002EB0313B2B2A3F80C24C9E70022226246
:10270C001E46D4E73E2E09D8720816F0010F00D0F1
:10271C000132920292B2A3F804240EE0720916F070
:10272C001F0F00D1013A6FEAC2626FEA524292B2B5
:10273C00A3F8042401E0012B06D0B3B2228961690D
:10274C002846FFF79DFE3FE7B5F850309BB22B446F
:10275C00227803EB0213B2B2A3F80424EDE76278FB
:10276C008ABBB5F8502092B22A4402EB03138EB9FF
:10277C00B3F8042492B222F4F84292B2A3F80424DF
:10278C00B3F804246FEA42426FEA524292B2A3F8C1
:10279C0004241AE03E2E09D8720816F0010F00D05E
:1027AC000132920292B2A3F804240EE0720916F0E0
:1027BC001F0F00D1013A6FEAC2626FEA524292B225
:1027CC00A3F8042401E0012A2BD0B3B22289616959
:1027DC002846FFF755FE636933446361236A226917
:1027EC00934228D99B1B23626378002B40D1B5F808
:1027FC0050309BB22B44227803EB0213FEB9B3F892
:10280C000C2492B222F4F84292B2A3F80C24B3F83E
:10281C000C246FEA42426FEA524292B2A3F80C24A3
:10282C0028E0B5F8502092B22A4402EB0313B2B25E
:10283C00A3F80424C9E7002222621E46D4E73E2EE8
:10284C0009D8720816F0010F00D00132920292B230
:10285C00A3F80C240EE0720916F01F0F00D1013AF8
:10286C006FEAC2626FEA524292B2A3F80C2401E002
:10287C00012B06D0B3B2628961692846FFF700FECE
:10288C00A2E6B5F850309BB22B44227803EB02132E
:10289C00B2B2A3F80C24EDE7217835F8212092B2DE
:1028AC0022F4E24222F0700242F4004242F0800232
:1028BC0025F82120B5F8502092B22A44217802EB59
:1028CC0001129BB2A2F80434228961692846FFF7F1
:1028DC00D7FD79E63E2E09D8720816F0010F00D00C
:1028EC000132920292B2A3F80C240EE0720916F097
:1028FC001F0F00D1013A6FEAC2626FEA524292B2E4
:10290C00A3F80C2401E0012A26D0B3B262896169D4
:10291C002846FFF7B5FD636933446361236A226976
:10292C00934223D99B1B2362002E3FF44DAE637858
:10293C006BBBB5F850309BB22B44227803EB0213DF
:10294C003E2E17D8720816F0010F00D001329202F9
:10295C0092B2A3F804241CE0B5F8502092B22A4499
:10296C0002EB0313B2B2A3F80C24CEE700222262CE
:10297C001E46D9E7720916F01F0F00D1013A6FEA13
:10298C00C2626FEA524292B2A3F8042401E0012B16
:10299C0006D0B3B2228961692846FFF771FD13E6B0
:1029AC00B5F850309BB22B44227803EB0213B2B231
:1029BC00A3F80424EDE762788ABBB5F8502092B2F4
:1029CC002A4402EB03138EB9B3F8042492B222F416
:1029DC00F84292B2A3F80424B3F804246FEA4242FA
:1029EC006FEA524292B2A3F804241AE03E2E09D8A0
:1029FC00720816F0010F00D00132920292B2A3F8C5
:102A0C0004240EE0720916F01F0F00D1013A6FEA90
:102A1C00C2626FEA524292B2A3F8042401E0012A86
:102A2C0026D0B3B2228961692846FFF729FD636974
:102A3C0033446361236A2269934223D99B1B23622B
:102A4C00002E3FF4C1AD63786BBBB5F850309BB230
:102A5C002B44227803EB02133E2E17D8720816F083
:102A6C00010F00D00132920292B2A3F80C241CE0A8
:102A7C00B5F8502092B22A4402EB0313B2B2A3F879
:102A8C000424CEE7002222621E46D9E7720916F012
:102A9C001F0F00D1013A6FEAC2626FEA524292B242
:102AAC00A3F80C2401E0012B06D0B3B26289616952
:102ABC002846FFF7E5FC87E5B5F850309BB22B4470
:102ACC00227803EB0213B2B2A3F80C24EDE7002238
:102ADC008A611A46F9E43E2A09D8510812F0010F0E
:102AEC0000D00131890289B2A3F80C1408E5510910
:102AFC0012F01F0F00D101396FEAC1616FEA514129
:102B0C0089B2A3F80C14FBE4CA78022A45D0012A36
:102B1C0040F0208189692269914240F2D480891A5F
:102B2C00A161D3B9B5F850309BB22B44217803EB9B
:102B3C000113002A40F0CB80B3F8041489B221F4BD
:102B4C00F84189B2A3F80414B3F804146FEA4141B4
:102B5C006FEA514189B2A3F804146378002B40F05A
:102B6C00EA80B5F850309BB22B44217803EB01136B
:102B7C00002A40F0C580B3F80C2492B222F4F8423B
:102B8C0092B2A3F80C24B3F80C246FEA42426FEA19
:102B9C00524292B2A3F80C24B2E4CBB9B0F8503044
:102BAC009BB203440A7803EB02130A6972BBB3F8B5
:102BBC00042492B222F4F84292B2A3F80424B3F89B
:102BCC0004246FEA42426FEA524292B2A3F8042400
:102BDC006378002B4CD1B5F850309BB22B44227843
:102BEC0003EB0213226952BBB3F80C2492B222F409
:102BFC00F84292B2A3F80C24B3F80C246FEA4242C8
:102C0C006FEA524292B2A3F80C2433E03E2A09D860
:102C1C00510812F0010F00D001318A0292B2A3F8D0
:102C2C000424D5E7510912F01F0F00D101396FEAC6
:102C3C00C1626FEA524292B2A3F80424C8E73E2A5A
:102C4C0009D8510812F0010F00D001318A0292B25A
:102C5C00A3F80C240EE0510912F01F0F00D101391A
:102C6C006FEAC1626FEA524292B2A3F80C2401E0FF
:102C7C00012B1DD0E369002B3FF442AC227835F8D0
:102C8C00221044F2400303EA01008B4302D00028D7
:102C9C007FF436AC35F822309BB223F4E04323F0BA
:102CAC00700343F4004343F0C00325F8223027E4BB
:102CBC00B5F850309BB22B44227803EB0213228AD6
:102CCC00A3F80C24D6E70022A2610A4629E73E2A83
:102CDC0009D8510812F0010F00D00131890289B2D4
:102CEC00A3F8041439E7510912F01F0F00D1013970
:102CFC006FEAC1616FEA514189B2A3F804142CE761
:102D0C003E2A0AD8510812F0010F00D001318A0274
:102D1C0092B2A3F80C24FFF7F3BB510912F01F0F6A
:102D2C0000D101396FEAC1626FEA524292B2A3F844
:102D3C000C24FFF7E5BB012B7FF4E2ABB5F8503068
:102D4C009BB22B44217803EB011392B2A3F80C2411
:102D5C00FFF7D6BB0120FFF7E4BB10B45C0800EB17
:102D6C00420000F5806007E030F8042B0A70C2F3D3
:102D7C0007224A700231013C002CF5D113F0010FEF
:102D8C0001D003880B7010BC704710B5D0F8B84256
:102D9C00D0F8BC325BB194F80002FF2807D09B68D6
:102DAC0094F8012221469847FF2384F80032002032
:102DBC0010BD0000432303800048704744000020EE
:102DCC00432303800048704788000020432303807E
:102DDC0000487047D80000200A2303800048704741
:102DEC00CC00002038B50446D0F8B85201F018F8E1
:102DFC00C5F80C02D4F8B8324BB1D4F8BC32DB684D
:102E0C0005F50371D5F804029847002038BD02205F
:102E1C00FCE710B5D0F8B822D0F8C042F2B101EB03
:102E2C00810300EB8303DB694BB101EB810C04EBF9
:102E3C00CC04A46BB3FBF4FC04FB1C3323B10023C4
:102E4C00C2F81432002010BD01EB810300EB8303A8
:102E5C000022DA61134600F0D3FFF3E70220F2E719
:102E6C00F0B583B006460C46D0F8B87200238DF846
:102E7C000730ADF804300B7813F0600527D0202D07
:102E8C0053D1CA88DAB113F0800F0CD0D0F8BC3211
:102E9C009B68394660789847E2883946304600F09E
:102EAC007FFD002544E04B7887F800328B7987F85A
:102EBC000132CA88394600F088FD002538E0D0F888
:102ECC00BC329B68002248789847002530E04F7848
:102EDC000A2F14D00B2F20D01FB100F055FA022569
:102EEC0026E090F89C32032B03D000F04DFA02251B
:102EFC001EE0022201A900F053FD3D4618E090F8B7
:102F0C009C32032B03D000F03FFA022510E0012283
:102F1C000DF1070100F044FD0AE090F89C32032B00
:102F2C0006D000F031FA022502E000F02DFA02255D
:102F3C00284603B0F0BD38B50446812100F029FFC6
:102F4C000025E5620121204600F023FFC4F86C51F6
:102F5C008221204600F01DFF2564D4F8B8324BB115
:102F6C00D4F8BC325B689847D4F8B80200F062FF22
:102F7C00C4F8B852002038BD70B50446037CABBB16
:102F8C004FF400730222812100F0F8FE0125E56266
:102F9C004FF4007302222946204600F0EFFEC4F8DD
:102FAC006C51082303228221204600F0E7FE012306
:102FBC0023644FF4077000F039FF0546C4F8B802DB
:102FCC0068B3D4F8BC321B6898470023C5F8143298
:102FDC00C5F81832267CCEB94FF40073D5F804220C
:102FEC000121204600F014FF304670BD4023022220
:102FFC00812100F0C3FE0125E5624023022229460F
:10300C00204600F0BBFEC4F86C51CAE74023D5F84B
:10301C0004220121204600F0FBFE0026E4E70126F5
:10302C00E2E719B1C0F8BC120020704702207047CB
:10303C00D0F8B832C3F80812C3F810220020704739
:10304C00D0F8B832C3F8041200207047D0F8B82278
:10305C0092B108B5037C43B94FF40073D2F8042243
:10306C00012100F0D5FE002008BD4023D2F8042237
:10307C00012100F0CDFEF6E70220704798B108B5AB
:10308C000346D0F8B40210B10020C3F8B40209B161
:10309C00C3F8B012012183F89C121A70184600F084
:1030AC0023FE002008BD0220704719B1C0F8B412ED
:1030BC00002070470220704708B500F057FE002032
:1030CC0008BD08B5D0F8B4322BB11B68984700B9CD
:1030DC0008BD0220FCE70220FAE708B5D0F8B432AC
:1030EC005B689847002008BD38B5044600F52A7582
:1030FC00284600F035F90123C4F89432B4F8AE3206
:10310C00C4F8983294F8A81201F01F03012B0ED0CA
:10311C00022B11D02BB101F08001204600F041FEB2
:10312C0003E02946204600F0C9FA002038BD2946A4
:10313C00204600F0F7FAF8E72946204600F022FB7B
:10314C00F3E738B504460D4691BB1346D0F89422EC
:10315C00032A03D0052A24D0084633E0D0F86011A6
:10316C00D0F8642191420DD9891AC0F860118A42B5
:10317C0006D98AB21946204600F036FC284621E0D2
:10318C0092B2F7E7D0F8B4321B691BB190F89C22CD
:10319C00032A04D0204600F02FFC284612E0984762
:1031AC00F8E70021C0F8941200F0FBFD284609E076
:1031BC00D0F8B4329B6933B190F89C22032A04D125
:1031CC009847002038BD0220FCE70220FAE738B50A
:1031DC0004460D46002953D11346D0F89422022AF6
:1031EC000CD0042A00D01AB98021204600F0D9FD59
:1031FC0094F8A032012B3ED0284638BD016A426AB1
:10320C0091421BD8C169B1FBF2F302FB13132BB92A
:10321C008A4203D8D0F8983299421CD3D4F8B432ED
:10322C00DB681BB194F89C22032A21D08021204614
:10323C0000F0B7FD204600F0EAFBD9E78A1A0262DB
:10324C0092B2194600F0B9FB00231A4619462046E3
:10325C0000F0DEFDCCE70022114600F0AEFB0021B1
:10326C00C4F898120B460A46204600F0D1FDBFE781
:10327C0020469847DAE7002384F8A0322846BCE7BA
:10328C00D0F8B4325B6933B190F89C22032A04D194
:10329C0098470020B1E70220AFE70220ADE770B5F8
:1032AC00044640230022114600F068FD0125C4F8B5
:1032BC0058514026C4F864613346002280212046D0
:1032CC0000F05CFDA561666284F89C520023C4F892
:1032DC0094326360C4F8A432D4F8B8322BB1D4F869
:1032EC00B4325B68002120469847002070BD017401
:1032FC000020704790F89C3280F89D32042380F8AF
:10330C009C320020704790F89C32042B01D0002096
:10331C00704790F89D3280F89C32F8E708B590F829
:10332C009C32032B01D0002008BDD0F8B432DB69ED
:10333C00002BF8D09847F6E70346002002E0013056
:10334C00C0B201331A78002AF9D1704708B54B88FE
:10335C00012B00D008BDC0F8A43200F04DFBF9E7FA
:10336C000B7803704B7843708B78CA7803EB02238D
:10337C0043800B794A7903EB022383808B79CA79DA
:10338C0003EB0223C380704710B50446802100F084
:10339C0008FD0021204600F004FD10BD30B583B0BF
:1033AC0005460C460023ADF806304A88130A013B4B
:1033BC00062B00F2A480DFE803F004182CA2A286EE
:1033CC009300D0F8B0321B680DF10601007C9847D1
:1033DC00BDF806201AB1E388002B40F09480E388F6
:1033EC00002B00F09A8003B030BD037C43B9D0F8B9
:1033FC00B4329B6A0DF10600984702234370E7E74D
:10340C00D0F8B432DB6A0DF1060098470223437002
:10341C00DEE7D2B2052A52D8DFE802F003101D2AEB
:10342C003744D0F8B0325B6823B10DF10601007C53
:10343C009847CDE72146FFF7A7FFD4E7D0F8B03285
:10344C009B6823B10DF10601007C9847C0E721462B
:10345C00FFF79AFFC7E7D0F8B032DB6823B10DF164
:10346C000601007C9847B3E72146FFF78DFFBAE7CA
:10347C00D0F8B0321B6923B10DF10601007C9847DE
:10348C00A6E72146FFF780FFADE7D0F8B0325B69C5
:10349C0023B10DF10601007C984799E72146FFF70F
:1034AC0073FFA0E7D0F8B0329B6923B10DF1060190
:1034BC00007C98478CE72146FFF766FF93E721468F
:1034CC00FFF762FF8FE7037C33B9D0F8B4325B6B44
:1034DC000DF1060098477BE72146FFF755FF82E781
:1034EC00037C43B9D0F8B4321B6B0DF1060098473E
:1034FC00072343706CE72146FFF746FF73E721462D
:10350C00FFF742FF6FE79A4228BF1A46ADF8062034
:10351C000146284600F044FA61E7284600F06CFAB0
:10352C0061E738B504468B88F3B9CB88E3B94B888F
:10353C007F2B19D803F07F0590F89C32032B0CD00D
:10354C0080F89E52294600F053FC204600F054FAB5
:10355C0035B1022384F89C3209E0FFF715FF06E031
:10356C00012384F89C3202E02046FFF70DFF38BDA2
:10357C0038B504460D468978284B197001290ED8A8
:10358C0090F89C32022B0ED0032B21D02946FFF74A
:10359C00FBFE224B19782046FFF79FFD02E02946DF
:1035AC00FFF7F2FE38BD81B14160032380F89C32F5
:1035BC00FFF787FD022803D0204600F01DFAF1E743
:1035CC0029462046FFF7E0FEECE700F015FAE9E7A4
:1035DC0089B1436899421DD0D9B2FFF77EFD0F4BDC
:1035EC00197861602046FFF76CFD02280DD020464B
:1035FC0000F002FAD6E7022380F89C324160FFF714
:10360C006CFD204600F0F8F9CCE729462046FFF780
:10361C00BBFEC7E700F0F0F9C4E700BFCC05002003
:10362C0008B5CB88012B0AD190F89C32022B09D912
:10363C00032B09D10122011D00F0B2F901E0FFF7C3
:10364C00A3FE08BD5BB213B9FFF79EFEF9E7014676
:10365C00002341F8083F012200F0A2F9F1E708B578
:10366C0090F89C32013B022B12D8CB88022B0CD148
:10367C000123C360D0F8A4320BB10323C360022230
:10368C0000F10C0100F08CF908BDFFF77DFEFBE7A3
:10369C00FFF77AFEF8E708B590F89C32013B022B55
:1036AC0009D84B88012B00D008BD0023C0F8A432E8
:1036BC0000F0A2F9F8E7FFF767FEF5E708B50B781D
:1036CC0003F06003202B05D0402B03D043B1FFF750
:1036DC005BFE03E0D0F8B4329B689847002008BD2D
:1036EC004B78092B1BD8DFE803F011171A141A08B2
:1036FC00051A0E0BFFF752FEF0E7FFF712FFEDE78E
:10370C00FFF736FFEAE7FFF78BFFE7E7FFF7A7FFC7
:10371C00E4E7FFF71BFEE1E7FFF7BDFFDEE7FFF78E
:10372C0033FEDBE738B505460C460B7803F0600337
:10373C00202B06D0402B04D01BB1FFF725FE002018
:10374C0038BD95F89C32013B022B16D82379012BFE
:10375C000ED8D5F8B4329B68214628469847E388A2
:10376C00002BECD10028EAD1284600F045F9E6E719
:10377C0021462846FFF708FEE1E721462846FFF7D9
:10378C0003FEDCE770B505468B880C7804F060040A
:10379C00202C07D0DAB2402C04D05CB1FFF7F4FD3A
:1037AC00002405E0D5F8B4329B68284698470024DD
:1037BC00204670BD202C09D04E78012E33D0032E1C
:1037CC000AD0002E55D0FFF7DFFDF1E7D0F8B43268
:1037DC009B6898470446EBE790F89C32022B04D088
:1037EC00032B11D0FFF7D0FDE2E70AB1802A03D1F9
:1037FC002846FFF7C9FDDBE7114600F0D2FA80211D
:10380C00284600F0CEFAD3E74B8823B91AB1802AA8
:10381C0001D0CB881BB1284600F0EEF8C8E7114662
:10382C0000F0BFFAF7E790F89C32022B04D0032B80
:10383C0011D0FFF7A9FDBBE70AB1802A03D12846B6
:10384C00FFF7A2FDB4E7114600F0ABFA8021284641
:10385C0000F0A7FAACE74B88002BA9D112F07F0F30
:10386C0003D1284600F0C8F8A2E7114600F0A1FAEF
:10387C00F7E790F89C02022806D0032829D02846A6
:10388C00FFF782FD344693E70AB1802A13D113F077
:10389C00800F15D102F07F0202EB8202910001F53C
:1038AC00A8712944043100230B600222284600F041
:1038BC0077F834467CE72846FFF766FD344677E711
:1038CC0002F07F0202EB8202910010312944043194
:1038DC00E9E75BB2002B1FDB02F00F0000EB80006E
:1038EC0005EB8000D0F8580120B3002B27DB02F049
:1038FC007F0303EB83039C0004F5A8742C4404346D
:10390C000AB1802A24D100232360022221462846B2
:10391C0000F046F834464BE702F00F0000EB800055
:10392C0005EB800080690028DFD12846FFF72CFDCD
:10393C0034463DE72846FFF727FD344638E702F0CA
:10394C007F0303EB83039C0010342C440434D7E72F
:10395C001146284600F035FA10B101232360D4E754
:10396C0000232360D1E7D0B170B50D46164604464E
:10397C00FFF7E2FC431C5B009BB233802B700323EC
:10398C006B70022307E001345A1CD2B2E8540233A4
:10399C00DBB20021A95420780028F4D170BD704707
:1039AC0008B513460222C0F89422C36103620A468A
:1039BC00002100F025FA002008BD08B513460A4680
:1039CC00002100F01DFA002008BD08B513460322A3
:1039DC00C0F89422C0F85C31C0F860310A4600216E
:1039EC0000F016FA002008BD08B513460A4600215F
:1039FC0000F00EFA002008BD08B50423C0F894327C
:103A0C0000231A46194600F0FBF9002008BD08B542
:103A1C000523C0F8943200231A46194600F0F8F931
:103A2C00002008BD08B500220F491048FFF726FBFF
:103A3C0070B90F490D48FFF738FB60B90D490B48B9
:103A4C00FFF7EFFA50B90948FFF736FB48B908BD44
:103A5C00FCF7D6FBEDE7FCF7D3FBEFE7FCF7D0FB6D
:103A6C00F1E7FCF7CDFBF2E72C010020D00500209C
:103A7C000C0000201C010020002070470020704723
:103A8C0010B50146044C2046FFF7DAFA2046FFF742
:103A9C00DDFA002010BD00BFD005002010B5064C8B
:103AAC00002206492046FFF7C3FA05492046FFF7D6
:103ABC00C7FA002010BD00BFD00500207C0C0020F0
:103ACC009408002012230B80004870474801002006
:103ADC0004230B80004870475C01002000239342B4
:103AEC001ED200B510E00CF1370C01F813C0000128
:103AFC004FEA430C0CF1010C4FF0000E01F80CE0F6
:103B0C000133DBB2934209D24FEA107CB0F1204F63
:103B1C00E9D20CF1300C01F813C0E8E75DF804FBB6
:103B2C007047000038B50B4BD3F8E807D3F8EC47D7
:103B3C00D3F8F037C01800D138BD074D0822A91CA6
:103B4C00FFF7CCFF042205F112012046FFF7C6FF58
:103B5C00F2E700BF00F0FF1F6001002008B51A2338
:103B6C000B80FFF7DFFF014808BD00BF600100209C
:103B7C0008B50A4628B905490548FFF7F4FE03487D
:103B8C0008BD02490248FFF7EEFEF8E7641000207A
:103B9C004C40000810B50A46034C21460348FFF779
:103BAC00E2FE204610BD00BF6410002064400008F7
:103BBC0008B50A4628B905490548FFF7D4FE03485D
:103BCC0008BD02490248FFF7CEFEF8E7641000205A
:103BDC007840000808B50A4628B905490548FFF79A
:103BEC00C2FE034808BD02490248FFF7BCFEF8E7D5
:103BFC006410002084400008022805D8DFE800F09B
:103C0C0005040200012070470220704702680E4B29
:103C1C009A4200D0704700B583B003F5DA33DA6905
:103C2C0042F40002DA61DB6903F400030193019BA7
:103C3C00002211461420FCF701FC1420FCF736FC82
:103C4C0003B05DF804FB00BF005C004008B500F554
:103C5C002C71D0F8E802FFF747FA08BD08B501EB64
:103C6C00810300EBC303D3F87C21D0F8E802FFF703
:103C7C0068FA08BD08B501EB810300EBC303DA6BEE
:103C8C00D0F8E802FFF7A3FA08BD08B5D0F8E802AF
:103C9C00FFF744FB08BD10B504468368022B09D11D
:103CAC000121D4F8E802FFF722FBD4F8E802FFF771
:103CBC00F6FA10BDFCF7A4FAF2E7000010B50446C2
:103CCC00D0F8E802FFF716FBA36923B1024A136987
:103CDC0043F00603136110BD00ED00E008B5D0F809
:103CEC00E802FFF710FB08BD10B504461D48C0F8EC
:103CFC00E842C4F8C0021C4B036008234360022353
:103D0C00836000238361C3610362FCF79EFD30BBBB
:103D1C00182300221146D4F8C002FDF7A3FC582347
:103D2C0000228021D4F8C002FDF79CFCC0230022A5
:103D3C008121D4F8C002FDF795FC4FF48873002262
:103D4C000121D4F8C002FDF78DFC4FF480730022E2
:103D5C008221D4F8C002FDF785FC002010BDFCF7D1
:103D6C004FFAD5E764120020005C004008B5D0F88B
:103D7C00C002FCF7F6FDFFF73FFF08BD08B59446FF
:103D8C001A466346D0F8C002FDF72EFBFFF734FF4E
:103D9C0008BD08B5D0F8C002FDF768FBFFF72CFF93
:103DAC0008BD08B5D0F8C002FDF7E5FBFFF724FF0E
:103DBC0008BD08B5D0F8C002FDF719FCFFF71CFFD1
:103DCC0008BDD0F8C03211F0800F08D101F07F018E
:103DDC0001EB810103EBC10191F86A01704701F01D
:103DEC007F01013101EB810103EBC1018878704740
:103DFC0008B5D0F8C002FDF7F9F9FFF7FDFE08BDD4
:103E0C0008B5D0F8C002FDF78EFBFFF7F5FE08BD34
:103E1C0008B5D0F8C002FDF75BFBFFF7EDFE08BD5F
:103E2C0008B5D0F8C002FDF775FB08BD0048704717
:103E3C00501500207047704770B50D4E0D4D761B18
:103E4C00B61006D0002455F8043B01349847A6421E
:103E5C00F9D1094E094D00F0D5F8761BB61006D0F5
:103E6C00002455F8043B01349847A642F9D170BDA3
:103E7C009840000898400008A040000898400008AE
:103E8C00830730B548D0541E002A3FD00346CAB22F
:103E9C0001E0013C3AD303F8012B9D07F9D1032C27
:103EAC002DD9CDB245EA05250F2C45EA054536D965
:103EBC00A4F1100222F00F0C03F1200EE6444FEA9D
:103ECC00121C03F1100242E9045542E9025510326A
:103EDC007245F8D10CF1010214F00C0F03EB021235
:103EEC0004F00F0C13D0ACF1040323F003030433E0
:103EFC00134442F8045B9342FBD10CF003042CB145
:103F0C00CAB21C4403F8012B9C42FBD130BD644661
:103F1C001346002CF4D1F9E703461446BFE71A46C2
:103F2C00A446E0E7024B13B1024800F005B8704715
:103F3C0000000000513F0008002301461A461846B5
:103F4C0000F01AB838B5084B084D5B1B9C1007D015
:103F5C00043B1D44013C55F804399847002CF9D119
:103F6C00BDE8384000F054B8A4400008A040000858
:103F7C00704700BF704700BF2DE9F047DFF87CA009
:103F8C000646DAF8000098460F469146FFF7F0FF18
:103F9C001B4B1B68D3F8484124B365681F2D26DCE6
:103FAC005EB96B1C0235DAF80000636044F82570CA
:103FBC00FFF7E0FF0020BDE8F087012304EB85014B
:103FCC00C1F88890D4F88821AB401A43022EC4F86B
:103FDC008821C1F80881E4D1D4F88C211343C4F8AA
:103FEC008C31DEE703F5A674C3F84841D5E7DAF85F
:103FFC000000FFF7BFFF4FF0FF30DCE7A805002003
:10400C0094400008F8B500BFF8BC08BC9E46704749
:0C401C00F8B500BFF8BC08BC9E46704719
:104028000000000000000000010203040607080960
:1040380002030405060708090A0B0C0D0E0F1010E1
:104048000000000053544D33322056697274756174
:104058006C20436F6D506F727400000053544D69AB
:1040680063726F656C656374726F6E696373000069
:1040780043444320436F6E6669670000434443200E
:10408800496E7465726661636500000080010020F6
:08409800313F0008310100086E
:0440A0000D01000806
:1040A4000024F4000100000010000000852F000827
:1040B400432F00086D2E000800000000972D000813
:1040C4001F2E0008F12D0008000000000000000071
:1040D40000000000CD2D0008C12D0008D92D0008D6
:1040E400E52D000809024300020100C03209040062
:1040F4000001020201000524001001052401000151
:1041040004240202052406000107058203080010A6
:1041140009040100020A0000000705010240000032
:10412400070581024000000009024300020100C0AB
:1041340032090400000102020100052400100105F7
:10414400240100010424020205240600010705825B
:104154000308001009040100020A00000007050119
:104164000200020007058102000200000A060002A4
:10417400000000400100000009074300020104C0E0
:1041840032090400000102020100052400100105A7
:10419400240100010424020205240600010705820B
:1041A4000308001009040100020A000000070501C9
:1041B400024000000705810240000000A93A0008FF
:1041C400853A0008893A00088D3A0008D13A000877
:1041D400DD3A0008A13B00087D3B0008693B00086C
:1041E400BD3B0008E13B000812010002020200404E
:1041F4008304405700020102030100000403090480
:104204001A0300000000000000000000000000008D
:10421400000000000000000000000000000000009A
:10422400000000006C040020D40400203C050020A1
:10423400000000000000000000000000000000007A
:10424400000000000000000000000000000000006A
:10425400000000000000000000000000000000005A
:10426400000000000000000000000000000000004A
:10427400000000000000000000000000000000003A
:10428400000000000000000000000000000000002A
:10429400000000000000000000000000000000001A
:1042A400000000000000000000000000000000000A
:1042B40000000000000000000000000000000000FA
:1042C40000000000000000000100000000000000E9
:1042D4000E33CDAB34126DE6ECDE05000B000000AE
:1042E40000000000000000000000000000000000CA
:1042F40000000000000000000000000000000000BA
:1043040000000000000000000000000000000000A9
:104314000000000000000000000000000000000099
:0C464400000000000000000070170020C3
:0400000508000345A7
:00000001FF
