:020000040800F2
:1000000000500020A10200088502000887020008B5
:10001000890200088B0200088D0200080000000021
:100020000000000000000000000000008F02000837
:1000300091020008000000009302000895020008E9
:10004000E9020008E9020008E9020008E9020008E4
:10005000E9020008E9020008E9020008E9020008D4
:10006000E9020008E9020008E9020008E9020008C4
:10007000E9020008E9020008E9020008E9020008B4
:10008000E9020008E9020008E9020008E9020008A4
:10009000E9020008E9020008E9020008E902000894
:1000A000E9020008E9020008E9020008E902000884
:1000B000E9020008E9020008E9020008E902000874
:1000C000E9020008E9020008E9020008E902000864
:1000D000E9020008E9020008E9020008E902000854
:1000E000E9020008E9020008E90200080000000037
:1000F0000000000000000000000000000000000000
:0C01000000000000000000005FF808F1A3
:10010C0010B5054C237833B9044B13B10448AFF345
:10011C0000800123237010BD3C040020000000006F
:10012C008C0E000808B5034B1BB103490348AFF311
:10013C00008008BD00000000400400208C0E000868
:10014C0010B586B00023029303930493059303F137
:10015C00804303F504339A6942F008029A619A6964
:10016C0002F008020092009A9A6942F004029A6125
:10017C009B6903F004030193019B094C01220321A9
:10018C00204600F07BFA032302930122039204928F
:10019C00059302A9204600F05FF906B010BD00BF20
:1001AC00000C014072B6FEE700B591B02822002188
:1001BC0006A800F0A3FD002301930293039304937C
:1001CC0005930223069301230A9310230B9306A88D
:1001DC0000F07AFA68B90F23019300210291039180
:1001EC000491059101A800F0AFFC20B911B05DF8A5
:1001FC0004FBFFF7D7FFFFF7D5FF000008B500F0B1
:10020C0095F8FFF7D1FFFFF79BFF094C0121204622
:10021C0000F03AFA4FF4FA7000F0ACF802212046E4
:10022C0000F032FA4FF4FA7000F0A4F8EDE700BFDA
:10023C00000C014082B00E4B9A6942F001029A61A7
:10024C009A6902F001020092009ADA6942F0805237
:10025C00DA61DB6903F080530193019B054A536813
:10026C0023F0E06343F00073536002B0704700BFAB
:10027C000010024000000140FEE7FEE7FEE7FEE74B
:10028C00FEE770477047704708B500F061F808BD8D
:10029C00704700000C480D490D4A002302E0D45869
:1002AC00C4500433C4188C42F9D30A4A0A4C0023B4
:1002BC0001E013600432A242FBD3FFF7E9FF00F028
:1002CC00F9FCFFF79BFF7047000000203C04002066
:1002DC00D80E00083C04002060040020FEE700005B
:1002EC0010B504460E4B18784FF47A73B3FBF0F349
:1002FC000C4A1068B0FBF3F000F09AF868B90F2CB8
:10030C0001D901200AE0002221464FF0FF3000F015
:10031C0057F8054B1C60002000E0012010BD00BF09
:10032C0004000020000000200800002008B5074A47
:10033C00136843F010031360032000F02FF80F2014
:10034C00FFF7CEFFFFF776FF002008BD002002402C
:10035C00034A1168034B1B780B441360704700BFB2
:10036C005804002004000020014B1868704700BF9F
:10037C005804002038B50446FFF7F6FF0546B4F1E3
:10038C00FF3F02D0044B1B781C44FFF7EDFF401BD2
:10039C00A042FAD338BD00BF04000020074AD3683E
:1003AC0023F4E0631B041B0C000200F4E060034325
:1003BC0043F0BF6343F40033D360704700ED00E0BB
:1003CC0000B5194BDB68C3F30223C3F1070CBCF176
:1003DC00040F28BF4FF0040C03F1040EBEF1060FFE
:1003EC0018D9033B4FF0FF3E0EFA0CFC21EA0C012E
:1003FC0099400EFA03F322EA0303194300280BDB9E
:10040C000901C9B200F1604000F5614080F80013A9
:10041C005DF804FB0023E5E700F00F000901C9B209
:10042C00024B1954F4E700BF00ED00E014ED00E0BE
:10043C000138B0F1807F0BD24FF0E0235861054AB0
:10044C00F02182F823100020986107221A6170476E
:10045C000120704700ED00E070B582B00024A44686
:10046C00A6E0804DAA4210D007D97F4DAA420CD0ED
:10047C0005F58035AA4208D013E0A5F58015AA42EF
:10048C0003D005F57025AA4207D18A68002A58D0F6
:10049C00012A51D04361082403E0A5F58015AA4236
:1004AC00F3D0BEF1FF0F4ED80646BEF1FF0F4CD86D
:1004BC004FEA8C0233680F25954023EA050304FAB2
:1004CC0002F2134333604B6813F0805F6ED0674BBE
:1004DC009A6942F001029A619B6903F0010301934E
:1004EC00019B4FEA9C02951C614B53F825600CF064
:1004FC0003039D000F23AB4026EA03065D4B984295
:10050C0029D003F58063984200F08E8003F5806358
:10051C00984200F08B8003F58063984219D0042335
:10052C001AE0CC68BDE7CC680434BAE7CC68083470
:10053C00B7E7CC680C34B4E703610824B1E70024B6
:10054C00AFE70424ADE7061DAFE7ACF1080292005B
:10055C00B0E7032300E00023AB4033430232444DA9
:10056C0045F822304B6813F4803F61D0424A13683F
:10057C0043EA0E0313604B6813F4003F5ED03E4A0F
:10058C00536843EA0E0353604B6813F4801F5BD02F
:10059C00394A936843EA0E0393604B6813F4001FC7
:1005AC0058D0354AD36843EA0E03D3600CF1010CE2
:1005BC000A6832FA0CF353D0012303FA0CF302EA63
:1005CC00030E33EA0202F1D14A68122A3FF649AF10
:1005DC00122A3FF666AF01A555F822F097040008E1
:1005EC002F050008390500084B050008AF0400086A
:1005FC00AF040008AF040008AF040008AF04000803
:10060C00AF040008AF040008AF040008AF040008F2
:10061C00AF040008AF040008AF040008AF040008E2
:10062C00330500083F050008012395E7022393E7F3
:10063C00114A136823EA0E0313609CE70E4A5368B1
:10064C0023EA0E0353609FE70B4A936823EA0E03D9
:10065C009360A2E7084AD36823EA0E03D360A5E7A8
:10066C0002B070BD000022100000311000100240DA
:10067C000000014000080140000401400AB1016182
:10068C007047090401617047C36801EA030221EA5B
:10069C00030141EA024101617047000082B0084B3E
:1006AC001B68084AA2FB03235B0A00FB03F30193BC
:1006BC0000BF019B5A1E0192002BF9D102B070476A
:1006CC0000000020D34D6210002800F0F18170B5BD
:1006DC0082B00446036813F0010F2CD0994B5B6871
:1006EC0003F00C03042B1DD0964B5B6803F00C033A
:1006FC00082B12D06368B3F5803F41D0002B55D145
:10070C0003F1804303F504331A6822F480321A6033
:10071C001A6822F480221A6037E08A4B5B6813F463
:10072C00803FE7D0874B1B6813F4003F03D063680E
:10073C00002B00F0BF81236813F0020F75D0814BA2
:10074C005B6813F00C0F5FD07E4B5B6803F00C03FF
:10075C00082B54D02369002B00F08A807A4B01229D
:10076C001A60FFF701FE0546764B1B6813F0020F6B
:10077C0075D1FFF7F9FD401B0228F5D903209EE146
:10078C00704A136843F480331360636843B3FFF714
:10079C00EBFD05466B4B1B6813F4003FCBD1FFF709
:1007AC00E3FD401B6428F5D9032088E1B3F5A02FA5
:1007BC0009D0644B1A6822F480321A601A6822F449
:1007CC0080221A60E1E703F18043A3F53C331A68F9
:1007DC0042F480221A601A6842F480321A60D4E71C
:1007EC00FFF7C2FD0546574B1B6813F4003FA2D020
:1007FC00FFF7BAFD401B6428F5D903205FE1514B8C
:10080C005B6813F4803FA5D14E4B1B6813F0020FAD
:10081C0003D02369012B40F04F814A4A136823F01F
:10082C00F803616943EAC1031360236813F0080FEE
:10083C0033D0A369002B5CD0434B0122C3F8802436
:10084C00FFF792FD05463F4B5B6A13F0020F21D177
:10085C00FFF78AFD401B0228F5D903202FE1394A06
:10086C00136823F0F803616943EAC1031360DCE702
:10087C00354B00221A60FFF777FD0546314B1B689C
:10088C0013F0020FD1D0FFF76FFD401B0228F5D9F2
:10089C00032014E10120FFF701FF236813F0040F7C
:1008AC0000F09680274BDB6913F0805F34D1254B29
:1008BC00DA6942F08052DA61DB6903F0805301930C
:1008CC00019B0125214B1B6813F4807F26D0E36824
:1008DC00012B3DD0002B53D103F1804303F504339E
:1008EC001A6A22F001021A621A6A22F004021A62CF
:1008FC0033E0154B0022C3F88024FFF735FD054685
:10090C00104B5B6A13F0020FC7D0FFF72DFD401B95
:10091C000228F5D90320D2E00025D3E70B4A13684F
:10092C0043F480731360FFF71FFD0646074B1B68EB
:10093C0013F4807FCBD1FFF717FD801B6428F5D90A
:10094C000320BCE000100240000042420070004056
:10095C005F4A136A43F001031362E36833B3FFF792
:10096C0003FD06465A4B1B6A13F0020F2FD1FFF7FB
:10097C00FBFC801B41F288339842F3D903209EE0A4
:10098C00052B09D0524B1A6A22F001021A621A6A1C
:10099C0022F004021A62E0E74D4B1A6A42F004029C
:1009AC001A621A6A42F001021A62D6E7FFF7DCFCFF
:1009BC000646474B1B6A13F0020F08D0FFF7D4FC16
:1009CC00801B41F288339842F3D9032077E0E5B9D4
:1009DC00E369002B72D03E4A526802F00C02082ADE
:1009EC0056D0022B17D03B4B00221A66FFF7BCFCEB
:1009FC000446374B1B6813F0007F47D0FFF7B4FC5D
:100A0C00001B0228F5D9032059E0314AD36923F0A1
:100A1C008053D361DCE72F4B00221A66FFF7A4FC4E
:100A2C0005462B4B1B6813F0007F06D0FFF79CFC90
:100A3C00401B0228F5D9032041E0236AB3F5803F1F
:100A4C001AD023494B6823F47413226A606A024358
:100A5C0013434B601F4B01221A66FFF785FC0446BB
:100A6C001B4B1B6813F0007F0ED1FFF77DFC001BA6
:100A7C000228F5D9032022E0154A536823F40033E9
:100A8C00A1680B435360DCE7002018E0002016E05F
:100A9C00012B16D00E4B5B6803F48031226A914215
:100AAC0011D103F47013626A93420ED1002006E058
:100ABC0001207047012002E0012000E0002002B07C
:100ACC0070BD0120FBE70120F9E70120F7E700BF2B
:100ADC00001002400000424286B0174B0FCB0DF1C4
:100AEC00180C0CE90F0040F20123ADF80430134B45
:100AFC005B6803F00C02082A02D0114806B070475C
:100B0C00C3F3834218326A4412F8100C13F4803F7A
:100B1C000DD00A4B5B68C3F3404318336B4413F896
:100B2C00143C074A02FB00F0B0FBF3F0E6E7054B80
:100B3C0003FB00F0E2E700BFB40E00080010024017
:100B4C0000127A0000093D00002800F0A08070B56A
:100B5C000D460446524B1B6803F007038B420BD225
:100B6C004F4A136823F007030B431360136803F019
:100B7C0007038B4240F08D80236813F0020F17D0CF
:100B8C0013F0040F04D0474A536843F4E0635360F6
:100B9C00236813F0080F04D0424A536843F460539F
:100BAC005360404A536823F0F003A1680B43536031
:100BBC00236813F0010F31D06368012B20D0022B76
:100BCC0025D0384A126812F0020F64D035494A68B1
:100BDC0022F0030213434B60FFF7C6FB0646314B72
:100BEC005B6803F00C036268B3EB820F16D0FFF75F
:100BFC00BBFB801B41F288339842F0D9032045E0BF
:100C0C00284A126812F4003FE0D101203EE0254A48
:100C1C00126812F0007FD9D1012037E0204B1B68FD
:100C2C0003F00703AB420AD91D4A136823F00703EC
:100C3C002B431360136803F00703AB422DD12368D9
:100C4C0013F0040F06D0174A536823F4E063E168ED
:100C5C000B435360236813F0080F07D0114A5368F5
:100C6C0023F46053216943EAC1035360FFF734FF57
:100C7C000C4B5B68C3F303130B4AD35CD8400B4B90
:100C8C0018600B4B1868FFF72BFB002070BD012080
:100C9C0070470120FAE70120F8E70120F6E700BFD2
:100CAC000020024000100240A40E000800000020AA
:100CBC000800002070B50D4E0D4D761BB61006D0F9
:100CCC00002455F8043B01349847A642F9D1094E4B
:100CDC00094D00F0D5F8761BB61006D0002455F857
:100CEC00043B01349847A642F9D170BDCC0E0008E4
:100CFC00CC0E0008D40E0008CC0E0008830730B5CB
:100D0C0048D0541E002A3FD00346CAB201E0013C31
:100D1C003AD303F8012B9D07F9D1032C2DD9CDB271
:100D2C0045EA05250F2C45EA054536D9A4F11002F4
:100D3C0022F00F0C03F1200EE6444FEA121C03F1D3
:100D4C00100242E9045542E9025510327245F8D1BD
:100D5C000CF1010214F00C0F03EB021204F00F0C57
:100D6C0013D0ACF1040323F003030433134442F80F
:100D7C00045B9342FBD10CF003042CB1CAB21C44AB
:100D8C0003F8012B9C42FBD130BD64461346002C6A
:100D9C00F4D1F9E703461446BFE71A46A446E0E748
:100DAC00024B13B1024800F005B870470000000078
:100DBC00CD0D0008002301461A46184600F01AB85B
:100DCC0038B5084B084D5B1B9C1007D0043B1D44E9
:100DDC00013C55F804399847002CF9D1BDE838404E
:100DEC0000F054B8D80E0008D40E0008704700BFAD
:100DFC00704700BF2DE9F047DFF87CA00646DAF813
:100E0C00000098460F469146FFF7F0FF1B4B1B68FE
:100E1C00D3F8484124B365681F2D26DC5EB96B1CE2
:100E2C000235DAF80000636044F82570FFF7E0FF44
:100E3C000020BDE8F087012304EB8501C1F8889000
:100E4C00D4F88821AB401A43022EC4F88821C1F88B
:100E5C000881E4D1D4F88C211343C4F88C31DEE73B
:100E6C0003F5A674C3F84841D5E7DAF80000FFF79C
:100E7C00BFFF4FF0FF30DCE738040020C80E00083D
:100E8C00F8B500BFF8BC08BC9E467047F8B500BF6B
:080E9C00F8BC08BC9E4670473B
:100EA4000000000000000000010203040607080916
:100EB40002030405060708090A0B0C0D0E0F101097
:080EC4000000000010000020F6
:080ECC00AD0D00083101000822
:040ED4000D01000804
:100ED8000024F400010000001000000000000000E1
:100EE80000000000FC02002064030020CC03002066
:100EF80000000000000000000000000000000000EA
:100F080000000000000000000000000000000000D9
:100F180000000000000000000000000000000000C9
:100F280000000000000000000000000000000000B9
:100F380000000000000000000000000000000000A9
:100F48000000000000000000000000000000000099
:100F58000000000000000000000000000000000089
:100F68000000000000000000000000000000000079
:100F78000000000000000000000000000000000069
:100F88000000000000000000010000000000000058
:100F98000E33CDAB34126DE6ECDE05000B0000001D
:100FA8000000000000000000000000000000000039
:100FB8000000000000000000000000000000000029
:100FC8000000000000000000000000000000000019
:100FD8000000000000000000000000000000000009
:0C13080000000000000000005C04002059
:04000005080002A14C
:00000001FF
