:020000040800F2
:1000000000500020E1120008851100088711000847
:10001000891100088B1100088D11000800000000F4
:100020000000000000000000000000008F11000828
:1000300091110008000000009311000895110008BC
:1000400029130008291300082913000829130008A0
:100050002913000829130008291300082913000890
:100060002913000829130008291300082913000880
:1000700029130008291300089D110008AD1100087C
:100080002913000829130008291300082913000860
:100090002913000829130008291300082913000850
:1000A0002913000829130008291300082913000840
:1000B0002913000829130008291300082913000830
:1000C0002913000829130008291300082913000820
:1000D00029130008BD11000829130008291300087E
:1000E0002913000829130008291300080000000044
:1000F0000000000000000000000000000000000000
:0C01000000000000000000005FF808F1A3
:1001100010B5054C237833B9044B13B10448AFF341
:1001200000800123237010BD200A00200000000081
:100130000088000808B5034B1BB103490348AFF31F
:10014000008008BD00000000240A0020008800088C
:10015000844641EA000313F0030349D1403A23D314
:100160000B6803604B6843608B688360CB68C36037
:100170000B6903614B6943618B698361CB69C3611F
:100180000B6A03624B6A43628B6A8362CB6AC36207
:100190000B6B03634B6B43638B6B8363CB6BC363EF
:1001A00040304031403ADBD230320BD30B68036031
:1001B0004B6843608B688360CB68C360103010313C
:1001C000103AF3D20C3205D351F8043B40F8043B0B
:1001D000043AF9D2043208D0D2071CBF11F8013B0F
:1001E00000F8013B01D30B8803806046704700BFD5
:1001F000082A13D38B07B1D010F00303AED0C3F19C
:100200000403D21ADB071CBF11F8013B00F8013BC5
:10021000A4D331F8023B20F8023B9FE7043AD9D33C
:10022000013A11F8013B00F8013BF9D20B78037059
:100230004B7843708B7883706046704781F0004143
:1002400002E000BF83F0004330B54FEA41044FEABB
:10025000430594EA050F08BF90EA020F1FBF54EA56
:10026000000C55EA020C7FEA645C7FEA655C00F0F2
:10027000E2804FEA5454D4EB5555B8BF6D420CDDC3
:100280002C4480EA020281EA030382EA000083EA46
:10029000010180EA020281EA0303362D88BF30BDE6
:1002A00011F0004F4FEA01314FF4801C4CEA11313C
:1002B00002D0404261EB410113F0004F4FEA03339B
:1002C0004CEA133302D0524263EB430394EA050F26
:1002D00000F0A780A4F10104D5F1200E0DDB02FA95
:1002E0000EFC22FA05F2801841F1000103FA0EF229
:1002F000801843FA05F359410EE0A5F120050EF1EF
:10030000200E012A03FA0EFC28BF4CF0020C43FA1F
:1003100005F3C01851EBE37101F0004507D54FF02C
:10032000000EDCF1000C7EEB00006EEB0101B1F57C
:10033000801F1BD3B1F5001F0CD349085FEA3000C2
:100340004FEA3C0C04F101044FEA445212F5800FCD
:1003500080F09A80BCF1004F08BF5FEA500C50F16A
:10036000000041EB045141EA050130BD5FEA4C0C4D
:10037000404141EB0101013C28BFB1F5801FE9D2AA
:1003800091F0000F04BF01460020B1FA81F308BFCD
:100390002033A3F10B03B3F120020CDA0C3208DD99
:1003A00002F1140CC2F10C0201FA0CF021FA02F174
:1003B0000CE002F11402D8BFC2F1200C01FA02F1E4
:1003C00020FA0CFCDCBF41EA0C019040E41AA2BF09
:1003D00001EB0451294330BD6FEA04041F3C1CDAD1
:1003E0000C340EDC04F11404C4F1200220FA04F0F1
:1003F00001FA02F340EA030021FA04F345EA03019B
:1004000030BDC4F10C04C4F1200220FA02F001FA5C
:1004100004F340EA0300294630BD21FA04F02946DE
:1004200030BD94F0000F83F4801306BF81F4801177
:100430000134013D4EE77FEA645C18BF7FEA655CEA
:1004400029D094EA050F08BF90EA020F05D054EABC
:10045000000C04BF1946104630BD91EA030F1EBFC1
:100460000021002030BD5FEA545C05D140004941C5
:1004700028BF41F0004130BD14F580043CBF01F5B8
:10048000801130BD01F0004545F0FE4141F470019E
:100490004FF0000030BD7FEA645C1ABF1946104679
:1004A0007FEA655C1CBF0B46024650EA013406BF7A
:1004B00052EA033591EA030F41F4002130BD00BF39
:1004C00090F0000F04BF0021704730B54FF48064F6
:1004D00004F132044FF000054FF0000150E700BF77
:1004E00090F0000F04BF0021704730B54FF48064D6
:1004F00004F1320410F0004548BF40424FF00001C3
:100500003EE700BF42004FEAE2014FEA31014FEA05
:1005100002701FBF12F07F4393F07F4F81F0605154
:10052000704732F07F4208BF704793F07F4F04BF9F
:1005300041F40021704730B54FF4607401F000457C
:1005400021F000411CE700BF50EA010208BF7047DC
:1005500030B54FF000050AE050EA010208BF7047CD
:1005600030B511F0004502D5404261EB41014FF436
:10057000806404F132045FEA915C3FF4D8AE4FF03E
:1005800003025FEADC0C18BF03325FEADC0C18BF21
:10059000033202EBDC02C2F1200300FA03FC20FA72
:1005A00002F001FA03FE40EA0E0021FA02F11444BF
:1005B000BDE600BF70B54FF0FF0C4CF4E06C1CEAD8
:1005C00011541DBF1CEA135594EA0C0F95EA0C0F49
:1005D00000F0DEF82C4481EA030621EA4C5123EABC
:1005E0004C5350EA013518BF52EA033541F48011EB
:1005F00043F4801338D0A0FB02CE4FF00005E1FB9E
:1006000002E506F00042E0FB03E54FF00006E1FBE7
:1006100003569CF0000F18BF4EF0010EA4F1FF042A
:10062000B6F5007F64F5407404D25FEA4E0E6D416A
:1006300046EB060642EAC62141EA55514FEAC5207B
:1006400040EA5E504FEACE2EB4F1FD0C88BFBCF5F7
:10065000E06F1ED8BEF1004F08BF5FEA500E50F1A8
:10066000000041EB045170BD06F0004646EA01016E
:1006700040EA020081EA0301B4EB5C04C2BFD4EBA0
:100680000C0541EA045170BD41F480114FF0000E99
:10069000013C00F3AB8014F1360FDEBF002001F007
:1006A000004170BDC4F10004203C35DA0C341BDC81
:1006B00004F11404C4F1200500FA05F320FA04F053
:1006C00001FA05F240EA020001F0004221F0004187
:1006D00010EBD37021FA04F642EB06015EEA430EFA
:1006E00008BF20EAD37070BDC4F10C04C4F120052A
:1006F00000FA04F320FA05F001FA04F240EA0200DD
:1007000001F0004110EBD37041F100015EEA430EAD
:1007100008BF20EAD37070BDC4F1200500FA05F2CD
:100720004EEA020E20FA04F301FA05F243EA02034C
:1007300021FA04F001F0004121FA04F220EA02005B
:1007400000EBD3705EEA430E08BF20EAD37070BDA1
:1007500094F0000F0FD101F00046400041EB010181
:1007600011F4801F08BF013CF7D041EA060195F063
:10077000000F18BF704703F00046520043EB03031D
:1007800013F4801F08BF013DF7D043EA060370470A
:1007900094EA0C0F0CEA135518BF95EA0C0F0CD015
:1007A00050EA410618BF52EA4306D1D181EA03015B
:1007B00001F000414FF0000070BD50EA410606BF55
:1007C0001046194652EA430619D094EA0C0F02D19A
:1007D00050EA013613D195EA0C0F05D152EA0336DF
:1007E0001CBF104619460AD181EA030101F00041FD
:1007F00041F0FE4141F470014FF0000070BD41F046
:10080000FE4141F4780170BD70B54FF0FF0C4CF41F
:10081000E06C1CEA11541DBF1CEA135594EA0C0F3E
:1008200095EA0C0F00F0A7F8A4EB050481EA030E8B
:1008300052EA03354FEA013100F088804FEA033372
:100840004FF0805545EA131343EA12634FEA022240
:1008500045EA111545EA10654FEA00260EF0004101
:100860009D4208BF964244F1FD0404F5407402D253
:100870005B084FEA3202B61A65EB03055B084FEAE4
:1008800032024FF480104FF4002CB6EB020E75EBE1
:10089000030E22BFB61A754640EA0C005B084FEA09
:1008A0003202B6EB020E75EB030E22BFB61A754686
:1008B00040EA5C005B084FEA3202B6EB020E75EBD1
:1008C000030E22BFB61A754640EA9C005B084FEA49
:1008D0003202B6EB020E75EB030E22BFB61A754656
:1008E00040EADC0055EA060E18D04FEA051545EA45
:1008F00016754FEA06164FEAC30343EA52734FEAEE
:10090000C2025FEA1C1CC0D111F4801F0BD141EA66
:1009100000014FF000004FF0004CB6E711F4801FCB
:1009200004BF01430020B4F1FD0C88BFBCF5E06FAB
:100930003FF6AFAEB5EB030C04BFB6EB020C5FEABB
:10094000500C50F1000041EB045170BD0EF0004E10
:100950004EEA113114EB5C04C2BFD4EB0C0541EA42
:10096000045170BD41F480114FF0000E013C90E63F
:1009700045EA060E8DE60CEA135594EA0C0F08BF03
:1009800095EA0C0F3FF43BAF94EA0C0F0AD150EA02
:1009900001347FF434AF95EA0C0F7FF425AF104695
:1009A00019462CE795EA0C0F06D152EA03353FF4BD
:1009B000FDAE1046194622E750EA410618BF52EA3A
:1009C00043067FF4C5AE50EA41047FF40DAF52EA0E
:1009D00043057FF4EBAE12E74FF0FF3C06E000BFAB
:1009E0004FF0010C02E000BF4FF0010C4DF804CDB8
:1009F0004FEA410C7FEA6C5C4FEA430C18BF7FEA78
:100A00006C5C1BD001B050EA410C0CBF52EA430CA5
:100A100091EA030F02BF90EA020F0020704710F125
:100A2000000F91EA030F58BF994208BF90422CBFB4
:100A3000D8176FEAE37040F0010070474FEA410CAD
:100A40007FEA6C5C02D150EA013C07D14FEA430CCB
:100A50007FEA6C5CD6D152EA033CD3D05DF8040B3C
:100A6000704700BF8446104662468C46194663466E
:100A700000E000BF01B5FFF7B7FF002848BF10F145
:100A8000000F01BD4DF808EDFFF7F4FF0CBF01208A
:100A900000205DF808FB00BF4DF808EDFFF7EAFF06
:100AA00034BF012000205DF808FB00BF4DF808EDC1
:100AB000FFF7E0FF94BF012000205DF808FB00BFB6
:100AC0004DF808EDFFF7CEFF94BF012000205DF840
:100AD00008FB00BF4DF808EDFFF7C4FF34BF01204D
:100AE00000205DF808FB00BF4FEA410C7FEA6C5C18
:100AF00002D150EA013C0AD14FEA430C7FEA6C5C18
:100B000002D152EA033C02D14FF0000070474FF08F
:100B1000010070474FEA410212F5001215D211D5BB
:100B20006FF47873B3EB625212D94FEAC12343F0EA
:100B3000004343EA505311F0004F23FA02F018BF6C
:100B4000404270474FF00000704750EA013005D135
:100B500011F0004008BF6FF0004070474FF00000F8
:100B6000704700BF53B94AB9002908BF00281CBF0D
:100B70004FF0FF314FF0FF3000F076B9ADF1080CC7
:100B80006DE904CE00F006F8DDF804E0DDE90223AB
:100B900004B070472DE9F047089E0D46044688468C
:100BA000002B4DD18A42944668D9B2FA82F252B1F2
:100BB00001FA02F3C2F1200120FA01F10CFA02FC61
:100BC00041EA030894404FEA1C41B8FBF1F71FFAD1
:100BD0008CFE01FB178807FB0EF0230C43EA084349
:100BE00098420AD91CEB030307F1FF3580F01E8100
:100BF000984240F21B81023F63441B1AB3FBF1F0A1
:100C000001FB103300FB0EFEA4B244EA0344A645E8
:100C10000AD91CEB040400F1FF3380F00981A645DA
:100C200040F20681644402380021A4EB0E0440EA3D
:100C300007401EB10023D440C6E90043BDE8F08759
:100C40008B4208D9002E00F0EE800021C6E9000595
:100C50000846BDE8F087B3FA83F100294AD1AB42D8
:100C600002D3824200F2FC80841A65EB0303012068
:100C70009846002EE2D0C6E90048DFE702B9FFDE61
:100C8000B2FA82F2002A40F09180A1EB0C0001211F
:100C90004FEA1C471FFA8CFEB0FBF7F307FB13006B
:100CA000250C45EA00450EFB03F0A84208D91CEBD1
:100CB000050503F1FF3802D2A84200F2CE80434678
:100CC0002D1AB5FBF7F007FB10550EFB00FEA4B282
:100CD00044EA0544A64508D91CEB040400F1FF359D
:100CE00002D2A64500F2B6802846A4EB0E0440EAE4
:100CF00003409EE7C1F120078B4022FA07FC4CEA33
:100D0000030C25FA07FA4FEA1C49BAFBF9F820FA56
:100D100007F309FB18AA8D401FFA8CFE1D4300FA49
:100D200001F308FB0EF02C0C44EA0A44A04202FA3C
:100D300001F20BD91CEB040408F1FF3A80F0888023
:100D4000A04240F28580A8F102086444241AB4FB52
:100D5000F9F009FB104400FB0EFEADB245EA044475
:100D6000A64508D91CEB040400F1FF356CD2A6455A
:100D70006AD90238644440EA0840A0FB0295A4EB1B
:100D80000E04AC42C846AE4656D353D0002E69D0AE
:100D9000B3EB080264EB0E0422FA01F304FA07F73E
:100DA0001F43CC40C6E90074002147E70CFA02FC5F
:100DB000C2F1200125FA01F34FEA1C4720FA01F1A4
:100DC00095400D43B3FBF7F107FB11331FFA8CFE7F
:100DD000280C40EA034001FB0EF3834204FA02F4BC
:100DE00008D91CEB000001F1FF382FD283422DD926
:100DF00002396044C01AB0FBF7F307FB1300ADB231
:100E000045EA004503FB0EF0A84208D91CEB050596
:100E100003F1FF3816D2A84214D9023B6544281AC0
:100E200043EA014138E73146304607E72F46E4E61A
:100E30001846F9E64B45A9D2B9EB020865EB0C0E52
:100E40000138A3E74346EAE7284694E74146D1E75D
:100E5000D0467BE76444023847E7023B65442FE70E
:100E6000084606E73146E9E6704700BF82B0064B08
:100E70009A6942F004029A619B6903F004030193AA
:100E8000019B02B0704700BF0010024000B583B064
:100E90000E4B5A6942F001025A615B6903F001038B
:100EA0000193019B002211460E2000F0AFFA0E20A4
:100EB00000F0E4FA002211460F2000F0A7FA0F20FC
:100EC00000F0DCFA03B05DF804FB00BF0010024044
:100ED0000FB410B582B004AB53F8042B01930A4C45
:100EE0009721204601F0EAFC82B22146074801F032
:100EF0008DF9064B1B681B6813F0400FF9D002B048
:100F0000BDE8104004B070473C0A00205C0B002094
:100F100072B6FEE708B50F480F4B03604FF4E1339C
:100F2000436000238360C36003610C2242618361DC
:100F3000C36101F03BF950B906480268D36843F039
:100F40001003D3606422054901F020FC08BDFFF7BF
:100F5000DFFF00BF5C0B00200038014000000020D4
:100F600000B591B02822002106A801F055FC00230D
:100F700001930293039304930593012206924FF485
:100F8000803307930A9202220D920E934FF4E013DE
:100F90000F9306A800F052FD80B90F2301930221A0
:100FA0000291002303934FF480620492059301A8F9
:100FB00000F084FF20B911B05DF804FBFFF7A8FF33
:100FC000FFF7A6FF10B500F0D7F9FFF7C9FFFFF74D
:100FD0004DFFFFF75BFFFFF79DFF642214491548A3
:100FE00001F014F94FF47A7000F0EAF91248FFF7B3
:100FF0006FFF124B1B78012BFBD100240F4B1C7091
:101000000F4B19780F48FFF763FF0D4B1B78A34276
:1010100006DC0D48FFF75CFF094B00221A70E8E779
:10102000034B195D0948FFF753FF0134EDE700BF9B
:10103000000000205C0B002018880008A10B002095
:10104000A00B002030880008508800084C88000859
:1010500082B00E4B9A6942F001029A619A6902F0DD
:1010600001020092009ADA6942F08052DA61DB698B
:1010700003F080530193019B054A536823F0E0631A
:1010800043F00073536002B0704700BF001002408D
:101090000000014070B586B00023029303930493CF
:1010A00005930268314B9A4201D006B070BD0446E8
:1010B00003F558439A6942F480429A619A6902F4AE
:1010C00080420092009A9A6942F004029A619B69F8
:1010D00003F004030193019B4FF400730293022376
:1010E000039303230593224E02A9304600F07EFBB2
:1010F0004FF48063029300250395049502A93046BE
:1011000000F074FB1B481C4B036045608560802326
:10111000C360056145618561C56100F0E7F9F0B91B
:10112000144BA3635C621548154B036010234360A6
:10113000002383608022C260036143618361C361D5
:1011400000F0D4F970B90D4B63635C620022114664
:10115000252000F05BF9252000F090F9A5E7FFF7C6
:10116000D7FEDDE7FFF7D4FEEDE700BF0038014012
:1011700000080140D40A002058000240180B00204B
:1011800044000240FEE7FEE7FEE7FEE7FEE77047A9
:101190007047704708B500F001F908BD08B502486E
:1011A00000F082FA08BD00BF180B002008B5024805
:1011B00000F07AFA08BD00BFD40A002010B582B052
:1011C000124C204601F068F923681A6812F0100FDB
:1011D00001D102B010BD0E4A01211170002201920E
:1011E0001A6801925B680193019B0A4B1B685B685C
:1011F000C3F16403084A1370204601F04DF86422DD
:101200000649204601F0C2FAE3E700BF5C0B00206C
:10121000A10B0020D40A0020A00B00200000002019
:101220000120704708B501F0CDFA162303604FF096
:10123000FF3008BD08B54FF0FF31FFF7F3FFFEE7C1
:1012400070B50C461646002506E0AFF30080214637
:1012500001F8010B01350C46B542F6DB304670BD96
:1012600070B50C461646002504E014F8010BAFF3E8
:1012700000800135B542F8DB304670BD4FF0FF30DD
:1012800070474FF400534B600020704701207047B7
:101290000020704710B503460C4A0D490D48006800
:1012A00040B10C4800680344521A934206D8094AD8
:1012B000136010BD0748084C0460F2E701F082FAA1
:1012C0000C2303604FF0FF30F3E700BF0050002015
:1012D00000040000A40B0020F80B00207047000061
:1012E0000C480D490D4A002302E0D458C450043381
:1012F000C4188C42F9D30A4A0A4C002301E0136057
:101300000432A242FBD3FFF7E9FF01F061FAFFF7D5
:1013100059FE704700000020200A00204C8C000875
:10132000200A0020F40B0020FEE7000010B5044660
:101330000E4B18784FF47A73B3FBF0F30C4A106835
:10134000B0FBF3F000F0A8F868B90F2C01D9012028
:101350000AE0002221464FF0FF3000F057F8054B1D
:101360001C60002000E0012010BD00BF68000020CC
:10137000640000206C00002008B5074A136843F0A1
:1013800010031360032000F02FF80F20FFF7CEFFAB
:10139000FFF75EFE002008BD00200240034A1168EE
:1013A000034B1B780B441360704700BFA80B002051
:1013B00068000020014B1868704700BFA80B002090
:1013C00038B50446FFF7F6FF0546B4F1FF3F02D0FB
:1013D000044B1B781C44FFF7EDFF401BA042FAD3DF
:1013E00038BD00BF68000020074AD36823F4E063DB
:1013F0001B041B0C000200F4E060034343F0BF63D6
:1014000043F40033D360704700ED00E000B5194BA2
:10141000DB68C3F30223C3F1070CBCF1040F28BF40
:101420004FF0040C03F1040EBEF1060F18D9033B74
:101430004FF0FF3E0EFA0CFC21EA0C0199400EFA27
:1014400003F322EA0303194300280BDB0901C9B2A5
:1014500000F1604000F5614080F800135DF804FB86
:101460000023E5E700F00F000901C9B2024B19544F
:10147000F4E700BF00ED00E014ED00E0002807DB1A
:1014800000F01F02400901239340024A42F8203035
:10149000704700BF00E100E00138B0F1807F0BD25F
:1014A0004FF0E0235861054AF02182F82310002014
:1014B000986107221A6170470120704700ED00E033
:1014C00030B40124056CAC40C56B6C60046863608B
:1014D0004368102B05D0036899600368DA6030BC5C
:1014E000704703689A600368D960F8E760B310B486
:1014F00002460168154B0B441548A0FB03031B096A
:101500009B001364134BD363022382F821300868D5
:1015100020F47F5020F03000536894682343D4684F
:101520002343146923435469234394692343D469AF
:10153000234303430B6000209063012382F8213092
:1015400082F8200010BC704701207047F8FFFDBFF3
:10155000CDCCCCCC0000024038B5044690F8200039
:10156000012831D0012084F8200094F821000128BE
:1015700004D0002384F82030022038BD022084F8F3
:1015800021000020A0632568286820F00100286061
:101590002046FFF795FFE36A5BB12268136843F0CA
:1015A0000E0313602268136843F0010313600020E8
:1015B000E3E72268136823F00403136022681368CA
:1015C00043F00A031360EDE70220D6E790F82130DC
:1015D000022B06D004238363002380F820300120EF
:1015E00070470268136823F00E03136002681368E3
:1015F00023F001031360036CC16B012202FA03F3B1
:101600004B6080F82120002380F820301846704776
:1016100008B590F82130022B03D004238363012006
:1016200008BD0268136823F00E0313600268136894
:1016300023F0010313600368194A934214D0143253
:1016400093421FD0143293421ED0143293421ED0C4
:10165000143293421ED01432934202D04FF0807263
:1016600003E04FF4801200E001220E4B5A60012388
:1016700080F82130002380F82030436B6BB198470D
:101680000020CDE71022F0E74FF48072EDE74FF431
:101690008052EAE74FF48032E7E70020C0E700BF5E
:1016A000080002400000024038B5C36B1A680468A5
:1016B0002568016C04238B40134235D015F0040FCC
:1016C00032D0236813F0200F03D1236823F00403E2
:1016D00023600368434A934214D01432934218D0D3
:1016E0001432934217D01432934217D014329342DB
:1016F00017D01432934202D04FF0806203E04FF4CF
:10170000800200E00422384B5A60C36A03B1984754
:1017100038BD4022F7E74FF48062F4E74FF480428F
:10172000F1E74FF48022EEE702238B4013423CD0D6
:1017300015F0020F39D0236813F0200F06D123686B
:1017400023F00A032360012380F821300368254A2F
:10175000934214D0143293421CD0143293421BD0C3
:10176000143293421BD0143293421BD01432934252
:1017700002D04FF0007203E04FF4001200E00222AA
:10178000194B5A60002380F82030836A002BBFD0A9
:101790009847BDE72022F3E74FF40072F0E74FF4DB
:1017A0000052EDE74FF40032EAE7082303FA01F1B3
:1017B0001142ADD015F0080FAAD0236823F00E0314
:1017C0002360026CC16B012303FA02F24A60836357
:1017D00080F82130002380F82030036B002B97D055
:1017E000984795E7080002400000024070B582B0BB
:1017F0000024A446A6E0804DAA4210D007D97F4D10
:10180000AA420CD005F58035AA4208D013E0A5F510
:101810008015AA4203D005F57025AA4207D18A682F
:10182000002A58D0012A51D04361082403E0A5F5CD
:101830008015AA42F3D0BEF1FF0F4ED80646BEF186
:10184000FF0F4CD84FEA8C0233680F25954023EAEE
:10185000050304FA02F2134333604B6813F0805F10
:101860006ED0674B9A6942F001029A619B6903F05E
:1018700001030193019B4FEA9C02951C614B53F8B5
:1018800025600CF003039D000F23AB4026EA0306FE
:101890005D4B984229D003F58063984200F08E801A
:1018A00003F58063984200F08B8003F580639842D3
:1018B00019D004231AE0CC68BDE7CC680434BAE739
:1018C000CC680834B7E7CC680C34B4E7036108246B
:1018D000B1E70024AFE70424ADE7061DAFE7ACF1A4
:1018E00008029200B0E7032300E00023AB4033433B
:1018F0000232444D45F822304B6813F4803F61D0EA
:10190000424A136843EA0E0313604B6813F4003F26
:101910005ED03E4A536843EA0E0353604B6813F4AB
:10192000801F5BD0394A936843EA0E0393604B688B
:1019300013F4001F58D0354AD36843EA0E03D3602E
:101940000CF1010C0A6832FA0CF353D0012303FAAC
:101950000CF302EA030E33EA0202F1D14A68122ABA
:101960003FF649AF122A3FF666AF01A555F822F0BF
:101970001F180008B7180008C1180008D31800087D
:1019800037180008371800083718000837180008FB
:1019900037180008371800083718000837180008EB
:1019A00037180008371800083718000837180008DB
:1019B00037180008BB180008C7180008012395E76E
:1019C000022393E7114A136823EA0E0313609CE78E
:1019D0000E4A536823EA0E0353609FE70B4A93684D
:1019E00023EA0E039360A2E7084AD36823EA0E03B2
:1019F000D360A5E702B070BD0000221000003110D6
:101A000000100240000001400008014000040140B5
:101A100082B0084B1B68084AA2FB03235B0A00FB49
:101A200003F3019300BF019B5A1E0192002BF9D1D1
:101A300002B0704764000020D34D6210002800F00F
:101A4000F18170B582B00446036813F0010F2CD009
:101A5000994B5B6803F00C03042B1DD0964B5B681D
:101A600003F00C03082B12D06368B3F5803F41D01C
:101A7000002B55D103F1804303F504331A6822F497
:101A800080321A601A6822F480221A6037E08A4B8A
:101A90005B6813F4803FE7D0874B1B6813F4003F6B
:101AA00003D06368002B00F0BF81236813F0020F9E
:101AB00075D0814B5B6813F00C0F5FD07E4B5B6879
:101AC00003F00C03082B54D02369002B00F08A800C
:101AD0007A4B01221A60FFF76DFC0546764B1B68B6
:101AE00013F0020F75D1FFF765FC401B0228F5D9F2
:101AF00003209EE1704A136843F4803313606368E7
:101B000043B3FFF757FC05466B4B1B6813F4003FCC
:101B1000CBD1FFF74FFC401B6428F5D9032088E1A7
:101B2000B3F5A02F09D0644B1A6822F480321A60F2
:101B30001A6822F480221A60E1E703F18043A3F5DA
:101B40003C331A6842F480221A601A6842F48032E8
:101B50001A60D4E7FFF72EFC0546574B1B6813F4B9
:101B6000003FA2D0FFF726FC401B6428F5D90320D4
:101B70005FE1514B5B6813F4803FA5D14E4B1B686E
:101B800013F0020F03D02369012B40F04F814A4A22
:101B9000136823F0F803616943EAC1031360236803
:101BA00013F0080F33D0A369002B5CD0434B012204
:101BB000C3F88024FFF7FEFB05463F4B5B6A13F03A
:101BC000020F21D1FFF7F6FB401B0228F5D90320B5
:101BD0002FE1394A136823F0F803616943EAC1032E
:101BE0001360DCE7354B00221A60FFF7E3FB054684
:101BF000314B1B6813F0020FD1D0FFF7DBFB401B0A
:101C00000228F5D9032014E10120FFF701FF236822
:101C100013F0040F00F09680274BDB6913F0805F10
:101C200034D1254BDA6942F08052DA61DB6903F086
:101C300080530193019B0125214B1B6813F4807F86
:101C400026D0E368012B3DD0002B53D103F1804314
:101C500003F504331A6A22F001021A621A6A22F0AA
:101C600004021A6233E0154B0022C3F88024FFF708
:101C7000A1FB0546104B5B6A13F0020FC7D0FFF7BC
:101C800099FB401B0228F5D90320D2E00025D3E7B9
:101C90000B4A136843F480731360FFF78BFB06460F
:101CA000074B1B6813F4807FCBD1FFF783FB801BAE
:101CB0006428F5D90320BCE0001002400000424235
:101CC000007000405F4A136A43F001031362E36847
:101CD00033B3FFF76FFB06465A4B1B6A13F0020F34
:101CE0002FD1FFF767FB801B41F288339842F3D96D
:101CF00003209EE0052B09D0524B1A6A22F0010204
:101D00001A621A6A22F004021A62E0E74D4B1A6A5C
:101D100042F004021A621A6A42F001021A62D6E71D
:101D2000FFF748FB0646474B1B6A13F0020F08D02B
:101D3000FFF740FB801B41F288339842F3D9032020
:101D400077E0E5B9E369002B72D03E4A526802F0B1
:101D50000C02082A56D0022B17D03B4B00221A66E1
:101D6000FFF728FB0446374B1B6813F0007F47D072
:101D7000FFF720FB001B0228F5D9032059E0314A68
:101D8000D36923F08053D361DCE72F4B00221A661E
:101D9000FFF710FB05462B4B1B6813F0007F06D0A6
:101DA000FFF708FB401B0228F5D9032041E0236A16
:101DB000B3F5803F1AD023494B6823F47413226A89
:101DC000606A024313434B601F4B01221A66FFF700
:101DD000F1FA04461B4B1B6813F0007F0ED1FFF78E
:101DE000E9FA001B0228F5D9032022E0154A5368BE
:101DF00023F40033A1680B435360DCE7002018E0B4
:101E0000002016E0012B16D00E4B5B6803F48031E6
:101E1000226A914211D103F47013626A93420ED187
:101E2000002006E001207047012002E0012000E0D0
:101E3000002002B070BD0120FBE70120F9E701207E
:101E4000F7E700BF001002400000424286B0174B87
:101E50000FCB0DF1180C0CE90F0040F20123ADF887
:101E60000430134B5B6803F00C02082A02D01148BF
:101E700006B07047C3F3834218326A4412F8100C5C
:101E800013F4803F0DD00A4B5B68C3F34043183313
:101E90006B4413F8143C074A02FB00F0B0FBF3F06C
:101EA000E6E7054B03FB00F0E2E700BF6C880008A3
:101EB0000010024000127A0000093D00002800F0E6
:101EC000A08070B50D460446524B1B6803F0070313
:101ED0008B420BD24F4A136823F007030B43136066
:101EE000136803F007038B4240F08D80236813F0E2
:101EF000020F17D013F0040F04D0474A536843F47D
:101F0000E0635360236813F0080F04D0424A53681B
:101F100043F460535360404A536823F0F003A168D0
:101F20000B435360236813F0010F31D06368012B1A
:101F300020D0022B25D0384A126812F0020F64D04C
:101F400035494A6822F0030213434B60FFF732FA27
:101F50000646314B5B6803F00C036268B3EB820FFB
:101F600016D0FFF727FA801B41F288339842F0D948
:101F7000032045E0284A126812F4003FE0D1012016
:101F80003EE0254A126812F0007FD9D1012037E0E7
:101F9000204B1B6803F00703AB420AD91D4A1368A4
:101FA00023F007032B431360136803F00703AB42CE
:101FB0002DD1236813F0040F06D0174A536823F479
:101FC000E063E1680B435360236813F0080F07D008
:101FD000114A536823F46053216943EAC1035360F3
:101FE000FFF734FF0C4B5B68C3F303130B4AD35C5E
:101FF000D8400B4B18600B4B1868FFF797F900207F
:1020000070BD012070470120FAE70120F8E70120A8
:10201000F6E700BF0020024000100240548800088C
:10202000640000206C000020014B1868704700BF5E
:102030006400002008B5FFF7F7FF044B5B68C3F3AB
:102040000223034AD35CD84008BD00BF0010024001
:102050006488000808B5FFF7E7FF044B5B68C3F32B
:10206000C223034AD35CD84008BD00BF0010024021
:10207000648800080268D36823F0C003D36020237B
:1020800080F83D3070470268D36823F49073D360C2
:102090000268536923F001035361036B012B05D0E0
:1020A000202380F83E300023036370470268D36822
:1020B00023F01003D360F3E790F83D30DBB2212B1F
:1020C00001D0022070478368B3F5805F17D0036AA0
:1020D0005A1C02621A7803685A60C38C9BB2013B97
:1020E0009BB2C3844BB90268D36823F08003D360EA
:1020F0000268D36843F04003D3600020704703694F
:10210000002BE4D1036A1B880268C3F30803536001
:10211000036A02330362E0E710B5044602681369FC
:1021200023F44053C1680B4313618368026913436E
:1021300042691A430168CB6823F4B05323F00C03BF
:102140001343CB600268536923F4407381690B43E6
:1021500053610268134B9A4220D0FFF76BFF02468F
:1021600002EB820202EB820263689B00B2FBF3F295
:102170000D48A0FB02314909642303FB11231B0115
:102180003233A0FB03235B0903F0F00202EB0112E0
:1021900003F00F03216813448B6010BDFFF75AFF53
:1021A0000246DDE7003801401F85EB5158B310B5FA
:1021B000044690F83D300BB3242384F83D30226868
:1021C000D36823F40053D3602046FFF7A5FF2268AD
:1021D000136923F4904313612268536923F02A039F
:1021E00053612268D36843F40053D3600020206415
:1021F000202384F83D3084F83E3010BD80F83C3018
:10220000FEF748FFD8E701207047000038B590F886
:102210003D30DBB2202B31D10446002930D0002ADA
:1022200030D090F83C30012B2ED0012380F83C3088
:1022300001628284C28400250564212380F83D3038
:10224000436B12489862636B1148D862636B114804
:102250001863636B5D6320681346021D606BFFF7B4
:102260007BF923686FF040021A6084F83C502268C2
:10227000536943F080035361284600E0022038BDD3
:102280000120FCE70120FAE70220F8E7FF2200081E
:102290004B2300085B23000810B5044601684A6917
:1022A00090F83D30DBB2212B0AD021684A6902F058
:1022B000400294F83E30DBB2222B11D0002010BD3A
:1022C00002F08002002AF0D04B6923F080034B61BA
:1022D000406B08B1FFF77AF92046FFF7CBFEE4E741
:1022E000002AEBD04B6923F040034B61A06B08B18F
:1022F000FFF76CF92046FFF7C6FEDFE7704708B529
:102300000346406A1B681B6813F0200F0CD10023A2
:10231000C3840268536923F0800353610268D36861
:1023200043F04003D36008BDFFF7E8FFFBE708B5C3
:102330000168CA6822F04002CA60202280F83D206D
:10234000FFF7DCFF002008BD704708B5406AFFF7C3
:10235000FBFF08BD70477047704710B5446A23689B
:102360005A6994F83D30DBB2212B10D023685A69AA
:1023700002F0400294F83E30DBB2222B11D0236CE5
:1023800043F0100323642046FFF7E6FF10BD02F080
:102390008002002AEAD00023E3842046FFF76AFE89
:1023A000E4E7002AEBD00023E3852046FFF76BFE2D
:1023B000E5E708B5406A0023C385C384FFF7CCFF77
:1023C00008BD704790F83E30DBB2222B60D18368A5
:1023D000B3F5805F46D0826AB3F5805F04D0002BEE
:1023E0004DD10369002B4AD103685B681370836A7F
:1023F00001338362C38D9BB2013B9BB2C385002B2B
:1024000048D100B583B00268D36823F02003D360BD
:102410000268D36823F48073D3600268536923F0A1
:1024200001035361202380F83E30036B012B2CD134
:10243000002303630268D36823F01003D3600368AA
:102440001A6812F0100F06D0002201921A68019249
:102450005B680193019B818DFFF7B3FF002003B000
:102460005DF804FB0269002AB5D1826A03685B68E3
:10247000C3F308031380836A02338362BAE70368F5
:102480005B6803F07F031370B1E7FFF763FFE5E7D5
:10249000022070470020704730B583B004460268C0
:1024A0001368D068516913F00F0505D113F0200FA0
:1024B00002D010F0200F19D12DB111F0010119D166
:1024C00010F4907F16D1216B012975D013F0800F85
:1024D00003D010F0800F40F0D78013F0400F03D0EE
:1024E00010F0400F40F0D48003B030BD2046FFF71D
:1024F00069FFF9E713F0010F06D010F4807F03D0D5
:10250000226C42F00102226413F0040F04D019B1CE
:10251000226C42F00202226413F0020F04D019B1BF
:10252000226C42F00402226413F0080F07D010F06E
:10253000200F00D119B1226C42F008022264226CF3
:10254000002AD1D013F0200F02D010F0200F21D19B
:1025500023685B6903F04003226C12F0080F00D17E
:1025600023B32046FFF78FFD23685A6912F0400F0E
:1025700018D05A6922F040025A61A36B73B1464ADF
:102580005A63A06BFFF744F80028ADD0A06B436BF3
:102590009847A9E72046FFF715FFD9E72046FFF740
:1025A000DBFEA1E72046FFF7D7FE9DE72046FFF7B9
:1025B000D3FE0023236497E713F0100F86D010F0AA
:1025C000100F83D000230193136801935368019384
:1025D000019B536913F0400F32D0A16B0B685B680D
:1025E0009BB2002B80D0A08D98427FF67DAFE38513
:1025F0008B69202B08D1A18DE38D9BB2C91A89B2BA
:102600002046FFF7DEFE6FE7D36823F48073D360C4
:102610002268536923F0010353612268536923F050
:1026200040035361202384F83E3000232363226853
:10263000D36823F01003D360A06BFEF7C7FFDAE77F
:10264000A18DE38D9BB2C91A89B2E38D9BB2002B99
:102650003FF44AAF00293FF447AFD36823F49073A7
:10266000D3602268536923F001035361202384F867
:102670003E30002323632268D36823F01003D36025
:102680002046FFF79EFE2FE72046FFF715FD2BE7BC
:102690002046FFF74CFE27E7B323000808B5406A41
:1026A000036B012B02D0FFF756FE08BD818D490850
:1026B000FFF787FEF9E708B50346406A1B681B6809
:1026C00013F0200F16D10023C3850268D36823F4CA
:1026D0008073D3600268536923F001035361026879
:1026E000536923F040035361202380F83E30036B8D
:1026F000012B05D0036B012B08D0FFF72BFE08BD83
:102700000268D36823F01003D360F3E7818DFFF7ED
:1027100058FEF4E730B583B00446134681628285E3
:1027200000250564222280F83E20826B14489062C6
:10273000A26B1448D062A26B13481063A26B55635E
:1027400020680A46011DA06BFEF706FF019523686D
:102750001A6801925A680192019A84F83C50DA682A
:1027600042F48072DA602268536943F001035361D6
:102770002268536943F040035361284603B030BDDB
:10278000B72600089D2600085B23000808B590F8CE
:102790003E30DBB2202B0DD171B17AB190F83C30D4
:1027A000012B0DD0012380F83C3000230363FFF799
:1027B000B1FF00E0022008BD0120FCE70120FAE79C
:1027C0000220F8E7014B1868704700BF7000002036
:1027D00070B50D4E0D4D761BB61006D0002455F881
:1027E000043B01349847A642F9D1094E094D06F041
:1027F00007F8761BB61006D0002455F8043B0134C8
:102800009847A642F9D170BD408C0008408C000862
:10281000488C0008408C0008830730B548D0541E0F
:10282000002A3FD00346CAB201E0013C3AD303F884
:10283000012B9D07F9D1032C2DD9CDB245EA0525F1
:102840000F2C45EA054536D9A4F1100222F00F0CF1
:1028500003F1200EE6444FEA121C03F1100242E994
:10286000045542E9025510327245F8D10CF10102CB
:1028700014F00C0F03EB021204F00F0C13D0ACF1A8
:10288000040323F003030433134442F8045B93422C
:10289000FBD10CF003042CB1CAB21C4403F8012B89
:1028A0009C42FBD130BD64461346002CF4D1F9E7BD
:1028B00003461446BFE71A46A446E0E710B5194C94
:1028C000002924689AB028DB009004904FF402702D
:1028D0004FF6FF7CADF80C0011D001390291059143
:1028E00020466946ADF80EC000F04CF8421C01DAF3
:1028F0008B2323600022009B1A701AB010BD029136
:10290000059120466946ADF80EC000F03BF8431C27
:1029100001DA8B2323601AB010BD8B234FF0FF30F8
:102920002360F8E770000020024B13B1024800F06A
:1029300005B870470000000049290008002301463F
:102940001A46184601F070BD38B5084B084D5B1BA0
:102950009C1007D0043B1D44013C55F804399847AE
:10296000002CF9D1BDE8384005F050BF4C8C000870
:10297000488C0008704700BF704700BF704700BF19
:10298000704700BF2DE9F04FD5B00C460C91914631
:102990000E930A9002F0DAFE03681846179303F0CC
:1029A000C7FDA3891690190603D52369002B00F0F3
:1029B0008F8700242BAB224698464D46CDE929440B
:1029C0002893129400230024CDE914342B78CDE908
:1029D0001922CDE91B2218920892002B00F0CE811B
:1029E000AA4604E01AF8013F002B00F00981252BCC
:1029F000F8D1BAEB050640F007819AF80030002BB9
:102A000000F0BC8100234FF0FF324FF02B0920244F
:102A10001F469AF8016007920AF1010A8DF8833087
:102A200009930AF1010AA6F120035A2B00F2208132
:102A3000DFE813F0CA021E011E01C5021E011E01BD
:102A40001E01A3021E011E016A00F3021E014702BD
:102A5000D9021E01D4025B005B005B005B005B00DF
:102A60005B005B005B005B001E011E011E011E017E
:102A70001E011E011E01B0011E010B027A00B001F1
:102A8000B001B0011E011E011E011E019E021E01A9
:102A90001E01B6001E011E011E0119021E014C027C
:102AA0001E011E013F071E011E011E011E011E0107
:102AB0001E011E011E01B0011E010B027C00B001AF
:102AC000B001B00191027C0075001E0184021E015C
:102AD0007002B8005E0275001E01190272001C0728
:102AE0001E011E011F071E0172000022A6F1300305
:102AF0001AF8016B02EB820203EB4202A6F13003EB
:102B0000092BF5D909928EE70E9B53F8042B002A66
:102B100009920E93C0F2D2819AF8006081E79AF888
:102B2000006047F020077CE747F01007BA060E9BCD
:102B300040F17D81073323F007031A465B6852F8A2
:102B4000084B99460E92002BC0F27F85079B0133FC
:102B500001F0398054EA090327F0800B00F0058565
:102B60000A2C79F1000380F0938701235F4630340B
:102B70008DF84F410B930DF24F15079A0B990023D7
:102B80008A42B8BF0A4606929DF883200D930F93A0
:102B900013931093002A7CD0069B0133069378E0B0
:102BA00047F0100717F0200900F032810E9B073321
:102BB00023F00703D3F8049053F8084B0E93002337
:102BC00027F4806B00228DF88320079A511C00F0B7
:102BD0002A8254EA09012BF0800740F02382002A60
:102BE00041F02B80002B40F0C5841BF001030B93B8
:102BF00000F0548530230DF24F158DF84F31BCE7AE
:102C0000BAEB050600F0BA802A9BC8E900563344A7
:102C10002A93299B0133072B299305DC08F1080827
:102C2000089B33440893E8E60C990A9828AA03F015
:102C3000E1FC80B90DF1AC08F2E70C990A9828AADA
:102C400003F0D8FC002800F08A800D9B1BB10D9981
:102C50000A9802F07BFC0C9B9B8913F0400F089BA9
:102C600018BF4FF0FF330893089855B0BDE8F08FB8
:102C7000002E00F08380012300228DF8EC60069383
:102C80003BAD8DF883200B930D9207920F92139218
:102C9000109217F0020302D006990231069117F044
:102CA000840B07D109990698A1EB0009B9F1000F2F
:102CB00000F336832A9C82B10122C8F80420299AA5
:102CC000013401320DF18301072A2A942992C8F8B0
:102CD000001000F3698308F108087BB10223C8F8EB
:102CE0000430299B0234013321AA072B2A9429930B
:102CF000C8F8002000F36C8308F10808BBF1800FCE
:102D000000F02E82079B0B9AA3EB020BBBF1000F86
:102D100000F37182FB0500F1C5810B9BC8F80050E0
:102D20001C44C8F80430299B2A940133072B2993AB
:102D300000F3EA8208F108087B0705D5099B069A8B
:102D40009D1A002D00F35083DDE9083206998A426E
:102D5000ACBF9B185B180893002C7FF46EAF002368
:102D600029930D9B1BB10D990A9802F0EFFB554674
:102D70000DF1AC082B78002B7FF432AE2A9B002B90
:102D80003FF469AF0C9C0A98214628AA03F032FC54
:102D9000A38962E70E9B073323F00702F2E80234AF
:102DA000CDE91434DDE9143424F000449946184682
:102DB0000E9221464FF0FF32B64BFDF795FE0028EC
:102DC00040F09684484621464FF0FF32B14BFDF764
:102DD0006DFE002840F08C84DDE914010022002300
:102DE000FDF75AFE002840F0A6879DF883200021B9
:102DF0000320A94DA94B27F080070D910690472E7F
:102E0000C8BF1D4607910B900F9113911091C1E619
:102E100017F0100340F0628417F0400200F07B8747
:102E20000E9A994652F8044B0E92A4B2C7E653F894
:102E3000044B0E93FB0600F141847D0640F13B8478
:102E400044F3C0394B4624B27DE6012000220E9B9C
:102E5000069053F8041B3BAD8DF883208DF8EC10E1
:102E60000E930B9010E74FF000090E9C079B54F84F
:102E7000045B8DF88390002D00F0EE865A1C00F064
:102E800060851A464946284602F010FF0D9000283A
:102E900001F09E800D9B9DF883205B1B0B9323EA22
:102EA000E373CDF81C900E940693CDF83490CDF8D2
:102EB0003C90CDF84C90CDF840906BE6099B5B427E
:102EC00009939AF8006047F00407AAE547F0100B51
:102ED0001BF0200900F0AA830E9B073323F00703A1
:102EE0001A4652F8084BD3F804900E92012369E673
:102EF000302278260E9B8DF8842053F8044B684AC4
:102F00000E934FF00009022347F0020B8DF8856005
:102F1000189257E6BD0600F1D683FC0600F19386B1
:102F2000780600F15D87B90540F18D860E9B089902
:102F300053F8042B554611700E931BE79AF8006066
:102F40006C2E03BF9AF8016047F020070AF1010ACE
:102F500047F0100765E59AF80060682E03BF9AF8FD
:102F6000016047F400770AF1010A47F0400758E58D
:102F70009AF8006047F0080753E50A9E304602F0D1
:102F8000E5FB436818461B9303F0D2FA034630462C
:102F90001C931E4602F0DAFB83681993002E3FF45F
:102FA000BBAD199B002B3FF4B7AD199B1B78002BD1
:102FB0003FF4B2AD9AF8006047F4806731E59AF8C3
:102FC000006047F001072CE59DF88330002B7FF46B
:102FD000A3AD9AF800608DF8834022E59AF800606E
:102FE00047F080071DE5524612F8016B2A2E01F0CA
:102FF000EB81A6F13003092B924698BF002201F223
:1030000003801AF8016B02EB820203EB4202A6F185
:103010003003092BF5D9079205E59AF800608DF881
:103020008390FEE4BB46012B3FF49AAD022B54ADD6
:1030300012D1189A04F00F03D35C240944EA0974EE
:103040004FEA191905F8013D54EA0903F2D154ABCE
:103050005B1B5F460B9390E504F00703E40844EA2A
:1030600049744FEAD909303354EA09012A4605F870
:10307000013DF1D11BF0010FE9D0302BE7D0302317
:10308000023A05F8013C54AB9B1A5F4615460B9378
:1030900073E500BFFFFFEF7F848800088888000881
:1030A00094880008652E40F3E980DDE914010022D0
:1030B0000023FDF7E7FC002800F0D2810123C8F8C7
:1030C0000430299BBF4A01330134072B2A942993EA
:1030D000C8F8002000F37A8508F10808229B129AAC
:1030E000934280F2D782169B179A1C44C8E90023AA
:1030F000299B2A940133072B299300F3DD8308F1E0
:103100000808129B5D1E002D7FF716AE102D41F3AF
:103110004181DFF8B492224649461026B946299BE0
:103120000F46DDF828B00C9C05E008F10808103DBA
:10313000102D40F3588501331032072BC8E9007673
:10314000CDE92932F1DD2146584628AA03F052FA8A
:1031500000287FF47AADDDE929320DF1AC08E6E70D
:10316000099B069AA3EB020BBBF1000F7FF7CAADD8
:10317000BBF1100F41F30580DFF84C924146204629
:10318000A8464C461023299A0C9DDDF8289006E0AD
:10319000ABF1100BBBF1100F01F1080119DD013289
:1031A0001030072AC1E90043CDE92920F0DD294686
:1031B000484628AA03F01EFA00287FF446ADDDE950
:1031C0002920ABF1100BBBF1100F4FF010032BA90E
:1031D000E5DC4546A1468846044601325C44072AA0
:1031E000CDE92924C8F80090C8F804B000F3188588
:1031F00008F1080886E5BBF1100F40F39785DFF86A
:10320000C89141462046A8464C461023299A0C9D59
:10321000DDF8289006E0ABF1100BBBF1100F01F1C7
:10322000080119DD01321030072AC1E90043CDE958
:103230002920F0DD2946484628AA03F0DBF90028BA
:103240007FF403ADDDE92920ABF1100BBBF1100FCA
:103250004FF010032BA9E5DC4546A14688460446FD
:1032600001325C44072ACDE92924C8F80090C8F847
:1032700004B000F3CE8108F108084BE5129B012B46
:1032800040F37E810123299E01341E44072EC8F895
:1032900000502A94C8F80430299600F3E18108F11F
:1032A0000808169B0136179A1C44072EC8E900230C
:1032B000CDE9296400F3E18108F108080022DDE985
:1032C00014010023FDF7DEFB002840F07681129BFD
:1032D0000136013B01351C44072EC8F800502996E1
:1032E000C8F804302A9400F35B8108F108081A9B9F
:1032F00001361C44C8F80430072E24ABCDE92964FC
:10330000C8F800307FF716AD0C990A9828AA03F088
:1033100071F900287FF499AC2A9C0DF1AC080BE5FB
:10332000B9F1100F40F35086DDE929214046CDE97F
:103330001D36B84610244F460C9EA9460A9D04E04F
:10334000103F102F00F1080016DD01321F4B103125
:10335000072AC0E90034CDE92921F1DD31462846AC
:1033600028AA03F047F900287FF46FACDDE9292192
:10337000103F102F2BA8E8DC4D46DDE91D36B9467D
:103380004746804609EB010401321049072ACDE97E
:103390002924C8F80490C8F8001000F3C3839DF8EE
:1033A000832008F1080886E40C990A9828AA1D933E
:1033B00003F020F900287FF448AC2A9C1D9B0DF1F6
:1033C000AC088AE4C4880008D8880008C8880008C7
:1033D0000C990A9828AA03F00DF900287FF435AC5F
:1033E0002A9C0DF1AC0889E4102D40F3C486102608
:1033F000299B0A9FDDF8309004E0103D102D08F164
:10340000080817DD0133B84A1034072BC8E9002635
:10341000CDE92934F1DD4946384628AA03F0EAF817
:1034200000287FF412ACDDE92934103D102D0DF198
:10343000AC08E7DC0133AC4A2C44072BCDE9293436
:10344000C8F80450C8F800207FF77EAC0C990A98A1
:1034500028AA03F0CFF800287FF4F7AB2A9C73E486
:103460002299002940F36F83DDF84090129B994523
:10347000A8BF9946B9F1000F0BDD299B4C440133DD
:10348000072BC8E900592A94299300F31D8508F1F8
:103490000808109EB9F1000FA8BFA6EB0906002E80
:1034A00000F32582DDF840B07805AB4400F15F827F
:1034B000229B129A934202DBF90740F17684169A16
:1034C00017991444C8E90012299A2A940132072A4C
:1034D000299200F3138508F10808129AAE18A6EB9A
:1034E0000B06D51AAE42A8BF2E46002E0DDD299B35
:1034F00034440133072BC8F800B0C8F804602A949C
:10350000299300F3718508F10808002EA8BFAD1BB0
:10351000002D7FF711AC102D40F33C87DFF8CC91E4
:10352000224649461026B946299B0F46DDF828B0A9
:103530000C9C05E008F10808103D102D40F3538362
:1035400001331032072BC8E90076CDE92932F1DDCD
:103550002146584628AA03F04DF800287FF475ABA1
:10356000DDE929320DF1AC08E6E7079B002B7FF47B
:10357000FCAA5F46002354AD07930B93FFF7FDBAF7
:10358000FA073FF57FAE0123299E01341E44072E22
:10359000C8F800502A94C8F8043029967FF7A5AEE1
:1035A0000C990A9828AA03F025F800287FF44DAB5F
:1035B000DDE929640DF1AC0899E6129B5D1E002D32
:1035C0007FF795AE102D40F3DF86224607974FF028
:1035D000100BDFF818910A9C0C9F05E008F1080811
:1035E000103D102D40F37F8301361032072EC8E9BD
:1035F000009BCDE92962F1DD3946204628AA02F078
:10360000F9FF00287FF421ABDDE929620DF1AC0858
:10361000E6E70C990A9828AA02F0ECFF00287FF44C
:1036200014AB2A9C0DF1AC08FFF774BB1BF0100320
:103630000E9A3AD11BF0400133D052F8044B994610
:103640000E920123A4B2FFF7BDBA2D2364428DF878
:103650008330BB464FF0010369EB4909FFF7B5BA68
:103660000C990A9828AA02F0C5FF00287FF4EDAA59
:10367000DDE929640DF1AC0813E60C990A9828AA33
:1036800002F0B8FF00287FF4E0AADDE929640DF11B
:10369000AC0813E6FD077FF54FAB24E554ADFFF70B
:1036A0006CBA1BF4007940F08A8352F8044B012372
:1036B0000E92FFF787BAB80500F19B834FEAE479D1
:1036C0004B46FFF740BA0E9B089853F8041BC217ED
:1036D0005546C1E900020E93FFF74CBB0E9B53F811
:1036E000044B0E93FFF76BBAC8880008D88800080F
:1036F000DDE9140102460B46FDF7F6F9002840F01B
:10370000E985612E00F07D85412E00F08B84079BBA
:10371000013300F08F8326F02003472B069300F03F
:103720008F85DDE9141247F480730F931346002B45
:10373000C0F2B0850B9300238B461D930D93069B1F
:10374000462B00F0E983452B00F0468507990B9B3B
:1037500001910221009126A9049123A9039122A994
:103760005A460A98029100F03BFF069B0546472BFC
:1037700040F03A8617F0010FB9460F9F40F0FE84E3
:10378000269B5B1B1293069B472B00F06E83069BC8
:10379000462B00F0F083229B1093109B069A013B6E
:1037A000412A229300F0BB850021F2B2002B8DF854
:1037B0009020B6BF2D222B22109B8DF89120B8BFF0
:1037C000C3F10103092B40F39B850DF19F0C624669
:1037D000B64F1C46104687FB0312D917C1EBA20156
:1037E00001EB8102A3EB42023032632C00F8012C82
:1037F0000B4600F1FF32ECDC3033811EDBB28C452E
:1038000002F8013C40F2F9850DF1920101E012F855
:10381000013B944501F8013BF9D10DF1A1030DF1F4
:1038200092021B1A134424AA9B1A1A93129B1A9AE7
:10383000012B1A440B9240F381850B9B169A13447B
:103840000B9300230B9A29F4806722EAE27247F473
:1038500080770F930692139310931D9B002B40F0DB
:103860002C839DF883200793FFF794B9BB46FFF79D
:103870002FBB8F4B189317F0200900F0F5800E9B9B
:10388000073323F00703D3F8049053F8084B0E9343
:10389000F80709D554EA090306D030238DF885606E
:1038A00047F002078DF88430022327F4806BFFF77E
:1038B00089B9804B1893DEE70C990A9828AA02F080
:1038C00099FE00287FF4C1A92A9C0DF1AC0818E4E8
:1038D00040210A9801F03EFF0C9B186018610028F7
:1038E00000F0978540230C9A5361FFF762B8102EC1
:1038F00040F37685DFF8C091424648462146A84607
:10390000B9464FF0100B0746299B0A9C0C9D04E01A
:103910000832103E102E40F3138201331031072B72
:10392000C2E9007BCDE92931F2DD2946204628AAEB
:1039300002F060FE00287FF488A9DDE929312BAA76
:10394000E7E72846CDF81C900E9402F0F1FD20EA3E
:10395000E0739DF883200B90CDF83490CDF83C9027
:10396000CDF84C90CDF840900693FFF713B9129B19
:103970004246DDF84C80EB185E460793CDF82CA04C
:1039800010972146199FDDF87090DDF828A0DDF82A
:1039900030B00F9B1395B8F1000F2ED083BB013FC1
:1039A00008F1FF381B9B4944C2E90039299B2A9141
:1039B0000133072B299360DC0832079B38789B1B67
:1039C0008342A8BF0346002B1C460BDD29981944EF
:1039D00001300728C2E900632A91299000F314817D
:1039E00038780832002CB4BF0546051B002D0BDCCF
:1039F00006440F9BB8F1000FD0D1002B00F02682B7
:103A00000F9B013B0F93CDE7102D40F39D841024B5
:103A1000299804E0103D102D02F1080216DD013056
:103A2000254B10310728C2E90034CDE92901F1DD29
:103A30005946504628AA02F0DDFD00287FF405A96A
:103A4000DDE92901103D102D2BAAE8DC01301A4BCD
:103A500029440728CDE929015560136000F341820C
:103A6000387808320644C4E717F0100300F0A0804D
:103A70000E9B53F8044B0E930AE75946504628AA6A
:103A800002F0B8FD00287FF4E0A82A992BAA94E759
:103A900000230BF480620696CDF82CA0CDF834807C
:103AA00092461E46DDF8648054AF14E06766666691
:103AB00094880008A8880008D888000800232046B9
:103AC00049460A22FDF74EF80A2C79F100031BD370
:103AD000044689462F4620460A2200234946FDF720
:103AE00041F830327D1E013607F8012CBAF1000F83
:103AF000E4D098F800309E42E0D1FF2EDED00A2CB0
:103B000079F1000380F0308154AB5B1BDDF82CA011
:103B1000CDF8648012965F46069EDDF834800B93E4
:103B2000FFF72BB80C990A9828AA1D9302F062FDA2
:103B300000287FF48AA89DF883202A9C1D9B0DF104
:103B4000AC08FFF7B8B80123C8F80430299BBC4A79
:103B500001330134072B2A942993C8F8002000F37D
:103B6000178108F10808002940F08680129A07F0B2
:103B7000010313433FF4E0A8169B17991A19C8E9EB
:103B80000013299B2A920133072B299300F33781D5
:103B900008F10808129901338C18072BCDE9293454
:103BA000C8F80050C8F804107FF7C4A8FFF7ACBBF2
:103BB00017F0400200F0A5800E9A994652F8044B87
:103BC0000E92A4B264E6BB46FEF7CABF0C990A98EF
:103BD00028AA02F00FFD00287FF437A82A9C0DF1D7
:103BE000AC08FFF77BBA14463A464F46914601337C
:103BF0002C44072BC8F80090C8F80450CDE92934AC
:103C00007FF798A8FFF780BB5946504628AA02F0D4
:103C1000F1FC00287FF419A838782A992BAAE1E64C
:103C20000C990A9828AA02F0E5FC00287FF40DA858
:103C30002A9C0DF1AC08FFF765B8012BBB467FF459
:103C4000F5A9FEF792BF0E9B089953F8042B554631
:103C500011600E93FFF78EB8062B294628BF062366
:103C60002A4607950D950693764D0E940B930F916A
:103C700013911091FEF78EBF169B17981A19C8E979
:103C80000003299B2A920133072B299300F3B78065
:103C900008F108080029BFF67DAF4E42103180F2CE
:103CA000A98341461024A846DFF89C91DDF828B08E
:103CB0000C9D04E00831103E102E40F3A782013322
:103CC0001032072BC1E90094CDE92932F2DD2946F3
:103CD000584628AA02F08EFC00287EF4B6AFDDE933
:103CE00029322BA9E7E71446079F01362C44072EFB
:103CF000CDE92964C8F80090C8F804507FF7F5AA08
:103D00004EE417F400790E9B66D053F8044B9146AD
:103D10000E93E4B2BCE517F400790E9B57D053F82C
:103D2000044B91460E93E4B2FEF749BF299ADFF89F
:103D30001891FFF795BA2D228DF88320FFF757B819
:103D4000454690463A460C464F4691460133344428
:103D5000072BCDE92934C8F80090C8F804605CDC72
:103D600008F10808FFF79EBB1C9B1B99ED1A1A4629
:103D7000284602F00BFC98F801300BB108F101085D
:103D8000204649460A2200230026FCF7EBFE9FE668
:103D90000C990A9828AA02F02DFC00287EF455AF51
:103DA00022992A9C0DF1AC08DDE6129AAE18A6EB1A
:103DB0000B06D51AAE42A8BF2E46FFF7A6BB52F897
:103DC000044B894601230E92E4B2FEF7FBBE53F882
:103DD000044B0E93FEF7F3BE53F8044B0E9357E5D6
:103DE0000E9B089953F8042B554611800E93FEF74D
:103DF000C1BF44F3C0194B4664B2FEF7A4BE0C9990
:103E00000A9828AA02F0F6FB00287EF41EAFDDE92E
:103E1000293222990DF1AC083CE70C990A9828AA9E
:103E200002F0E8FB00287EF410AF2A9C0DF1AC08EC
:103E3000FFF738BB0623079326F02003069370E4B0
:103E4000C4880008BC880008D8880008DDE912355D
:103E5000EB189E42B346199790460C4628BF9B46E6
:103E6000DDF82CA0109FFFF723BB229BDA1C1093D8
:103E700002DB079A934204DD023E26F020030693FC
:103E80008BE4109B129A9342C0F2C28019F0010F8A
:103E900000F01D82169A13440B9319F4806F00F002
:103EA0001482109B6726002B76DC0B9B23EAE373BE
:103EB000069300230F931393CFE42D2200238DF854
:103EC00083200793FEF768BE0C990A9828AA02F08F
:103ED00091FB00287EF4B9AE2A9C0DF1AC08FFF7E7
:103EE000D8BA5946504628AA02F084FB00287EF42E
:103EF000ACAE38782A992BAA06447AE50C990A9830
:103F000028AA02F077FB00287EF49FAE229B2A9C11
:103F10000DF1AC08FFF7E1BA07990B9B0191032162
:103F2000009126A9049123A9039122A95A460A982F
:103F3000029100F055FB03780546302B00F0168205
:103F4000229B079AB94613440F9FEC18584600224B
:103F500000230B99FCF796FD08B1234611E4269B3C
:103F6000A342BFF40EAC30215A1C26921970269B36
:103F70009C42F9D805E4229A002A109240F30E825E
:103F8000079909F001030B4340F07E816626109BE0
:103F90000B9319F4806F88D019990B78FF2B00F0E0
:103FA00025820024109A204604E001300131FF2BC5
:103FB00000F05981934280F25681D21A4B78002B3F
:103FC000F3D10B780134F2E7DDE92921FFF7DAB903
:103FD000079B9DF883200E9406930B9307900F90F8
:103FE00013901090FEF7D6BD0C990A9828AA02F0FB
:103FF00001FB00287EF429AE229D129B2A9C0DF124
:10400000AC085D1BFFF781BA00230793FEF70BBDD9
:10401000129B169A9A18109B0B92002B40F38581E5
:104020006726B6E730238DF8843058238DF8853025
:10403000079B47F00204632B00F3C48000233BADD1
:104040000D9347F481730F93DDE914121346002B8F
:104050002746C0F284800B9300238B461D9326F0E5
:1040600020030693612E00F01881412E7FF467AB88
:1040700022AA58460B9902F011FA00224FF07F5302
:10408000FCF798FA02460B46CDE9102300220023E4
:10409000FCF7F8FC08B101232293AD4B0B93079B6F
:1040A000CDE912A6CDE91E78DDE91067AB46DDF853
:1040B0002CA003F1FF39109506E00022002309F13E
:1040C000FF39FCF7DFFCE8B90022A24B3046394645
:1040D000FCF770FA0F460646FCF71CFD0446FCF799
:1040E000FFF90B46024639463046FCF7ABF81AF8A2
:1040F0000430B9F1FF3FD8464D4606460F460BF84F
:10410000013BDAD1304639460022934BA946DDF80F
:1041100048A0109DCDF84880CDE91001DDF87C80E5
:10412000139E1E9FFCF7D6FC80BBDDE91001002228
:10413000894BFCF7A7FC08B1E10727D44B46002BBD
:1041400006DB302201335B440BF8012B5B45FBD1CE
:10415000ABEB0503B94612930F9FFFF714BB26F094
:10416000200306932D22DDE914349B4604F100431D
:104170001D920B9376E7299BFFF75CB9079BEC1820
:10418000E4E6299ADFF8D491FFF727B8129B26932B
:104190000B9B1BF8012CD97B5B468A4209D130204E
:1041A00003F8010C269B5A1E269213F8012C91420B
:1041B000F6D0392A0BBF0B9A0132927AD2B203F8A9
:1041C000012CC5E70A98591C01F0C4FA05460028DD
:1041D00000F017810D9034E70221009107995A46AB
:1041E0004C1C26A9049123A9039122A90B9B0A9890
:1041F0000194029100F0F4F90546B9462C440F9F52
:10420000A4E630238DF8843078230FE745468846AE
:1042100001333244072BCDE92932C8F80090C8F8A1
:1042200004607FF7B5AC0C990A9828AA02F0E2F96D
:1042300000287EF40AADDDE929320DF1AC08A9E4CD
:10424000079B002B08BF0123079347F480730F934C
:10425000159B002BC0F2B680DDF850B00D900B938B
:104260001D90FFF773BA1991109213900F940F9A43
:10427000139B1C9913440B9A01FB03230B9323EA12
:10428000E3730693FFF7E9BA169B6626D318194421
:104290000B917EE600230D9364E722AA58460B9902
:1042A00002F0FCF800224FF07F53FCF783F902463E
:1042B0000B46CDE9102300220023FCF7E3FB08B1F5
:1042C00001232293264B0B93E9E66726EDE5109B2D
:1042D0000B93E2E5159B0320002BB8BF2D224FF076
:1042E0000003A8BF9DF8832019460D931D4D1E4B5A
:1042F000B8BF8DF8832027F080070690FEF77FBDBA
:10430000002944D130228DF892200DF193023033F0
:1043100002F8013B24ABD31A1A93FFF787BA06F1D0
:104320000F020121D2B2FFF741BAC3F101031A44CF
:1043300022EAE27367260B920693BAE519F0010FA1
:104340003FF47FAAFFF779BA2998FFF77FBB00BF38
:10435000A8880008000030400000E03FD88800082E
:10436000948800088C88000890880008584600222D
:1043700000230B99FCF786FB00287FF4E1AD079B37
:10438000C3F101032293DCE5DFF89890ADE40DF171
:104390009202BCE7299BDFF88C9028E4079A09F089
:1043A000010959EA020304D10123662606930B93FF
:1043B0007FE5169B662601331A4422EAE2730B92CC
:1043C000069376E50D90CDE60E9B9AF80160924635
:1043D00053F8042B0E9342EAE2730793FEF721BBD6
:1043E000299BDFF84090B1E4079C06E700230F9378
:1043F00013933CE7DFF82C900AE702231A93FFF7A8
:1044000015BA0C998B8943F0400213468A81FEF756
:1044100024BC4FF0FF320C2308920A9A1360FEF777
:1044200023BC00BFD88800082DE9F047DFF87CA046
:104430000646DAF8000098460F469146FEF79EFAC7
:104440001B4B1B68D3F8484124B365681F2D26DC3D
:104450005EB96B1C0235DAF80000636044F8257021
:10446000FEF78EFA0020BDE8F087012304EB8501FA
:10447000C1F88890D4F88821AB401A43022EC4F8C2
:104480008821C1F80881E4D1D4F88C211343C4F801
:104490008C31DEE703F5A674C3F84841D5E7DAF8B6
:1044A0000000FEF76DFA4FF0FF30DCE7A0040020BB
:1044B000808800082DE9F04F03690C6985B0A3429C
:1044C000C0F28980013C01F11405A30000F1140839
:1044D000019355F8243058F8242001338A469A4233
:1044E00008EB84018146B2FBF3F605EB84070291E9
:1044F0003AD30021AE4640460A46A34603955EF8ED
:10450000045B0468ABB206FB03132D0C190C06FB0D
:1045100005119BB2D21A1FFA84FC94448AB2C2EBF2
:10452000144202EB2C421FFA8CFC4CEA0243774502
:1045300040F8043B4FEA11414FEA2242DFD2019B8F
:104540005C4658F80330039D73B9029B043B9845C1
:1045500004D307E0984504F1FF3403D253F804294B
:10456000002AF7D0C9F810405146484601F06EFEC7
:1045700000282CDB40460023013655F8041BD0F8F8
:1045800000C08AB29A1A1FFA8CFE0B0C7244C3EB5D
:104590001C4303EB224392B242EA0342AF4240F88B
:1045A000042B4FEA2343E8D258F8242008EB840375
:1045B0006AB9043B984504D307E0984504F1FF34F9
:1045C00003D253F80429002AF7D0C9F81040304626
:1045D00005B0BDE8F08F002005B0BDE8F08F00BF4A
:1045E0002DE9F04F90469946016C99B00446CDE90B
:1045F0000489259D41B10123426C93408B604A6040
:1046000001F0CEFB00232364B9F1000AB4BF0123FB
:1046100000232B60764BBCBF2AF0004ACDF814A0D3
:1046200033EA0A0300F0AA80DDE9042310461946A4
:1046300000220023CDE90A01FCF724FA074670B1F5
:104640000123249A1360269B002B00F0E682694820
:104650001860431E0393039819B0BDE8F08F16ABA2
:10466000019317AB00932046DDE90A2301F0B4FE65
:104670005FEA1A56054640F09780DDE916763E441B
:1046800006F23240202840F3B783C0F140000AFA16
:1046900000FA06F2124028FA00F04AEA0000FBF79E
:1046A0000FFF0123013E0F93A1F1F8710022524B3D
:1046B000FBF7C8FD48A3D3E90023FBF77BFF48A322
:1046C000D3E90023FBF7C0FD804630468946FBF75F
:1046D00007FF45A3D3E90023FBF76CFF02460B4617
:1046E00040464946FBF7B0FD80468946FCF712FA82
:1046F00000228346002340464946FCF7CDF90028B6
:1047000040F07E82BBF1160F00F26D82DDE90A01F6
:104710003A4B03EBCB03D3E90023FCF7BDF90028A8
:1047200072D00023BE1B0E93731E0BF1FF3B06934A
:1047300000F1608200230993BBF1000F6BDA099B43
:10474000CDF81CB0A3EB0B030993CBF100030D9341
:10475000229B4FF0000B092B66D8052B40F34A83B0
:104760000026043B2293229B023B032B00F26C8623
:10477000DFE813F061045E045504380442F20F735D
:10478000249ACAF3130A13605AEA08031AD1269B23
:10479000002B00F068861A4B03930833269A03987F
:1047A000136019B0BDE8F08FDDE90A12C2F31303FC
:1047B000084643F07F510F97A6F2FF36169F41F44B
:1047C000401173E7269B002B40F0EF830D4B0393C2
:1047D00041E700BFAFF3008061436F63A787D23F1B
:1047E000B3C8608B288AC63FFB799F501344D33FE0
:1047F0000000F07FC58800080000F83FF08900083D
:10480000EC880008E8880008BE1B731E069300F1C0
:104810008A840E900990069B5B44CDE9063B0023F9
:104820000D93229B092B98D9002322934FF0FF333D
:104830000126089300230C9623930021089B6164B2
:104840001293204601F086FA0390002800F00486B7
:10485000039B2364089B0E2B00F21481002E00F0B2
:1048600011810799002940F36084AF4B01F00F02DA
:1048700003EBC2030A46D3E900674FEA2118D105CA
:1048800040F11784DDE90A01A84B4FF0030AD3E990
:104890000823FBF7B9FFCDE9100108F00F08B8F1C4
:1048A000000F13D0DFF8849218F0010F09D0D9E976
:1048B000002330463946FBF77DFE06460F460AF1D7
:1048C000010A5FEA680809F10809EDD1DDE9100184
:1048D00032463B46FBF798FF804689460E9B43B124
:1048E000002240464946924BFCF7D6F8002840F09B
:1048F00035855046FBF7F4FD42464B46FBF75AFE22
:104900008C4B0022FBF7A0FCA1F15073CDE9100104
:104910001193089B002B00F09780079B1493089B32
:1049200013930C9B002B00F0A984139A7E4B00205C
:1049300003EBC20353E902237F49FBF765FFDDE97F
:104940001023FBF77FFCCDE9100149464046FCF7F8
:10495000E1F80746FBF7C4FD02460B4640464946D0
:10496000FBF770FCDDE91023039E303706F8017B6E
:1049700080468946FCF790F8002840F02E85CDF857
:1049800054B00027DDE910AB1095139D13942AE075
:104990000137AF4280F22E85504659460022674BC0
:1049A000FBF708FE0022654B82468B46404649468F
:1049B000FBF700FE89468046FCF7ACF80446FBF79F
:1049C0008FFD02460B4640464946FBF73BFC303420
:1049D00052465B4606F8014B80468946FCF75CF878
:1049E000002840F0F88442464B4600205049FBF72F
:1049F00029FC52465B46FCF74FF80028C8D0DDE999
:104A00001343109D039A079302E0964200F0CD8471
:104A1000B24616F8013D392BF7D00133DBB23370C3
:104A2000079B01330793C8E15046FBF759FD424607
:104A30004B46FBF7BFFD3F4B0022FBF705FCA1F106
:104A40005073CDE9100111934046494600223C4B7A
:104A5000FBF7F8FBDDE910894B46424606460F4658
:104A6000FCF738F88146002840F0AF84DDE91001FA
:104A7000024601F1004330463946FCF70DF80028A4
:104A800040F04883179B002BC0F28C80079A0E2AB7
:104A900000F38880244B03EBC203D3E900AB239BD4
:104AA000002B1BDA089B002B18DC40F0318300221E
:104AB000234B50465946FBF77DFD02460B46DDE988
:104AC0000A01FBF7F3FFDDF820904E46002800F0C6
:104AD000CA82239BDDF80C80DF43CCE25246DDE93D
:104AE0000A785B4638464146FBF78EFEFCF712F823
:104AF00081460990FBF7F4FC52465B46FBF75AFDF2
:104B0000039E0B46024641463846FBF79BFB09F1E4
:104B1000300306F8013B089B012B00F05F830694ED
:104B200001271C4604952AE0F0890008C88900087E
:104B30000000F03F00001C400000E03F0000244067
:104B40000000144052465B4640464946FBF75CFE77
:104B5000FBF7E0FF0546FBF7C3FC52465B46FBF75D
:104B600029FD01370B46024649464046FBF76AFBE2
:104B700005F13003A74206F8013B00F02C83002228
:104B8000AB4BFBF717FD0022002380468946FBF75D
:104B900079FF0028D6D0049D069C079BB2460133BE
:104BA00007930AE10C9A002A3DD0229A012A40F389
:104BB0009F82089B03F1FF380D9B4345C0F2708232
:104BC000A3EB0808089B002BC0F24083069A1A4406
:104BD0000692099A17461A4409920121204601F0CB
:104BE00087F9064623E00123BE1B0E93731E06932E
:104BF0007FF5A0ADC6F101030993002306939BE561
:104C00005846FBF76DFC42464B46FBF73BFF00283E
:104C10007FF478AD0BF1FF3B74E5864B039303986B
:104C200019B0BDE8F08FDDF83480099F0C9E002F8D
:104C30000CDD069900290B4608DDB942A8BF3B46AA
:104C4000099AFF1AD21ACB1A099206930D9BE3B167
:104C50000C9B002B00F06082B8F1000F10DD314694
:104C60004246204601F020FA06462A4631462046B2
:104C700001F06CF90346294620461D4601F090F8E4
:104C80000D9BB3EB080240F0DB820121204601F0CE
:104C90002FF9BBF1000F814600F3B380229B012B5B
:104CA00040F388814FF0000A0120BBF1000F40F073
:104CB000B480069A104410F01F0000F09280C0F1FA
:104CC0002003042B40F3D383099BC0F11C00034451
:104CD0000244099307440692099B002B05DD2946EF
:104CE0001A46204601F03CFA0546069B002B05DDDE
:104CF00049461A46204601F033FA81460E9B002BA6
:104D000040F03881089B002B40F31E810C9B002B48
:104D100040F09F80079B013307930127DDF80C804B
:104D2000DDF820A007E0294600230A22204601F0F2
:104D300041F80546013749462846FFF7BBFB574572
:104D400000F1300308F8013BEDDB089A0027002A48
:104D5000CCBF93464FF0010B039A9344294601229E
:104D60002046049301F0FCF94946054601F06EFA2D
:104D7000002840F3AB811BF8013C039A0BF1FF3B89
:104D800004E05A4500F0AD811BF8013D392B0BF1D1
:104D9000010AF6D001338BF800304946204600F076
:104DA000FFFF56B12FB1B74203D03946204600F07D
:104DB000F7FF3146204600F0F3FF2946204600F079
:104DC000EFFF0023079A8AF80030249B1A60269B85
:104DD000002B3FF440AC0398C3F800A019B0BDE825
:104DE000F08F1C20099B074403440993069B03444E
:104DF000069371E70126B6E4C0F1200008FA00F03E
:104E00004DE401465A46204601F04EF9229B814668
:104E1000012B40F3B6814FF0000AD9F8103009EBAE
:104E20008303186901F018F8C0F1200041E700BFC2
:104E300000002440C4880008314600230A2220468E
:104E400000F0B8FF129B0646002B40F3E982CDE943
:104E50000783002F00F31D81BAF1000F40F0D981C4
:104E6000B046049B089903F00102039B0A921F4677
:104E7000013B1944229B0891134309934946284654
:104E8000FFF718FB31468346284601F0DFF942461A
:104E900049468246204601F0F9F9C26801460BF105
:104EA0003003002A43D104902846069301F0CEF93E
:104EB000024604992046049200F072FF049A069B71
:104EC0001AB90999002900F09B82BAF1000FC0F2CB
:104ED000648122994AEA010A0A9951EA0A0100F01A
:104EE0005C81002A00F3B681089A07F1010A974213
:104EF000D3463B7000F0B481294600230A222046A5
:104F000000F058FF4645054631464FF000034FF08C
:104F10000A02204612D000F04DFF4146064600230B
:104F20000A22204600F046FF57468046A6E7204664
:104F3000049300F035FF0122049BC6E700F03AFF1E
:104F400057460646804699E7229B022B7ADC0C9B4B
:104F5000002B7FF47EAF079B494601332846079319
:104F6000FFF7A8FADDF80CB000F1300300270BF8CA
:104F7000013BF3E64946284601F068F90028BFF6F0
:104F8000C1AE294600230A22204600F013FF079BEA
:104F9000054603F1FF380C9B002B7FF44DAF129BAD
:104FA000002B40F334820893B7E6B04B03930333EE
:104FB000FFF7F4BBDDE9041200297FF473AEC2F3FE
:104FC0001303002B7FF46EAEA94B1340002B00F0AF
:104FD0000082099B4FF0010A01330993069B0133BC
:104FE000069361E601230C93239B079A13441293C3
:104FF0000133012B1F46B8BF012708930021172F4B
:1050000061647FF71EAC012204235B0003F11400EE
:10501000B842114602F10102F7D9616411E401239B
:105020000C93239B002B4CDD1F4612930893E5E75E
:1050300000230C93D8E700230C93F2E7129BCDF8E2
:105040001C800893089B002B7FF443AD4946052242
:10505000204600F0AFFE81462846494601F0F6F8AA
:1050600000287FF736AD31230398079F804600F86C
:10507000013B013703904946204600F091FE7B1C1E
:10508000DDF80CA00793CDF80C80002E7FF491AED4
:1050900093E631463A46204601F062F80646DBE6E2
:1050A0000D9BCDF83480A8EB03039B444FF0000820
:1050B00088E5DDE90A234FF0020ACDE91023FFF766
:1050C000EEBB012323930893FFF7B7BB03D1049BE7
:1050D000D8073FF550AEDA461BF8013D302BFAD029
:1050E0005BE6079B039A013307933123137054E661
:1050F0000F9A002A00F0288103F23343069ADDF864
:1051000034801A440692099A17461A44099264E5B3
:105110004FF000094E46DCE4294620460D9A00F087
:10512000C3FF0546B1E50E9064E500F01181DDE9AD
:105130000A01079A4F4B564206F00F0203EBC203D7
:10514000D3E90023FBF736FA36118046894600F092
:10515000708100234FF0020A474FF20706D5D7E9C6
:105160000023FBF727FA01230AF1010A761007F161
:105170000807F2D1002B3FF4B1AB80468946FFF718
:10518000ADBB049B002B7FF446AEDDE90412C2F3F5
:105190001303002B3FF418AF3DE6002A12DD294629
:1051A00001222046049300F0DBFF4946054601F04A
:1051B0004DF80028049B40F31781392B00F0FB8049
:1051C0000BF13103BA46079A374601324646079239
:1051D0000AF8013BE1E50995069C049D02460B4651
:1051E000FBF732F852465B4680468946FBF772FC75
:1051F00060B952465B4640464946FBF743FC0028EF
:105200003FF4CBAC099BD9077FF5C7AC039AFFF7F6
:10521000FFBB2046716800F09DFD0746002800F0A6
:105220000C81336906F10C0102339A000C30FAF755
:105230008FFF39460122204600F092FF804610E69B
:105240002946204600F030FF05461EE5DDE908232B
:105250009F1AC2E4392B00F0AE80BA460133B2E7A0
:10526000079A374601324646079277E5E8880008F4
:105270000000F07FF0890008C8890008DDF84CA024
:105280008349DDE9102301EBCA0151E90201FBF773
:1052900091F9CDE9100149464046FBF73BFC064633
:1052A000FBF71EF90B46024649464046FAF7CAFF8D
:1052B0005346039F3036012B8046894607F8016B21
:1052C00000F0AC80139E039B1E440022714B4046AD
:1052D0004946FBF76FF989468046FBF71BFC82467F
:1052E000FBF7FEF802460B4640464946FAF7AAFF8E
:1052F0000AF1300A07F801ABB74280468946E4D18B
:10530000DDE910010022644BFAF79EFF42464B464E
:10531000FBF7C2FB002862D1DDE9102300205E49C3
:10532000FAF790FF42464B46FBF7D4FB00283FF4C8
:10533000A9AB16F8013CB246302B06F1FF36F8D087
:10534000149B0133079338E5169BC3F13603D5E66A
:105350004FF0020ADDE90A89FFF7C0BA089B002B6B
:105360003FF462AB129B002B7FF78CAB1393079B30
:105370000022013B404649461493464BFBF71AF97D
:10538000804689460AF10100FBF7AAF842464B46DF
:10539000FBF710F9414B0022FAF756FFA1F15073C9
:1053A000CDE910011193FFF7BCBA079B01330793B6
:1053B0003123FFF734BB079BBB46013307933923E7
:1053C00037460BF8013B4646D7E44FF000094E46FE
:1053D00049E69A4668E4109D139CB246B0E7149BD8
:1053E000039A0793FFF714BB7FF4ECAEDA077FF55F
:1053F000E9AEE2E6DDF854B0109D139CFFF742BB26
:10540000392BD8D0BAF1000F3FF7DAAEDAE6229B9B
:10541000022B3FF713AECDF81C809CE53E466FE7AC
:10542000229B022B3FF70AAE129BCDF81C800893FB
:105430000FE54FF0020AFFF751BA024640F2EA21A7
:10544000174B184801F054F900262046314666648F
:1054500000F080FC039078B900224FF4D571104B16
:10546000104801F045F9104B0393FFF7F4B83FF4EF
:1054700033ACC0F13C00B5E4039B012223644FF040
:10548000FF33239612930C920893FFF7FBBA00BFE9
:10549000F0890008000024400000E03F00001C40AC
:1054A000F88800080C890008EC880008F8B50C465C
:1054B000234F064600F042FCBB685D68C4F57E637E
:1054C00025F003050F332B4423F47F6323F00F03F0
:1054D000A3F58054B4F5805F07DB0021304601F06E
:1054E00015F8BB682B44984204D0304600F02CFCE1
:1054F0000020F8BD3046614201F008F801300DD0BF
:10550000104ABB682D1B45F001055D6013683046ED
:105510001B1B136000F018FC0120F8BD0021304671
:1055200000F0F4FFBA68831A0F2BDEDD43F00103AD
:105530005360054B03491B68C01A0860D5E700BFDC
:10554000A4040020BC0B0020AC08002000295ED081
:10555000F8B50C46064600F0F1FB54F8042C784FE1
:10556000A4F1080522F001016818D7F808C04368C3
:10557000844523F0030300F08780D207436034D4CE
:1055800054F8082C07F10804AD1A1144AA68A24285
:1055900068D000EB030CDCF804E0D5F80CC01EF07A
:1055A000010FC2F80CC0CCF8082000F0918041F047
:1055B00001036B600160B1F5007F31D24A09CB086D
:1055C000012191407A6801331143796007EBC302EE
:1055D00057F83310083AC5E9021247F83350CD6046
:1055E0003046BDE8F84000F0AFBBC2185268D207A1
:1055F0000ED4194407F108048368A34270D0C2682E
:10560000DA60936041F001036B606950D3E7704743
:1056100041F00103B1F5007F44F8043C0160CDD3B3
:10562000B1F5206F4FEA512347D28B0903F13900BE
:1056300003F13802C300F818FB580838984258D0D4
:105640005A6822F003028A4202D99B689842F7D135
:10565000D868C5E9023085603046DD60BDE8F840B5
:1056600000F072BBC2185268D20763D40B44D0E971
:105670000212CA60916043F001026A603046EB504A
:10568000BDE8F84000F060BB0B44D10707D454F8E4
:10569000082CAD1A1344D5E90212CA60916043F098
:1056A00001026A60274ABD6012689A4298D8264B68
:1056B00030461968FFF7FAFE92E7142B0AD9542BEB
:1056C0001FD80B0B03F16F0003F16E02C300B2E7AA
:1056D000194491E703F15C0003F15B02C300AAE700
:1056E00041F00103C7E90455C5E902446B60695004
:1056F00076E70121921001FA02F279680A437A6092
:10570000A7E7B3F5AA7F06D8CB0B03F1780003F126
:105710007702C3008FE740F25452934206D88B0CB5
:1057200003F17D0003F17C02C30084E74FF47E7334
:105730007E2280E741F001036B60016050E700BF0B
:10574000A4040020B0080020EC0B002000487047A3
:10575000A40900202DE9F04F01F10B05162D064696
:1057600083B025D8102900F2B88000F0E7FA1025A0
:1057700018224FF0020CB54F3A445368A2F10801C9
:105780008B4200F0B7805A68D96822F003021A44AD
:105790009C683046E1608C60516803F1080441F078
:1057A0000101516000F0D0FA204603B0BDE8F08F4F
:1057B00035F0070500F19180A94200F28E8000F0DB
:1057C000BDFAB5F5FC7FC0F094816B0A00F08C80C7
:1057D000042B00F26A81AB0903F1390C03F13804A0
:1057E0004FEACC00994F384443680838984206D1B4
:1057F0000CE0002980F22681DB68984206D05A68C6
:1058000022F00302511B0F29F3DDA4463C69DFF8A7
:1058100040E274457AD0626822F00302531B0F2BDA
:1058200000F37681002BC7E904EE80F26781B2F5C0
:10583000007F80F019810121D30852090B44914067
:105840007A6857F833000A4307EBC3010839A060B0
:10585000E1607A6047F83340C46001214FEAAC034D
:105860009940914259D8114206D12CF0030C4900BD
:1058700011420CF1040CFAD007EBCC0948466446FF
:10588000D0F80C80404508D11CE1002B80F221812A
:10589000D8F80C80404500F01581D8F8042022F09B
:1058A0000302531B0F2BF0DD08EB050145F001054A
:1058B000C8F804503046D8E90264F460A66043F0AA
:1058C0000104C7E904114C60C1E902EE48F8023056
:1058D00000F03AFA08F1080402E00C2300243360D7
:1058E000204603B0BDE8F08F4FF400704FF0400C3D
:1058F0003F2477E7D3689A4208BF0CF1020C7FF48B
:1059000042AF3C69DFF848E1744584D101217A68EF
:105910004FEAAC0399409142A5D9BC68636823F073
:1059200003094D4503D8A9EB05030F2B7ADCDFF8FB
:1059300024B1494BDBF800201B6801322B4404EBF7
:10594000090A00F02F8103F580530F3323F47F6899
:1059500028F00F084146304600F0D8FD411C0246B1
:1059600000F0EF80824500F2EA803C4B1968414428
:105970000846196000F04981DBF8001001930131FD
:105980001BBFA2EB0A0A5044CBF80020186012F0AB
:10599000070B00F01181CBF108010A44CBF58051CF
:1059A00090440831A1EB0801C1F30B0A514630467F
:1059B000009200F0ABFD421CDDE9002300F04B81BA
:1059C000801A00EB0A08196848F001005144BC42F3
:1059D000BA601960506000F02481B9F10F0F40F2F5
:1059E00022814FF0050E6068A9F10C0C2CF0070C19
:1059F00000F0010040EA0C006060BCF10F0F04EB06
:105A00000C00C0E901EE00F22E8114465068144BE0
:105A10001A688A4238BF1960124B1A688A4238BF26
:105A2000196090E0621943F0010345F001056560DB
:105A30003046BA600834536000F086F9204603B05F
:105A4000BDE8F08FD9681A44A2E600BFA404002084
:105A5000AC040020AC080020EC0B0020BC0B0020A4
:105A6000E40B0020E80B0020B2F5206F4FEA522330
:105A70005FD3142B00F2B18003F15C01C9005B33EA
:105A8000781879580838884200F08F804B6823F0E6
:105A90000303934202D989688842F7D1C8687A68BB
:105AA000C4E902108460CC60D7E6142B59D9542B7A
:105AB00000F29B802B0B03F16F0C03F16E044FEA95
:105AC000CC008FE60134A30700F108007FF4D8AEC4
:105AD00053E0444642445368D8F80C1043F00103A5
:105AE000536054F8083F3046D9608B6000F02CF9C1
:105AF000F6E64FEAD50C05F108023CE6224453686D
:105B0000304643F00103536000F01EF90834E7E625
:105B1000611945F00105656043F00105C7E904110D
:105B20003046C1E902EE4D60A35000F00DF9083493
:105B3000D6E6930903F13901C9003833A0E7BC4226
:105B40005ED0BC68606820F003084545A8EB0503FB
:105B500002D80F2B3FF766AF304600F0F5F800246F
:105B6000BEE603F15C0C03F15B044FEACC0039E6BE
:105B700059F808394B4540F095801CF0030F0CF1A3
:105B8000FF3CF5D17B6823EA01037B604900994221
:105B90003FF6C3AE11B9C0E6490004341942FBD048
:105BA000A44669E603F11008D4E601229B109A404E
:105BB0007B681A437A6073E702EB08014942C1F33C
:105BC0000B0A51463046009200F0A0FC431CDDE970
:105BD00000237FF4F5AEDA46F5E6542B26D8130BF6
:105BE00003F16F01C9006E334AE7B3F5AA7F26D8E7
:105BF000EB0B03F1780C03F177044FEACC00F1E5ED
:105C0000294B186840441860B6E6CAF30B0CBCF187
:105C1000000F7FF4B1AEBC68C84448F0010060607A
:105C2000F5E61446F3E60123536095E7B3F5AA7F42
:105C300024D8D30B03F17801C900773320E740F271
:105C40005452934224D8AB0C03F17D0C03F17C0435
:105C50004FEACC00C6E5ABF1080BD8444FF0000A80
:105C6000A8EB0208AFE604F1080130460093FFF705
:105C70006DFCBC68009B60681968C8E640F254512E
:105C80008B420BD8930C03F17D01C9007C33F7E6FE
:105C90004FF47E704FF07F0C7E24A3E54FF47E71AD
:105CA0007E23EDE67B6871E7BC0B00205FFA81FC88
:105CB000810710D00346511E2AB90AE09A071846F8
:105CC0000AD0013905D3184613F8012B6245F5D1E6
:105CD000704700207047114603290CD80029F8D0DE
:105CE0000346014401E08B42F3D0184613F8012B20
:105CF0006245F8D1ECE7024610B54CEA0C2444EAC0
:105D000004441046036804326340A3F1013E2EEAC6
:105D1000030313F0803F04D1043903291046F0D85F
:105D200051B10346014401E08B4205D0184613F8F7
:105D3000012B6245F8D110BD002010BD0148FCF7D1
:105D40001DBE00BFB00B00200148FCF719BE00BF0C
:105D5000B00B002038B5C36C05460C464BB153F868
:105D6000240080B1026843F824200023C0E90333F3
:105D700038BD2122042100F0DBFC0346E864002842
:105D8000EDD1002038BD0121284601FA04F56A1D35
:105D9000920000F0CDFC0028F3D0C0E90145E4E713
:105DA00031B1C36C4A6853F82200086043F82210EE
:105DB000704700BF2DE9F0414FF0000E0E461C4623
:105DC0000D69074601F1140001680EF1010E8BB256
:105DD00002FB0343090C4FEA134C02FB01CC9BB2BC
:105DE00003EB0C43754540F8043B4FEA1C44EBDCE5
:105DF0003CB1B368AB4207DD06EB850301355C615E
:105E000035613046BDE8F081716838460131FFF7F1
:105E1000A1FF8046A8B1326906F10C01023292005E
:105E20000C30FAF795F9FB6C726853F82210316068
:105E300043F82260464606EB850301355C61356117
:105E4000DFE70246B521024B024800F051FC00BFDB
:105E5000F888000868890008020C12040346CAB9D1
:105E60001020834013F07F4F04BF1B02083013F053
:105E7000704F04BF1B01043013F0404F04BF9B0060
:105E80000230002B05DB13F0804F00F1010008BF4A
:105E9000202070470020E5E70368024613F0070062
:105EA00009D0D9071FD498074BBF5B089B08012076
:105EB00002201360704799B209B91020C340D9B2CB
:105EC00009B908301B0A190704BF1B0904309907D8
:105ED00004BF9B080230D90703D45B0800F101001E
:105EE00003D013607047002070472020704700BF28
:105EF00038B5C36C04460D464BB15868B0B1026862
:105F00005A60002201234561C0E9032338BD2122E4
:105F1000042100F00DFC0346E0640028EDD10022CE
:105F20004FF4A071074B084800F0E2FB1C2201214E
:105F3000204600F0FDFB0028F1D001220223C0E939
:105F40000123DEE7F8880008688900082DE9F04F92
:105F50000E6915698846AE42144685B005DB2A46AF
:105F6000234635460C4616469846A3686168AF1925
:105F7000BB42B8BF0131FFF7EDFE0190002800F0F1
:105F80008780019B03F1140909EB870AD14505D2EB
:105F90004B46002243F8042B9A45FBD808F114081D
:105FA00008EB860B04F11403D8451A4603EB85056C
:105FB0005FD22B1B153B23F0030304331534A5429A
:105FC00038BF0423CDE902A7AC461F46924605E040
:105FD000000C29D1C34509F1040948D958F8040B2C
:105FE00085B2002DF4D056464C46002356F8040BDB
:105FF000216882B21FFA81FE05FB02EE000C0A0C3A
:1060000005FB0022734402EB13429BB243EA0243B6
:10601000B44544F8043B4FEA1243E7D849F8073047
:1060200058F8040C000CD5D0D9F800305446194665
:106030004D4600222688090C00FB06119BB20A443B
:1060400043EA024345F8043B54F8046B2968360CD4
:106050008BB200FB0633A44503EB12434FEA134215
:10606000E8D8C34549F8073009F10409B6D8DDE995
:1060700002A7002F02DC05E0013F03D05AF8043DDF
:10608000002BF9D0019B18461F6105B0BDE8F08FC9
:10609000024640F25D11024B024800F029FB00BFAE
:1060A000F88800086889000812F003032DE9F04120
:1060B000144607462ED10E46A4101CD0BD6C95B3D5
:1060C000E3074FF0000806D4641014D02868A8B184
:1060D0000546E307F8D52A4631463846FFF736FF2E
:1060E000B6B17168FB6C641053F82120326043F83C
:1060F00021600646EAD13046BDE8F0812A462946AD
:106100003846FFF723FF28600546C0F80080E0E727
:106110000646D9E70F4A013B52F823200023FFF738
:1061200049FE0646C8E701213846FFF713FE05463B
:1061300040B140F271230122C0E904230023B86476
:106140000360BDE702464FF4A071034B034800F023
:10615000CFFA00BFB88A0008F888000868890008EC
:106160002DE9F0470C462669A36806EB6216751CFC
:106170009D429046074649684FEA621904DD5B007C
:106180009D4201F10101FADC3846FFF7E3FD0028EA
:1061900051D0B9F1000F00F114010FDD0B464FF0A3
:1061A000000C09F105024FEA820E00EB820243F86F
:1061B00004CB9342FBD1AEF114031944226904F1DC
:1061C000140318F01F0803EB820C2CD08E464FF0FE
:1061D000000AC8F120091A6802FA08F242EA0A0223
:1061E0004EF8042B53F8042B9C4522FA09FAF2D8F6
:1061F000ACEB0403153B23F00303043304F1150255
:10620000944538BF0423BAF1000F18BF2E4641F859
:1062100003A0FB6C6268066153F82210216043F80A
:106220002240BDE8F087043953F8042B9C4541F81F
:10623000042FF9D8EDE7024640F2D911014B02488C
:1062400000F056FAF88800086889000884460B694F
:106250000069C01A15D10CF1140C14310CEB830237
:1062600010B401EB830301E0944508D252F8044DC9
:1062700053F8041D8C42F7D004D24FF0FF3010BC0D
:1062800070477047012010BC704700BF2DE9F84FE0
:106290000C6913698946E41A002C17467DD101F177
:1062A0001406143202EB830206EB830301E09E42E4
:1062B00076D253F8045D52F8041D8D42F7D067D3AF
:1062C000D9F80410FFF746FD002873D0D9F8105014
:1062D000C46000F1140426464FF0000A3B6909F13E
:1062E000140807F1140E09F1100C08EB85020EEBEF
:1062F00083095CF804BF5EF8041B1FFA8BF3534458
:106300001FFA81FA090CA3EB0A03C1EB1B4101EB55
:1063100023419BB243EA0143F14546F8043B4FEA6F
:10632000214AE6D8A9EB070115391537B94521F0FF
:10633000030606F1040638BF042621F0030138BF26
:106340000021B044424526440C4418D937464446FF
:1063500054F8041B8BB253444FEA234A0AEB114111
:106360009BB243EA0143A24247F8043B4FEA214A69
:10637000EED8541EA4EB080424F00304344423B9DB
:1063800054F8043D013D002BFAD00561BDE8F88FBB
:106390004B460124B9461F4692E7F9DB00248FE7FC
:1063A0000021FFF7D7FC60B101220023C0E90423DC
:1063B000BDE8F88F02464FF41071054B054800F018
:1063C00097F9024640F23221014B024800F090F961
:1063D000F88800086889000870B5012182B0164667
:1063E0001D46FFF7B7FC044600284CD02B46C5F3EA
:1063F0000A55C3F313030DB143F48013002E019328
:1064000022D068460096FFF747FD002837D0019B51
:106410000099C0F1200203FA02F20A43C34001933B
:106420006261002B14BF02210121A3612161B5B17A
:10643000069BA5F2334505441D60079BC0F135005E
:106440001860204602B070BD01A8FFF725FD0123AA
:10645000019A1946626120302361002DE8D104EBD6
:106460008102A0F232431069069A1360FFF7F4FC30
:10647000C0EB41112046079B196002B070BDDDE9F9
:1064800000236261CDE7024640F20A31014B024827
:1064900000F02EF9F888000868890008F8B5002790
:1064A000DFF85CC021F00043634504460D461760E9
:1064B00023DC844653EA0C0C1FD0DFF848C0164694
:1064C00001EA0C0C0A46BCF1000F09D100220E4B68
:1064D000FAF770F86FF0350704460A4621F00043DA
:1064E00022F0FF421B1522F4E002A3F2FE333B44EC
:1064F00042F07F55336045F4001520462946F8BD2B
:10650000FFFFEF7F0000F07F00005043002238B50E
:10651000064D044608462A60FAF7BCFE431C00D02C
:1065200038BD2B68002BFBD0236038BDF00B00205A
:1065300020F0030110F00300C0F1000051F8043B0B
:1065400000F1040C4FEACC0C6FF000021CBF22FAE1
:106550000CF213434FF0010C4CEA0C2C4CEA0C4C9F
:10656000A3EB0C0222EA030212EACC1204BF51F898
:10657000043B0430F4D0C2F1000102EA0102B2FA95
:1065800082F2C2F11F0200EBD200704730B540EA40
:106590000104A30722D1032A20D90B4684461946B9
:1065A00053F8045BA5F1013424EA050414F0803F9C
:1065B00015D1043A032A19464CF8045BEFD801F1CF
:1065C000FF3E52B163461EF8011F541E03F8011B23
:1065D00041B122469C46002AF4D130BD844601F1E7
:1065E000FF3EEEE76244002CF7D003F8011B934214
:1065F000FBD130BD2DE9F04F9368914683B0002B5D
:106600006ED0176880460C4608688D68083744E0ED
:10661000B4F80CC01CF4906F2ED0D4E90413451AC2
:1066200003EB430303EBD373AA194FEA630A531C2A
:106630005345524684BF9A4652461CF4806F36D06A
:1066400011464046FFF786F800283AD02A462169CD
:106650000190F9F77DFDA289019B22F4906242F03E
:106660008002A2815819AAEB0505A560C4F814A000
:106670003546B246236120605946524600F0C4F8C0
:10668000D9F80830A16820684D1B50449E1BA560B6
:106690002060C9F808601EB3083757E902B6002E1B
:1066A000FAD0B542AA46B3D93546B246E4E74046E9
:1066B00000F026F903460028D4D140462169FEF7B0
:1066C00045FF0C2300224FF0FF30C8F80030A389AB
:1066D00043F04003A381C9E9012203B0BDE8F08F74
:1066E00000231846C9F8043003B0BDE8F08F00BF9E
:1066F000144600B51A460A4B0D461B6885B0DE6885
:1067000003464CB107490191304607490294009570
:1067100000F04AF801F0A4FA04490C46F3E700BF80
:1067200070000020C48A0008D48A00084888000845
:1067300038B5A1FB021484BBFFF70CF80546D8B1AD
:1067400050F8042C22F00302043A242A16D8132A03
:1067500019D91B2AC0E900441CD90023242A14BFDC
:1067600000F1100200F11802C0E9024404BF046104
:106770004461C2E900339360284638BD2146FCF7E6
:106780004BF8284638BD024600232846C2E90033AC
:10679000936038BD00F10802F6E7FCF713F80C230C
:1067A00000250360E8E700BF0EB400B5074A82B0D9
:1067B00003AB0146106853F8042B019300F0CAFAAA
:1067C00002B05DF804EB03B0704700BF700000201A
:1067D000014B93F828017047B408002082B049B1FA
:1067E0005AB16BB113780B601278101E18BF0120DC
:1067F00002B0704701A9002AF3D1104602B07047D9
:106800006FF00100F4E700BF88420DD98B18834276
:106810000AD900EB020CBAB1624613F801CD9942D5
:1068200002F801CDF9D170470F2A0ED8034602F1C4
:10683000FF3C4AB10CF1010C013B8C4411F8012BD7
:10684000614503F8012FF9D1704740EA01039B0726
:106850004FD1A2F1100370B501F1200C23F00F0508
:1068600001F1100E00F11004AC441B095EF8105C3D
:106870000EF1100E44F8105C5EF81C5C103444F805
:106880001C5C5EF8185C44F8185C5EF8145CE64525
:1068900044F8145CEAD1013312F00C0F01EB031140
:1068A00002F00F0400EB031327D08E46043C24F0C3
:1068B00003064FEA940C1E441C1F5EF8045B44F868
:1068C000045FB442F9D10CF1010402F0030203EBBE
:1068D000840301EB840102F1FF3C4AB10CF1010C8D
:1068E000013B8C4411F8012B614503F8012FF9D1CC
:1068F00070BD034602F1FF3C9CE72246EBE700BF78
:106900002DE9F84F1646002900F0988006F10B0596
:1069100080460C46FFF712FA162D5DD810252A4640
:10692000AE425ED854F8041CA4F1080921F0030714
:10693000974262DABC4B09EB0700D3F808C08445E4
:1069400000F09780D0F804C02CF0010303445B688A
:10695000DB0768D42CF0030C07EB0C03934247DAF7
:10696000CB0710D454F8083CA9EB030ADAF804303A
:1069700023F003018C44BC44944580F211817B18C0
:10698000934280F2E88031464046FEF7E3FE064639
:10699000E0B154F8043CA0F1080223F001034B4499
:1069A000934200F0D2803A1F242A00F2F580132A85
:1069B00000F2AC80034622461168196051685960A4
:1069C00092689A6021464046FEF7C0FD4046FFF7B8
:1069D000BBF93046BDE8F88F25F00705002D2A46A3
:1069E0009EDA0C230026C8F800303046BDE8F88F48
:1069F0001F46D0E90223D3609A607B1B0F2B22D85D
:106A0000D9F8043003F001033B43C9F804304F4484
:106A10007B6843F001037B6026464046FFF794F90C
:106A20003046BDE8F88FC907ADD454F8083CA9EB4F
:106A3000030ADAF8041021F00301A0E71146BDE8CB
:106A4000F84FFEF787BED9F8041043F0010301F0B8
:106A500001012943C9F8041009EB05014B604F44BB
:106A60007B68404643F0010308317B60FEF76EFD12
:106A7000D2E7DCF8040020F0030B07EB0B0C05F168
:106A8000100084454DDAC9073FF57DAF54F8081C66
:106A9000A9EB010ADAF8041021F003018B44BB448E
:106AA00058453FF76CAF5646DAF80C1056F8080F09
:106AB0003A1F242AC160886000F2DB80132A40F26A
:106AC000D68021681B2ACAF808106168CAF80C1021
:106AD00000F2E08008340AF1100221681160616858
:106AE0005160A1689160ABEB05020AEB050142F031
:106AF000010299604A60DAF80430404603F001036D
:106B00001D43CAF80450FFF71FF96EE723681B2ADC
:106B100003606368436068D804F1080200F1080369
:106B20004AE709EB0502ACEB050C9A604CF0010357
:106B3000536054F8043C404603F001031D4344F8FD
:106B4000045CFFF701F926464FE750F8043C23F0B8
:106B500003031F4451E75646DAF80C1056F8080FA5
:106B60003A1F242AC16088604CD8132A48D921686A
:106B70001B2ACAF808106168CAF80C1056D80834E5
:106B80000AF110021F462368D14613606368536000
:106B9000A3683446936030E72146FFF735FE11E7DE
:106BA0005646D0E90213CB60996056F8081FDAF810
:106BB0000C303A1F242ACB6099602DD8132A29D98A
:106BC00023681B2ACAF808306368CAF80C3042D818
:106BD00008340AF11003226867461A606268D146D9
:106BE0005A60A26834469A6007E7A368242A836043
:106BF000E368C36026D004F1100200F11003DBE665
:106C00003246BFE7214630461F46D146FFF7FCFD1E
:106C10003446F2E63346DEE7214630466746D14643
:106C2000FFF7F2FD3446E8E6A4040020A168242A18
:106C3000CAF81010E168CAF8141020D010340AF114
:106C400018029FE7236904F1180203616369436135
:106C500000F11803B0E6A368242ACAF81030E368EC
:106C6000CAF8143022D010340AF11803B3E73246C0
:106C700033E721463046FFF7C7FD174B33E722695C
:106C80001834CAF8182054F8042CCAF81C200AF149
:106C9000200277E7A168242ACAF81010E168CAF830
:106CA00014100ED010340AF1180216E723691834B4
:106CB000CAF8183054F8043CCAF81C300AF1200312
:106CC00089E722691834CAF8182054F8042CCAF845
:106CD0001C200AF1200200E7A40400202DE9F84F4F
:106CE0004B6E90469C042DD59368126843B38B4637
:106CF000064602F1080959E9025A5FEA9A0715D0D7
:106D00000024043D01E0A7420ED05A46304655F813
:106D1000041F01F055F9431C04F10104F3D10023D1
:106D2000C8E90133BDE8F88FD8F808302AF0030A23
:106D3000A3EB0A03C8F8083009F10809002BDAD1DF
:106D40000020ECE701F070F90023C8E90133BDE849
:106D5000F88F00BF2DE9F04FBDB01C461746CDE9B6
:106D60000530029118B1836B002B00F07782029AF4
:106D7000536EDE0740F18481B2F90C108AB29004A0
:106D800008D441F4005202994B6E8A8123F40053D7
:106D900092B24B66110740F1EC80029B1B69002BFD
:106DA00000F0E78002F01A030A2B00F0F08013AB2A
:106DB00010930023CDE91133CDE90933CDE90B332D
:106DC0000DF14C0904933B78002B00F046813C46C2
:106DD00004E014F8013F002B00F02181252BF8D1AD
:106DE000E51B40F01E812378002B00F036814FF028
:106DF000000300254FF0FF3B4FF02B088DF83B3090
:106E000063780395671C0137A3F120025A2A00F228
:106E10004681DFE812F0A102440144019D024401D1
:106E2000440144017C02440144016A0053024401CC
:106E30002902AF024401AB025B005B005B005B0018
:106E40005B005B005B005B005B00440144014401AC
:106E50004401440144014401440144011302780007
:106E600044014401440144014401440144014401FA
:106E700044014401D100440144014401F7014401AB
:106E800041024401440121054401440144014401FB
:106E900044014401440144014401440113027A00C5
:106EA00044014401440137027A00740044012D0278
:106EB00044016902D300570274004401F7017200D3
:106EC0004105440144014305440172000021A3F13E
:106ED000300217F8013B01EB810102EB4101A3F104
:106EE0003002092AF5D903918EE7059B53F8042B4C
:106EF000002A03920593C0F2B4813B7883E73B7884
:106F000045F020057FE745F01005AC06059E40F1F1
:106F10006B81073626F007063246736852F8086B15
:106F200098460592002BC0F24984BBF1FF3F00F068
:106F3000318556EA080325F0800A00F025840A2EE0
:106F400078F1000380F0E1840123554630368DF856
:106F5000EF6001930DF1EF04DDF804809DF83B3004
:106F6000D845B8BFD846002B00F0A88008F101082A
:106F7000A4E0029D0698294600F008FE002840F093
:106F80009485AA8902F01A030A2B7FF410AF0299A4
:106F9000B1F90E30002BFFF60AAF4B6EDE0702D4BC
:106FA000950540F1628523463A46029906983DB020
:106FB000BDE8F04F00F09ABD45F0100515F020082F
:106FC00000F00381059E073626F007063346D6F803
:106FD000048053F8086B0593002325F4806A4FF072
:106FE00000028DF83B20BBF1FF3F00F0DD8156EA47
:106FF00008022AF0800540F0D681BBF1000F40F076
:10700000CC84002B40F0C5831AF00103019300F0FB
:10701000EC8330230DF1EF048DF8EF309CE7E51B96
:107020001BD0119B129A01332A44072BC9E9007522
:107030001292119305DC09F10809049B2B44049377
:10704000D1E6002A00F09C830299069810AAFFF767
:1070500045FE40B90DF14C09EFE7129B002B40F0C3
:10706000158500231193029A536ED90740F1A2802F
:1070700093895B0600F1258504983DB0BDE8F08F4B
:10708000029BB3F90C108D058AB23FF578AE1D4610
:10709000986DFBF773FCB5F90C108AB26FE6002B04
:1070A000DBD04FF001088DF88C304FF0000323AC9B
:1070B0008DF83B30CDF804804FF0000B15F0020343
:1070C000079318BF08F1020815F08403089305D14F
:1070D000039BA3EB0806002E00F38A82DDE9111260
:1070E000481C9DF83B6076B1012101320DF13B0651
:1070F0000728CDE91102C9E9006100F35882014671
:1071000009F108090130079BD3B102230232C9F803
:10711000043007280FABCDE91102C9F8003040F365
:107120006282002A00F027830299069810AAFFF7CE
:10713000D5FD002897D1DDE911120DF14C09481C4D
:10714000089B802B00F07181019BABEB0306002EA6
:1071500000F3CF81019B07281A44CDE91102C9F839
:107160000040C9F8043040F35D81002A00F09382AA
:107170000299069810AAFFF7B1FD00287FF473AFBB
:10718000129A0DF14C09680705D5039BA3EB08047F
:10719000002C00F38A82DDE903134145ACBF5B1884
:1071A00043440493002A40F0F38100230DF14C097D
:1071B000119308E6029B9B899A053FF55AAF029C02
:1071C000A06DFBF7DDFBA38953E715F0100340F03A
:1071D000188315F0400200F01083059E984656F87B
:1071E000043B05969EB2F7E656F8043BE806059682
:1071F00000F11083690640F10A8343F3C0381EB2E0
:1072000043468FE64FF00003059E8DF83B3056F85D
:10721000044B002C00F0CF83BBF1FF3F00F0418313
:107220005A4600212046FEF741FD002800F0228446
:10723000031B4FF0000B059601938DE64FF0000302
:107240004FF00108059E8DF83B3056F8043B23AC07
:107250008DF88C300596CDF804802DE700F0CEFD3A
:1072600085E5039B5B4203933B7845F00405CAE543
:107270003B786C2B03BF7B7845F02005013745F048
:107280001005C0E53B78682B03BF7B7845F400759B
:10729000013745F04005B6E545F0100A1AF0200820
:1072A00000F07E82059E0123073626F0070632464F
:1072B000D6F8048052F8086B059290E63B788DF87A
:1072C0003B80A0E530228DF83C207822059B8DF88C
:1072D0003D2053F8046BBE4A05934FF0000802238B
:1072E00045F0020A09927AE6AE0600F1A482EC06A5
:1072F00000F15983680600F1B083A90540F153837A
:10730000059E049A56F8043B1A7005965BE5069CA8
:107310002046FEF71BFA436818460B93FFF708F95F
:10732000034620460C931C46FEF710FA83680A9326
:10733000002C3FF4E2AD0A9B002B3FF4DEAD0A9B2C
:107340001B78002B3FF4D9AD3B7845F480655AE5B6
:107350003B7845F0010556E59DF83B30002B7FF466
:10736000CCAD20238DF83B303B784CE53B7845F0A5
:10737000800548E5394611F8013B2A2B00F0A68329
:10738000A3F13002092A0F464FF0000B3FF63CAD47
:1073900017F8013B0BEB8B0B02EB4B0BA3F130020D
:1073A000092AF5D930E5AA46012B3FF4C8AD022BD6
:1073B0003CAC12D1099A06F00F03D35C360946EAB9
:1073C00008764FEA181804F8013D56EA0803F2D18E
:1073D0003CAB1B1B55460193BEE506F00703F608C0
:1073E00046EA48764FEAD808303356EA0801224682
:1073F00004F8013DF1D11AF0010FE9D0302BE7D0AC
:107400003023023A04F8013C3CAB9B1A5546144623
:107410000193A1E50123019A1394119314921292FE
:107420000DF14C0909F10809ADE6039BA3EB080631
:10743000002E7FF789AE102EDFF898A138DD534675
:10744000CC46BA46C1460794A8461F46069C029DF4
:1074500007E001F1020E01460CF1080C103E102E5F
:107460001EDD1023481C10320728CDE91102CCF88C
:107470000070CCF80430ECDD002A00F09280294640
:10748000204610AAFFF72AFC00287FF4ECADDDE9C6
:107490001112103E102E0DF14C0C01F1010EE0DC2A
:1074A0003B4645465746C8467046E1469A46079CC5
:1074B00032440728CDE91102C9F800A0C9F80460D8
:1074C00040F39681002A00F09A820299069810AA49
:1074D000FFF704FC00287FF4C6ADDDE91112019B23
:1074E0000DF14C09ABEB0306002E01F101007FF713
:1074F00031AE102E40F36B82DFF8D8A0CC46534655
:10750000C146BA46A84607944FF0100B1F46069C8A
:10751000029D07E001F1020E01460CF1080C103E3D
:10752000102E19DD481C10320728CCE9007BCDE96C
:107530001102EFDD32B32946204610AAFFF7CEFB39
:1075400000287FF490ADDDE91112103E102E0DF1F0
:107550004C0C01F1010EE5DC3B4645465746C8465A
:107560007046E1469A46079C32440728CDE911024D
:10757000C9F800A0C9F8046000F3E98009F108091E
:107580000130E7E54FF0010E11460DF14C0CC6E756
:107590000299069810AAFFF7A1FB00283FF405AE58
:1075A00061E54FF0010E11460DF14C0C56E7002A33
:1075B00000F0DE800299069810AAFFF78FFB0028E2
:1075C0007FF451ADDDE911120DF14C09481C9AE52B
:1075D00094880008248B0008022201200FAB13932B
:1075E0000DF14C091492014609F10809481CA7E560
:1075F000102E40F34582DDE91132DFF8F0A2194682
:107600005346CC46BA46C1460D94A8461F46069C32
:10761000029D07E001F1020E01460CF1080C103E3C
:10762000102E1CDD1023481C10320728CDE9110252
:10763000CCF80070CCF80430ECDD32B3294620469B
:1076400010AAFFF74BFB00287FF40DADDDE9111206
:10765000103E102E0DF14C0C01F1010EE2DC3B4608
:1076600045465746C8467146E1469A460D9C324407
:107670000729CDE91112C9F800A0C9F8046000F388
:10768000A78009F10809481C2BE511464FF0010EAF
:107690000DF14C0CC3E76C07119250D5039BA3EB83
:1076A0000804002C4BDD0DF14C09102C40F3F8813F
:1076B000DFF838A2102553461199BA46069E1F4698
:1076C000DDF808B006E0881C194609F10809103CED
:1076D000102C19DD4B1C1032072BC9E90075CDE9C0
:1076E0001132F0DD32B35946304610AAFFF7F6FAF0
:1076F00000287FF4B8ACDDE91112103C102C0DF11C
:107700004C0901F10100E5DC3B4657469A4622440C
:107710000728C9E900A4CDE911027FF73CAD72B199
:107720000299069810AAFFF7D9FA00287FF49BACBB
:10773000129A30E5012011460DF14C09C7E7DDE949
:1077400003234245ACBF9B18434404932DE5002A14
:107750003FF460AE0299069810AAFFF7BFFA00281E
:107760007FF481AC1198129A0DF14C090130F1E4CB
:10777000079B002B69D1012011460DF14C09DFE474
:1077800011920DF14C0958E4BBF1000F7FF4DCAB12
:1077900055464FF0000B3CACCDF804B0FFF7DCBB16
:1077A0001AF0100340D11AF0400239D0059E9846D5
:1077B00056F8042B0123059696B210E42D23764249
:1077C0008DF83B30AA464FF0010368EB48080AE405
:1077D000002A6FD00299069810AAFFF77FFA0028B6
:1077E0007FF441AC0DF14C0978E43CACFFF7B4BB3D
:1077F000014609F108090130A6E415F4007840F0CB
:107800001D81059B53F8046B0593FFF7E5BBAA05A3
:1078100000F10E814FEAE3781E464346FFF782BB34
:107820001AF4007840F0FB80059A012352F8046BAB
:107830000592FFF7D4BBDDE9041656F8042BCB17ED
:10784000C2E900130596FFF7BEBA02220FAB1393ED
:107850000DF14C091492C7E6254A099215F020084B
:1078600036D0059E073626F007063246D6F8048045
:1078700052F8086B0592EA0709D556EA080206D0C5
:107880008DF83D30302345F002058DF83C30022361
:1078900025F4806AFFF7A3BBAA46FFE4154A0992C4
:1078A000DCE720460596FEF743FE4FF0000B019003
:1078B000FFF752BB9DF83B10002900F0A680012085
:1078C0000DF13B0213920DF14C090246149016E49F
:1078D00015F0100214D115F040010DD0059E904610
:1078E00056F8042B059696B2C5E700BF148B000826
:1078F000A88800089488000815F4007840F0A68055
:10790000059A52F8046B0592B5E700230AF48062E9
:10791000CDF804B0CDF81CA0BB46CDF820909A4617
:107920001746DDF828903CAD0CE000233046414678
:107930000A22F9F717F90A2E78F100031BD306463D
:1079400088462546304641460A220023F9F70AF9BF
:1079500030326C1E0AF1010A05F8012C002FE4D028
:1079600099F800305345E0D1BAF1FF0FDDD00A2E6F
:1079700078F100032ED2DDF81CA03CAB1B1B5F4648
:10798000CDF82890DDF804B05546DDF8209001933D
:10799000FFF7E2BAAA46FFF7D2BA012BAA467FF454
:1079A00006ADFFF7D1BA059E049A56F8043B1A605B
:1079B0000596FFF708BABBF1060FD84628BF4FF06F
:1079C0000608474CCDF804800596FFF775BBDFF835
:1079D00014A1C9E50C9B0B99E41A1A462046FEF740
:1079E000D5FD99F801300BB109F101093046414646
:1079F0000A2200234FF0000AF9F7B4F89FE70120AC
:107A000011460DF14C09FFF79FBB079B002B7FF43C
:107A1000E3AD114601200DF14C09FFF795BB059E22
:107A2000904656F8042B01230596D6B2FFF7D7BA35
:107A300043F3C0185EB24346FFF774BA059E904602
:107A400056F8043B0596DEB2FFF7C6BA059E884697
:107A500056F8042B0596D6B20DE7059E049A56F803
:107A6000043B1A800596FFF7AEB9886DFAF788FFD8
:107A7000FFF799BACDF804B005968346FFF76CBAC4
:107A80001199129ADFF860A00131F0E50299069889
:107A900010AAFFF723F900283FF4E3AAFFF7E3BA9F
:107AA0001198DFF844A0013031E6029B5B6EDB07E2
:107AB00007D4029B9B899F0503D4029B986DFAF71C
:107AC0005FFF4FF0FF330493FFF7D6BA059A7B7838
:107AD0000F4652F8041B059241EAE17BFFF793B988
:107AE000BC880008248B0008148B0008F0B54FF404
:107AF000806C1546002406461F46ADF26C4D1AAB4D
:107B0000009304938B8916A823F00203ADF80C3080
:107B10004B6E06941993CB890C46ADF80E30CB69A9
:107B2000CDF808C007934B6ACDF814C00993FAF753
:107B300021FF2A463B4669463046FFF70BF9051EF2
:107B400007DB6946304600F025F9002818BF4FF0E2
:107B5000FF35BDF80C305B0603D5A38943F0400325
:107B6000A3811698FAF708FF28460DF26C4DF0BD78
:107B7000034649B1FF2A02D801200A7070478A22C1
:107B80004FF0FF301A6070470846704738B5334BE6
:107B900005461B680C460BB19A6B12B3B4F90C3056
:107BA00018079AB225D5216900292DD012F00100BD
:107BB00007D000256069A5604042A06139B100206E
:107BC00038BD950758BF6069A0600029F7D112063B
:107BD00058BF0846F4D543F040034FF0FF30A3816F
:107BE00038BD184600F00AF9B4F90C3018079AB2FB
:107BF000D9D4D1062AD5520714D4216943F00803F9
:107C0000A3819AB20029D1D102F42070B0F5007F8F
:107C1000CCD02146284600F0A3FBB4F90C302169F2
:107C20009AB2C3E7216B51B104F14002914204D0F2
:107C30002846FDF78BFCB4F90C30002222630022A9
:107C4000216923F02403C4E90012D7E7092243F095
:107C500040032A604FF0FF30A38138BD7000002040
:107C6000062008B500F0ECFB0120F9F7E3FA00BFAD
:107C7000B1F90C20F8B50C461107074643D46368E8
:107C800042F40062002BA2815BDDA56A002D56D074
:107C900000233E683B6093B212F4805255D1012319
:107CA0003846E169A847421C65D0A389A56A5B07ED
:107CB00005D56368C01A236B0BB1E36BC01A02468B
:107CC000E16900233846A847411C40D13B68002B9E
:107CD0003DD01D2B01D0162B54D10022A38923F4B3
:107CE0000063A3812369C4E90032216B3E6031B394
:107CF00004F14003994202D03846FDF727FC0023E7
:107D000018462363F8BD2669CEB193B29A0718BF0F
:107D10000023256808BF63692660AD1BA3600CE0E3
:107D20002B463246D4F824C03846E169E047B0F12A
:107D3000000CA5EB0C05664416DD002DF0DC0020E0
:107D4000F8BDE36B002BA0DCF9E7206DAFE7002264
:107D5000B4F90C30626023F400632269A381DB0470
:107D60002260C2D52065C0E7A3894FF0FF3043F001
:107D70004003A381F8BD3B68002B96D01D2B06D095
:107D8000162B04D0A38943F04003A381F8BD002043
:107D90003E60F8BD38B505460C4608B1836BA3B10B
:107DA000B4F90C00B8B1636EDB0701D4810515D5B9
:107DB00028462146FFF75CFF636E0546DA0702D4CA
:107DC000A3899B050ED5284638BD00F017F8B4F9F5
:107DD0000C000028E7D10546284638BDA06DFAF70B
:107DE000CDFDE5E7A06DFAF7CBFD284638BD00BF15
:107DF000014900F091BA00BF918600082DE9F047D3
:107E000082463948FAF7BAFDDAF83840002C66D1D4
:107E1000042303223549DAF80450CAF83C10DFF88D
:107E2000D090DFF8D080344F344E0AF53B71CAE968
:107E3000B921CAF8E0422146EB600822C5E90044B6
:107E4000C5E904446C66AC60AC6105F15C00FAF70E
:107E5000E3FCC5E90759C5E90987EE6205F1580059
:107E6000FAF788FDDAF80850254B2146EB60082226
:107E7000C5E90044C5E904446C66AC60AC6105F139
:107E80005C00FAF7C9FCC5E90759C5E90987EE6244
:107E900005F15800FAF76EFDDAF80C50194B21463F
:107EA000EB600822C5E90044C5E904446C66AC6097
:107EB000AC6105F15C00FAF7AFFC05F15800C5E9CB
:107EC0000759C5E90A76C5F82480FAF753FD01235E
:107ED0000548CAF83830BDE8F047FAF751BD024806
:107EE000BDE8F047FAF74CBDB80B0020F17D000863
:107EF000C9840008ED8400082D8500084D85000820
:107F000009000100120002000148FAF737BD00BF66
:107F1000B40B00200148FAF733BD00BFB40B0020BA
:107F20002DE9F04383B0074688461446FEF750FC1F
:107F3000012803D108F1FF33FE2B33D942463846DE
:107F400004F15C0301A900F05DFB421C06462FD042
:107F500018B39DF8041000250DF1050908E0236809
:107F60005A1C226019700135B54216D219F8011B4E
:107F7000A368013B002BA360F1DAA269934201DB05
:107F80000A29ECD12246384600F0E4FA431CEAD133
:107F90000646304603B0BDE8F0834646304603B09F
:107FA000BDE8F0835FFA88F106468DF80410D2E749
:107FB0003046A38943F04003A38103B0BDE8F083BA
:107FC00030B5536E144613F0010FB2F90C3005466C
:107FD00083B09AB201D198051CD5900406D4626E84
:107FE00043F4005342F40052A381626622462846BD
:107FF000FFF796FF636E0546DA0702D4A3899B0557
:1080000002D5284603B030BDA06DFAF7B9FC28466A
:1080100003B030BDA06D0191FAF7B0FCB4F90C309B
:1080200001999AB2D9E700BF9368002B00F0B7809E
:108030002DE9F04FB1F90C300C4619078046174670
:1080400083B098B225D523691BB310F002033D68B5
:108050002DD04FF0000B5E46DFF8B8A2002E00F0E6
:108060008B80564533465A4628BF53464046E16901
:10807000D4F824C0E047002840F38780BB688344DD
:108080001B1A361ABB60002BE8D1002003B0BDE8F4
:10809000F08F21464046FFF779FD002840F03681F9
:1080A000B4F90C303D6898B210F00203D1D110F051
:1080B000010976D14E46002E5AD08205D4F808B078
:1080C00040F1B580B3455A4600F2CD8010F4906F70
:1080D00000F0CB8023682169A3EB010B636903EBFC
:1080E000430A0AEBDA7A0BF101034FEA6A0A3344D6
:1080F0005345524684BF9A465246430540F1EA80B2
:1081000011464046FDF726FB002800F0F9805A464C
:1081100021690190F8F71CF8A289019B22F4906272
:1081200042F08002A28103EB0B0023613246AAEBEE
:108130000B03B346C4F814A0A3602060B246002627
:1081400049460192FEF760FBA3682168019AA3EB00
:108150000B030A44A3602260B868D144A0EB0A0074
:10816000B860002891D0B4F90C0080B2002EA4D1E0
:10817000D5E9009608359EE7D5E900B608356DE7E4
:1081800021464046FFF706FE80B3B4F90C304FF0AD
:10819000FF3043F04003A38103B0BDE8F08F00201F
:1081A00070471E46AA46994618461D4656B30028F3
:1081B00032D04A4620682169B24228BF32468842FE
:1081C000636904D9A16803EB010B5A4574DC93423F
:1081D00065DC2A464046E169D4F824C0E047B0F1A6
:1081E000000BD2DDB9EB0B09CAD00120BB685D449E
:1081F000A3EB0B03A6EB0B06BB60002B3FF445AFD4
:10820000002ED4D10AF1080353F8046C9A4653F8AF
:10821000085C0833002EF7D032460A212846FDF7C5
:1082200045FD002869D00130A0EB0509C1E72068B1
:10823000236998421BD86369B34218D86FF0004C89
:10824000B44528BFB4469CFBF3FC4A4603FB0CF341
:108250004046E169D4F824C0E047B0F1000A94DD5B
:10826000A6EB0A0678E7B3463246206866E7B345D0
:10827000DA4628BFB24649465246FEF7C5FAA36819
:108280002268A3EB0A035244A3602260002BE7D1CB
:1082900021464046FFF77EFD0028E1D075E72946DC
:1082A00093460192FEF7B0FAA368019A9B1AA36065
:1082B00023681A44226095E729465A46FEF7A4FA35
:1082C000236821465B4440462360FFF763FD002896
:1082D00088D05AE74046FEF713FB034600287FF498
:1082E00022AF40462169FDF731F90C22B4F90C3078
:1082F000C8F8002023F0800349E7721C914659E733
:108300000C22B4F90C30C8F8002040E74FF0FF30E1
:10831000BCE600BF00FCFF7F2DE9F8434FF00009E9
:108320000746884600F53876D6E90154013D10D459
:10833000A389013D012B08D9B4F90E30013304D0D3
:1083400021463846C04749EA00096B1C04F168041D
:10835000EED13668002EE7D14846BDE8F88300BF6D
:108360002DE9F0418B890C46990796B008D501227A
:1083700004F14303C4E90432236016B0BDE8F08180
:10838000B4F90E100646002927DB6A4600F0E6F92C
:10839000002821DB019D4FF4806805F47045A5F5A8
:1083A0000055B5FA85F54FF400676D094146304632
:1083B000FDF7D0F9B4F90C30F0B1204A43F0800356
:1083C000F263C4F81480A3812060206135BB3B4375
:1083D000A38116B0BDE8F081A38913F0800519D000
:1083E0004FF04008304641460025FDF7B3F92F46CF
:1083F000B4F90C300028E0D19A05BED4012123F055
:10840000030304F1430243F00203C4E90421A381FE
:108410002260B2E74FF480682F46C7E73046B4F9D0
:108420000E1000F0AFF910B9B4F90C30CFE7A38902
:1084300023F0030343F001031BB2C8E7F17D0008FA
:1084400038B5154B1F281D6820D8D5F8DC22044606
:1084500062B152F820304BB1012B15D0591C0FD00E
:10846000002542F820509847284638BD284600F09D
:1084700029F8224601462846BDE8384000F00EB8EB
:10848000162301202B6038BD002038BD16234FF085
:10849000FF302B6038BD00BF7000002070B5002693
:1084A000074D0446084611462E60F8F7BBFE431CF4
:1084B00000D070BD2B68002BFBD0236070BD00BFC7
:1084C000F00B0020F8F7ACBE10B50C46B1F90E1059
:1084D00000F080F9002803DB236D0344236510BD01
:1084E000A38923F48053A38110BD00BF2DE9F0417F
:1084F0000C46B1F90C101F46CB05054616460BD4A9
:1085000021F48051A1813B4632462846B4F90E1031
:10851000BDE8F04100F094B8B4F90E100223002237
:1085200000F042F9B4F90C10EAE700BF10B50C46B0
:10853000B1F90E1000F038F9A389421C0EBF23F4E4
:10854000805343F480532065A38110BDB1F90E1010
:1085500000F08CB8F8B506460D46144610B1836B92
:10856000002B43D0B4F90C20A3691007A36091B28B
:108570001BD52369CBB1EDB289042F4622D52268E1
:108580006169D31A994229DD0133A1680139A160DB
:10859000511C2160157062699A422AD0A389DB07B9
:1085A00001D50A2D25D03846F8BD21463046FFF7C3
:1085B000EDFA20BBB4F90C20EDB291B289042F463C
:1085C0002369DCD442F40052A281626E616922F414
:1085D000005262662268D31A9942D5DC21463046A1
:1085E000FFF7D8FB58B901232268CEE7FFF706FC56
:1085F000B8E721463046FFF7CDFB0028D3D04FF037
:10860000FF37D0E770B505461C4684B039B10B4E34
:10861000D6F8E060B047431C09D004B070BD0A46EC
:108620000649D1F8E06001A9B047431CF5D100220A
:108630008A2322602B6004B070BD00BFB408002004
:1086400038B50C46114600228446074D20462A6064
:108650001A466446F8F704FE431C00D038BD2B6868
:10866000002BFBD0236038BDF00B0020002238B572
:10867000064D044608462A60F8F700FE431C00D069
:1086800038BD2B68002BFBD0236038BDF00B0020D9
:1086900070B500294BD006460C4610B1836B002BF9
:1086A00048D0636ED80734D5B4F90C30002B3ED0D7
:1086B00021463046FFF7DCFAE36A054633B130461F
:1086C000E16998470028B8BF4FF0FF35A3891A0623
:1086D0003BD4216B41B104F14003994202D03046B2
:1086E000FCF734FF00232363616C21B13046FCF7B3
:1086F0002DFF00236364FFF707FC0022636EA28155
:10870000DB0727D5A06DFAF737F9FFF703FC2846FA
:1087100070BDA3899905CBD4A06DFAF72FF9B4F9F0
:108720000C30002BC4D1656E15F0010508D0002572
:10873000284670BDFFF762FB636ED807B4D4E8E744
:10874000A06DFAF71DF9284670BD30462169FCF787
:10875000FDFEBEE7A06DFAF713F9D3E770B500266A
:10876000074D0446084611462E60F8F78AFD431C63
:1087700000D070BD2B68002BFBD0236070BD00BF04
:10878000F00B0020002238B5064D044608462A604A
:10879000F8F77CFD431C00D038BD2B68002BFBD0C4
:1087A000236038BDF00B002038B50C46114600227E
:1087B0008446074D20462A601A466446F8F768FD4D
:1087C000431C00D038BD2B68002BFBD0236038BD84
:1087D000F00B002038B50C46114600228446074DA8
:1087E00020462A601A466446F8F72AFD431C00D04A
:1087F00038BD2B68002BFBD0236038BDF00B002068
:10880000F8B500BFF8BC08BC9E467047F8B500BF7D
:08881000F8BC08BC9E4670474D
:10881800444D412055415254205072696E7466206F
:1088280074657374210D0A006C656E677468206F37
:108838006620727820646174613A202564210D0AEB
:1088480000000000256300000D0A00000000000081
:1088580000000000010203040607080900000000E8
:108868000102030402030405060708090A0B0C0D9C
:108878000E0F10100000000078000020494E46003E
:10888800696E66004E414E006E616E0030313233C3
:108898003435363738396162636465660000000034
:1088A800303132333435363738394142434445461E
:1088B80000000000286E756C6C2900003000000074
:1088C80020202020202020202020202020202020A0
:1088D8003030303030303030303030303030303090
:1088E8004E614E00496E66696E6974790000000039
:1088F80042616C6C6F63207375636365656465645E
:10890800000000002F746D702F6A656E6B696E73BE
:108918002D4743432D31302D706970656C696E6544
:108928002D3235395F32303231303732375F3136B8
:1089380032373334353030342F7372632F6E6577A6
:108948006C69622F6E65776C69622F6C6962632F40
:108958007374646C69622F64746F612E6300000025
:108968002F746D702F6A656E6B696E732D47434364
:108978002D31302D706970656C696E652D32353911
:108988005F32303231303732375F31363237333455
:10899800353030342F7372632F6E65776C69622FB0
:1089A8006E65776C69622F6C6962632F7374646C8F
:1089B80069622F6D707265632E630000000000000D
:1089C8000080E03779C34143176E05B5B5B89346C3
:1089D800F5F93FE9034F384D321D30F94877825A8F
:1089E8003CBF737FDD4F1575000000000000F03FAD
:1089F8000000000000002440000000000000594072
:108A08000000000000408F40000000000088C340C4
:108A180000000000006AF8400000000080842E4139
:108A280000000000D01263410000000084D7974185
:108A38000000000065CDCD41000000205FA002428B
:108A4800000000E876483742000000A2941A6D4200
:108A5800000040E59C30A2420000901EC4BCD642F3
:108A680000003426F56B0C430080E03779C341439E
:108A780000A0D8855734764300C84E676DC1AB4314
:108A8800003D9160E458E143408CB5781DAF154432
:108A980050EFE2D6E41A4B4492D54D06CFF080440D
:108AA800F64AE1C7022DB544B49DD9794378EA4422
:108AB80005000000190000007D0000002C206675EC
:108AC8006E6374696F6E3A2000000000617373650D
:108AD8007274696F6E2022257322206661696C6545
:108AE800643A2066696C6520222573222C206C6903
:108AF8006E65202564257325730A00004300000075
:108B0800504F5349580000002E000000202020201C
:108B1800202020202020202020202020303030300D
:108B2800303030303030303030303030002020209D
:108B38002020202020202828282828202020202005
:108B480020202020202020202020202020881010D5
:108B58001010101010101010101010101004040431
:108B680004040404040404101010101010104141EF
:108B780041414141010101010101010101010101DD
:108B880001010101010101011010101010104242F1
:108B980042424242020202020202020202020202AD
:108BA800020202020202020210101010200000004D
:108BB80000000000000000000000000000000000AD
:108BC800000000000000000000000000000000009D
:108BD800000000000000000000000000000000008D
:108BE800000000000000000000000000000000007D
:108BF800000000000000000000000000000000006D
:108C0800000000000000000000000000000000005C
:108C1800000000000000000000000000000000004C
:108C2800000000000000000000000000000000003C
:088C38005C7FFF7F01000000DA
:088C4000292900083501000894
:048C4800110100080E
:108C4C0068656C6C302C7561727420444D410D0A52
:108C5C000000000000000000000000000000000008
:108C6C0000000000000000000000000000000000F8
:108C7C0000000000000000000000000000000000E8
:108C8C0000000000000000000000000000000000D8
:108C9C0000000000000000000000000000000000C8
:108CAC00000000000024F40001000000100000008F
:108CBC007800002000000000000000006403002089
:108CCC00CC03002034040020000000000000000051
:108CDC000000000000000000000000000000000088
:108CEC000000000000000000000000000000000078
:108CFC000000000000000000000000000000000068
:108D0C000000000000000000000000000000000057
:108D1C000000000000000000000000000000000047
:108D2C000000000000000000000000000000000037
:108D3C000000000000000000000000000000000027
:108D4C000000000000000000000000000000000017
:108D5C000000000000000000000000000000000007
:108D6C0001000000000000000E33CDAB34126DE6A4
:108D7C00ECDE05000B00000000000000000000000D
:108D8C0000000000000000000000000000000000D7
:108D9C0000000000000000000000000000000000C7
:108DAC0000000000000000000000000000000000B7
:108DBC0000000000000000000000000000000000A7
:1090EC00AC0B00200000000000000000A4040020D5
:1090FC00A4040020AC040020AC040020B404002024
:10910C00B4040020BC040020BC040020C4040020D3
:10911C00C4040020CC040020CC040020D404002083
:10912C00D4040020DC040020DC040020E404002033
:10913C00E4040020EC040020EC040020F4040020E3
:10914C00F4040020FC040020FC0400200405002092
:10915C00040500200C0500200C050020140500203F
:10916C00140500201C0500201C05002024050020EF
:10917C00240500202C0500202C050020340500209F
:10918C00340500203C0500203C050020440500204F
:10919C00440500204C0500204C05002054050020FF
:1091AC00540500205C0500205C05002064050020AF
:1091BC00640500206C0500206C050020740500205F
:1091CC00740500207C0500207C050020840500200F
:1091DC00840500208C0500208C05002094050020BF
:1091EC00940500209C0500209C050020A40500206F
:1091FC00A4050020AC050020AC050020B40500201F
:10920C00B4050020BC050020BC050020C4050020CE
:10921C00C4050020CC050020CC050020D40500207E
:10922C00D4050020DC050020DC050020E40500202E
:10923C00E4050020EC050020EC050020F4050020DE
:10924C00F4050020FC050020FC050020040600208D
:10925C00040600200C0600200C060020140600203A
:10926C00140600201C0600201C06002024060020EA
:10927C00240600202C0600202C060020340600209A
:10928C00340600203C0600203C060020440600204A
:10929C00440600204C0600204C06002054060020FA
:1092AC00540600205C0600205C06002064060020AA
:1092BC00640600206C0600206C060020740600205A
:1092CC00740600207C0600207C060020840600200A
:1092DC00840600208C0600208C06002094060020BA
:1092EC00940600209C0600209C060020A40600206A
:1092FC00A4060020AC060020AC060020B40600201A
:10930C00B4060020BC060020BC060020C4060020C9
:10931C00C4060020CC060020CC060020D406002079
:10932C00D4060020DC060020DC060020E406002029
:10933C00E4060020EC060020EC060020F4060020D9
:10934C00F4060020FC060020FC0600200407002088
:10935C00040700200C0700200C0700201407002035
:10936C00140700201C0700201C07002024070020E5
:10937C00240700202C0700202C0700203407002095
:10938C00340700203C0700203C0700204407002045
:10939C00440700204C0700204C07002054070020F5
:1093AC00540700205C0700205C07002064070020A5
:1093BC00640700206C0700206C0700207407002055
:1093CC00740700207C0700207C0700208407002005
:1093DC00840700208C0700208C07002094070020B5
:1093EC00940700209C0700209C070020A407002065
:1093FC00A4070020AC070020AC070020B407002015
:10940C00B4070020BC070020BC070020C4070020C4
:10941C00C4070020CC070020CC070020D407002074
:10942C00D4070020DC070020DC070020E407002024
:10943C00E4070020EC070020EC070020F4070020D4
:10944C00F4070020FC070020FC0700200408002083
:10945C00040800200C0800200C0800201408002030
:10946C00140800201C0800201C08002024080020E0
:10947C00240800202C0800202C0800203408002090
:10948C00340800203C0800203C0800204408002040
:10949C00440800204C0800204C08002054080020F0
:1094AC00540800205C0800205C08002064080020A0
:1094BC00640800206C0800206C0800207408002050
:1094CC00740800207C0800207C0800208408002000
:1094DC00840800208C0800208C08002094080020B0
:1094EC00940800209C0800209C080020FFFFFFFF30
:1094FC00000002004300000000000000000000001B
:10950C00000000000000000000000000000000004F
:10951C0000000000430000000000000000000000FC
:10952C00000000000000000000000000000000002F
:10953C0000000000430000000000000000000000DC
:10954C00000000000000000000000000000000000F
:10955C0000000000430000000000000000000000BC
:10956C0000000000000000000000000000000000EF
:10957C00000000004300000000000000000000009C
:10958C0000000000000000000000000000000000CF
:10959C00000000004300000000000000000000007C
:1095AC0000000000000000000000000000000000AF
:1095BC00000000004300000000000000000000005C
:1095CC00000000000000000000000000000000008F
:1095DC0000000000717B0008DD670008000000003F
:1095EC00348B0008108B0008488800084888000855
:1095FC0048880008488800084888000848880008FF
:10960C00488800084888000848880008FFFFFFFFCA
:10961C00FFFFFFFFFFFFFFFFFFFF000001004153B3
:10962C004349490000000000000000000000000059
:10963C00000000000000000000000000000041538A
:10964C004349490000000000000000000000000039
:10965C0000000000000000000000000000000000FE
:04000005080012E1FC
:00000001FF
